:101578001200037F007EF81214D67FE87E0312154E
:10158800A77FE07E071214D67FE87E031215A77F97
:0F1598001F7E001214D67FE87E031215A780D4A1
:1015A700E4FDFCC3ED9FEE6480F8EC648098501571
:1015B700E4FBFA0BBB00010ABA03F8BBE8F50DBD63
:0515C70000010C80DEB4
:0115CC0022FC
:1015CD00E4FDFCC3ED9FEE6480F8EC64809850154B
:1015DD00E4FBFA0BBB00010AEB64014A70F50DBD8B
:0515ED0000010C80DE8E
:0115F20022D6
:030000000213D810
:0C13D800787FE4F6D8FD75812202141F16
:0816630002080000020AFFFF6B
:0D164000C293C2918FA08DB0D291D293229F
:101531007F007EF012156D7F557E001216157F011A
:101541007EF012156D7FAA7E001216157F027EF0C5
:1015510012156D7F527E001216157F037EF0121553
:0C1561006D7F087E001216157F047EF0DE
:0B156D00AD07AC06C292AF04021640AE
:09160C007ED112156D7F037E00F2
:0B161500AD07AC06D292AF04021640F5
:0B164D00AD07AC06D292AF04021640BD
:0E163200AB05AA0412156DAF03AE0202161529
:07166C00AF14AE1302156D6F
:0414D6008E198F1AC2
:1014DA00E50D24FFFBE50C34FFFAE50F24FFF522A6
:1014EA00E50E34FFF521E4FDFCFFFE12133CD29217
:1014FA00C293E4FDFCC3ED950FEC950E5026E4FB78
:10150A00FAC3EB950DEA950C5013C291E519F5A0B3
:10151A00E51AF5B0D2910BBB00010A80E40DBD00BB
:06152A00010C80D1D293F8
:011530002298
:10162000AB07AA068C218D2212133CAF09AE08022B
:02163000164D55
:1015F3007F327E001215A7C2947F327E001215A798
:09160300D2947F327E000215A78B
:100003007F327E001215A71215F31215317F017E80
:10001300001216157F007EB612156D7F347E001216
:1000230016157F017EB612156D7F347E00121615EC
:100033007F027EB612156D7F347E001216157F0087
:100043007EB012156D7F0D7E001216157F017EB0F6
:1000530012156D7F0D7E001216157F027EB01215EC
:100063006D7F0D7E001216157F007EB712156D7F12
:10007300247E001216157F017EB712156D7F247E34
:10008300001216157F027EB712156D7F247E0012B3
:1000930016157F007EB112156D7F0D7E00121615A9
:1000A3007F017EB112156D7F0D7E001216157F0242
:1000B3007EB112156D7F0D7E001216157F007EB87E
:1000C30012156D7F247E001216157F017EB812155E
:1000D3006D7F247E001216157F027EB812156D7F88
:1000E300247E001216157F007EB212156DE4FFFE0A
:1000F3001216157F007EB912156D7F247E0012162D
:10010300157F017EB912156D7F247E001216157FAF
:10011300027EB912156D7F247E001216157F007EB4
:10012300B312156D7F057E001216157F017EB31283
:10013300156D7F057E001216157F027EB312156DB5
:100143007F057E001216157F007EBA12156D7F346F
:100153007E001216157F017EBA12156D7F347E0064
:100163001216157F027EBA12156D7F347E001216A9
:10017300157F007EB512156D7F0B7E001216157F5D
:10018300017EB512156D7F0B7E001216157F027E60
:10019300B512156D7F0B7E001216157F007EBC1203
:1001A300156DE4FFFE1216157F017EBC12156D7FDF
:1001B300A37E001216157F027EBC12156DE4FFFEAE
:1001C3001216157F007EBD12156DE4FFFE12161583
:1001D3007F017EBD12156D7FA37E001216157F026F
:1001E3007EBD12156DE4FFFE1216157F007EBE1252
:1001F300156DE4FFFE1216157F017EBE12156D7F8D
:10020300637E001216157F007ED112156DE4FFFE8A
:100213001216157F017ED112156D7F377E001216DF
:10022300157F027ED112156DE4FFFE1216157F03B2
:100233007ED112156D7F527E001216157F047ED17A
:1002430012156DE4FFFE1216157F057ED112156D92
:100253007F7B7E001216157F067ED112156DE4FF9B
:10026300FE1216157F077ED112156D7F997E00123F
:1002730016157F087ED112156DE4FFFE1216157F49
:10028300097ED112156D7FB17E001216157F0A7E8D
:10029300D112156DE4FFFE1216157F0B7ED11215D8
:1002A3006D7FD27E001216157F0C7ED112156DE480
:1002B300FFFE1216157F0D7ED112156D7FF67E009F
:1002C3001216157F0E7ED112156D7F017E00121658
:1002D300157F0F7ED112156D7F277E001216157FB5
:1002E300107ED112156D7F017E001216157F117ECF
:1002F300D112156D7F4E7E001216157F127ED1121C
:10030300156D7F017E001216157F137ED112156DB8
:100313007F8C7E001216157F147ED112156D7F011E
:100323007E001216157F157ED112156D7FBE7E00DD
:100333001216157F167ED112156D7F027E001216DE
:10034300157F177ED112156D7F0B7E001216157F58
:10035300187ED112156D7F027E001216157F197E4D
:10036300D112156D7F487E001216157F1A7ED112A9
:10037300156D7F027E001216157F1B7ED112156D3F
:100383007F4A7E001216157F1C7ED112156D7F02E7
:100393007E001216157F1D7ED112156D7F7E7E00A5
:1003A3001216157F1E7ED112156D7F027E00121666
:1003B300157F1F7ED112156D7FBC7E001216157F2F
:1003C300207ED112156D7F027E001216157F217ECD
:1003D300D112156D7FE17E001216157F2212160CC5
:1003E3007F237ED112156D7F107E001216157F2498
:1003F30012160C7F257ED112156D7F317E001216E9
:10040300157F2612160C7F277ED112156D7F5A7E1B
:10041300001216157F2812160C7F297ED112156D36
:100423007F737E001216157F2A12160C7F2B7ED146
:1004330012156D7F947E001216157F2C12160C7FF9
:100443002D7ED112156D7F9F7E001216157F2E1201
:10045300160C7F2F7ED112156D7FB37E00121615F9
:100463007F3012160C7F317ED112156D7FB97E005D
:100473001216157F3212160C7F337ED112156D7F43
:10048300C17E001216157F007ED212156DE4FFFEA9
:100493001216157F017ED212156D7F377E0012165C
:1004A300157F027ED212156DE4FFFE1216157F032F
:1004B3007ED212156D7F527E001216157F047ED2F6
:1004C30012156DE4FFFE1216157F057ED212156D0F
:1004D3007F7B7E001216157F067ED212156DE4FF18
:1004E300FE1216157F077ED212156D7F997E0012BC
:1004F30016157F087ED212156DE4FFFE1216157FC6
:10050300097ED212156D7FB17E001216157F0A7E09
:10051300D212156DE4FFFE1216157F0B7ED2121553
:100523006D7FD27E001216157F0C7ED212156DE4FC
:10053300FFFE1216157F0D7ED212156D7FF67E001B
:100543001216157F0E7ED212156D7F017E001216D4
:10055300157F0F7ED212156D7F277E001216157F31
:10056300107ED212156D7F017E001216157F117E4B
:10057300D212156D7F4E7E001216157F127ED21297
:10058300156D7F017E001216157F137ED212156D35
:100593007F8C7E001216157F147ED212156D7F019B
:1005A3007E001216157F157ED212156D7FBE7E005A
:1005B3001216157F167ED212156D7F027E0012165B
:1005C300157F177ED212156D7F0B7E001216157FD5
:1005D300187ED212156D7F027E001216157F197ECA
:1005E300D212156D7F487E001216157F1A7ED21225
:1005F300156D7F027E001216157F1B7ED212156DBC
:100603007F4A7E001216157F1C7ED212156D7F0263
:100613007E001216157F1D7ED212156D7F7E7E0021
:100623001216157F1E7ED212156D7F027E001216E2
:10063300157F1F7ED212156D7FBC7E001216157FAB
:10064300207ED212156D7F027E001216157F217E49
:10065300D212156D7FE17E001216157F227ED21213
:10066300160E7F237ED212156D7F107E0012161593
:100673007F247ED212160E7F257ED212156D7F3116
:100683007E001216157F267ED212160E7F277ED28B
:1006930012156D7F5A7E001216157F287ED2121610
:1006A3000E7F297ED212156D7F737E001216157F81
:1006B3002A7ED212160E7F2B7ED212156D7F947E68
:1006C300001216157F2C7ED212160E7F2D7ED212AB
:1006D300156D7F9F7E001216157F2E7ED212160E89
:1006E3007F2F7ED212156D7FB37E001216157F30D9
:1006F3007ED212160E7F317ED212156D7FB97E0027
:100703001216157F327ED212160E7F337ED2121549
:100713006D7FC17E001216157F007ED312156DE426
:10072300FFFE1216157F017ED312156D7F377E00F3
:100733001216157F027ED312156DE4FFFE121615F5
:100743007F037ED312156D7F527E001216157F0430
:100753007ED312156DE4FFFE1216157F057ED312AC
:10076300156D7F7B7E001216157F067ED312156DE5
:10077300E4FFFE1216157F077ED312156D7F997E57
:10078300001216157F087ED312156DE4FFFE1216B4
:10079300157F097ED312156D7FB17E001216157F6A
:1007A3000A7ED312156DE4FFFE1216157F0B7ED35E
:1007B30012156D7FD27E001216157F0C7ED3121593
:1007C3006DE4FFFE1216157F0D7ED312156D7FF6B5
:1007D3007E001216157F0E7ED312156D7F017E00EB
:1007E3001216157F0F7ED312156D7F277E0012160A
:1007F300157F107ED312156D7F017E001216157FB3
:10080300117ED312156D7F4E7E001216157F127E58
:10081300D312156D7F017E001216157F137ED3123E
:10082300156D7F8C7E001216157F147ED312156D05
:100833007F017E001216157F157ED312156D7FBEC4
:100843007E001216157F167ED312156D7F027E0071
:100853001216157F177ED312156D7F0B7E001216AD
:10086300157F187ED312156D7F027E001216157F39
:10087300197ED312156D7F487E001216157F1A7EDE
:10088300D312156D7F027E001216157F1B7ED312C5
:10089300156D7F4A7E001216157F1C7ED312156DCF
:1008A3007F027E001216157F1D7ED312156D7F7E8B
:1008B3007E001216157F1E7ED312156D7F027E00F9
:1008C3001216157F1F7ED312156D7FBC7E00121684
:1008D300157F207ED312156D7F027E001216157FC1
:1008E300217ED312156D7FE17E001216157F227EC5
:1008F300D312160E7F237ED312156D7F107E001246
:1009030016157F247ED312160E7F257ED312156D06
:100913007F317E001216157F267ED312160E7F2797
:100923007ED312156D7F5A7E001216157F287ED353
:1009330012160E7F297ED312156D7F737E00121659
:10094300157F2A7ED312160E7F2B7ED312156D7F51
:10095300947E001216157F2C7ED312160E7F2D7EE9
:10096300D312156D7F9F7E001216157F2E7ED31234
:10097300160E7F2F7ED312156D7FB37E00121615D0
:100983007F307ED312160E7F317ED312156D7FB961
:100993007E001216157F327ED312160E7F337ED35E
:1009A30012156D7FC17E001216157F007ED41215BD
:1009B3006DE4FFFE1216157F017ED412156D7F378D
:1009C3007E001216157F027ED412156DE4FFFE120F
:1009D30016157F037ED412156D7F527E00121615F5
:1009E3007F047ED412156DE4FFFE1216157F057E7B
:1009F300D412156D7F7B7E001216157F067ED412EE
:100A0300156DE4FFFE1216157F077ED412156D7F58
:100A1300997E001216157F087ED412156DE4FFFE31
:100A23001216157F097ED412156D7FB17E00121642
:100A3300157F0A7ED412156DE4FFFE1216157F0B87
:100A43007ED412156D7FD27E001216157F0C7ED4D4
:100A530012156DE4FFFE1216157F0D7ED412156D6F
:100A63007FF67E001216157F0E7ED412156D7F0160
:100A73007E001216157F0F7ED412156D7F277E0020
:100A83001216157F107ED412156D7F017E0012168B
:100A9300157F117ED412156D7F4E7E001216157FC1
:100AA300127ED412156D7F017E001216157F137E00
:100AB300D412156D7F8C7E001216157F147ED4120E
:100AC300156D7F017E001216157F157ED412156DEC
:100AD3007FBE7E001216157F167ED412156D7F021F
:100AE3007E001216157F177ED412156D7F0B7E00C4
:100AF3001216157F187ED412156D7F027E00121612
:100B0300157F197ED412156D7F487E001216157F4E
:100B13001A7ED412156D7F027E001216157F1B7E7E
:100B2300D412156D7F4A7E001216157F1C7ED412D7
:100B3300156D7F027E001216157F1D7ED412156D72
:100B43007F7E7E001216157F1E7ED412156D7F02E6
:100B53007E001216157F1F7ED412156D7FBC7E009A
:100B63001216157F207ED412156D7F027E00121699
:100B7300157F217ED412156D7FE17E001216157F3D
:100B8300227ED412160E7F237ED412156D7F107E23
:100B9300001216157F247ED412160E7F257ED412E2
:100BA300156D7F317E001216157F267ED412160E28
:100BB3007F277ED412156D7F5A7E001216157F286B
:100BC3007ED412160E7F297ED412156D7F737E009C
:100BD3001216157F2A7ED412160E7F2B7ED4121581
:100BE3006D7F947E001216157F2C7ED412160E7F15
:100BF3002D7ED412156D7F9F7E001216157F2E7EDB
:100C0300D412160E7F2F7ED412156D7FB37E001281
:100C130016157F307ED412160E7F317ED412156DD9
:100C23007FB97E001216157F327ED412160E7F33E3
:100C33007ED412156D7FC17E001216157F007ED5FE
:100C430012156DE4FFFE1216157F017ED512156D88
:100C53007F377E001216157F027ED512156DE4FFD5
:100C6300FE1216157F037ED512156D7F527E00127C
:100C730016157F047ED512156DE4FFFE1216157F3F
:100C8300057ED512156D7F7B7E001216157F067EBD
:100C9300D512156DE4FFFE1216157F077ED51215CA
:100CA3006D7F997E001216157F087ED512156DE4AF
:100CB300FFFE1216157F097ED512156D7FB17E00DA
:100CC3001216157F0A7ED512156DE4FFFE12161556
:100CD3007F0B7ED512156D7FD27E001216157F0C09
:100CE3007ED512156DE4FFFE1216157F0D7ED5120B
:100CF300156D7FF67E001216157F0E7ED512156DCB
:100D03007F017E001216157F0F7ED512156D7F278A
:100D13007E001216157F107ED512156D7F017E00A1
:100D23001216157F117ED512156D7F4E7E00121699
:100D3300157F127ED512156D7F017E001216157F69
:100D4300137ED512156D7F8C7E001216157F147ECF
:100D5300D512156D7F017E001216157F157ED512F3
:100D6300156D7FBE7E001216157F167ED512156D8A
:100D73007F027E001216157F177ED512156D7F0B2D
:100D83007E001216157F187ED512156D7F027E0028
:100D93001216157F197ED512156D7F487E00121627
:100DA300157F1A7ED512156D7F027E001216157FF0
:100DB3001B7ED512156D7F4A7E001216157F1C7E91
:100DC300D512156D7F027E001216157F1D7ED5127A
:100DD300156D7F7E7E001216157F1E7ED512156D52
:100DE3007F027E001216157F1F7ED512156D7FBC04
:100DF3007E001216157F207ED512156D7F027E00B0
:100E03001216157F217ED512156D7FE17E00121615
:100E1300157F227ED512160E7F237ED512156D7F88
:100E2300107E001216157F247ED512160E7F257EA6
:100E3300D512156D7F317E001216157F267ED512D1
:100E4300160E7F277ED512156D7F5A7E001216155A
:100E53007F287ED512160E7F297ED512156D7F73DE
:100E63007E001216157F2A7ED512160E7F2B7ED595
:100E730012156D7F947E001216157F2C7ED51216E7
:100E83000E7F2D7ED512156D7F9F7E001216157F66
:100E93002E7ED512160E7F2F7ED512156D7FB37E53
:100EA300001216157F307ED512160E7F317ED512B5
:100EB300156D7FB97E001216157F327ED512160E80
:100EC3007F337ED512156D7FC17E001216157F000C
:100ED3007ED612156DE4FFFE1216157F017ED61223
:100EE300156D7F377E001216157F027ED612156DA3
:100EF300E4FFFE1216157F037ED612156D7F527E18
:100F0300001216157F047ED612156DE4FFFE12162D
:100F1300157F057ED612156D7F7B7E001216157F19
:100F2300067ED612156DE4FFFE1216157F077ED6D8
:100F330012156D7F997E001216157F087ED6121545
:100F43006DE4FFFE1216157F097ED612156D7FB173
:100F53007E001216157F0A7ED612156DE4FFFE126F
:100F630016157F0B7ED612156D7FD27E00121615D5
:100F73007F0C7ED612156DE4FFFE1216157F0D7ED3
:100F8300D612156D7FF67E001216157F0E7ED612D1
:100F9300156D7F017E001216157F0F7ED612156D1B
:100FA3007F277E001216157F107ED612156D7F01E6
:100FB3007E001216157F117ED612156D7F4E7E00B0
:100FC3001216157F127ED612156D7F017E00121642
:100FD300157F137ED612156D7F8C7E001216157F3A
:100FE300147ED612156D7F017E001216157F157EB5
:100FF300D612156D7FBE7E001216157F167ED61291
:10100300156D7F027E001216157F177ED612156DA1
:101013007F0B7E001216157F187ED612156D7F0288
:101023007E001216157F197ED612156D7F487E003D
:101033001216157F1A7ED612156D7F027E001216C8
:10104300157F1B7ED612156D7F4A7E001216157F03
:101053001C7ED612156D7F027E001216157F1D7E33
:10106300D612156D7F7E7E001216157F1E7ED61258
:10107300156D7F027E001216157F1F7ED612156D29
:101083007FBC7E001216157F207ED612156D7F025F
:101093007E001216157F217ED612156D7FE17E002C
:1010A3001216157F227ED612160E7F237ED61215B8
:1010B3006D7F107E001216157F247ED612160E7FCA
:1010C300257ED612156D7F317E001216157F267E82
:1010D300D612160E7F277ED612156D7F5A7E00120A
:1010E30016157F287ED612160E7F297ED612156D11
:1010F3007F737E001216157F2A7ED612160E7F2B63
:101103007ED612156D7F947E001216157F2C7ED627
:1011130012160E7F2D7ED612156D7F9F7E0012163E
:10112300157F2E7ED612160E7F2F7ED612156D7F5B
:10113300B37E001216157F307ED612160E7F317ED7
:10114300D612156D7FB97E001216157F327ED61228
:10115300160E7F337ED612156D7FC17E00121615D3
:10116300121531E4FFFE1216157F007EB012156DC5
:101173007F087E001216157F017EB012156D7F0564
:101183007E001216157F027EB012156D7F027E005F
:101193001216157F037EB012156D7F057E001216A1
:1011A300157F047EB012156D7F027E001216157F27
:1011B300007EB612156D7F087E001216157F007E25
:1011C300B512156D7F507E001216157F007EB71283
:1011D300156DE4FFFE1216157F017EB712156DE43F
:1011E300FFFE1216157F007EB812156D7F017E007B
:1011F3001216157F017EB812156D7F057E0012163B
:10120300157F027EB812156D7F057E001216157FBD
:10121300037EB812156D7F057E001216157F007EC2
:10122300BC12156DE4FFFE1216157F017EBC12156C
:101233006DE4FFFE1216157F027EBC12156DE4FFEE
:10124300FE1216157F007ECC12160E7F017ECC1285
:10125300156DE4FFFE1216157F027ECC12156DE4A8
:10126300FFFE1216157F007EBD12156D7F017E00F5
:101273001216157F017EBD12156D7F847E00121636
:10128300157F027EBD12156D7F077E001216157F36
:10129300037EBD12156D7F317E001216157F047E0D
:1012A300BD12156DE4FFFE1216157F007EBA1215EE
:1012B3006D7F017E001216157F007EFF12156D7F74
:1012C300AA7E001216157F017EFF12156D7F557ED3
:1012D300001216157F027EFF12156D7F257E001208
:1012E30016157F037EFF12156D7F017E0012161502
:1012F3007F007E3512156DE4FFFE1216157F007E0A
:101303003612156DE4FFFE1216157F007E3A121594
:101313006D7F557E001216157F007E1112156D7FAD
:10132300787E001215A77F007E2912156D7F007E3F
:091333002C12156DE4FF02146494
:10133C008E1B8F1C8D828C83AF16AE1512156DE52E
:10134C001BFF7E00121615E5162401FFE43515FE71
:10135C0012156D7E00AF1C121615E5162402FFE463
:10136C003515FE12156DEAFF7E00121615E51624D2
:10137C0003FFE43515FE12156D7E00AF0312161532
:10138C00AF18AE1712156DE583FF7E00121615E52A
:10139C00182401FFE43517FE12156D7E00AF821282
:1013AC001615E5182402FFE43517FE12156DE5211C
:1013BC00FF7E00121615E5182403FFE43517FE1204
:0C13CC00156D7E00AF2212161502166C83
:0B165800AB07AA068C218D2202133C78
:1014640075152A75160075172B75180075132C75CC
:101474001400EF14601C14602D14603E240370519A
:10148400750C01750DE0750E03750F20E4FDFCFF6E
:10149400803A750C03750D20750E01750FE07D60A3
:1014A4007C007F008026750C01750DE0750E0375B8
:1014B4000F207DC07C007F008012750C03750D2009
:1014C400750E01750FE07DA07C007F007E3612163C
:0214D4003222C2
:1013E400021578E493A3F8E493A34003F68001F292
:1013F40008DFF48029E493A3F85407240CC8C3330A
:10140400C4540F4420C8834004F456800146F6DFD8
:10141400E4800B0102040810204080901663E47EEF
:10142400019360BCA3FF543F30E509541FFEE493CD
:10143400A360010ECF54C025E060A840B8E493A394
:10144400FAE493A3F8E493A3C8C582C8CAC583CABF
:10145400F0A3C8C582C8CAC583CADFE9DEE780BE77
:01166B00007E
:00000001FF
