:020000040800F2
:100000004808002471030008614600080D25000817
:100010007D030008CB05000889650008000000008A
:10002000000000000000000000000000C5490008BA
:10003000E10600080000000063460008CD4B000800
:100040008B0300088B0300088B0300088B03000858
:100050008B0300088B0300088B0300088B03000848
:100060008B0300088B0300088B0300088B03000838
:100070008B0300088B0300088B0300088B03000828
:100080008B0300088B0300088B0300088B03000818
:100090008B0300088B0300088B0300088B03000808
:1000A0008B0300088B0300088B0300088B030008F8
:1000B0008B0300088B0300088B0300088B030008E8
:1000C0008B0300088B0300088B0300088B030008D8
:1000D0008B0300088B0300088B0300088B030008C8
:1000E0008B0300088B030008000000008B0300084E
:1000F0008B0300088B0300088B0300088B030008A8
:100100008B0300088B0300088B0300088B03000897
:100110008B0300088B0300088B0300088B03000887
:100120008B0300088B0300088B0300088B03000877
:100130008B0300088B0300088B0300088B03000867
:1001400000000000000000000000000000000000AF
:100150008B0300088B0300088B0300088B03000847
:100160008B0300088B0300088B0300088B03000837
:100170008B0300088B0300088B03000800000000BD
:100180008B0300088B0300088B0300088B03000817
:100190008B0300088B0300088B0300088B03000807
:1001A0008B0300088B0300088B0300088B030008F7
:1001B0008B0300088B0300088B0300088B030008E7
:1001C0008B0300088B0300088B0300088B030008D7
:1001D0008B0300088B0300088B0300088B030008C7
:1001E0008B0300088B0300088B0300088B030008B7
:1001F0008B0300088B0300088B0300088B030008A7
:100200008B0300088B0300088B0300088B03000896
:100210008B0300088B0300088B0300088B03000886
:100220008B0300088B0300088B030008000000000C
:100230008B0300088B030008000000008B030008FC
:100240008B0300088B0300088B0300088B03000856
:100250008B0300088B0300088B0300088B03000846
:100260008B0300088B0300088B0300088B03000836
:100270008B0300088B0300088B03000800000000BC
:100280008B030008000000008B0300080000000042
:10029000000000008B03000800F002F800F03EF8B8
:1002A0000AA090E8000C82448344AAF10107DA45D1
:1002B00001D100F033F8AFF2090EBAE80F0013F0E5
:1002C000010F18BFFB1A43F001031847548C0000BC
:1002D000748C0000103A24BF78C878C1FAD852074D
:1002E00024BF30C830C144BF04680C6070470000B0
:1002F0000023002400250026103A28BF78C1FBD82F
:10030000520728BF30C148BF0B6070471FB506F0C9
:10031000FEFA00F062F81FBD10B510BD00F09CF8A9
:100320001146FFF7F3FF06F04EFA00F0BAF803B4F7
:10033000FFF7F2FF03BC00F0BFF800000B49D1F853
:1003400000C04A685CF8043B1068184442F8040B8B
:100350008C4528BFA1F1DC0C8A4228BFA1F1DC0248
:10036000C1F800C04A6020F000407047DC01002462
:100370000948804709480047FEE7FEE7FEE7FEE739
:10038000FEE7FEE7FEE7FEE7FEE7FEE70448054975
:10039000054A064B70470000D54B0008990200083B
:1003A000480200244808002448040024480400248B
:1003B0000B4910B5A1F17C020A4CC2E93712372172
:1003C00006E000EB104342F82130074B00FB0340EE
:1003D0000B1EA1F10101F4DC10BD0120E8E70000D3
:1003E0007C010024E119D666CD0D010010B5431C37
:1003F00002E010F8011B71B18107FAD14FF0013210
:1004000002C88C1A8C4314EAC211F9D0C01A0A0629
:1004100003D0C01E10BDC01A10BD0A0401D0801E3A
:1004200010BD0902FCD0401E10BD704770477047D8
:1004300010B500F009F8006810BD10B5044600F0D2
:1004400003F8046010BD000000487047E401002478
:1004500000487047E40100247546FFF7F9FFAE46F7
:1004600005006946534620F00700854618B020B5C0
:10047000FFF78CFFBDE820404FF000064FF000076B
:100480004FF000084FF0000B21F00701AC46ACE83C
:10049000C009ACE8C009ACE8C009ACE8C0098D46A9
:1004A000704710B50446AFF300802046BDE8104009
:1004B000FFF73DBF7047000001491820ABBEFEE7C3
:1004C0002600020010B502F04DF810BD2DE9F041F4
:1004D00007460C460026002509E036023919491B5B
:1004E000491E88B200F008F80644681CC5B2A5424F
:1004F000F3DB3046BDE8F08170B50446002602F01B
:10050000FBF82546E11704EB11610912A02202EB6A
:100510004101C8B202F0B2F802F042F9E11704EB6F
:1005200011610912A4EB0121C8B202F0A7F802F090
:1005300037F902F0E1F8A12002F0A0F802F030F95A
:10054000002002F065F8064602F000F9304670BD62
:100550002DE9F04105460E461746002409E0E20069
:1005600026FA02F2D1B22A1990B200F006F8601C05
:10057000C4B2BC42F3DBBDE8F08170B504460E4660
:1005800002F0BAF82546E11704EB11610912A02226
:1005900002EB4101C8B202F071F802F001F9E11773
:1005A00004EB11610912A4EB0121C8B202F066F854
:1005B00002F0F6F8304602F061F802F0F1F802F0CD
:1005C000C5F80A2006F082F870BD00BFFEE7000003
:1005D00010B504F037F904F0E7F80348006840F07C
:1005E00004000149086010BD9CEF00E00EB51EA09C
:1005F00000F078F80020102120A24FF6E073CDE93A
:10060000002102901F221E210A2004F0DDF90020A3
:10061000102123A24FF6E073CDE9002102901F22A2
:1006200032210A2004F0D0F90120182122A24FF62D
:10063000E073CDE9002102901F2246210A2004F038
:10064000C3F90120202122A24FF6E073CDE9002159
:1006500002901F2264210A2004F0B6F94FF496603C
:1006600006F034F80EBD0000B2E2CAD4363AD6D055
:10067000CEC4CFD4CABEB2E2CAD40000313658319B
:10068000363AC8ABB6AFB5E7D7D3BCBCCAF5D3D002
:10069000CFDEB9ABCBBEBBB6D3ADC4FA0000000011
:1006A00031365831363A57656C636F6D65C8ABB6F5
:1006B000AFB5E7D7D300000032345832343AC9EE30
:1006C000DBDACAD0D6D0CEC4B2E2CAD40000000071
:1006D00033325833323AD7D6CCE5B2E2CAD400002E
:1006E000704700003EB504464FF6FF70234908806E
:1006F0001F2000902248028814230021084602F09F
:10070000F7F9012010211F234FF6FF72CDE90041B8
:1007100002900221002000F049FD1F20009018489F
:100720004088401E83B216480088401E82B214489A
:100730004088143881B2002002F0DAF9012010213B
:1007400010A2CDE9002102900D484088123881B2F4
:100750001F234FF6FF72002000F028FD4FF6FF70B8
:10076000009007484088153883B205480088401E2D
:1007700082B21521002002F0BBF93EBD34000024F6
:10078000BC000024687474703A2F2F7777772E6C32
:10079000636477696B692E636F6D00002DE9F04724
:1007A00004460D4616461F46DDE908893B4632469B
:1007B0002946204602F016F94B4642463946304655
:1007C00002F010F92B4622464946404602F00AF94B
:1007D000BDE8F0870EB52BA0FFF784FF00200C21A9
:1007E0002DA24FF6E073CDE9002102901F221E21B9
:1007F0000A2004F0E9F801200C2132A24FF6E07340
:10080000CDE9002102901F222D210A2004F0DCF8FE
:1008100000200C2136A24FF6E073CDE900210290B2
:100820001F223C210A2004F0CFF80020102138A21A
:100830004FF6E073CDE9002102901F2250210A20DB
:1008400004F0C2F8012010213CA24FF6E073CDE97C
:10085000002102901F2264210A2004F0B5F8002034
:10086000102141A24FF6E073CDE9002102901F2232
:1008700078210A2004F0A8F84FF4966005F026FFCE
:100880000EBD0000B2E2CAD4353AD3A2CEC4CFD452
:10089000CABEB2E2CAD40000365831323A6162634D
:1008A0006465666768696A6B6C6D6E6F7071727390
:1008B0007475767778797A30313233343536373823
:1008C00039000000365831323A41424344454647E8
:1008D00048494A4B4C4D4E4F505152535455565720
:1008E00058595A30313233343536373839000000F0
:1008F000365831323A7E21402324255E262A282983
:100900005F2B7B7D3A3C3E3F2F7C2D2B2E00000041
:10091000385831363A6162636465666768696A6B44
:100920006C6D6E6F707172737475767778797A30DA
:1009300031323334353637383900000038583136E3
:100940003A4142434445464748494A4B4C4D4E4F35
:10095000505152535455565758595A3031323334F6
:100960003536373839000000385831363A7E214064
:100970002324255E262A28295F2B7B7D3A3C3E3F97
:100980002F7C2D2B2E00000070B504461D46002341
:10099000B5F5804F13D154F822300C480340D1E90B
:1009A000000640EA06108E6840EA06208E8940EA7A
:1009B00006408E693043034344F8223003E06FF071
:1009C000704044F82200002070BD00000000F0CF0D
:1009D00010B502460023086852F820301B48034037
:1009E000D1E901042043CC6820430C6920434C69C1
:1009F00020438C692043CC6920430C6A20434C6A15
:100A000020438C6A2043CC6A20430C6B20438C6BC0
:100A100020434C6B204303438868082801D143F0EE
:100A20004003086842F82030086BB0F5801F05D1FC
:100A3000086818B110680C6B20431060086818B182
:100A400010684C6B20431060002010BD8004C0FF74
:100A500030B5034614460022601C53F8202002F0F3
:100A60004042D1E9000540EA05108D6840EA0520C2
:100A70008D8940EA0545088A401E45EA0055087DF3
:100A8000801E45EA00608D6928430243601C43F8DC
:100A90002020186800F4801038B1586820F47002E3
:100AA000088A401E42EA00525A60002030BD30B52C
:100AB0000246002300240868012816D013686FF34B
:100AC0000E03D1E901052843CD6828430D69284369
:100AD0004D6928438D692843CD6928430D6A284311
:100AE0004D6A28430343136019E0136823F4F84365
:100AF000D1E9070528434D6A2843034354686FF33F
:100B00000E04D1E901052843CD6828430D69284327
:100B10004D6928438D6928430443136054600020C5
:100B200030BD0246506940EA4100506100207047E4
:100B300018B5034600200090D1E9000420438C68DA
:100B4000641E40EA4410CC6840EA442000900098BB
:100B50001861002018BD000070B50346154600223C
:100B60000024012D1FD09A6802F070420868401ED0
:100B70004E68761E40EA06168868401E46EA002641
:100B8000C868401E46EA0036088A401E46EA00460B
:100B9000888A401E46EA0056087E401E46EA0060EB
:100BA00002439A6022E09A6811480240C868401ED9
:100BB0000603888A401E46EA00500243DC6804F0BF
:100BC00070440868401E4E68761E40EA0616886823
:100BD000401E46EA0026088A401E46EA0046087E75
:100BE000401E46EA006004439A60DC60002070BD4D
:100BF000FF0F0FFF2DE9FF4F85B000260027BDF83E
:100C00001800BDF82010884207DD08A906A805F0E5
:100C10004EFD07A905A805F04AFDBDF82000BDF866
:100C20004C10884207DD08A913A805F040FD07A96C
:100C300012A805F03CFDBDF81800BDF82010884250
:100C400007DD08A906A805F032FD07A905A805F0EB
:100C50002EFDBDF81800BDF84C10884238D1BDF803
:100C6000140003900490BDF81C00BDF810108842D9
:100C700003DABDF81C00049008E0BDF81C00BDF8C4
:100C80000C10884202DDBDF81C000390BDF848003E
:100C9000BDF81010884203DABDF84800049008E05F
:100CA000BDF84800BDF80C10884202DDBDF84800D0
:100CB0000390534800880090BDF81830BDF80C2010
:100CC0001946BDF8100001F013FF09B0BDE8F08F20
:100CD000BDF81C00BDF81410A0EB010BBDF82000FE
:100CE000BDF81810401A0290BDF84800BDF8141065
:100CF000451ABDF84C00BDF81810A0EB0109BDF86D
:100D00004800BDF81C10A0EB010ABDF84C00BDF86E
:100D10002010401A0190BDF82000BDF84C10884208
:100D200002D1BDF8208004E0BDF82000401E1FFA6B
:100D300080F8BDF8184027E0029896FBF0F0BDF867
:100D40001410084480B2049097FBF9F0BDF8141019
:100D5000084480B203905E442F44BDF81000BDF8F3
:100D60000C10884203DD03A904A805F0A0FC244868
:100D7000008823460090BDF80C202146BDF81000E5
:100D800001F0B6FE601C84B24445D5DDBDF82000FC
:100D9000201A00FB0AF6BDF81800201A00FB05F720
:100DA00027E0019896FBF0F0BDF81C10084480B2D3
:100DB000049097FBF9F0BDF81410084480B203903A
:100DC00056442F44BDF81000BDF80C10884203DDD6
:100DD00003A904A805F06BFC09480088234600908D
:100DE000BDF80C202146BDF8100001F081FE601C0A
:100DF00084B2BDF84C008442D3DD00BF65E700003B
:100E0000340000242DE9FC5F0546884691469A4649
:100E1000DDF830B000954920019000245FE004EB3C
:100E20000410374911F810009BF80010884253D184
:100E300004EB0410324901EB400040789BF80110AC
:100E4000884249D108F10F0083B205F10F0082B248
:100E50004146284603F0E8F900263BE0002734E04D
:100E60000D9890B904EB0410254901EB4000801C5B
:100E7000805D80213941084018B1484603F0EAFB03
:100E800021E0504603F0E6FB1DE01E48A0F800906C
:100E900004EB04101A4901EB4000801C805D8021A6
:100EA0003941084018B14146284601F0F3FD681C5D
:100EB00085B20098281A102805D1009D08F101007C
:100EC0001FFA80F803E0781CC7B2082FC8DB00BF08
:100ED000701CC6B2202EC1DB00BF601C84B201981A
:100EE00084429CDB08484088401E83B20648008844
:100EF000401E82B20021084603F096F9BDE8FC9F2F
:100F0000AC73000834000024BC0000242DE9FC5F11
:100F10000546884691469A46DDF830B00095072090
:100F20000190002467E004EB840000EB44103A4990
:100F300011F810009BF80010884259D104EB84008E
:100F400000EB4410344901EB400040789BF801105D
:100F500088424DD108F1170083B205F1170082B223
:100F60004146284603F060F900263FE0002738E0BC
:100F70000D98A0B904EB840000EB4410264901EB66
:100F80004000801C805D80213941084018B14846EE
:100F900003F060FB23E0504603F05CFB1FE01F48BA
:100FA000A0F8009004EB840000EB44101A4901EB18
:100FB0004000801C805D80213941084018B14146C5
:100FC000284601F067FD681C85B20098281A182889
:100FD00005D1009D08F101001FFA80F803E0781C9C
:100FE000C7B2082FC4DB00BF701CC6B2482EBDDBE1
:100FF00000BF601C84B20198844294DB084840889A
:10100000401E83B206480088401E82B20021084676
:1010100003F00AF9BDE8FC9F5E7D0008340000245F
:10102000BC0000242DE9FC5F0546884691469A469F
:10103000DDF830B000950420019000245FE004EB5F
:101040008410374911F810009BF80010884253D1E2
:1010500004EB8410324901EB400040789BF801100A
:10106000884249D108F11F0083B205F11F0082B206
:101070004146284603F0D8F800263BE0002734E03C
:101080000D9890B904EB8410254901EB4000801CB9
:10109000805D80213941084018B1484603F0DAFAF2
:1010A00021E0504603F0D6FA1DE01E48A0F800905B
:1010B00004EB84101A4901EB4000801C805D802104
:1010C0003941084018B14146284601F0E3FC681C4C
:1010D00085B20098281A202805D1009D08F101004A
:1010E0001FFA80F803E0781CC7B2082FC8DB00BFE6
:1010F000701CC6B2802EC1DB00BF601C84B2019898
:1011000084429CDB08484088401E83B20648008821
:10111000401E82B20021084603F086F8BDE8FC9F1D
:10112000647F000834000024BC00002470B505462C
:101130000E4614463146284603F06BF8204603F06D
:1011400089FA70BD2DE9F05F0746884615461E46B0
:10115000DDF8289008EB0600401E83B27819401E87
:1011600082B24146384603F05FF800240AE019F8DD
:1011700014B009EB440090F801A04BEA0A2003F0F8
:1011800069FA641C05FB06F0A042F0DC06484088C2
:10119000401E83B204480088401E82B200210846E7
:1011A00003F042F8BDE8F09FBC0000242DE9FE4F9B
:1011B0000E4617469846DDE90D9A0C9C2046FFF72F
:1011C00015F985B208490988A1EBC50000EBD0717B
:1011D000C1F34F0B43463A46314658468DE8100658
:1011E00003F0F2FBBDE8FE8FBC000024034800685A
:1011F00040F00100014908607047000020040058D9
:10120000F8B502460B460021002600240020824D3E
:1012100000BFFCE0012707FA01F61F6807EA060491
:10122000B4427CD15F68022F02D05F68122F1AD1BE
:101230004FEAD10C02F1200757F82C004F074FEA74
:10124000D76C0F2707FA0CF7B8434FEA417C4FEAF7
:10125000DC6C1F6907FA0CF738434FEAD10C02F136
:10126000200747F82C0010684FEA410C032707FAC3
:101270000CF7B8431F7907F003074FEA410C07FA50
:101280000CF7384310605F68012F08D05F68022FA9
:1012900005D05F68112F02D05F68122F17D19068B8
:1012A0004FEA410C032707FA0CF7B8434FEA410C09
:1012B000DF6807FA0CF738439060506801278F40C9
:1012C000B8431F79C7F300178F4038435060D06888
:1012D0004FEA410C032707FA0CF7B8434FEA410CD9
:1012E0009F6807FA0CF73843D0605F6807F08057B3
:1012F000B7F1805F95D100BF484F3F6847F00207C4
:10130000DFF818C1CCF8007067463F6807F00207A5
:10131000009700BF00BF424F4FEA910C00E075E01C
:1013200057F82C008F074FEA177C0F2707FA0CF7A6
:10133000B8433C4FBA4201D100272DE03A4FBA42A0
:1013400001D1012728E0394FBA4201D1022723E019
:10135000374FBA4201D103271EE0364FBA4201D1BE
:10136000042719E0344FBA4201D1052714E0334F66
:10137000BA4201D106270FE0314FBA4201D1072707
:101380000AE0304FBA4201D1082705E02E4FBA4299
:1013900001D1092700E00A274FEA817C4FEA1C7C33
:1013A00007FA0CF738431E4F4FEA910C47F82C0010
:1013B0002868A0435F6807F48037B7F5803F00D105
:1013C000204328606868A0435F6807F40037B7F5DA
:1013D000003F00D1204368604FF0B0473868A04319
:1013E0005F6807F48017B7F5801F00D120434FF0E6
:1013F000B04738607868A0435F6807F40017B7F516
:10140000001F00D120434FF0B0477860491C1029DD
:10141000FFF400AFF8BD000080000058F44402580B
:10142000080400580000025800040258000802583E
:10143000000C0258001002580014025800180258FC
:10144000001C02580020025800240258024613696A
:101450000B400BB1012000E00020704742694A4078
:10146000426170470AB1018300E041837047000088
:101470000148006870470000240000240348006809
:101480000349097808440149086070472400002492
:101490002C00002410B5032000F0D2F80F2000F03B
:1014A00007F808B1012010BD00F08CF80020FAE721
:1014B00070B504460E4800784FF47A71B1FBF0F035
:1014C0000C490968B1FBF0F5284601F005F808B1B0
:1014D000012070BD102C07D200222146501E00F0C2
:1014E00072F80548046001E00120F2E70020F0E70F
:1014F0002C0000241C000024280000244178154AF8
:1015000011600178F9B1121D41681160017B090772
:10151000C27A41EA0261827A41EAC241427B41EAEF
:101520008241827B41EA4241C27B41EA0241427AE6
:1015300041EA0221027A41EA420102781143054A56
:101540000832116005E00021024A121D1160121DCF
:101550001160704798ED00E000BF00BF00BFBFF30F
:101560005F8F00BF00BF00BF0548006820F48030D7
:10157000034908600020024970310860704700008C
:1015800024ED00E040F001010D4A11600C49703972
:10159000096841F480310A4A703A116000BF00BF07
:1015A00000BFBFF34F8F00BF00BF00BF00BF00BF31
:1015B00000BFBFF36F8F00BF00BF00BF70470000C8
:1015C00094ED00E070472DE9F05F80460D46164629
:1015D00004F0DCFF074639462A46334601F007008F
:1015E000C0F1070ABAF1040F02D94FF0040A01E072
:1015F000C0F1070AD14600F1040ABAF1070F02D27E
:101600004FF0000A01E0A0F1030AD4464FF0010AAE
:101610000AFA09FAAAF1010A0AEA020A0AFA0CFA13
:101620004FF0010B0BFA0CFBABF1010B0BEA030BB8
:101630004AEA0B042146404604F0B0FFBDE8F09FA3
:1016400000BF00F00702064B19684FF6FF03194070
:10165000044B0B4343EA0221014B196000BF704762
:101660000CED00E00000FA0570B504460D460026BA
:101670008D48006800F00700A8420ED28A48006832
:1016800020F007002843884908600846006800F0F9
:101690000700A84201D0012070BD207800F00200B0
:1016A000022807D18148006820F00F00E168084354
:1016B0007E490860207800F00100002851D07B4866
:1016C000006820F47060A168084378490860606889
:1016D000022807D1754818380068C0F34040F8B9AF
:1016E0000120D9E76068032807D1704818380068DE
:1016F000C0F34060A0B90120CEE76068012807D19F
:101700006A4818380068C0F3002048B90120C3E7D0
:10171000664818380068C0F3800008B90120BBE7AC
:1017200062480838006820F00700616808435F4994
:1017300008390860FFF79CFE06466068022811D150
:1017400008E0FFF795FE801B41F28831884201D9FD
:101750000320A1E755480838006800F03800102839
:10176000EFD13AE06068032811D108E0FFF780FE6E
:10177000801B41F28831884201D903208CE74B4815
:101780000838006800F038001828EFD125E06068BC
:10179000012811D108E0FFF76BFE801B41F2883170
:1017A000884201D9032077E740480838006800F0F4
:1017B00038000828EFD110E008E0FFF759FE801B41
:1017C00041F28831884201D9032065E7374808385B
:1017D000006800F038000028EFD13348006800F0BE
:1017E0000700A8420ED93048006820F007002843BF
:1017F0002D4908600846006800F00700A84201D0A3
:10180000012049E7207800F00400042807D1274888
:10181000006820F07000216908432449086020789E
:1018200000F00800082809D12048001D006820F0B9
:101830007000616908431D49091D0860207800F0A7
:101840001000102809D11948001D006820F4E0603C
:10185000A16908431549091D0860207800F020009F
:10186000202809D111480830006820F07000E16993
:1018700008430E490831086000F01EF80B4909685A
:1018800001F470614FF4807292FAA2F2B2FA82F21D
:10189000D140074A515CC840064908600F20FFF755
:1018A00007FE0020F8E6000000200052184402580D
:1018B0005C8E00081C00002470B5012500EE905AD3
:1018C0000022012100230024DFED861AB0EE610A18
:1018D000DFED841AB0EE611A0020834D2D6805F00B
:1018E000380535B1082D15D0102D15D0182D7CD107
:1018F00014E07D4D103D2D68C5F3401545B17A4D7E
:10190000103D2D68C5F3C106784D25FA06F000E0BC
:101910007648E5E07648E3E07648E1E0724D183538
:101920002D6805F00302704D18352D68C5F30511BB
:101930006D4D1C352D6805F001036B4D24352D6868
:10194000C5F3CC0515FB03F501EE905AF8EE611ACC
:10195000B0EE610A22B1012A4FD0022A7DD16BE09C
:10196000614D103D2D68C5F340152DB35E4D103D02
:101970002D68C5F3C1065D4D25FA06F4B4FBF1F5FB
:1019800001EE905AB8EE612ADFED5B1AC0EE212A13
:10199000554D20352D68C5F3080501EE905AF8EE37
:1019A000611A72EEA11AF7EE002A71EEA21A62EE27
:1019B000211AB0EE611A1FE04C4DB5FBF1F501EEB6
:1019C000905AB8EE612ADFED4C1AC0EE212A464D3E
:1019D00020352D68C5F3080501EE905AF8EE611A1E
:1019E00072EEA11AF7EE002A00E077E071EEA21A7B
:1019F00062EE211AB0EE611A5EE03D4DB5FBF1F5E5
:101A000001EE905AB8EE612ADFED3B1AC0EE212AB2
:101A1000354D20352D68C5F3080501EE905AF8EED6
:101A2000611A72EEA11AF7EE002A71EEA21A62EEA6
:101A3000211AB0EE611A3FE02E4DB5FBF1F501EE33
:101A4000905AB8EE612ADFED2C1AC0EE212A264DFD
:101A500020352D68C5F3080500E00EE001EE905A30
:101A6000F8EE611A72EEA11AF7EE002A71EEA21AD0
:101A700062EE211AB0EE611A1EE01D4DB5FBF1F5C4
:101A800001EE905AF8EE612ADFED1B1A80EE212A52
:101A9000154D20352D68C5F3080501EE905AF8EE76
:101AA000611A72EE211AB7EE002A71EE821A62EE06
:101AB000A11AB0EE611A00BF00BF0B4D20352D6892
:101AC000C5F346256D1C00EE905AF8EE601A81EEC3
:101AD000212AFCEEC21A11EE900A01E0044800BF70
:101AE00000BF70BD00000000104402580090D003F9
:101AF00000093D0040787D010000004670B50446B5
:101B00000025207800F00100002872D0F948006814
:101B100000F0380010280CD0F648006800F03800BB
:101B2000182812D1F3481830006800F0030002288A
:101B30000BD1F04810380068C0F3404000286DD049
:101B4000606800286AD1012070BD00BF6068B0F5F0
:101B5000803F08D1E7481038006840F48030E549FC
:101B6000103908602EE0606868B9E24810380068F3
:101B700020F48030DF49103908600846006820F4FE
:101B8000802008601EE06068B0F5A02F0DD1D94814
:101B90001038006840F48020D649103908600846A3
:101BA000006840F4803008600CE0D24810380068CB
:101BB00020F48030CF49103908600846006820F4CE
:101BC0008020086000BF6068A0B1FFF751FC0546A7
:101BD00008E0FFF74DFC401B41F28831884201D9F3
:101BE0000320B1E7C34810380068C0F34040002824
:101BF000EFD013E0FFF73CFC054608E0FFF738FCA8
:101C0000401B41F28831884201D903209CE7B94842
:101C100010380068C0F340400028EFD1207800F071
:101C20000200022847D1B348006800F0380058B1DC
:101C3000B048006800F0380018283ED1AD48183090
:101C4000006800F00300B8BBAA4810380068C0F371
:101C5000800018B1E06808B9012075E7A548103880
:101C6000006820F01900E1680843A24910390860B3
:101C7000FFF7FEFB054606E0FFF7FAFB401B0228D4
:101C800001D9032060E79B4810380068C0F380004A
:101C90000028F1D097480C38006820F47C304FF4CD
:101CA0007C3292FAA2F2B2FA82F2216991400843A0
:101CB00090490C3908604AE0FFE7E06868B38D4856
:101CC0001038006820F01900E1680843894910398C
:101CD0000860FFF7CDFB054606E0FFF7C9FB401B98
:101CE000022801D903202FE7824810380068C0F38A
:101CF00080000028F1D07F480C38006820F47C3048
:101D00004FF47C3292FAA2F2B2FA82F22169914047
:101D1000084378490C39086019E0764810380068A3
:101D200020F00100734910390860FFF7A1FB054658
:101D300006E0FFF79DFB401B022801D9032003E7C3
:101D40006C4810380068C0F380000028F1D120787A
:101D500000F01000102877D16648006800F03800C5
:101D600008280CD06348006800F03800182823D1F8
:101D700060481830006800F0030001281CD15D485D
:101D800010380068C0F3002020B1E069802801D03D
:101D90000120D9E657480C38006820F0F8404FF091
:101DA000F84292FAA2F2B2FA82F2216A9140084312
:101DB00050490C39086047E0E06958B34D48103885
:101DC000006840F080004B4910390860FFF750FB75
:101DD000054606E0FFF74CFB401B022801D9032013
:101DE000B2E6444810380068C0F300200028F1D063
:101DF00040480C38006820F0F8404FF0F84292FA62
:101E0000A2F2B2FA82F2216A9140084339490C39B0
:101E1000086019E037481038006820F08000354924
:101E200010390860FFF724FB054606E0FFF720FBAA
:101E3000401B022801D9032086E62E48103800688E
:101E4000C0F300200028F1D1207800F00800082815
:101E500036D16069D0B127486430006840F0010095
:101E6000244964310860FFF703FB054606E0FFF7ED
:101E7000FFFA401B022801D9032065E61D486430A3
:101E80000068C0F340000028F1D019E01948643020
:101E9000006820F00100174964310860FFF7E8FA94
:101EA000054606E0FFF7E4FA401B022801D90320AB
:101EB0004AE6104864300068C0F340000028F1D1C1
:101EC000207800F02000202834D1A069D8B109483A
:101ED0001038006840F48050064910390860FFF758
:101EE000C7FA054608E0FFF7C3FA401B022803D9EA
:101EF000032029E610440258AF480068C0F3403080
:101F00000028F0D016E0AC48006820F48050AA49C0
:101F10000860FFF7ADFA054606E0FFF7A9FA401B97
:101F2000022801D903200FE6A3480068C0F340301F
:101F30000028F2D1207800F0040004287DD19F48C9
:101F4000006840F480709D490860FFF791FA0546EB
:101F500006E0FFF78DFA401B642801D90320F3E562
:101F60009648006800F480700028F2D000BFA06896
:101F7000012808D190487030006840F001008E4977
:101F8000703108602DE0A06868B98B487030006837
:101F900020F001008849703108600846006820F090
:101FA000040008601DE0A06805280DD1824870304B
:101FB000006840F0040080497031086008460068FD
:101FC00040F0010008600CE07B487030006820F0B1
:101FD00001007949703108600846006820F004006B
:101FE000086000BFA068A0B1FFF742FA054608E00C
:101FF000FFF73EFA401B41F28831884201D90320A5
:10200000A2E56D4870300068C0F340000028EFD0B2
:1020100013E0FFF72DFA054608E0FFF729FA401B09
:1020200041F28831884201D903208DE56248703041
:102030000068C0F340000028EFD1606A00287CD01F
:102040005D481030006800F03800182876D0606ACB
:10205000022874D15848006820F080705649086002
:10206000FFF706FA054606E0FFF702FA401B0228D2
:1020700001D9032068E550480068C0F3406000289B
:10208000F2D100BFD4E90A1041EA00104A492831D0
:10209000096840F2F3329143084347492831086008
:1020A000208E401EC0F30800616B491E4FF47E4233
:1020B00002EA41210843218F491ED20102EA01416F
:1020C00008433C21095D491E120202EA01610843EE
:1020D00039493031086000BF081D00684FF6F871BB
:1020E00088434FF6F87292FAA2F2B2FA82F2A16C29
:1020F000914008433049343108602F482C30006843
:1021000020F00C00216C08432B492C310860084654
:10211000006820F00200616C084327492C310860F8
:102120000846006840F4803008600846006840F4C3
:10213000003008600846006802E03BE038E01FE03D
:1021400040F4802008600846006840F00100086004
:102150001948006840F0807017490860FFF788F957
:10216000054606E0FFF784F9401B022801D9032049
:10217000EAE411480068C0F340600028F2D019E09A
:102180000D48006820F080700B490860FFF770F977
:10219000054606E0FFF76CF9401B022801D9032031
:1021A000D2E405480068C0F340600028F2D101E0A5
:1021B0000120C9E40020C7E4004402580048025846
:1021C00070B504460D460CB9012070BD94F82C0082
:1021D00028B9002084F82D00204600F019F80220CC
:1021E00084F82C00211D2068FEF761FC2946D4E903
:1021F0000002FEF7B1FC0548006840F000400349CA
:102200000860012084F82C000020DEE70040005226
:1022100010B586B0044600BF4648006840F0020092
:10222000444908600846006800F00200009000BFC2
:1022300000BF00BF3F482038006840F480503D494F
:10224000203908600846006800F48050009000BF04
:1022500000BF00BF37481438006840F0040035491B
:10226000143908600846006800F00400009000BFC0
:1022700000BF00BF0846006840F00800086008463C
:10228000006800F00800009000BF00BF00BF0846D3
:10229000006840F0100008600846006800F0100078
:1022A000009000BF00BF00BF0846006840F020005B
:1022B00008600846006800F02000009000BF00BFE2
:1022C00000BF0846006840F040000860084600680B
:1022D00000F04000009000BF00BF0D2001900220E0
:1022E000029001200390032004900C20059001A986
:1022F0001148FEF785FF4CF20370019001A90F48C9
:10230000FEF77EFF4FF68370019001A90C48FEF79F
:1023100077FF4FF63F00019001A90A48FEF770FFD2
:1023200048F23710019001A90748FEF769FF06B08F
:1023300010BD0000F444025800080258000C025876
:1023400000100258001402580018025870B50446D4
:102350000D4694F82C00022800D170BD022084F8AC
:102360002C0029462068FEF7DCFB012084F82C00B5
:102370000020F2E770B504460D46164694F82C008E
:10238000022800D170BD022084F82C003246294674
:102390002068FEF7CDFB2868022803D1052084F8C9
:1023A0002C0002E0012084F82C000020EAE7000065
:1023B00070B504460E4615460CB9012070BD94F860
:1023C000450028B9002084F84400204600F024F895
:1023D00004F108012068FEF7FBFA3146A268206884
:1023E000FEF736FB2946E36AD4E90102FEF7CCFA90
:1023F000A168206850F8210040F00100A26821681F
:1024000041F822000348006840F00040014908609C
:102410000020D3E70040005210B586B0044600BF4C
:102420002048006840F480501E4908600846006853
:1024300000F48050009000BF00BF00BF19480C306E
:10244000006840F0080017490C3108600846006831
:1024500000F00800009000BF00BF00BF0846006801
:1024600040F0100008600846006800F0100000907E
:1024700000BF00BF4EF2B370019002200290012015
:102480000390032004900C20059001A90648FEF754
:10249000B7FE4FF68070019001A90448FEF7B0FE28
:1024A00006B010BDD4440258000C02580010025867
:1024B000042808D14FF0E021096941F004014FF0F0
:1024C000E022116107E04FF0E021096921F00401E9
:1024D0004FF0E0221161704770B504462546681E32
:1024E000B0F1807F01D301200FE0681E4FF0E021A2
:1024F00048610F214FF0FF3004F050F800204FF0FA
:10250000E021886107200861002070BD00BFFEE760
:1025100010B5002210211248FEF7A4FF10480068F1
:1025200020F440600E4908600846006840F480606E
:102530000860002220210A48FEF794FF022004F0E0
:10254000D1F8012210210648FEF78CFF022004F08A
:10255000C9F8002210210248FEF784FF10BD0000D8
:10256000001C025800B587B000BF1248006840F058
:102570008000104908600846006800F08000019063
:1025800000BF00BF30200290012003900490032080
:10259000059002A90848FEF733FE012220210648D3
:1025A000FEF760FF012210210348FEF75BFF07B032
:1025B00000BD0000E0440258001C025810B5002283
:1025C00010211248FEF74EFF1048006820F44060CA
:1025D0000E4908600846006840F4806008600122E7
:1025E00020210A48FEF73EFF022004F07BF801227A
:1025F00010210648FEF736FF022004F073F800228F
:1026000010210248FEF72EFF10BD0000001C0258EA
:1026100070B5054600241848006820F4406016494B
:10262000086008460068086000261AE000221021B1
:102630001148FEF717FF022004F054F80122102180
:102640000D48FEF70FFF6006040E20210A48FEF732
:10265000FDFE08B1601CC4B2012004F043F8701CF8
:10266000C6B2082EE2DB15B9FFF7A8FF01E0FFF7BD
:102670004FFF204670BD0000001C025870B5044694
:102680001C48006820F440601A4908600846006849
:1026900040F480600860002210211648FEF7E2FE38
:1026A000002523E0E00928B1012220211148FEF78E
:1026B000D9FE04E0002220210E48FEF7D3FE60067A
:1026C000040E022004F00EF8012210210948FEF742
:1026D000C9FE022004F006F8002210210548FEF78A
:1026E000C1FE022003F0FEFF681CC5B2082DD9DB35
:1026F00070BD0000001C025810B51348006820F49B
:102700004060114908600846006840F48060086035
:10271000012220210C48FEF7A5FE012210210A48C3
:10272000FEF7A0FE042003F0DDFF00222021064872
:10273000FEF798FE042003F0D5FF00221021024886
:10274000FEF790FE10BD0000001C025810B51348A3
:10275000006820F44060114908600846006840F4B1
:1027600080600860002210210C48FEF77BFE0022EA
:1027700020210A48FEF776FE042003F0B3FF012271
:1027800010210648FEF76EFE042003F0ABFF012285
:1027900020210248FEF766FE10BD0000001C025812
:1027A00010B500241748006820F4406015490860FF
:1027B000084600680860012220211248FEF752FEF8
:1027C000012003F08FFF012210210E48FEF74AFE80
:1027D000012003F087FF07E0601CC4B2FA2C03DD80
:1027E000FFF7B4FF012010BD20210648FEF72EFEA2
:1027F0000028F1D1002210210248FEF733FE00200C
:10280000F1E70000001C025800B587B000BF244863
:10281000006840F00100224908600846006800F0A6
:102820000100019000BF00BF00BF0846006840F0F3
:10283000040008600846006800F00400019000BF32
:1028400000BF00BF0846006840F0800008600846EE
:10285000006800F08000019000BF00BF01200290DE
:1028600000200390022004900320059002A90D4847
:10287000FEF7C6FC4FF400500290002003900120A8
:1028800004900320059002A90748FEF7B9FC0C202C
:10289000029002A90548FEF7B3FC07B000BD000096
:1028A000E04402580000025800080258001C025878
:1028B00010B50446012C01D12D4908702C48007830
:1028C000002839D008212B48FEF7C0FD80B1042133
:1028D0002848FEF7BBFD58B14FF400512648FEF7DB
:1028E000B5FD28B101212548FEF7B0FD012823D10F
:1028F0000A2003F0EBFE00201D49087008211D4846
:10290000FEF7A4FD08B9012010BD04211948FEF707
:102910009DFD08B90220F7E74FF400511648FEF775
:1029200095FD08B90320EFE701211448FEF78EFD5D
:1029300001281BD10420E7E708210E48FEF786FD99
:10294000012813D104210B48FEF780FD01280DD189
:1029500041030948FEF77AFD012807D10121074804
:10296000FEF774FD10B90120014908700020CBE783
:102970006C000024001C0258000802580000025895
:1029800070B504460C4800880B49498800FB01F6E5
:1029900009484088401E83B207480088401E82B222
:1029A0000021084601F040FC002502E003480480B5
:1029B0006D1CB542FAD370BDBC0000240000086055
:1029C000F8B504460D4616461F46054800883B46A6
:1029D000324629460090204600F08AF8F8BD0000F3
:1029E000340000242DE9FF4F85B081468A4600203F
:1029F000049003900798A0EB09050898A0EB0A063D
:102A0000CDF80890CDF804A0002D01DD012705E0E8
:102A10000DB9002702E04FF0FF376D42002E02DDB6
:102A20004FF0010806E016B94FF0000802E04FF041
:102A3000FF387642B54201DD2C4600E034464FF0C7
:102A4000000B21E0019A91B2029A90B200F022F8B4
:102A50000498284404900398304403900498A042BA
:102A600005DD0498001B04900298384402900398F6
:102A7000A04205DD0398001B03900198404401909B
:102A80000BF101001FFA80FB601C8345DADD09B001
:102A9000BDE8F08F30B504460D462946204601F0CA
:102AA000B8FB0248008801F0D5FD30BD3400002499
:102AB0002DE9F04104460D4616461F462B46324688
:102AC00029462046FFF78EFF3B46224629462046F0
:102AD000FFF788FF3B46324639462046FFF782FF24
:102AE0003B46324629463046FFF77CFFBDE8F08181
:102AF0002DE9F05F04460D4616461F46301B401C6C
:102B00001FFA80FA781B401C1FFA80FB3B463246B6
:102B10002946204601F088FB4FF000080FE04FF0F7
:102B2000000906E00A9801F095FD09F101001FFA7D
:102B300080F9D145F6DB08F101001FFA80F8D8458D
:102B4000EDDB07484088401E83B205480088401EE0
:102B500082B20021084601F067FBBDE8F09F00004B
:102B6000BC0000240FB400B58DB000BF2848006839
:102B700040F00200264908600846006800F00200A4
:102B8000009000BF00BF4FF48070089001200990B2
:102B90000A9003200B9008A91E48FEF731FB01F0B4
:102BA00010FB1D481D4908601D48486000208860D2
:102BB00000211A48C1600161102141610021816139
:102BC000C16101624FF480514162002181624FF482
:102BD0008041C1620021016341634FF48011816330
:102BE00011200190002002905520039000200790B2
:102BF00015200E9000200F9025201090002014909A
:102C00000EAA01A90548FFF7D3FB0DB05DF814FB30
:102C1000E0440258000402580040005270000024B2
:102C20000441005200B58BB008A807C88DE8070022
:102C300004A80FC8FFF796FF322003F047FD4FF4BA
:102C4000704001F06FFC552001F060FC4FF2010074
:102C500001F068FCAA2001F059FC4FF2020001F0DB
:102C600061FC522001F052FC4FF2030001F05AFCCB
:102C7000082001F04BFC4FF2040001F053FC01204E
:102C800001F044FC4FF4364001F04CFC342001F0DC
:102C90003DFC4BF2016001F045FC342001F036FCB4
:102CA0004BF2026001F03EFC342001F02FFC4FF4A7
:102CB000304001F037FC0D2001F028FC4BF2010000
:102CC00001F030FC0D2001F021FC4BF2020001F07C
:102CD00029FC0D2001F01AFC4FF4374001F022FCD2
:102CE000242001F013FC4BF2017001F01BFC2420A6
:102CF00001F00CFC4BF2027001F014FC242001F0F6
:102D000005FC4FF4314001F00DFC0D2001F0FEFBFD
:102D10004BF2011001F006FC0D2001F0F7FB4BF225
:102D2000021001F0FFFB0D2001F0F0FB4FF43840E2
:102D300001F0F8FB242001F0E9FB4BF6010001F063
:102D4000F1FB242001F0E2FB4BF6020001F0EAFB6C
:102D5000242001F0DBFB4FF4324001F0E3FB0020C4
:102D600001F0D4FB4FF4394001F0DCFB242001F0EA
:102D7000CDFB4BF6011001F0D5FB242001F0C6FB82
:102D80004BF6021001F0CEFB242001F0BFFB4FF404
:102D9000334001F0C7FB052001F0B8FB4BF20130D6
:102DA00001F0C0FB052001F0B1FB4BF2023001F055
:102DB000B9FB052001F0AAFB4FF43A4001F0B2FB49
:102DC000342001F0A3FB4BF6012001F0ABFB3420D3
:102DD00001F09CFB4BF6022001F0A4FB342001F033
:102DE00095FB4FF4354001F09DFB0B2001F08EFB6D
:102DF0004BF2015001F096FB0B2001F087FB4BF2E8
:102E0000025001F08FFB0B2001F080FB4FF43C409F
:102E100001F088FB002001F079FB4BF6014001F046
:102E200081FBA32001F072FB4BF6024001F07AFB1C
:102E3000002001F06BFB4FF43D4001F073FB0020DC
:102E400001F064FB4BF6015001F06CFBA32001F094
:102E50005DFB4BF6025001F065FB002001F056FBD4
:102E60004FF43E4001F05EFB002001F04FFB4BF6BB
:102E7000016001F057FB632001F048FB4FF4514023
:102E800001F050FB002001F041FB4DF2011001F078
:102E900049FB372001F03AFB4DF2021001F042FBF2
:102EA000002001F033FB4DF2031001F03BFB5220F8
:102EB00001F02CFB4DF2041001F034FB002001F076
:102EC00025FB4DF2051001F02DFB7B2001F01EFBD0
:102ED0004DF2061001F026FB002001F017FB4DF229
:102EE000071001F01FFB992001F010FB4DF20810B4
:102EF00001F018FB002001F009FB4DF2091001F070
:102F000011FBB12001F002FB4DF20A1001F00AFBA7
:102F1000002001F0FBFA4DF20B1001F003FBD22070
:102F200001F0F4FA4DF20C1001F0FCFA002001F06F
:102F3000EDFA4DF20D1001F0F5FAF62001F0E6FA87
:102F40004DF20E1001F0EEFA012001F0DFFA4DF221
:102F50000F1001F0E7FA272001F0D8FA4DF2101017
:102F600001F0E0FA012001F0D1FA4DF2111001F068
:102F7000D9FA4E2001F0CAFA4DF2121001F0D2FA3D
:102F8000012001F0C3FA4DF2131001F0CBFA8C20AE
:102F900001F0BCFA4DF2141001F0C4FA012001F066
:102FA000B5FA4DF2151001F0BDFABE2001F0AEFAEF
:102FB0004DF2161001F0B6FA022001F0A7FA4DF218
:102FC000171001F0AFFA0B2001F0A0FA4DF2181023
:102FD00001F0A8FA022001F099FA4DF2191001F05F
:102FE000A1FA482001F092FA4DF21A1001F09AFA73
:102FF000022001F08BFA4DF21B1001F093FA4A20E7
:1030000001F084FA4DF21C1001F08CFA022001F05C
:103010007DFA4DF21D1001F085FA7E2001F076FA5E
:103020004DF21E1001F07EFA022001F06FFA4DF20F
:103030001F1001F077FABC2001F068FA4DF2201061
:1030400001F070FA022001F061FA4DF2211001F056
:1030500069FAE12001F05AFA4DF2221001F062FA09
:10306000032001F053FA4DF2231001F05BFA102017
:1030700001F04CFA4DF2241001F054FA032001F053
:1030800045FA4DF2251001F04DFA312001F03EFADB
:103090004DF2261001F046FA032001F037FA4DF206
:1030A000271001F03FFA5A2001F030FA4DF22810B3
:1030B00001F038FA032001F029FA4DF2291001F04D
:1030C00031FA732001F022FA4DF22A1001F02AFAA7
:1030D000032001F01BFA4DF22B1001F023FA94208B
:1030E00001F014FA4DF22C1001F01CFA032001F04B
:1030F0000DFA4DF22D1001F015FA9F2001F006FA9D
:103100004DF22E1001F00EFA032001F0FFF94DF2FE
:103110002F1001F007FAB32001F0F8F94DF230104A
:1031200001F000FA032001F0F1F94DF2311001F045
:10313000F9F9B92001F0EAF94DF2321001F0F2F993
:10314000032001F0E3F94DF2331001F0EBF9C12057
:1031500001F0DCF94FF4524001F0E4F9002001F0F5
:10316000D5F94DF2012001F0DDF9372001F0CEF95B
:103170004DF2022001F0D6F9002001F0C7F94DF21E
:10318000032001F0CFF9522001F0C0F94DF20420E4
:1031900001F0C8F9002001F0B9F94DF2052001F065
:1031A000C1F97B2001F0B2F94DF2062001F0BAF925
:1031B000002001F0ABF94DF2072001F0B3F999209E
:1031C00001F0A4F94DF2082001F0ACF9002001F063
:1031D0009DF94DF2092001F0A5F9B12001F096F911
:1031E0004DF20A2001F09EF9002001F08FF94DF216
:1031F0000B2001F097F9D22001F088F94DF20C2054
:1032000001F090F9002001F081F94DF20D2001F05C
:1032100089F9F62001F07AF94DF20E2001F082F9D9
:10322000012001F073F94DF20F2001F07BF9272006
:1032300001F06CF94DF2102001F074F9012001F059
:1032400065F94DF2112001F06DF94E2001F05EF9A3
:103250004DF2122001F066F9012001F057F94DF20C
:10326000132001F05FF98C2001F050F94DF2142089
:1032700001F058F9012001F049F94DF2152001F053
:1032800051F9BE2001F042F94DF2162001F04AF941
:10329000022001F03BF94DF2172001F043F90B2019
:1032A00001F034F94DF2182001F03CF9022001F050
:1032B0002DF94DF2192001F035F9482001F026F9D9
:1032C0004DF21A2001F02EF9022001F01FF94DF203
:1032D0001B2001F027F94A2001F018F94DF21C20BB
:1032E00001F020F9022001F011F94DF21D2001F04A
:1032F00019F97E2001F00AF94DF21E2001F012F9B1
:10330000022001F003F94DF21F2001F00BF9BC205F
:1033100001F0FCF84DF2202001F004F9022001F048
:10332000F5F84DF2212001F0FDF8E12001F0EEF872
:103330004DF2222001F0F6F8032001F0E7F84DF2FB
:10334000232001F0EFF8102001F0E0F84DF22420E6
:1033500001F0E8F8032001F0D9F84DF2252001F042
:10336000E1F8312001F0D2F84DF2262001F0DAF830
:10337000032001F0CBF84DF2272001F0D3F85A20BA
:1033800001F0C4F84DF2282001F0CCF8032001F040
:10339000BDF84DF2292001F0C5F8732001F0B6F810
:1033A0004DF22A2001F0BEF8032001F0AFF84DF2F3
:1033B0002B2001F0B7F8942001F0A8F84DF22C2052
:1033C00001F0B0F8032001F0A1F84DF22D2001F03A
:1033D000A9F89F2001F09AF84DF22E2001F0A2F8F2
:1033E000032001F093F84DF22F2001F09BF8B32059
:1033F00001F08CF84DF2302001F094F8032001F038
:1034000085F84DF2312001F08DF8B92001F07EF8F9
:103410004DF2322001F086F8032001F077F84DF2EA
:10342000332001F07FF8C12001F070F84FF45340D1
:1034300001F078F8002001F069F84DF2013001F058
:1034400071F8372001F062F84DF2023001F06AF8AD
:10345000002001F05BF84DF2033001F063F85220D8
:1034600001F054F84DF2043001F05CF8002001F056
:103470004DF84DF2053001F055F87B2001F046F88B
:103480004DF2063001F04EF8002001F03FF84DF209
:10349000073001F047F8992001F038F84DF2083074
:1034A00001F040F8002001F031F84DF2093001F050
:1034B00039F8B12001F02AF84DF20A3001F032F863
:1034C000002001F023F84DF20B3001F02BF8D22050
:1034D00001F01CF84DF20C3001F024F8002001F04E
:1034E00015F84DF20D3001F01DF8F62001F00EF840
:1034F0004DF20E3001F016F8012001F007F84DF200
:103500000F3001F00FF8272001F000F84DF21030D5
:1035100001F008F8012000F0F9FF4DF2113001F040
:1035200001F84E2000F0F2FF4DF2123000F0FAFFE9
:10353000012000F0EBFF4DF2133000F0F3FF8C2080
:1035400000F0E4FF4DF2143000F0ECFF012000F039
:10355000DDFF4DF2153000F0E5FFBE2000F0D6FF94
:103560004DF2163000F0DEFF022000F0CFFF4DF2EA
:10357000173000F0D7FF0B2000F0C8FF4DF21830D5
:1035800000F0D0FF022000F0C1FF4DF2193000F032
:10359000C9FF482000F0BAFF4DF21A3000F0C2FF18
:1035A000022000F0B3FF4DF21B3000F0BBFF4A20B9
:1035B00000F0ACFF4DF21C3000F0B4FF022000F030
:1035C000A5FF4DF21D3000F0ADFF7E2000F09EFF04
:1035D0004DF21E3000F0A6FF022000F097FF4DF2E2
:1035E0001F3000F09FFFBC2000F090FF4DF2203014
:1035F00000F098FF022000F089FF4DF2213000F02A
:1036000091FFE12000F082FF4DF2223000F08AFFAE
:10361000032000F07BFF4DF2233000F083FF1020E9
:1036200000F074FF4DF2243000F07CFF032000F026
:103630006DFF4DF2253000F075FF312000F066FF80
:103640004DF2263000F06EFF032000F05FFF4DF2D8
:10365000273000F067FF5A2000F058FF4DF2283065
:1036600000F060FF032000F051FF4DF2293000F020
:1036700059FF732000F04AFF4DF22A3000F052FF4C
:10368000032000F043FF4DF22B3000F04BFF94205D
:1036900000F03CFF4DF22C3000F044FF032000F01E
:1036A00035FF4DF22D3000F03DFF9F2000F02EFF42
:1036B0004DF22E3000F036FF032000F027FF4DF2D0
:1036C0002F3000F02FFFB32000F020FF4DF23030FC
:1036D00000F028FF032000F019FF4DF2313000F018
:1036E00021FFB92000F012FF4DF2323000F01AFF36
:1036F000032000F00BFF4DF2333000F013FFC12028
:1037000000F004FF4FF4544000F00CFF002000F0E4
:10371000FDFE4DF2014000F005FF372000F0F6FEFF
:103720004DF2024000F0FEFE002000F0EFFE4DF2F0
:10373000034000F0F7FE522000F0E8FE4DF2044096
:1037400000F0F0FE002000F0E1FE4DF2054000F038
:10375000E9FE7B2000F0DAFE4DF2064000F0E2FECA
:10376000002000F0D3FE4DF2074000F0DBFE992070
:1037700000F0CCFE4DF2084000F0D4FE002000F036
:10378000C5FE4DF2094000F0CDFEB12000F0BEFEB6
:103790004DF20A4000F0C6FE002000F0B7FE4DF2E8
:1037A0000B4000F0BFFED22000F0B0FE4DF20C4006
:1037B00000F0B8FE002000F0A9FE4DF20D4000F030
:1037C000B1FEF62000F0A2FE4DF20E4000F0AAFE7F
:1037D000012000F09BFE4DF20F4000F0A3FE2720D9
:1037E00000F094FE4DF2104000F09CFE012000F02D
:1037F0008DFE4DF2114000F095FE4E2000F086FE49
:103800004DF2124000F08EFE012000F07FFE4DF2DE
:10381000134000F087FE8C2000F078FE4DF214403B
:1038200000F080FE012000F071FE4DF2154000F026
:1038300079FEBE2000F06AFE4DF2164000F072FEE6
:10384000022000F063FE4DF2174000F06BFE0B20EB
:1038500000F05CFE4DF2184000F064FE022000F023
:1038600055FE4DF2194000F05DFE482000F04EFE7E
:103870004DF21A4000F056FE022000F047FE4DF2D5
:103880001B4000F04FFE4A2000F040FE4DF21C406D
:1038900000F048FE022000F039FE4DF21D4000F01D
:1038A00041FE7E2000F032FE4DF21E4000F03AFE56
:1038B000022000F02BFE4DF21F4000F033FEBC2032
:1038C00000F024FE4DF2204000F02CFE022000F01B
:1038D0001DFE4DF2214000F025FEE12000F016FE15
:1038E0004DF2224000F01EFE032000F00FFE4DF2CC
:1038F000234000F017FE102000F008FE4DF2244097
:1039000000F010FE032000F001FE4DF2254000F013
:1039100009FE312000F0FAFD4DF2264000F002FED3
:10392000032000F0F3FD4DF2274000F0FBFD5A208C
:1039300000F0ECFD4DF2284000F0F4FD032000F013
:10394000E5FD4DF2294000F0EDFD732000F0DEFDB5
:103950004DF22A4000F0E6FD032000F0D7FD4DF2C5
:103960002B4000F0DFFD942000F0D0FD4DF22C4004
:1039700000F0D8FD032000F0C9FD4DF22D4000F00D
:10398000D1FD9F2000F0C2FD4DF22E4000F0CAFD97
:10399000032000F0BBFD4DF22F4000F0C3FDB3202B
:1039A00000F0B4FD4DF2304000F0BCFD032000F00B
:1039B000ADFD4DF2314000F0B5FDB92000F0A6FD9F
:1039C0004DF2324000F0AEFD032000F09FFD4DF2BD
:1039D000334000F0A7FDC12000F098FD4FF45540A2
:1039E00000F0A0FD002000F091FD4DF2015000F02C
:1039F00099FD372000F08AFD4DF2025000F092FD53
:103A0000002000F083FD4DF2035000F08BFD5220AA
:103A100000F07CFD4DF2045000F084FD002000F029
:103A200075FD4DF2055000F07DFD7B2000F06EFD30
:103A30004DF2065000F076FD002000F067FD4DF2DB
:103A4000075000F06FFD992000F060FD4DF2085026
:103A500000F068FD002000F059FD4DF2095000F023
:103A600061FDB12000F052FD4DF20A5000F05AFD08
:103A7000002000F04BFD4DF20B5000F053FDD22022
:103A800000F044FD4DF20C5000F04CFD002000F021
:103A90003DFD4DF20D5000F045FDF62000F036FDE5
:103AA0004DF20E5000F03EFD012000F02FFD4DF2D2
:103AB0000F5000F037FD272000F028FD4DF2105088
:103AC00000F030FD012000F021FD4DF2115000F01A
:103AD00029FD4E2000F01AFD4DF2125000F022FD9B
:103AE000012000F013FD4DF2135000F01BFD8C205F
:103AF00000F00CFD4DF2145000F014FD012000F018
:103B000005FD4DF2155000F00DFDBE2000F0FEFC4D
:103B10004DF2165000F006FD022000F0F7FC4DF2C9
:103B2000175000F0FFFC0B2000F0F0FC4DF2185095
:103B300000F0F8FC022000F0E9FC4DF2195000F012
:103B4000F1FC482000F0E2FC4DF21A5000F0EAFCD3
:103B5000022000F0DBFC4DF21B5000F0E3FC4A2099
:103B600000F0D4FC4DF21C5000F0DCFC022000F010
:103B7000CDFC4DF21D5000F0D5FC7E2000F0C6FCBF
:103B80004DF21E5000F0CEFC022000F0BFFC4DF2C2
:103B90001F5000F0C7FCBC2000F0B8FC4DF22050D4
:103BA00000F0C0FC022000F0B1FC4DF2215000F00A
:103BB000B9FCE12000F0AAFC4DF2225000F0B2FC6A
:103BC000032000F0A3FC4DF2235000F0ABFC1020CA
:103BD00000F09CFC4DF2245000F0A4FC032000F007
:103BE00095FC4DF2255000F09DFC312000F08EFC3C
:103BF0004DF2265000F096FC032000F087FC4DF2B9
:103C0000275000F08FFC5A2000F080FC4DF2285025
:103C100000F088FC032000F079FC4DF2295000F000
:103C200081FC732000F072FC4DF22A5000F07AFC07
:103C3000032000F06BFC4DF22B5000F073FC94203D
:103C400000F064FC4DF22C5000F06CFC032000F0FE
:103C50005DFC4DF22D5000F065FC9F2000F056FCFD
:103C60004DF22E5000F05EFC032000F04FFC4DF2B0
:103C70002F5000F057FCB32000F048FC4DF23050BC
:103C800000F050FC032000F041FC4DF2315000F0F8
:103C900049FCB92000F03AFC4DF2325000F042FCF1
:103CA000032000F033FC4DF2335000F03BFCC12008
:103CB00000F02CFC4FF4564000F034FC002000F0E3
:103CC00025FC4DF2016000F02DFC372000F01EFCB9
:103CD0004DF2026000F026FC002000F017FC4DF2CF
:103CE000036000F01FFC522000F010FC4DF2046055
:103CF00000F018FC002000F009FC4DF2056000F017
:103D000011FC7B2000F002FC4DF2066000F00AFC82
:103D1000002000F0FBFB4DF2076000F003FC99204F
:103D200000F0F4FB4DF2086000F0FCFB002000F016
:103D3000EDFB4DF2096000F0F5FBB12000F0E6FB71
:103D40004DF20A6000F0EEFB002000F0DFFB4DF2C8
:103D50000B6000F0E7FBD22000F0D8FB4DF20C60C6
:103D600000F0E0FB002000F0D1FB4DF20D6000F010
:103D7000D9FBF62000F0CAFB4DF20E6000F0D2FB3A
:103D8000012000F0C3FB4DF20F6000F0CBFB2720B9
:103D900000F0BCFB4DF2106000F0C4FB012000F00D
:103DA000B5FB4DF2116000F0BDFB4E2000F0AEFB04
:103DB0004DF2126000F0B6FB012000F0A7FB4DF2BF
:103DC000136000F0AFFB8C2000F0A0FB4DF21460FC
:103DD00000F0A8FB012000F099FB4DF2156000F007
:103DE000A1FBBE2000F092FB4DF2166000F09AFBA2
:103DF000022000F08BFB4DF2176000F093FB0B20CC
:103E000000F084FB4DF2186000F08CFB022000F003
:103E10007DFB4DF2196000F085FB482000F076FB39
:103E20004DF21A6000F07EFB022000F06FFB4DF2B5
:103E30001B6000F077FB4A2000F068FB4DF21C602D
:103E400000F070FB022000F061FB4DF21D6000F0FD
:103E500069FB7E2000F05AFB4DF21E6000F062FB11
:103E6000022000F053FB4DF21F6000F05BFBBC2012
:103E700000F04CFB4DF2206000F054FB022000F0FB
:103E800045FB4DF2216000F04DFBE12000F03EFBD0
:103E90004DF2226000F046FB032000F037FB4DF2AC
:103EA000236000F03FFB102000F030FB4DF2246057
:103EB00000F038FB032000F029FB4DF2256000F0F4
:103EC00031FB312000F022FB4DF2266000F02AFB8E
:103ED000032000F01BFB4DF2276000F023FB5A206B
:103EE00000F014FB4DF2286000F01CFB032000F0F2
:103EF0000DFB4DF2296000F015FB732000F006FB6E
:103F00004DF22A6000F00EFB032000F0FFFA4DF2A4
:103F10002B6000F007FB942000F0F8FA4DF22C60C3
:103F200000F000FB032000F0F1FA4DF22D6000F0EC
:103F3000F9FA9F2000F0EAFA4DF22E6000F0F2FA52
:103F4000032000F0E3FA4DF22F6000F0EBFAB3200B
:103F500000F0DCFA4DF2306000F0E4FA032000F0EB
:103F6000D5FA4DF2316000F0DDFAB92000F0CEFA5A
:103F70004DF2326000F0D6FA032000F0C7FA4DF29D
:103F8000336000F0CFFAC12000F0C0FA4FF4704067
:103F900000F0C8FA552000F0B9FA4FF2010000F025
:103FA000C1FAAA2000F0B2FA4FF2020000F0BAFA09
:103FB000522000F0ABFA4FF2030000F0B3FA0820F1
:103FC00000F0A4FA4FF2040000F0ACFA002000F078
:103FD0009DFA4FF4304000F0A5FA082000F096FA60
:103FE0004BF2010000F09EFA052000F08FFA4BF230
:103FF000020000F097FA022000F088FA4BF203006A
:1040000000F090FA052000F081FA4BF2040000F075
:1040100089FA022000F07AFA4FF4364000F082FA72
:10402000082000F073FA4FF4354000F07BFA50207E
:1040300000F06CFA4FF4374000F074FA002000F002
:1040400065FA4BF2017000F06DFA002000F05EFAA4
:104050004FF4384000F066FA012000F057FA4BF6B2
:10406000010000F05FFA052000F050FA4BF6020064
:1040700000F058FA052000F049FA4BF6030000F072
:1040800051FA052000F042FA4FF43C4000F04AFAA1
:10409000002000F03BFA4BF6014000F043FA00200C
:1040A00000F034FA4BF6024000F03CFA002000F039
:1040B0002DFA4FF44C4000F035FA032000F026FAB8
:1040C0004CF6014000F02EFA002000F01FFA4CF6EA
:1040D000024000F027FA002000F018FA4FF43D40AB
:1040E00000F020FA012000F011FA4BF6015000F028
:1040F00019FA842000F00AFA4BF6025000F012FA86
:10410000072000F003FA4BF6035000F00BFA3120C1
:1041100000F0FCF94BF6045000F004FA002000F027
:10412000F5F94FF43A4000F0FDF9012000F0EEF906
:104130004FF47F4000F0F6F9AA2000F0E7F94FF6BF
:10414000017000F0EFF9552000F0E0F94FF6027031
:1041500000F0E8F9252000F0D9F94FF6037000F0DF
:10416000E1F9012000F0D2F94FF4545000F0DAF9EF
:10417000002000F0CBF94FF4585000F0D3F90020A4
:1041800000F0C4F94FF4685000F0CCF9552000F06D
:10419000BDF94FF4885000F0C5F9782002F096FA86
:1041A0004FF4245000F0BEF94FF4305000F0BAF94B
:1041B000002000F0D3F94FF6FF70FEF7E1FB0BB0E3
:1041C00000BD1FB5FDF7C8F901208DF800000020E3
:1041D0008DF801004FF0C04001901B208DF80800C1
:1041E00000208DF809008DF80A0003208DF80B00DF
:1041F00000208DF80C008DF80D008DF80E000120C8
:104200008DF80F006846FDF779F90420FDF7BAF93B
:104210001FBD30B504460D462B4622462946204692
:1042200000F002F830BD000070B504460D461E4691
:104230002349888900F076F9201200F067F92049B7
:104240008989491C88B200F06DF9E0B200F05EF98E
:104250001B498989891C88B200F064F9101200F0AA
:1042600055F917498989C91C88B200F05BF9D0B2A9
:1042700000F04CF91249C88900F054F9281200F0F6
:1042800045F90F49C989491C88B200F04BF9E8B2D9
:1042900000F03CF90A49C989891C88B200F042F94A
:1042A000301200F033F90649C989C91C88B200F000
:1042B00039F9F0B200F02AF900F040F970BD0000C1
:1042C000BC0000242DE9FF4F83B081468A46934607
:1042D000DDE91064424800880290A6F12000C6B2D1
:1042E00004EBD47009EB6000401E82B20AEB0400BC
:1042F000401E83B2514648460194FFF795FF12983D
:1043000060BB002527E00C2C07D106EB46003549A1
:1043100001EB800010F8058004E0334800EB061044
:1043200010F8058000270FE008F0800018B158460B
:1043300000F090F902E0069800F08CF94FEA48602E
:104340004FEA1068781CC7B204EBD471B7EB610F69
:10435000EADB681CC5B2A542D5DB2FE000252BE0C7
:104360000C2C07D106EB46001E4901EB800010F82B
:10437000058004E01C4800EB061010F805800027BB
:1043800013E01748A0F800B008F0800038B10AEB3D
:10439000050291B209EB070290B2FEF77BFB4FEAF0
:1043A00048604FEA1068781CC7B204EBD471B7EBD1
:1043B000610FE6DB681CC5B2A542D1DB0849029853
:1043C00008800A484088401E83B208480088401E82
:1043D00082B200210846FFF727FF07B0BDE8F08F43
:1043E0003400002448690008BC6D0008BC000024AB
:1043F0002DE9FF4F83B0074691461E46109C4FF0B3
:10440000000A002543E0701B401EC1B20A2002F0E2
:1044100073FAB9FBF0F00A21B0FBF1F201FB1208CC
:10442000BAF1000F1BD1701EA84218DDB8F1000FC1
:1044300013D100202021A346CDE90014029004EB03
:10444000DB71491001FB057188B213490B881349D0
:104450000A880499FFF736FF17E04FF0010A0021A0
:1044600008F13000C0B2A346CDE90141009004EB51
:10447000DB71491001FB057188B207490B880749B8
:104480000A880499FFF71EFF00BF681CC5B2B54239
:10449000B9DB07B0BDE8F08F3600002434000024FB
:1044A0002DE9FE4306460F4615461C46DDF82880DA
:1044B0001DE013480088401EB04204DB10484088CD
:1044C000401EB84201DABDE8FE8320788DE8210164
:1044D0000C4803880C48028839463046FFF7F2FE44
:1044E000284605EBD07106EB61018EB2641C207882
:1044F0007E2802DC20782028DBDA00BFE3E700001A
:10450000BC000024360000243400002401B5BDF8AE
:1045100000000090BDF800000149088008BD0000BF
:104520000000086001B5BDF800000090BDF8000073
:104530000149088008BD0000FEFF076000B5024980
:104540000889FFF7EFFF00BDBC000024024A10807D
:10455000921C118070470000FEFF076000B5034603
:104560004FF42850244988814FF42C50C8814FF4CF
:10457000305008814FF43850488133B1012B11D0AD
:10458000022B1CD0032B34D126E04FF4F0701A49D3
:1045900008804FF44870488000214FF45850FFF7CE
:1045A000D5FF27E04FF44870134908804FF4F070AE
:1045B000488060214FF45850FFF7C8FF1AE04FF4CD
:1045C000F0700D4908804FF448704880C0214FF4C6
:1045D0005850FFF7BBFF0DE04FF4487006490880C4
:1045E0004FF4F0704880A0214FF45850FFF7AEFF11
:1045F00000E000BF00BF00BDBC00002400B587B0D4
:1046000000BF1248006840F00200104908600846E8
:10461000006800F00200019000BF00BF032002907C
:104620000120039004900320059002A90848FCF79C
:10463000E7FD012211460648FCF714FF0122022182
:104640000348FCF70FFF07B000BD0000E04402582C
:10465000000402580149088070470000000008600B
:10466000704770470EB523A0FCF73CF82648282376
:104670001A461E2100900846FCF764FD0120102117
:1046800022A24FF6E073CDE9002102901F224B21B8
:104690002A2000F099F91C4828231A461E21009070
:1046A0005A20FCF74FFD0120102118A24FF6E073AD
:1046B000CDE9002102901F224B21662000F084F9F1
:1046C000114828231A461E2100909620FCF73AFD37
:1046D000012010210DA24FF6E073CDE900210290D8
:1046E0001F224B21A22000F06FF94FF4966001F0D9
:1046F000EDFF0EBDB2E2CAD4373ACDBCC6ACCFD4C2
:10470000CABEB2E2CAD400009C8100085151000028
:1047100010B588B000241D4B0FCBCDE90623CDE9A1
:10472000040100BF2AE04FF6FF70FEF729F920468A
:10473000FFF714FF16A0FBF7D5FF0121102204A8F4
:1047400050F824004FF6E073CDE9012100901F22BC
:104750001E21142000F038F9124828231A4632216D
:1047600000901E20FCF7EEFC4FF47A7001F0AEFFD3
:104770004FF47A7001F0AAFF601CC4B2042CD2DBA3
:104780000020FFF7EBFE08B010BD00001C8E0008F3
:10479000B2E2CAD4393AC6C1C4BBD0FDD7AAB2E28C
:1047A000CAD400009C81000810B50023234C23606C
:1047B00000BF00BF00BFBFF34F8F00BF00BF00BFEF
:1047C000231F1868C0F34E3100BFC0F3C90200BFF9
:1047D00043F6E07303EA41134FF0404404EA827465
:1047E0002343174C236000BF00BF131EA2F1010238
:1047F000EED10B1EA1F10101E7D100BF00BF00BF48
:10480000BFF34F8F00BF00BF00BF0C4B703B1B6856
:1048100043F48033094C703C236000BF00BF00BFED
:10482000BFF34F8F00BF00BF00BF00BF00BF00BF7E
:10483000BFF36F8F00BF00BF00BF10BD84ED00E06D
:1048400060EF00E000BF00BF00BFBFF34F8F00BFAD
:1048500000BF00BF00BF00BF00BFBFF36F8F00BF2E
:1048600000BF00BF00201449086000BF00BF00BFA8
:10487000BFF34F8F00BF00BF00BF00BF00BF00BF2E
:10488000BFF36F8F00BF00BF00BF0C48006840F44B
:1048900000300A49086000BF00BF00BFBFF34F8F60
:1048A00000BF00BF00BF00BF00BF00BFBFF36F8FDE
:1048B00000BF00BF00BF704750EF00E014ED00E004
:1048C00000B587B0164817490860002048600121EC
:1048D000144881600821C1601021016140214161BB
:1048E000890081610021C1614FF4006101624900CA
:1048F0004162002181620220009008200190062080
:1049000002900390022004900590069069460548A5
:10491000FDF756FC034800F007F807B000BD0000A3
:1049200040410052CC00002470B50546002400230D
:1049300001221146184600F021F84FF4FA7001F0F8
:10494000D1FE002301220221184600F017F80023AF
:1049500008220321184600F011F84FF4087423468A
:1049600001220421002000F009F840F2A5210248AC
:10497000FDF7ECFC70BD0000CC0000242DE9FF41E8
:1049800004460D4616461F464FF0000814B94FF076
:10499000100803E0012C01D14FF008080095CDF874
:1049A0000480029603974FF6FF7269460448FDF7AC
:1049B000E1FC18B9002004B0BDE8F0810120FAE75D
:1049C000CC000024704700002DE9FF4F83B006465D
:1049D00088469146DDE91147109DB2464FF0000B25
:1049E00071E0BBF1000F40D104EBD471384A12885A
:1049F000A2EB6101B14204DB35494988091B4145FD
:104A000002DA07B0BDE8F08F2878802802DD4FF089
:104A1000010B58E028780D2806D108EB04001FFA96
:104A200080F856466D1C1EE0102C0DDD10212878F4
:104A30008DE883004A4641463046069BFFF742FC1C
:104A400006F1080086B20EE028788DE891004A460B
:104A500041463046069BFFF735FC204604EBD071FB
:104A600006EB61018EB26D1C2DE019480088001B19
:104A7000B04204DB16484088001B404500DAC0E71E
:104A80004FF0000B202C08D1CDE900574A46414693
:104A90003046069BFCF7C6FA12E0182C08D1CDE987
:104AA00000574A4641463046069BFCF72FFA07E07E
:104AB000CDE900574A4641463046069BFCF7A2F92D
:104AC000AD1C301986B2287800288AD100BF98E73B
:104AD000BC0000242DE9F0419CB080460C461546F0
:104AE0001E4600273748006820F00400354908605A
:104AF00000BF0020009033480C30006840F4404074
:104B000030490C3108600846006800F440400090CD
:104B100000BF00BF00BF2B480C30006800F40050FD
:104B2000B0F5005FF7D10120019000040290002051
:104B30000490089002200A9002210B91CDF8348055
:104B40000C940E950F96002112910821119101A845
:104B5000FCF7D4FF07460FB100BFFEE73F201490DB
:104B600003201590002016900820179040201990DF
:104B700000011A904020189050201B90022114A888
:104B8000FCF772FD07460FB100BFFEE70E48006854
:104B900040F080000C49086000BF0B48F43000680A
:104BA00040F002000849F43108600846006800F04F
:104BB0000200009000BF00BFFCF718FB1CB0BDE86E
:104BC000F08100000C4802580044025810B5FCF770
:104BD00055FC10BD2048006840F470001E49086074
:104BE0001E48006840F001001C49086000201B4975
:104BF00010310860194800681949084017490860D1
:104C00000020164918310860091D0860091D086058
:104C1000124928310860091D0860091D0860091D36
:104C20000860091D0860091D0860091D0860091D4C
:104C300008600A48006820F48020084908600020C5
:104C4000064960310860012006490860C006024933
:104C5000803908607047000088ED00E00044025889
:104C60007FEDF6EA088100512DE9F84F04460D4624
:104C700017461E46DDE90CABDDE90A894FF47840A2
:104C800049490880012049A310228C210090282046
:104C9000FFF706FC012046A310228C21009078200B
:104CA000FFF7FEFB012043A31022A0210090282043
:104CB000FFF7F6FB012040A31022A02100907820EE
:104CC000FFF7EEFB01203DA31022B4210090282025
:104CD000FFF7E6FB01203AA31022B42100907820D0
:104CE000FFF7DEFB012037A31022C8210090282007
:104CF000FFF7D6FB012034A31022C82100907820B2
:104D0000FFF7CEFB012031A31022DC2100902820E8
:104D1000FFF7C6FB1020042322468C210090402080
:104D2000FFF766FB102004232A468C210090902078
:104D3000FFF75EFB102004233A46A021009040209C
:104D4000FFF756FB102004233246A021009090204C
:104D5000FFF74EFB102004234246B4210090402070
:104D6000FFF746FB102004234A46B4210090902010
:104D7000FFF73EFB102004235246C821009040203C
:104D8000FFF736FB102004235A46C82100909020DC
:104D9000FFF72EFB102003230090DC2160200E9AE9
:104DA000FFF726FBBDE8F88F3400002478313A0085
:104DB00079313A0078323A0079323A0078333A0061
:104DC00079333A0078343A0079343A0066616320E6
:104DD00069733A002DE9F0432DED028B89B04FF055
:104DE0000008C14600BF1F20F74908804FF6FF703A
:104DF000F6490880FDF7C4FD4FF47840F249088079
:104E00004FF6FF70FDF7BCFD0020EF490880012040
:104E1000EFA31022282100900A20FFF741FB012078
:104E2000F2A31022382100900A20FFF739FB01205D
:104E3000F5A31022482100900A20FFF731FB012042
:104E4000F8A31022582100900A20FFF729FB012027
:104E5000FBA31022682100900A20FFF721FB4FF4EA
:104E600078421421084600F0CDFB0020F84908756F
:104E70009FEDF80A084680ED060A81E3F448416890
:104E800001208847F248007D00F0C00040286FD123
:104E90004FF00009EE48007D20F04000EC49087515
:104EA0000846008A05A921F82800E948408A01EB54
:104EB0008801488008F1010000F0FF08B8F1010FF7
:104EC00009D0B8F1020F16D0B8F1030F26D0B8F10F
:104ED000040F0FD138E04FF6FF721421084600F09E
:104EE00091FBDD490988143988B24FF478421421C6
:104EF00000F088FB35E3D8490988143988B24FF6A9
:104F0000FF72142100F07EFBD3484088143881B230
:104F10004FF47842142000F075FB22E3CE4840881D
:104F2000143881B24FF6FF72142000F06BFBCA4AAE
:104F30005288143A91B2C84A1288143A90B24FF487
:104F4000784200F05FFB0CE3BDF81410BDF81820A8
:104F5000881A002801DB014600E041420C46BDF8FA
:104F60001620BDF81A10501A002802DB014601E095
:104F7000F8E241420D4664436D43601901EE100AA8
:104F8000B8EE411BB0EE410B01F01CFBBCEEC00BB8
:104F900010EE100A86B2BDF81C10BDF82020881A49
:104FA000002801DB014600E041420C46BDF81E200E
:104FB000BDF82210501A002801DB014600E04142F2
:104FC0000D4664436D43601901EE100AB8EE411BB3
:104FD000B0EE410B01F0F6FABCEEC00B10EE100A79
:104FE00087B200EE106AF8EE400A00EE107AB8EED2
:104FF000400A80EE801AB7EEC10AB0EE408B9FEDFA
:10500000970BB4EEC08BF1EE10FA08D39FED950B21
:10501000B4EEC08BF1EE10FA01DC06B1A7BB4FF085
:1050200000088D4A5288143A91B28B4A1288143A79
:1050300090B24FF6FF7200F0E5FA4FF47842142177
:10504000084600F0DFFA9FED890B28EE000BBCEE5E
:10505000C00B10EE100A81B2BDF82220BDF820006E
:10506000BDF81E30CDE90130CDE90321BDF81C00AB
:105070000090BDF81A30BDF81820BDF81610BDF824
:105080001400FFF7F1FD7BE2FFE7BDF81410BDF857
:105090001C20881A002801DB014600E041420C4632
:1050A000BDF81620BDF81E10501A002801DB01467D
:1050B00000E041420D4664436D43601901EE100A61
:1050C000B8EE411BB0EE410B01F07CFABCEEC00B18
:1050D00010EE100A86B2BDF81810BDF82020881A0C
:1050E000002801DB014600E041420C46BDF81A20D1
:1050F000BDF82210501A002801DB014600E04142B1
:105100000D4664436D43601901EE100AB8EE411B71
:10511000B0EE410B01F056FABCEEC00B10EE100AD7
:1051200087B200EE106AF8EE400A00EE107AB8EE90
:10513000400A80EE801AB7EEC10AB0EE408B9FEDB8
:10514000470BB4EEC08BF1EE10FA06D39FED450B82
:10515000B4EEC08BF1EE10FA34DD4FF000083E4A99
:105160005288143A91B23C4A1288143A90B24FF6DF
:10517000FF7200F047FA4FF478421421084600F01D
:1051800041FA9FED3A0B28EE000BBCEEC00B10EE7F
:10519000100A80B2BDF82210BDF82020BDF81E30E4
:1051A000CDE90132CDE90310BDF81C000090BDF837
:1051B0001A30BDF81820BDF81610BDF81400FFF71E
:1051C00053FDDDE156E000003400002436000024E9
:1051D000506C656173652075736520746865207314
:1051E00074796C757320636C69636B0074686520F7
:1051F00063726F7373206F6E2074686520736372BF
:1052000065656E2E000000005468652063726F7340
:10521000732077696C6C20616C77617973206D6F96
:1052200076650000756E74696C2074686520736320
:105230007265656E2061646A7573746D656E740065
:10524000697320636F6D706C657465642E00000077
:105250003C00002400000000BC0000246666666676
:105260006666EE3FCDCCCCCCCCCCF03F000000004D
:1052700000005940BDF81810BDF81C20881A0028FD
:1052800001DB014600E041420C46BDF81A20BDF8A2
:105290001E10501A002801DB014600E041420D4675
:1052A00064436D43601901EE100AB8EE411BB0EE85
:1052B000410B01F087F9BCEEC00B10EE100A86B26C
:1052C000BDF81410BDF82020881A002801DB014623
:1052D00000E041420C46BDF81620BDF82210501ADD
:1052E000002801DB014600E041420D4664436D4366
:1052F000601901EE100AB8EE411BB0EE410B01F04F
:1053000061F9BCEEC00B10EE100A87B200EE106A15
:10531000F8EE400A00EE107AB8EE400A80EE801AED
:10532000B7EEC10AB0EE408B1FED340BB4EEC08B6C
:10533000F1EE10FA06D31FED350BB4EEC08BF1EE93
:1053400010FA34DD4FF000088F4A5288143A91B2B7
:105350008D4A1288143A90B24FF6FF7200F052F95B
:105360004FF478421421084600F04CF91FED410B30
:1053700028EE000BBCEEC00B10EE100A82B2BDF896
:105380002210BDF82000BDF81E30CDE90130CDE976
:105390000312BDF81C000090BDF81A30BDF81820AB
:1053A000BDF81610BDF81400FFF75EFCE8E0BDF88C
:1053B0001800BDF81410401A00EE100AF8EEC00AEA
:1053C00071480088283800EE100AB8EEC00A80EE56
:1053D000201A6E4880ED061ABDF81800BDF81410AA
:1053E000084400EE100AF8EEC00A6748008800EE94
:1053F000100AB8EE400A654890ED061A01EE600A00
:10540000F0EE000A80EE201ABDEEC10A10EE100A7E
:1054100000B25E490884BDF81E00BDF81610401A9F
:1054200000EE100AF8EEC00A57484088283800EE0F
:10543000100AB8EEC00A80EE201A544880ED071A10
:10544000BDF81E00BDF81610084400EE100AF8EE74
:10545000C00A4D48408800EE100AB8EE400A4B489A
:1054600090ED071A01EE600AF0EE000A80EE201AB5
:10547000BDEEC10A10EE100A00B2444948840A4643
:1054800092ED060ABDEEC00A10EE101A002901DBEB
:105490000A4600E04A42022A0DDC3C4A92ED070A25
:1054A000BDEEC00A10EE100A002801DB024600E043
:1054B0004242022A37DD4FF00008334A5288143A3C
:1054C00091B2314A1288143A90B24FF6FF7200F04E
:1054D00099F84FF478421421084600F093F801201F
:1054E0002BA310221A2100902820FEF7D9FF27486D
:1054F00090F8240008B9012000E00020234981F839
:105500002400084690F8240030B190202549087006
:10551000D0202549087005E0D0202249087090204D
:10552000214908702CE01F20204908804FF6FF70A9
:10553000FDF726FA01201EA310226E2100902320E1
:10554000FEF7AEFF4FF47A7001F0C0F800F06AFA8F
:105550004FF6FF70FDF714FA09B0BDEC028BBDE801
:10556000F08300BF0A2001F0B1F809F101001FFA31
:1055700080F9B9F57A7F02DD00F080F801E000BF24
:105580007CE400BF00BFE7E7BC0000243C0000242F
:105590005450204E65656420726561646A75737449
:1055A0002100000064000024650000243400002471
:1055B000546F7563682053637265656E2041646A39
:1055C000757374204F4B210070B504460D46164686
:1055D0000B48068029462046FDF75CFA611C88B21C
:1055E0002946FDF757FA681C81B22046FDF752FAAA
:1055F0006A1C91B2621C90B2FDF74CFA70BD0000BB
:1056000034000024F8B504460D4616461A480680B4
:1056100004F10D018AB2193988B22B462946FDF7EB
:10562000E1F905F10D0083B2193881B22246204616
:10563000FDF7D8F96A1C91B2621C90B2FDF72AFA04
:105640006A1C91B2621E90B2FDF724FA6A1E91B2F2
:10565000621C90B2FDF71EFA6A1E91B2621E90B2F1
:10566000FDF718FA00200623009003480288294617
:10567000204601F05BF8F8BD3400002410B5352059
:10568000FAF73AFF04460A2C46D104212820FAF7FB
:105690001DFF044600EE104AB8EEC00ADFED1F0AF7
:1056A00080EE201A1E4880ED061A04212C20FAF7FD
:1056B0000DFF044600EE104AB8EEC00ADFED170AEF
:1056C00080EE201A164880ED071A02213020FAF7E2
:1056D000FDFE00B21249088402213220FAF7F6FEDC
:1056E00000B20F4948843420FAF706FF0C4981F8CC
:1056F0002400084690F8240030B190200949087031
:10570000D0200949087005E0D02006490870902093
:1057100005490870012010BD0020FCE720BCBE4CEC
:105720003C000024640000246500002400B587B01C
:1057300000BF2F48006840F080002D4908600846EF
:10574000006800F08000019000BF00BF00BF084665
:10575000006840F4807008600846006800F48070BB
:10576000019000BF00BF00BF0846006840F0400045
:1057700008600846006800F04000019000BF00BFCC
:10578000402002900120039004900320059002A97C
:105790001848FBF735FD4FF48470029002A91648B3
:1057A000FBF72EFD802002900020039002A91148F3
:1057B000FBF726FD0820029002A91048FBF720FD08
:1057C0000F49881E00F0B6F8FAF77CFEFFF756FF87
:1057D00010B1002007B000BD4FF6FF70FDF7D0F804
:1057E000FFF7F8FA00F01EF9FFF748FF0120F1E794
:1057F000E0440258001C02580020025800180258C9
:105800004E00002470B506460025002400224021E9
:105810002748FBF727FE002208212648FBF722FE37
:1058200000224FF480712348FBF71CFE304600F045
:10583000AFF9062000F056FF002240211C48FBF77C
:1058400011FE012000F04EFF012240211848FBF715
:1058500009FE012000F046FF002240211448FBF71A
:1058600001FE00BF19E04FF6FF7000EA4404002279
:1058700040210F48FBF7F6FD012000F033FF012225
:1058800040210B48FBF7EEFD08210B48FBF7DEFD3E
:1058900008B1601C84B2681CC5B2102DE3DB241172
:1058A000012211020348FBF7DDFD204670BD000018
:1058B000001C025800200258001802582DE9FE432F
:1058C00080460027002406E04046FFF79BFF2DF8A6
:1058D0001400601C84B2052CF6DB002416E0601C6A
:1058E00085B20FE03DF814003DF81510884207DD41
:1058F0003DF814603DF815002DF814002DF81560E2
:10590000681C85B2052DEDDB601C84B2042CE6DB3F
:105910000027012405E03DF81400384487B2601CDC
:1059200084B2042CF7DB032097FBF0F086B23046FC
:10593000BDE8FE832DE9F04104460D460748007896
:10594000FFF7BCFF064606480078FFF7B7FF07469B
:1059500026802F800120BDE8F08100006400002433
:10596000650000247FB504460D4602A903A8FFF791
:10597000E1FF064616B9002004B070BD694601A8D3
:10598000FFF7D8FF06460EB90020F5E7BDF8040082
:10599000BDF80C10884206DCBDF80C10BDF8040000
:1059A000323081420CDBBDF80C00BDF80410884297
:1059B00036DCBDF80410BDF80C00323081422FDA1D
:1059C000BDF80000BDF80810884206DCBDF80810DC
:1059D000BDF80000323081420CDBBDF80800BDF894
:1059E000001088421CDCBDF80010BDF80800323001
:1059F000814215DABDF80C10BDF80420881800EBC0
:105A0000D071C1F34F012180BDF80810BDF800200E
:105A1000881800EBD071C1F34F0129800120ABE75A
:105A20000020A9E710B51D4890ED060ADFED1C0A1D
:105A300020EE200ABDEEC00A10EE104A04222146D4
:105A40002820FAF785FD154890ED070ADFED140AC6
:105A500020EE200ABDEEC00A10EE104A04222146B4
:105A60002C20FAF775FD0D48B0F9201002223020E5
:105A7000FAF76EFD0948B0F9221002223220FAF737
:105A800067FD064890F824103420FAF776FD0A24C2
:105A900021463520FAF771FD10BD00003C000024BE
:105AA00020BCBE4C10B5044680213748FBF7CEFC25
:105AB00000284BD124B13549881EFFF753FF34E04D
:105AC0003249881EFFF74EFF78B330481238B0F9DC
:105AD000200000EE100AB8EEC00A2C48123890EDF3
