:020000040800F2
:10000000D0070020FD4E0008BD0E0008BF0E0008FE
:10001000C30E0008C70E0008CB0E00080000000049
:10002000000000000000000000000000CF0E0008EB
:10003000D10E000800000000D30E0008D50E000805
:10004000174F0008174F0008174F0008174F0008F8
:10005000174F0008174F0008174F0008174F0008E8
:10006000174F0008174F0008174F0008174F0008D8
:10007000174F0008174F0008174F0008174F0008C8
:10008000174F0008174F0008174F0008174F0008B8
:10009000174F0008174F0008174F0008174F0008A8
:1000A000174F0008174F0008174F0008174F000898
:1000B000174F0008174F0008174F0008174F000888
:1000C000174F0008174F0008174F0008174F000878
:1000D000174F0008174F0008174F0008174F000868
:1000E000174F0008174F0008174F0008174F000858
:1000F000174F0008174F0008174F0008174F000848
:10010000174F0008174F0008174F0008174F000837
:10011000174F0008174F0008174F0008174F000827
:10012000174F0008174F0008174F0008174F000817
:10013000174F0008174F0008174F0008174F000807
:10014000174F0008174F0008174F0008174F0008F7
:10015000174F0008174F0008174F0008174F0008E7
:10016000174F0008174F0008174F0008174F0008D7
:10017000174F0008174F0008174F0008174F0008C7
:10018000174F0008174F000800F002F800F03EF883
:100190000AA090E8000C82448344AAF10107DA45E2
:1001A00001D100F033F8AFF2090EBAE80F0013F0F6
:1001B000010F18BFFB1A43F001031847288A0000FB
:1001C000488A0000103A24BF78C878C1FAD852078C
:1001D00024BF30C830C144BF04680C6070470000C1
:1001E0000023002400250026103A28BF78C1FBD840
:1001F000520728BF30C148BF0B6070471FB506F0DB
:100200002AFA05F07CFE1FBD10B510BD05F0B6FE44
:100210001146FFF7F3FF00F023F805F0D4FE03B416
:10022000FFF7F2FF03BC05F0D9FE00000B49D1F83F
:1002300000C04A685CF8043B1068184442F8040B9C
:100240008C4528BFA1F1DC0C8A4228BFA1F1DC0259
:10025000C1F800C04A6020F00040704768010020EB
:100260004FF4A06004F06AFEA82004F0C5FD02F07F
:1002700014FB15E000F084FF00F0C0FF01F040F82F
:1002800001F0F0F801F008FA01F0AFF901F0DEFA40
:1002900001F019FB01F069FD01F05DFB01F07AFC52
:1002A000E8E7000070B505460E461446314628467C
:1002B00002F063F9204602F005F970BD2DE9F05F08
:1002C00004460D4616461F46301B401C1FFA80FA96
:1002D000781B401C1FFA80FB3B46324629462046CD
:1002E00002F000F94FF000080FE04FF0000906E0BF
:1002F0000A9802F0E7F809F101001FFA80F9D145E8
:10030000F6DB08F101001FFA80F8D845EDDBFE4866
:100310004088401E83B2FC480088401E82B2002103
:10032000084602F0DFF8BDE8F09F2DE9FF4F85B0E9
:1003300081468A460020049003900798A0EB0905A7
:100340000898A0EB0A06CDF80890CDF804A0002D7F
:1003500001DD012705E00DB9002702E04FF0FF376E
:100360006D42002E02DD4FF0010806E016B94FF095
:10037000000802E04FF0FF387642B54201DD2C461E
:1003800000E034464FF0000B21E0019A91B2029A4E
:1003900090B202F0FCF8049828440490039830448A
:1003A00003900498A04205DD0498001B0490029875
:1003B000384402900398A04205DD0398001B039087
:1003C0000198404401900BF101001FFA80FB601C72
:1003D0008345DADD09B0BDE8F08F2DE9F041044630
:1003E0000D4616461F462B46324629462046FFF745
:1003F0009CFF3B46224629462046FFF796FF3B4698
:10040000324639462046FFF790FF3B4632462946A2
:100410003046FFF78AFFBDE8F081F8B504460D4687
:1004200016461F46B94800883B463246294600908A
:100430002046FFF743FFF8BD2DE9F04104460D4685
:1004400016461F46DDF81880EA1991B2A21990B23B
:100450004246FFF727FFEA1991B2A21B90B242462B
:10046000FFF720FFEA1B91B2A21990B24246FFF7B4
:1004700019FFEA1B91B2A21B90B24246FFF712FF8E
:10048000AA1991B2E21990B24246FFF70BFFAA19DE
:1004900091B2E21B90B24246FFF704FFAA1B91B251
:1004A000E21990B24246FFF7FDFEAA1B91B2E21B91
:1004B00090B24246FFF7F6FEBDE8F0812DE9FF4F0E
:1004C00081B0824617469846DDF838B0002445468C
:1004D0004FEA4800C0F10306BBF1000F1FD01BE03C
:1004E000A14608E04B462246009750460299FFF786
:1004F000A3FF09F10109A945F4DD002E04DA042067
:1005000000FB0460861D06E0601B042101FB006007
:1005100000F10A066D1E641CAC42E1DD18E015E036
:100520002B462246009750460299FFF785FF002E82
:1005300004DA042000FB0460861D06E0601B042131
:1005400001FB006000F10A066D1E641CAC42E7DD91
:1005500005B0BDE8F08F2DE9F04704460D4616467C
:100560001F46DDE908893B46324629462046FFF70B
:10057000DCFE4B46424639463046FFF7D6FE2B4658
:10058000224649464046FFF7D0FEBDE8F087028884
:100590000B8803800A8070472DE9FF4F85B0002645
:1005A0000027BDF81800BDF82010884207DD08A913
:1005B00006A8FFF7ECFF07A905A8FFF7E8FFBDF8BD
:1005C0002000BDF84C10884207DD08A913A8FFF7EA
:1005D000DEFF07A912A8FFF7DAFFBDF81800BDF883
:1005E0002010884207DD08A906A8FFF7D0FF07A959
:1005F00005A8FFF7CCFFBDF81800BDF84C108842E5
:1006000038D1BDF8140003900490BDF81C00BDF86B
:100610001010884203DABDF81C00049008E0BDF811
:100620001C00BDF80C10884202DDBDF81C000390D0
:10063000BDF84800BDF81010884203DABDF8480044
:10064000049008E0BDF84800BDF80C10884202DDB7
:10065000BDF8480003902D4800880090BDF8183080
:10066000BDF80C201946BDF81000FFF727FE09B0B1
:10067000BDE8F08FBDF81C00BDF81410A0EB010B15
:10068000BDF82000BDF81810401A0290BDF84800CF
:10069000BDF81410451ABDF84C00BDF81810A0EBB9
:1006A0000109BDF84800BDF81C10A0EB010ABDF817
:1006B0004C00BDF82010401A0190BDF82000BDF894
:1006C0004C10884202D1BDF8208004E0BDF8200023
:1006D000401E1FFA80F8BDF818402CE0029896FBE7
:1006E000F0F0BDF81410084480B2049097FBF9F0C4
:1006F000BDF81410084480B203905E442F44BDF846
:100700001000BDF80C1003E07C0000203000002039
:10071000884203DD03A904A8FFF739FFF7480088E2
:1007200023460090BDF80C202146BDF81000FFF7CD
:10073000C5FD601C84B24445D0DDBDF82000201A00
:1007400000FB0AF6BDF81800201A00FB05F727E0A9
:10075000019896FBF0F0BDF81C10084480B204909C
:1007600097FBF9F0BDF81410084480B2039056448A
:100770002F44BDF81000BDF80C10884203DD03A91A
:1007800004A8FFF704FFDD48008823460090BDF869
:100790000C202146BDF81000FFF790FD601C84B2CC
:1007A000BDF84C008442D3DD00BF60E72DE9FF4F68
:1007B00083B081468A469346DDE91064CF480088BD
:1007C0000290A6F12000C6B204EBD47009EB6000E1
:1007D000401E82B20AEB0400401E83B251464846D6
:1007E000019401F07FFE129860BB002527E00C2CDD
:1007F00007D106EB4600C24901EB800010F80580E6
:1008000004E0C04800EB061010F8058000270FE058
:1008100008F0800018B1584601F054FE02E0069836
:1008200001F050FE4FEA48604FEA1068781CC7B2EA
:1008300004EBD471B7EB610FEADB681CC5B2A542CB
:10084000D5DB2FE000252BE00C2C07D106EB460072
:10085000AB4901EB800010F8058004E0A94800EBEB
:10086000061010F80580002713E0A448A0F800B097
:1008700008F0800038B10AEB050291B209EB0702DB
:1008800090B201F084FE4FEA48604FEA1068781C8D
:10089000C7B204EBD471B7EB610FE6DB681CC5B2DD
:1008A000A542D1DB95490298088097484088401EB0
:1008B00083B295480088401E82B20021084601F0AC
:1008C00011FE07B0BDE8F08F2DE9FE4306460F4646
:1008D00015461C46DDF828801DE08B480088401E28
:1008E000B04204DB88484088401EB84201DABDE8C7
:1008F000FE8320788DE82101844803887F480288A0
:1009000039463046FFF752FF284605EBD07106EB1B
:1009100061018EB2641C20787E2802DC20782028B9
:10092000DBDA00BFE3E710B50246012000E05043E8
:100930000B1EA1F10104E1B2F9D110BD2DE9FF4F69
:1009400083B0074691461E46109C4FF0000A0025D2
:1009500043E0701B401EC1B20A20FFF7E4FFB9FB61
:10096000F0F00A21B0FBF1F201FB1208BAF1000F1E
:100970001BD1701EA84218DDB8F1000F13D1002062
:100980002021A346CDE90014029004EBDB7149104D
:1009900001FB057188B25D490B8858490A880499A2
:1009A000FFF704FF17E04FF0010A002108F13000C3
:1009B000C0B2A346CDE90141009004EBDB714910C0
:1009C00001FB057188B251490B884C490A8804998A
:1009D000FFF7ECFE00BF681CC5B2B542B9DB07B03B
:1009E000BDE8F08F2DE9FC5F0546884691469A46A2
:1009F000DDF830B000954920019000245FE004EB61
:100A00000410434911F810009BF80010884253D19C
:100A100004EB04103E4901EB400040789BF80110C4
:100A2000884249D108F10F0083B205F10F0082B26C
:100A30004146284601F056FD00263BE0002734E001
:100A40000D9890B904EB0410314901EB4000801C73
:100A5000805D80213941084018B1484601F032FDDF
:100A600021E0504601F02EFD1DE02448A0F8009042
:100A700004EB0410264901EB4000801C805D8021BE
:100A80003941084018B14146284601F080FD681CF4
:100A900085B20098281A102805D1009D08F10100A0
:100AA0001FFA80F803E0781CC7B2082FC8DB00BF2C
:100AB000701CC6B2202EC1DB00BF601C84B201983E
:100AC00084429CDB10484088401E83B20E48008858
:100AD000401E82B20021084601F004FDBDE8FC9FE3
:100AE0002DE9FC5F0546884691469A46DDF830B010
:100AF000009507200190002474E0000030000020E1
:100B000060660008D46A00087C00002032000020E3
:100B1000C470000804EB840000EB4410E34911F8B2
:100B200010009BF80010884259D104EB840000EBC0
:100B30004410DE4901EB400040789BF801108842E8
:100B40004DD108F1170083B205F1170082B241467A
:100B5000284601F0C7FC00263FE0002738E00D984A
:100B6000A0B904EB840000EB4410D04901EB400035
:100B7000801C805D80213941084018B1484601F051
:100B8000A1FC23E0504601F09DFC1FE0C848A0F8FE
:100B9000009004EB840000EB4410C44901EB4000DA
:100BA000801C805D80213941084018B141462846AB
:100BB00001F0EDFC681C85B20098281A182805D1B0
:100BC000009D08F101001FFA80F803E0781CC7B20D
:100BD000082FC4DB00BF701CC6B2482EBDDB00BFAF
:100BE000601C84B20198844294DBB2484088401E65
:100BF00083B2B0480088401E82B20021084601F04E
:100C000071FCBDE8FC9F2DE9FC5F054688469146D6
:100C10009A46DDF830B000950420019000245FE092
:100C200004EB8410A44911F810009BF800108842CE
:100C300053D104EB8410A04901EB400040789BF8AD
:100C40000110884249D108F11F0083B205F11F004D
:100C500082B24146284601F045FC00263BE00027D1
:100C600034E00D9890B904EB8410934901EB4000F7
:100C7000801C805D80213941084018B1484601F050
:100C800021FC21E0504601F01DFC1DE08848A0F841
:100C9000009004EB8410884901EB4000801C805DCB
:100CA00080213941084018B14146284601F06FFCC7
:100CB000681C85B20098281A202805D1009D08F1EB
:100CC00001001FFA80F803E0781CC7B2082FC8DBC8
:100CD00000BF701CC6B2802EC1DB00BF601C84B296
:100CE000019884429CDB73484088401E83B271485F
:100CF0000088401E82B20021084601F0F3FBBDE8E7
:100D0000FC9F2DE9FF4F83B0064688469146DDE9FA
:100D10001147109DB2464FF0000B71E0BBF1000F80
:100D200040D104EBD471634A1288A2EB6101B14255
:100D300004DB60494988091B414502DA07B0BDE878
:100D4000F08F2878802802DD4FF0010B58E02878DA
:100D50000D2806D108EB04001FFA80F856466D1CDA
:100D60001EE0102C0DDD102128788DE883004A4606
:100D700041463046069BFFF719FD06F1080086B292
:100D80000EE028788DE891004A4641463046069BA1
:100D9000FFF70CFD204604EBD07106EB61018EB22B
:100DA0006D1C2DE043480088001BB04204DB414825
:100DB0004088001B404500DAC0E74FF0000B202CB4
:100DC00008D1CDE900574A4641463046069BFFF719
:100DD0001AFF12E0182C08D1CDE900574A464146C7
:100DE0003046069BFFF77CFE07E0CDE900574A46F8
:100DF00041463046069BFFF7F5FDAD1C301986B223
:100E0000287800288AD100BF98E72DE9FE4F0E46CA
:100E100017469846DDE90D9A0C9C204605F078F8B7
:100E200085B224490988A1EBC50000EBD071C1F35C
:100E30004F0B43463A46314658468DE81006FFF7B9
:100E400060FFBDE8FE8F2DE9F05F07468846154636
:100E50001E46DDF8289008EB0600401E83B2781984
:100E6000401E82B24146384601F03CFB00240AE0B5
:100E700019F814B009EB440090F801A04BEA0A20DD
:100E800001F020FB641C05FB06F0A042F0DC0948E1
:100E90004088401E83B207480088401E82B200216D
:100EA000084601F01FFBBDE8F09F0000767A0008BD
:100EB000300000207C0000207C7C0008704700BFD0
:100EC000FEE700BFFEE700BFFEE700BFFEE770479A
:100ED00070477047704700000CB5002001900090EB
:100EE0007648006840F480307449086000BF734859
:100EF000006800F4003000900198401C01900098B8
:100F000018B90198B0F5A04FF1D16C48006800F411
:100F1000003010B10120009001E000200090009806
:100F2000012846D165484030006840F08050634950
:100F3000403108606248006840F440406049086001
:100F40005E48083000685D4908310860084600685E
:100F500040F4004008600846006840F4A050086073
:100F60005848091F0860081F006840F08070091F7A
:100F7000086000BF5148006800F000700028F9D0F8
:100F800040F20570504908604C480830006820F075
:100F900003004A49083108600846006840F0020032
:100FA000086000BF45480830006800F00C000828C1
:100FB000F8D10CBD10B54548006840F470004349B5
:100FC00008603E48006840F001003C49086000208D
:100FD0003A4908310860394800683D4908403749B6
:100FE00008603C48091D0860081F006820F4802044
:100FF000091F0860002031490C310860FFF76CFFC1
:101000004FF0006031498039086010BD70B5002094
:101010000022022300240221284D08352D6805F006
:101020000C0020B1042806D0082834D107E02A4D4E
:101030002A4E356033E02A4D284E35602FE01F4D93
:101040002D1D2D68C5F380541C4D2D1D2D6805F0F8
:101050003F0154B1224DB5FBF1F5184E361D3668EF
:10106000C6F3881605FB06F209E01B4DB5FBF1F54A
:10107000124E361D3668C6F3881605FB06F20F4D74
:101080002D1D2D68C5F301456D1C6B00B2FBF3F5FA
:10109000124E356003E0104D104E356000BF00BFAA
:1010A000064D08352D68C5F303150E4E705D0B4DCA
:1010B0002D68C540094E356070BD00000038024003
:1010C0000070004008544007003C024088ED00E0FA
:1010D000FFFFF6FE103000240024F4000000002082
:1010E00000127A00040000203EB504464FF6FF705F
:1010F000FE4908801F200090FD480288142300212B
:101100000846FFF7DBF8012010211F234FF6FF727E
:10111000CDE90041029002210020FFF776FE1F205A
:101120000090F3484088401E83B2F1480088401E7A
:1011300082B2EF484088143881B20020FFF7BEF831
:1011400001201021EBA2CDE900210290E84840885F
:10115000123881B21F234FF6FF720020FFF755FEB1
:101160004FF6FF700090E2484088153883B2E0489F
:101170000088401E82B215210020FFF79FF83EBD77
:101180000EB5E2A0FFF7B0FF01201021E5A21F235A
:10119000CDE900210290DA021E210020FFF735FE82
:1011A00001201021DBA21F23CDE900210290DA02E9
:1011B0003C210020FFF729FE01201021DCA21F2383
:1011C000CDE9002102904FF61F025A210020FFF7BF
:1011D0001CFE01201021DEA21F23CDE90021029078
:1011E0001A4678210020FFF710FE40F2DC5003F091
:1011F00065FE40F2DC5003F061FE0EBD0EB54FF609
:10120000FF700090BA484088401E83B2B8480088FA
:10121000401E82B200210846FFF750F8012010213D
:10122000D2A24FF6E073CDE9002102901F221E21C9
:101230001420FFF766FD4FF4487003F03FFE4FF4B3
:1012400078400090AA484088401E83B2A848008891
:10125000401E82B200210846FFF730F8012010211D
:10126000C4A24FF6E073CDE9002102901F221E2197
:101270001420FFF746FD4FF4487003F01FFE4FF4B3
:10128000FC6000909A484088401E83B298480088CD
:10129000401E82B200210846FFF710F801201021FD
:1012A000B6A24FF6E073CDE9002102901F221E2165
:1012B0001420FFF726FD4FF4487003F0FFFD1F20B8
:1012C00000908B484088401E83B289480088401EA9
:1012D00082B200210846FEF7F1FF01201021A9A2E9
:1012E0004FF6E073CDE9002102904FF478421E21C1
:1012F0001420FFF706FD4FF4487003F0DFFD0EBD2C
:101300002DE9F0470024A1A0FFF7EEFE00BF4CE05E
:10131000A44830F8140075490880DFF8D4C1BCF83F
:10132000025005EBD57C4FEA6C0CACF16E0CC4EBB3
:1013300004190CEB490C0CF1640C1FFA8CF3DFF868
:10134000B0C1BCF8006006EBD67C4FEA6C0CACF187
:101350006E0CC4EB04190CEB490C0CF1640C1FFA75
:101360008CF2DFF88CC1BCF8027007EBD77C4FEA37
:101370006C0CACF16E0CC4EB04190CEB490C1FFAAD
:101380008CF1DFF86CC1BCF8008008EBD87C4FEA28
:101390006C0CACF16E0CC4EB04190CEB490C1FFA8D
:1013A0008CF0FFF71AF8601CC4B2052CB0DB40F2D9
:1013B000DC5003F083FD00244CE07A4830F8140040
:1013C0004A490880DFF828C1BCF8027007EBD77CD7
:1013D0004FEA6C0CACF16E0CC4EB04190CEB490C2D
:1013E0000CF1640C1FFA8CF3DFF804C1BCF8005058
:1013F00005EBD57C4FEA6C0CACF16E0CC4EB041918
:101400000CEB490C0CF1640C1FFA8CF2DFF8E0C015
:10141000BCF8028008EBD87C4FEA6C0CACF16E0C87
:10142000C4EB04190CEB490C1FFA8CF1DFF8C0C0B7
:10143000BCF8006006EBD67C4FEA6C0CACF16E0C8D
:10144000C4EB04190CEB490C1FFA8CF0FEF7E5FF16
:10145000601CC4B2052CB0DB40F2DC5003F02EFD62
:10146000BDE8F087F8B500244FA0FFF73DFE00BFB0
:101470001FE000201E4B00905D8805EBD5735B10CC
:10148000463BC4EBC40707EB8707D919184B1E88E6
:1014900006EBD6735B10463BC4EBC40707EB87072C
:1014A000D819404B33F814203223FFF707F8601C9B
:1014B000C4B2052CDDDB40F2DC5003F0FFFC00245D
:1014C0008BE001200A4B00905D8805EBD5735B1023
:1014D000463BC4EBC40707EB8707D919044B1E88AA
:1014E00006EBD6735B10463B6AE00000300000203C
:1014F0007C000020687474703A2F2F7777772E6CF9
:10150000636477696B692E636F6D0000C8ABB6AF1B
:10151000B5E7D7D3D7DBBACFB2E2CAD4B3CCD0F2D7
:1015200000000000C8ABB6AFB5E7D7D3000000009D
:10153000342E3022204D65676132353630204E54CE
:1015400033353531302034383058383030000000F1
:101550007869616F46656E674051447465636820C1
:10156000323032322D30332D30320000424C205494
:101570006573740052454420000000004752454501
:101580004E200000424C554520000000B2E2CAD473
:10159000323A475549BED8D0CECCEEB3E4B2E2CA17
:1015A000D400000014000020B2E2CAD4333A4755F8
:1015B00049BBADD4B2CCEEB3E4B2E2CAD400000071
:1015C000C4EBC40707EB8707D819E84B33F814209E
:1015D0003223FEF773FF601CC4B2052CFFF671AF17
:1015E00040F2DC5003F06AFCF8BD0EB5E0A0FFF756
:1015F0007BFD00200C21E3A24FF6E073CDE9002132
:1016000002901F221E210A20FFF77BFB01200C21E4
:10161000E7A24FF6E073CDE9002102901F222D21B1
:101620000A20FFF76EFB00200C21ECA24FF6E073BE
:10163000CDE9002102901F223C210A20FFF761FB27
:1016400000201021EDA24FF6E073CDE900210290B9
:101650001F2250210A20FFF754FB01201021F2A283
:101660004FF6E073CDE9002102901F2264210A2089
:10167000FFF747FB00201021F6A24FF6E073CDE9FB
:10168000002102901F2278210A20FFF73AFB4FF435
:10169000966003F013FC0EBD2DE9FC5F0024F5A05D
:1016A000FFF722FD00BF60E0B04830F81400F849B1
:1016B0000880F848458805EBD57040101138C4EB18
:1016C000041100EB410081B2F248068806EBD670A7
:1016D00040100B38C4EB041200EB420080B2DFF87C
:1016E000B4C3CDE90001BCF8027007EBD77C4FEA28
:1016F0006C0CACF1670CC4EB041B0CEB4B0C1FFA2D
:101700008CF3DFF890C3BCF8008008EBD87C4FEA7C
:101710006C0CACF13D0CC4EB041B0CEB4B0C1FFA36
:101720008CF2DFF870C3BCF8029009EBD97C4FEA69
:101730006C0CACF1110CC4EB041B0CEB4B0C1FFA42
:101740008CF1DFF850C3BCF800A00AEBDA7C4FEA5A
:101750006C0CACF16E0CC4EB041B0CEB4B0C1FFAC5
:101760008CF0FEF7F8FE601CC4B2052C9CDB40F246
:10177000DC5003F0A3FB002460E07C4830F8140048
:10178000C3490880C348458805EBD570401011381F
:10179000C4EB041100EB410081B2BE48068806EBA1
:1017A000D67040100B38C4EB041200EB420080B23C
:1017B000DFF8E0C2CDE90001BCF8027007EBD77C8E
:1017C0004FEA6C0CACF1670CC4EB041B0CEB4B0C3C
:1017D0001FFA8CF3DFF8BCC2BCF8008008EBD87CA1
:1017E0004FEA6C0CACF13D0CC4EB041B0CEB4B0C46
:1017F0001FFA8CF2DFF89CC2BCF8029009EBD97C8E
:101800004FEA6C0CACF1110CC4EB041B0CEB4B0C51
:101810001FFA8CF1DFF87CC2BCF800A00AEBDA7C7E
:101820004FEA6C0CACF16E0CC4EB041B0CEB4B0CD4
:101830001FFA8CF0FEF7B0FE601CC4B2052C9CDBD6
:1018400040F2DC5003F03AFBBDE8FC9F0EB592A0DD
:10185000FFF74AFC0020102194A24FF6E073CDE977
:10186000002102901F221E210A20FFF74AFA0020C1
:10187000102197A24FF6E073CDE9002102901F22BC
:1018800032210A20FFF73DFA0120182196A24FF6D7
:10189000E073CDE9002102901F2246210A20FFF7C4
:1018A00030FA0120202196A24FF6E073CDE9002105
:1018B00002901F2264210A20FFF723FA4FF496605A
:1018C00003F0FCFA0EBD0EB591A0FFF70DFC954894
:1018D00028231A461E2100900846FFF7B4FA01207B
:1018E000102191A24FF6E073CDE9002102901F2252
:1018F0004B212A20FFF705FA8A4828231A461E2181
:1019000000905A20FFF79FFA0120102186A24FF67F
:10191000E073CDE9002102901F224B216620FFF7E2
:10192000F0F9804828231A461E2100909620FFF7E0
:101930008AFA012010217CA24FF6E073CDE9002144
:1019400002901F224B21A220FFF7DBF94FF4966093
:1019500003F0B4FA0EBD10B588B00024734B0FCB62
:10196000CDE90623CDE9040100BF0CE114000020FD
:10197000B2E2CAD4353AD3A2CEC4CFD4CABEB2E200
:10198000CAD40000365831323A61626364656667D2
:1019900068696A6B6C6D6E6F70717273747576774F
:1019A00078797A30313233343536373839000000BF
:1019B000365831323A4142434445464748494A4BFA
:1019C0004C4D4E4F505152535455565758595A300A
:1019D0003132333435363738390000003658313239
:1019E0003A7E21402324255E262A28295F2B7B7DF1
:1019F0003A3C3E3F2F7C2D2B2E00000038583136CC
:101A00003A6162636465666768696A6B6C6D6E6F84
:101A1000707172737475767778797A3031323334C5
:101A20003536373839000000385831363A414243AC
:101A30004445464748494A4B4C4D4E4F50515253EE
:101A40005455565758595A30313233343536373861
:101A500039000000385831363A7E21402324255E73
:101A6000262A28295F2B7B7D3A3C3E3F2F7C2D2B5D
:101A70002E000000B2E2CAD4343A475549205472CD
:101A800069616E676C65CCEEB3E4B2E2CAD4000063
:101A9000300000207C000020B2E2CAD4363AD6D012
:101AA000CEC4CFD4CABEB2E2CAD400003136583157
:101AB000363AC8ABB6AFB5E7D7D3BCBCCAF5D3D0BE
:101AC000CFDEB9ABCBBEBBB6D3ADC4FA00000000CD
:101AD00031365831363A57656C636F6D65C8ABB6B1
:101AE000AFB5E7D7D300000032345832343AC9EEEC
:101AF000DBDACAD0D6D0CEC4B2E2CAD4000000002D
:101B000033325833323AD7D6CCE5B2E2CAD40000E9
:101B1000B2E2CAD4373ACDBCC6ACCFD4CABEB2E268
:101B2000CAD40000847E000851510000048B0008D4
:101B30004FF6FF7000F037FD204600F052FEEAA09D
:101B4000FFF7D2FA0121102204A850F824004FF622
:101B5000E073CDE9012100901F221E211420FFF720
:101B6000D0F8E64828231A46322100901E20FFF7BD
:101B70006AF94FF47A7003F0A1F94FF47A7003F028
:101B80009DF9601CC4B2042CD2DB002000F029FEB9
:101B900008B010BD08B5002500264FF4784703F0C3
:101BA000C6F800F013FC02F03FF9D5A0FFF79CFA4D
:101BB0000120DC4900900988183988B2DAA3102284
:101BC0000021FEF781FE3846D8490880D5490090AB
:101BD00009881C398AB2D3490988323988B212235C
:101BE0000221FEF76BFBBFE0012000F00DFC044674
:101BF000CF48416800208847CD48007D00F0800034
:101C0000002879D0CA48008AC6490988884276DA0D
:101C1000C748408AC3494988884270DAC448018A63
:101C2000C04800881838814222DDC148408A102807
:101C30001EDAB3A0FFF758FA0120BA4900900988CC
:101C4000183988B2B8A310220021FEF73DFEB7482C
:101C500007800088B349009009881C398AB2B149CD
:101C60000988323988B212230221FEF727FB46E0A9
:101C7000AF48018AAB4800883238814234DDAC4835
:101C8000018AA84800881C3881422DDAA848408A79
:101C9000142829DA052096FBF0F100FB1160A54914
:101CA00031F810809F49CDF8008009881C398AB22C
:101CB0009C490988323988B212230221FEF7FEFAC4
:101CC0003046711C8EB2052190FBF1F201FB12002F
:101CD000984931F8100095490880084607880A207D
:101CE00003F0ECF80BE007E0914A518A108A8F4A22
:101CF000128802F010FA02E00A2003F0DFF8012C4B
:101D000025D14FF6FF7000F04EFC02F0D2FB02F03E
:101D10008EFA7BA0FFF7E8F901208249009009883C
:101D2000183988B280A310220021FEF7CDFD7F482C
:101D3000078000887B49009009881C398AB279495C
:101D40000988323988B212230221FEF7B7FA681CDB
:101D500085B21E2D08D100257748006808B90120FA
:101D600000E00020744908603EE738B573A0FFF733
:101D7000BBF91F206D490880754804F0ABF80120BD
:101D800074A31022322100900F20FEF79DFD012048
:101D900076A31022462100900F20FEF795FD01202A
:101DA00078A310225A2100900F20FEF78DFD01200C
:101DB0007AA310226E2100900F20FEF785FD0120EE
:101DC0007CA31022822100900F20FEF77DFD0120D0
:101DD0007EA31022962100900F20FEF775FD0120B2
:101DE0007FA31022AA2100900F20FEF76DFD4FF473
:101DF00078404E490880002473E0FEF717FA42F25B
:101E0000107190FBF1F201FB1205102005232A4608
:101E1000322100906420FEF791FDFEF707FA42F2AE
:101E2000107190FBF1F201FB1205102005232A46E8
:101E3000462100906420FEF781FDFEF7F7F942F29B
:101E4000107190FBF1F201FB1205102005232A46C8
:101E50005A2100906420FEF771FDFEF7E7F942F287
:101E6000107190FBF1F201FB1205102005232A46A8
:101E70006E2100906420FEF761FDFEF7D7F942F273
:101E8000107190FBF1F201FB1205102005232A4688
:101E9000822100906420FEF751FDFEF7C7F9322140
:101EA00090FBF1F201FB1205102005232A46962132
:101EB00000906420FEF742FDFEF7B8F9642190FB24
:101EC000F1F201FB1205102005232A46AA210090F9
:101ED0006420FEF733FD4FF4FA7002F0EFFF601C50
:101EE000C4B20F2C89DB38BDB2E2CAD4393AC6C1BC
:101EF000C4BBD0FDD7AAB2E2CAD40000847E0008D9
:101F0000B2E2CAD431303A546F756368B2E2CAD4CF
:101F100028B0B44B455930BCFCD0A3D7BC292020F5
:101F2000200000007C0000205253540030000020AC
:101F3000380000201400002084024042B2E2CAD4DB
:101F4000383AB6AFCCACCAFDD7D6CFD4CABE0000A3
:101F500040E20100204843484F3A20202020202022
:101F6000202020202075672F6D3300002020434F54
:101F7000323A202020202020202020202070706D48
:101F8000000000002054564F433A202020202020FB
:101F9000202020202075672F6D330000504D322EF9
:101FA000353A202020202020202020202075672F57
:101FB0006D33000020504D31303A20202020202069
:101FC000202020202075672F6D33000020205445ED
:101FD000503A2020202020202020202020430000D4
:101FE000202048554D3A202020202020202020204D
:101FF0002025000010B500F0BBF810BD70B50446F8
:10200000002600F0D4F82546E11704EB116109120F
:10201000A02202EB4101C8B200F075F900F008F906
:10202000E11704EB11610912A4EB0121C8B200F021
:102030006AF900F0FDF800F0BAF8A12000F063F9A9
:1020400000F0F6F8002000F08BF9064600F0D1F819
:10205000304670BD70B504460E4600F0A8F825461F
:10206000E11704EB11610912A02202EB4101C8B291
:1020700000F049F900F0DCF8E11704EB11610912F6
:10208000A4EB0121C8B200F03EF900F0D1F83046CF
:1020900000F039F900F0CCF800F0ABF80A2002F0BB
:1020A0000DFF70BD2DE9F04105460E461746002490
:1020B00009E0E20026FA02F2D1B22A1990B2FFF743
:1020C000C9FF601CC4B2BC42F3DBBDE8F0812DE95E
:1020D000F04107460C460026002509E03602391972
:1020E000491B491E88B2FFF789FF0644681CC5B228
:1020F000A542F3DB3046BDE8F08110B5FF20FFF7C5
:102100007DFF0446552C01D1002010BD5521FF2034
:10211000FFF7A0FFFF20FFF771FF0446552C01D108
:102120000020F2E70120F0E770B506460C461546A0
:1021300008E03046721C96B2FFF760FF04F8010B0E
:10214000681E85B2002DF4D170BD70B505460C46F1
:10215000164606E021782846FFF77CFF681C85B20A
:10216000641C301EA6F101018EB2F3D170BD0000D7
:102170001CB50121022003F059FD4FF4407000907E
:1021800001208DF8040000208DF8060003208DF852
:10219000050001208DF807006946894802F0C4FF58
:1021A0000120884908608849C1F8A4021CBD10B507
:1021B0008348006820F44020814908600846006890
:1021C00040F48020086001207E49091D08607E4996
:1021D000C1F8A002042002F029FE00207949091D5F
:1021E0000860042002F022FE00207749C1F8A00216
:1021F00010BD10B57248006820F440207049086096
:102200000846006840F48020086000206D4908609E
:102210006D49C1F8A402042002F008FE01206949BA
:1022200008606949C1F8A402042002F0FFFD10BD56
:1022300010B500246248006820F44020604908601E
:1022400008460068086001205E49091D086002F028
:10225000EDFD01205C49C1F8A00202F0E7FD07E0B6
:10226000601CC4B2FA2C03DDFFF7C3FF012010BDD0
:1022700054487C3800680028F2D15249086000BFF9
:10228000F5E710B500204F4908604D48006820F47C
:1022900040204B4908600846006840F480200860F0
:1022A00000204949C1F8A402022002F0BFFD01202C
:1022B00044490860022002F0B9FD00204249C1F8FB
:1022C000A00210BD10B500203E4908603C480068DF
:1022D00020F440203A4908600846006840F4802015
:1022E000086001203849C1F8A402022002F09EFDD6
:1022F000012034490860022002F098FD0020324994
:10230000C1F8A00210BD70B504462D48006820F445
:1023100040202B4908600846006840F4802008608F
:10232000002028490860002517E0E0092549091D1B
:1023300008606006040E022002F078FD01202249A8
:10234000C1F8A002022002F071FD00201D490860C2
:10235000022002F06BFD681CC5B2082DE5DB70BDE4
:1023600070B5054600241648006820F44020144942
:102370000860084600680860002616E00020114941
:102380000860022002F052FD01200F49C1F8A002AE
:102390006006040E0B487C38006808B1601CC4B2AB
:1023A000012002F043FD701CC6B2082EE6DB15B911
:1023B000FFF788FF01E0FFF764FF204670BD0000D3
:1023C00000040240A0824042008040421CB501212E
:1023D000112003F02BFC1020009000208DF8040049
:1023E00003208DF8050001208DF807006946234879
:1023F00002F09AFE0120009002208DF80700694645
:102400001F4802F091FE1CBD10B5044614B1012016
:102410001C4908701B480078F8B11021174802F0D9
:10242000E5FE28B10121164802F0E0FE012814D192
:102430000A2002F043FD00201249087010210F48C5
:1024400002F0D4FE08B9012010BD01210C4802F0B1
:10245000CDFE01280FD10420F6E71021074802F035
:10246000C5FE012807D10121054802F0BFFE10B9C1
:102470000120044908700020E6E700000010024037
:10248000000002402E00002001B5BDF800000090C1
:10249000BDF80000F849088008BD01B5BDF800008E
:1024A0000090BDF80000F449891C088008BDF24A7C
:1024B0001080921C1180704700B5F0490889FFF721
:1024C000E3FF00BDEC49891C0880704710B5034646
:1024D00003F0F800000201F0FC0440EAC40040EA06
:1024E000D20010BD70B504460D461E46E3498889EA
:1024F000FFF7CAFF2012FFF7D0FFE0498989491C86
:1025000088B2FFF7C1FFE0B2FFF7C7FFDB49898957
:10251000891C88B2FFF7B8FF1012FFF7BEFFD7493A
:102520008989C91C88B2FFF7AFFFD0B2FFF7B5FFAA
:10253000D249C889FFF7A8FF2812FFF7AEFFCF499D
:10254000C989491C88B2FFF79FFFE8B2FFF7A5FFD2
:10255000CA49C989891C88B2FFF796FF3012FFF774
:102560009CFFC649C989C91C88B2FFF78DFFF0B22C
:10257000FFF793FFFFF7A0FF70BD30B504460D468F
:102580002B46224629462046FFF7ACFF30BD30B52A
:1025900004460D4629462046FFF7EFFFB84800885D
:1025A000FFF790FF30BD70B50446B4480088B349CA
:1025B000498800FB01F6B1484088401E83B2AF480D
:1025C0000088401E82B200210846FFF78BFF0025DD
:1025D00003E0A948801C04806D1CB542F9D370BD8E
:1025E00000B59FB001211A2003F020FB012108460D
:1025F00003F054FB4FF400501D9001208DF878003B
:1026000000208DF87A0002208DF8790001208DF8E5
:102610007B001DA99B4802F087FD4CF233701D9092
:1026200002208DF8780000208DF87A0003208DF8C4
:10263000790001208DF87B001DA9924802F074FDFD
:102640004FF680701D9002208DF8780000208DF8E4
:102650007A0003208DF8790001208DF87B001DA9F8
:10266000894802F061FD4FF408601D9002208DF84A
:10267000780000208DF87A0003208DF87900012081
:102680008DF87B001DA97F4802F04EFD0C22002131
:102690007C4802F0D4FD0C2201217A4802F0CFFDE3
:1026A0000C220421774802F0CAFD0C22052175484E
:1026B00002F0C5FD0C220821724802F0C0FD0C2278
:1026C0000921704802F0BBFD0C220A216D4802F07E
:1026D000B6FD0C220E216B4802F0B1FD0C220F2139
:1026E000684802F0ACFD0C220721674802F0A7FD04
:1026F0000C220821644802F0A2FD0C220921624844
:1027000002F09DFD0C220A215F4802F098FD0C2288
:102710000B215D4802F093FD0C2211465A4802F04D
:102720008EFD0C220D21584802F089FD0C220E214D
:10273000554802F084FD0C220F21534802F07FFD22
:102740000C2207214F4802F07AFD0C220B214D4844
:1027500002F075FD0F200790002008903C200990A2
:1027600000200A900B900C900D900A200090002001
:102770000190102002900020039004900590069094
:102780000E900F9010901020119000201290149035
:102790001390159016904FF48050179000201890C9
:1027A0004FF48040199000201A9007A81B90CDF894
:1027B00070D00EA802F097FD0121002002F01EFE4D
:1027C0001FB000BD10B5002030490860642002F041
:1027D00075FB01202E49C1F8B402322002F06EFBD5
:1027E00010BD00B503464FF42850244988814FF4AA
:1027F0002C50C8814FF4305008814FF43850488134
:1028000033B1012B11D0022B1CD0032B42D126E077
:102810004FF4F070194908804FF448704880002147
:102820004FF45850FFF743FE35E04FF4487013491A
:1028300008804FF4F070488060214FF45850FFF743
:1028400036FE28E04FF4F0700C4908804FF44870D1
:102850004880C0214FF45850FFF729FE1BE04FF489
:102860004870064908804FF4F0704880A0214FF46A
:102870005850FFF71CFE0EE0FEFF01607C000020B8
:1028800030000020000C024000100240B48241429F
:102890000080414200BF00BF00BD10B5FFF7A0FEA1
:1028A000322002F00BFB4FF47040FFF7EDFD552096
:1028B000FFF7F3FD4FF20100FFF7E6FDAA20FFF757
:1028C000ECFD4FF20200FFF7DFFD5220FFF7E5FDC0
:1028D0004FF20300FFF7D8FD0820FFF7DEFD4FF2AF
:1028E0000400FFF7D1FD0120FFF7D7FD4FF436407C
:1028F000FFF7CAFD3420FFF7D0FD4BF20160FFF770
:10290000C3FD3420FFF7C9FD4BF20260FFF7BCFDA9
:102910003420FFF7C2FD4FF43040FFF7B5FD0D2026
:10292000FFF7BBFD4BF20100FFF7AEFD0D20FFF7F7
:10293000B4FD4BF20200FFF7A7FD0D20FFF7ADFD40
:102940004FF43740FFF7A0FD2420FFF7A6FD4BF220
:102950000170FFF799FD2420FFF79FFD4BF20270F5
:10296000FFF792FD2420FFF798FD4FF43140FFF769
:102970008BFD0D20FFF791FD4BF20110FFF784FD59
:102980000D20FFF78AFD4BF20210FFF77DFD0D20B1
:10299000FFF783FD4FF43840FFF776FD2420FFF763
:1029A0007CFD4BF60100FFF76FFD2420FFF775FD5E
:1029B0004BF60200FFF768FD2420FFF76EFD4FF491
:1029C0003240FFF761FD0020FFF767FD4FF439400B
:1029D000FFF75AFD2420FFF760FD4BF60110FFF7CB
:1029E00053FD2420FFF759FD4BF60210FFF74CFD75
:1029F0002420FFF752FD4FF43340FFF745FD05203B
:102A0000FFF74BFD4BF20130FFF73EFD0520FFF7CE
:102A100044FD4BF20230FFF737FD0520FFF73DFD87
:102A20004FF43A40FFF730FD3420FFF736FD4BF608
:102A30000120FFF729FD3420FFF72FFD4BF6022080
:102A4000FFF722FD3420FFF728FD4FF43540FFF754
:102A50001BFD0B20FFF721FD4BF20150FFF714FD8A
:102A60000B20FFF71AFD4BF20250FFF70DFD0B2074
:102A7000FFF713FD4FF43C40FFF706FD0020FFF782
:102A80000CFD4BF60140FFF7FFFCA320FFF705FD0F
:102A90004BF60240FFF7F8FC0020FFF7FEFC4FF476
:102AA0003D40FFF7F1FC0020FFF7F7FC4BF601502B
:102AB000FFF7EAFCA320FFF7F0FC4BF60250FFF70C
:102AC000E3FC0020FFF7E9FC4FF43E40FFF7DCFC9D
:102AD0000020FFF7E2FC4BF60160FFF7D5FC632016
:102AE000FFF7DBFC4FF45140FFF7CEFC0020FFF76F
:102AF000D4FC4DF20110FFF7C7FC3720FFF7CDFCE7
:102B00004DF20210FFF7C0FC0020FFF7C6FC4DF2AB
:102B10000310FFF7B9FC5220FFF7BFFC4DF2041081
:102B2000FFF7B2FC0020FFF7B8FC4DF20510FFF7ED
:102B3000ABFC7B20FFF7B1FC4DF20610FFF7A4FCC5
:102B40000020FFF7AAFC4DF20710FFF79DFC99202B
:102B5000FFF7A3FC4DF20810FFF796FC0020FFF7EB
:102B60009CFC4DF20910FFF78FFCB120FFF795FC9C
:102B70004DF20A10FFF788FC0020FFF78EFC4DF2A3
:102B80000B10FFF781FCD220FFF787FC4DF20C10F1
:102B9000FFF77AFC0020FFF780FC4DF20D10FFF7E5
:102BA00073FCF620FFF779FC4DF20E10FFF76CFC7A
:102BB0000120FFF772FC4DF20F10FFF765FC272094
:102BC000FFF76BFC4DF21010FFF75EFC0120FFF7E2
:102BD00064FC4DF21110FFF757FC4E20FFF75DFC2F
:102BE0004DF21210FFF750FC0120FFF756FC4DF29A
:102BF0001310FFF749FC8C20FFF74FFC4DF2141027
:102C0000FFF742FC0120FFF748FC4DF21510FFF7DB
:102C10003BFCBE20FFF741FC4DF21610FFF734FCE1
:102C20000220FFF73AFC4DF21710FFF72DFC0B20A6
:102C3000FFF733FC4DF21810FFF726FC0220FFF7D8
:102C40002CFC4DF21910FFF71FFC4820FFF725FC64
:102C50004DF21A10FFF718FC0220FFF71EFC4DF290
:102C60001B10FFF711FC4A20FFF717FC4DF21C1058
:102C7000FFF70AFC0220FFF710FC4DF21D10FFF7D2
:102C800003FC7E20FFF709FC4DF21E10FFF7FCFB52
:102C90000220FFF702FC4DF21F10FFF7F5FBBC20EE
:102CA000FFF7FBFB4DF22010FFF7EEFB0220FFF7D2
:102CB000F4FB4DF22110FFF7E7FBE120FFF7EDFBFE
:102CC0004DF22210FFF7E0FB0320FFF7E6FB4DF289
:102CD0002310FFF7D9FB1020FFF7DFFB4DF2241084
:102CE000FFF7D2FB0320FFF7D8FB4DF22510FFF7CB
:102CF000CBFB3120FFF7D1FB4DF22610FFF7C4FBD1
:102D00000320FFF7CAFB4DF22710FFF7BDFB5A2047
:102D1000FFF7C3FB4DF22810FFF7B6FB0320FFF7C8
:102D2000BCFB4DF22910FFF7AFFB7320FFF7B5FB9B
:102D30004DF22A10FFF7A8FB0320FFF7AEFB4DF280
:102D40002B10FFF7A1FB9420FFF7A7FB4DF22C10EF
:102D5000FFF79AFB0320FFF7A0FB4DF22D10FFF7C2
:102D600093FB9F20FFF799FB4DF22E10FFF78CFB92
:102D70000320FFF792FB4DF22F10FFF785FBB320E6
:102D8000FFF78BFB4DF23010FFF77EFB0320FFF7C0
:102D900084FB4DF23110FFF777FBB920FFF77DFB85
:102DA0004DF23210FFF770FB0320FFF776FB4DF278
:102DB0003310FFF769FBC120FFF76FFB4FF4524060
:102DC000FFF762FB0020FFF768FB4DF20120FFF7E1
:102DD0005BFB3720FFF761FB4DF20220FFF754FB4E
:102DE0000020FFF75AFB4DF20320FFF74DFB522066
:102DF000FFF753FB4DF20420FFF746FB0020FFF7DF
:102E00004CFB4DF20520FFF73FFB7B20FFF745FB16
:102E10004DF20620FFF738FB0020FFF73EFB4DF296
:102E20000720FFF731FB9920FFF737FB4DF2082011
:102E3000FFF72AFB0020FFF730FB4DF20920FFF7D8
:102E400023FBB120FFF729FB4DF20A20FFF71CFB03
:102E50000020FFF722FB4DF20B20FFF715FBD220DD
:102E6000FFF71BFB4DF20C20FFF70EFB0020FFF7D6
:102E700014FB4DF20D20FFF707FBF620FFF70DFBCB
:102E80004DF20E20FFF700FB0120FFF706FB4DF28D
:102E90000F20FFF7F9FA2720FFF7FFFA4DF2102075
:102EA000FFF7F2FA0120FFF7F8FA4DF21120FFF7D1
:102EB000EBFA4E20FFF7F1FA4DF21220FFF7E4FA99
:102EC0000120FFF7EAFA4DF21320FFF7DDFA8C201C
:102ED000FFF7E3FA4DF21420FFF7D6FA0120FFF7CF
:102EE000DCFA4DF21520FFF7CFFABE20FFF7D5FA36
:102EF0004DF21620FFF7C8FA0220FFF7CEFA4DF286
:102F00001720FFF7C1FA0B20FFF7C7FA4DF2182080
:102F1000FFF7BAFA0220FFF7C0FA4DF21920FFF7C7
:102F2000B3FA4820FFF7B9FA4DF21A20FFF7ACFACE
:102F30000220FFF7B2FA4DF21B20FFF7A5FA4A2054
:102F4000FFF7ABFA4DF21C20FFF79EFA0220FFF7C5
:102F5000A4FA4DF21D20FFF797FA7E20FFF79DFAA5
:102F60004DF21E20FFF790FA0220FFF796FA4DF27D
:102F70001F20FFF789FABC20FFF78FFA4DF22020BF
:102F8000FFF782FA0220FFF788FA4DF22120FFF7BF
:102F90007BFAE120FFF781FA4DF22220FFF774FA65
:102FA0000320FFF77AFA4DF22320FFF76DFA102085
:102FB000FFF773FA4DF22420FFF766FA0320FFF7BC
:102FC0006CFA4DF22520FFF75FFA3120FFF765FA22
:102FD0004DF22620FFF758FA0320FFF75EFA4DF274
:102FE0002720FFF751FA5A20FFF757FA4DF2282011
:102FF000FFF74AFA0320FFF750FA4DF22920FFF7B6
:1030000043FA7320FFF749FA4DF22A20FFF73CFA02
:103010000320FFF742FA4DF22B20FFF735FA9420F8
:10302000FFF73BFA4DF22C20FFF72EFA0320FFF7B3
:1030300034FA4DF22D20FFF727FA9F20FFF72DFAE3
:103040004DF22E20FFF720FA0320FFF726FA4DF26B
:103050002F20FFF719FAB320FFF71FFA4DF23020A7
:10306000FFF712FA0320FFF718FA4DF23120FFF7AD
:103070000BFAB920FFF711FA4DF23220FFF704FAEC
:103080000320FFF70AFA4DF23320FFF7FDF9C120C4
:10309000FFF703FA4FF45340FFF7F6F90020FFF76C
:1030A000FCF94DF20130FFF7EFF93720FFF7F5F9A2
:1030B0004DF20230FFF7E8F90020FFF7EEF94DF28C
:1030C0000330FFF7E1F95220FFF7E7F94DF2043042
:1030D000FFF7DAF90020FFF7E0F94DF20530FFF7CE
:1030E000D3F97B20FFF7D9F94DF20630FFF7CCF981
:1030F0000020FFF7D2F94DF20730FFF7C5F999200C
:10310000FFF7CBF94DF20830FFF7BEF90020FFF7CB
:10311000C4F94DF20930FFF7B7F9B120FFF7BDF957
:103120004DF20A30FFF7B0F90020FFF7B6F94DF283
:103130000B30FFF7A9F9D220FFF7AFF94DF20C30B1
:10314000FFF7A2F90020FFF7A8F94DF20D30FFF7C5
:103150009BF9F620FFF7A1F94DF20E30FFF794F935
:103160000120FFF79AF94DF20F30FFF78DF9272074
:10317000FFF793F94DF21030FFF786F90120FFF7C2
:103180008CF94DF21130FFF77FF94E20FFF785F9EA
:103190004DF21230FFF778F90120FFF77EF94DF27A
:1031A0001330FFF771F98C20FFF777F94DF21430E7
:1031B000FFF76AF90120FFF770F94DF21530FFF7BC
:1031C00063F9BE20FFF769F94DF21630FFF75CF99D
:1031D0000220FFF762F94DF21730FFF755F90B2087
:1031E000FFF75BF94DF21830FFF74EF90220FFF7B9
:1031F00054F94DF21930FFF747F94820FFF74DF920
:103200004DF21A30FFF740F90220FFF746F94DF270
:103210001B30FFF739F94A20FFF73FF94DF21C3018
:10322000FFF732F90220FFF738F94DF21D30FFF7B2
:103230002BF97E20FFF731F94DF21E30FFF724F90C
:103240000220FFF72AF94DF21F30FFF71DF9BC20CD
:10325000FFF723F94DF22030FFF716F90220FFF7B0
:103260001CF94DF22130FFF70FF9E120FFF715F9B6
:103270004DF22230FFF708F90320FFF70EF94DF267
:103280002330FFF701F91020FFF707F94DF2243042
:10329000FFF7FAF80320FFF700F94DF22530FFF7AA
:1032A000F3F83120FFF7F9F84DF22630FFF7ECF88C
:1032B0000320FFF7F2F84DF22730FFF7E5F85A2028
:1032C000FFF7EBF84DF22830FFF7DEF80320FFF7A9
:1032D000E4F84DF22930FFF7D7F87320FFF7DDF857
:1032E0004DF22A30FFF7D0F80320FFF7D6F84DF261
:1032F0002B30FFF7C9F89420FFF7CFF84DF22C30B0
:10330000FFF7C2F80320FFF7C8F84DF22D30FFF7A2
:10331000BBF89F20FFF7C1F84DF22E30FFF7B4F84D
:103320000320FFF7BAF84DF22F30FFF7ADF8B320C6
:10333000FFF7B3F84DF23030FFF7A6F80320FFF7A0
:10334000ACF84DF23130FFF79FF8B920FFF7A5F840
:103350004DF23230FFF798F80320FFF79EF84DF258
:103360003330FFF791F8C120FFF797F84FF454403E
:10337000FFF78AF80020FFF790F84DF20140FFF7C1
:1033800083F83720FFF789F84DF20240FFF77CF809
:103390000020FFF782F84DF20340FFF775F8522046
:1033A000FFF77BF84DF20440FFF76EF80020FFF7BF
:1033B00074F84DF20540FFF767F87B20FFF76DF8D2
:1033C0004DF20640FFF760F80020FFF766F84DF277
:1033D0000740FFF759F89920FFF75FF84DF20840D2
:1033E000FFF752F80020FFF758F84DF20940FFF7B9
:1033F0004BF8B120FFF751F84DF20A40FFF744F8BF
:103400000020FFF74AF84DF20B40FFF73DF8D220BD
:10341000FFF743F84DF20C40FFF736F80020FFF7B6
:103420003CF84DF20D40FFF72FF8F620FFF735F886
:103430004DF20E40FFF728F80120FFF72EF84DF26D
:103440000F40FFF721F82720FFF727F84DF2104033
:10345000FFF71AF80120FFF720F84DF21140FFF7AF
:1034600013F84E20FFF719F84DF21240FFF70CF851
:103470000120FFF712F84DF21340FFF705F88C20FA
:10348000FFF70BF84DF21440FEF7FEFF0120FFF7A7
:1034900004F84DF21540FEF7F7FFBE20FEF7FDFFE2
:1034A0004DF21640FEF7F0FF0220FEF7F6FF4DF258
:1034B0001740FEF7E9FF0B20FEF7EFFF4DF2184033
:1034C000FEF7E2FF0220FEF7E8FF4DF21940FEF79B
:1034D000DBFF4820FEF7E1FF4DF21A40FEF7D4FF74
:1034E0000220FEF7DAFF4DF21B40FEF7CDFF4A2027
:1034F000FEF7D3FF4DF21C40FEF7C6FF0220FEF799
:10350000CCFF4DF21D40FEF7BFFF7E20FEF7C5FF4A
:103510004DF21E40FEF7B8FF0220FEF7BEFF4DF24F
:103520001F40FEF7B1FFBC20FEF7B7FF4DF2204071
:10353000FEF7AAFF0220FEF7B0FF4DF22140FEF792
:10354000A3FFE120FEF7A9FF4DF22240FEF79CFF0A
:103550000320FEF7A2FF4DF22340FEF795FF102057
:10356000FEF79BFF4DF22440FEF78EFF0320FEF78F
:1035700094FF4DF22540FEF787FF3120FEF78DFFC7
:103580004DF22640FEF780FF0320FEF786FF4DF246
:103590002740FEF779FF5A20FEF77FFF4DF22840C3
:1035A000FEF772FF0320FEF778FF4DF22940FEF789
:1035B0006BFF7320FEF771FF4DF22A40FEF764FFA8
:1035C0000320FEF76AFF4DF22B40FEF75DFF9420CB
:1035D000FEF763FF4DF22C40FEF756FF0320FEF787
:1035E0005CFF4DF22D40FEF74FFF9F20FEF755FF89
:1035F0004DF22E40FEF748FF0320FEF74EFF4DF23E
:103600002F40FEF741FFB320FEF747FF4DF2304059
:10361000FEF73AFF0320FEF740FF4DF23140FEF780
:1036200033FFB920FEF739FF4DF23240FEF72CFF91
:103630000320FEF732FF4DF23340FEF725FFC12095
:10364000FEF72BFF4FF45540FEF71EFF0020FEF75C
:1036500024FF4DF20150FEF717FF3720FEF71DFF44
:103660004DF20250FEF710FF0020FEF716FF4DF25C
:103670000350FEF709FF5220FEF70FFF4DF20450F2
:10368000FEF702FF0020FEF708FF4DF20550FEF79F
:10369000FBFE7B20FEF701FF4DF20650FEF7F4FE25
:1036A0000020FEF7FAFE4DF20750FEF7EDFE9920DE
:1036B000FEF7F3FE4DF20850FEF7E6FE0020FEF79F
:1036C000ECFE4DF20950FEF7DFFEB120FEF7E5FEFD
:1036D0004DF20A50FEF7D8FE0020FEF7DEFE4DF256
:1036E0000B50FEF7D1FED220FEF7D7FE4DF20C5064
:1036F000FEF7CAFE0020FEF7D0FE4DF20D50FEF799
:10370000C3FEF620FEF7C9FE4DF20E50FEF7BCFEDA
:103710000120FEF7C2FE4DF20F50FEF7B5FE272046
:10372000FEF7BBFE4DF21050FEF7AEFE0120FEF795
:10373000B4FE4DF21150FEF7A7FE4E20FEF7ADFE8F
:103740004DF21250FEF7A0FE0120FEF7A6FE4DF24C
:103750001350FEF799FE8C20FEF79FFE4DF2145099
:10376000FEF792FE0120FEF798FE4DF21550FEF78F
:103770008BFEBE20FEF791FE4DF21650FEF784FE42
:103780000220FEF78AFE4DF21750FEF77DFE0B2059
:10379000FEF783FE4DF21850FEF776FE0220FEF78C
:1037A0007CFE4DF21950FEF76FFE4820FEF775FEC5
:1037B0004DF21A50FEF768FE0220FEF76EFE4DF243
:1037C0001B50FEF761FE4A20FEF767FE4DF21C50CB
:1037D000FEF75AFE0220FEF760FE4DF21D50FEF786
:1037E00053FE7E20FEF759FE4DF21E50FEF74CFEB2
:1037F0000220FEF752FE4DF21F50FEF745FEBC20A0
:10380000FEF74BFE4DF22050FEF73EFE0220FEF783
:1038100044FE4DF22150FEF737FEE120FEF73DFE5B
:103820004DF22250FEF730FE0320FEF736FE4DF239
:103830002350FEF729FE1020FEF72FFE4DF22450F4
:10384000FEF722FE0320FEF728FE4DF22550FEF77C
:103850001BFE3120FEF721FE4DF22650FEF714FE2E
:103860000320FEF71AFE4DF22750FEF70DFE5A20F8
:10387000FEF713FE4DF22850FEF706FE0320FEF77A
:103880000CFE4DF22950FEF7FFFD7320FEF705FEFA
:103890004DF22A50FEF7F8FD0320FEF7FEFD4DF233
:1038A0002B50FEF7F1FD9420FEF7F7FD4DF22C5062
:1038B000FEF7EAFD0320FEF7F0FD4DF22D50FEF776
:1038C000E3FD9F20FEF7E9FD4DF22E50FEF7DCFDF3
:1038D0000320FEF7E2FD4DF22F50FEF7D5FDB32099
:1038E000FEF7DBFD4DF23050FEF7CEFD0320FEF774
:1038F000D4FD4DF23150FEF7C7FDB920FEF7CDFDE6
:103900004DF23250FEF7C0FD0320FEF7C6FD4DF22A
:103910003350FEF7B9FDC120FEF7BFFD4FF456400E
:10392000FEF7B2FD0020FEF7B8FD4DF20160FEF794
:10393000ABFD3720FEF7B1FD4DF20260FEF7A4FDAE
:103940000020FEF7AAFD4DF20360FEF79DFD522018
:10395000FEF7A3FD4DF20460FEF796FD0020FEF792
:103960009CFD4DF20560FEF78FFD7B20FEF795FD77
:103970004DF20660FEF788FD0020FEF78EFD4DF249
:103980000760FEF781FD9920FEF787FD4DF2086084
:10399000FEF77AFD0020FEF780FD4DF20960FEF78C
:1039A00073FDB120FEF779FD4DF20A60FEF76CFD64
:1039B0000020FEF772FD4DF20B60FEF765FDD22090
:1039C000FEF76BFD4DF20C60FEF75EFD0020FEF78A
:1039D00064FD4DF20D60FEF757FDF620FEF75DFD2C
:1039E0004DF20E60FEF750FD0120FEF756FD4DF240
:1039F0000F60FEF749FD2720FEF74FFD4DF21060E6
:103A0000FEF742FD0120FEF748FD4DF21160FEF782
:103A10003BFD4E20FEF741FD4DF21260FEF734FDF6
:103A20000120FEF73AFD4DF21360FEF72DFD8C20CC
:103A3000FEF733FD4DF21460FEF726FD0120FEF780
:103A40002CFD4DF21560FEF71FFDBE20FEF725FD93
:103A50004DF21660FEF718FD0220FEF71EFD4DF236
:103A60001760FEF711FD0B20FEF717FD4DF21860F1
:103A7000FEF70AFD0220FEF710FD4DF21960FEF779
:103A800003FD4820FEF709FD4DF21A60FEF7FCFC2D
:103A90000220FEF702FD4DF21B60FEF7F5FC4A2006
:103AA000FEF7FBFC4DF21C60FEF7EEFC0220FEF779
:103AB000F4FC4DF21D60FEF7E7FC7E20FEF7EDFC06
:103AC0004DF21E60FEF7E0FC0220FEF7E6FC4DF230
:103AD0001F60FEF7D9FCBC20FEF7DFFC4DF2206032
:103AE000FEF7D2FC0220FEF7D8FC4DF22160FEF773
:103AF000CBFCE120FEF7D1FC4DF22260FEF7C4FCC6
:103B00000320FEF7CAFC4DF22360FEF7BDFC102037
:103B1000FEF7C3FC4DF22460FEF7B6FC0320FEF76F
:103B2000BCFC4DF22560FEF7AFFC3120FEF7B5FC82
:103B30004DF22660FEF7A8FC0320FEF7AEFC4DF226
:103B40002760FEF7A1FC5A20FEF7A7FC4DF2286083
:103B5000FEF79AFC0320FEF7A0FC4DF22960FEF769
:103B600093FC7320FEF799FC4DF22A60FEF78CFC63
:103B70000320FEF792FC4DF22B60FEF785FC9420AB
:103B8000FEF78BFC4DF22C60FEF77EFC0320FEF767
:103B900084FC4DF22D60FEF777FC9F20FEF77DFC44
:103BA0004DF22E60FEF770FC0320FEF776FC4DF21E
:103BB0002F60FEF769FCB320FEF76FFC4DF230601A
:103BC000FEF762FC0320FEF768FC4DF23160FEF761
:103BD0005BFCB920FEF761FC4DF23260FEF754FC4D
:103BE0000320FEF75AFC4DF23360FEF74DFCC12076
:103BF000FEF753FC4FF47040FEF746FC5520FEF7ED
:103C00004CFC4FF20100FEF73FFCAA20FEF745FCFA
:103C10004FF20200FEF738FC5220FEF73EFC4FF256
:103C20000300FEF731FC0820FEF737FC4FF20400DA
:103C3000FEF72AFC0020FEF730FC4FF43040FEF780
:103C400023FC0820FEF729FC4BF20100FEF71CFCC8
:103C50000520FEF722FC4BF20200FEF715FC0220C5
:103C6000FEF71BFC4BF20300FEF70EFC0520FEF7EF
:103C700014FC4BF20400FEF707FC0220FEF70DFCDB
:103C80004FF43640FEF700FC0820FEF706FC4FF428
:103C90003540FEF7F9FB5020FEF7FFFB4FF43740AD
:103CA000FEF7F2FB0020FEF7F8FB4BF20170FEF787
:103CB000EBFB0020FEF7F1FB4FF43840FEF7E4FB8E
:103CC0000120FEF7EAFB4BF60100FEF7DDFB0520C5
:103CD000FEF7E3FB4BF60200FEF7D6FB0520FEF7EE
:103CE000DCFB4BF60300FEF7CFFB0520FEF7D5FB10
:103CF0004FF43C40FEF7C8FB0020FEF7CEFB4BF62E
:103D00000140FEF7C1FB0020FEF7C7FB4BF6024067
:103D1000FEF7BAFB0020FEF7C0FB4FF44C40FEF765
:103D2000B3FB0320FEF7B9FB4CF60140FEF7ACFBFA
:103D30000020FEF7B2FB4CF60240FEF7A5FB002088
:103D4000FEF7ABFB4FF43D40FEF79EFB0120FEF774
:103D5000A4FB4BF60150FEF797FB8420FEF79DFB7A
:103D60004BF60250FEF790FB0720FEF796FB4BF652
:103D70000350FEF789FB3120FEF78FFB4BF6045012
:103D8000FEF782FB0020FEF788FB4FF43A40FEF777
:103D90007BFB0120FEF781FB4FF47F40FEF774FBB5
:103DA000AA20FEF77AFB4FF60170FEF76DFB552057
:103DB000FEF773FB4FF60270FEF766FB2520FEF759
:103DC0006CFB4FF60370FEF75FFB0120FEF765FB0F
:103DD0004FF45450FEF758FB0020FEF75EFB4FF403
:103DE0005850FEF751FB0020FEF757FB4FF4685088
:103DF000FEF74AFB5520FEF750FB4FF48850FEF7C4
:103E000043FB782001F05AF84FF42450FEF73CFBB6
:103E10004FF43050FEF738FB0020FEF7E2FC4FF67F
:103E2000FF70FEF7C0FB10BD1CB50121052001F09D
:103E3000FDFE0220009001208DF8040000208DF886
:103E4000060003208DF8050001208DF80700694663
:103E5000084801F069F90221064801F0E1F9202043
:103E600000906946044801F05FF92021024801F002
:103E7000D7F91CBD000002400008024070B504469E
:103E8000002500BF17E004F0800018B10120FE49B2
:103E9000086002E00020FC4908606006040E002073
:103EA000FA490860012000F0C1FF0120F849C1F87B
:103EB0008002681CC5B2082DE5DB70BD70B50646F2
:103EC000002500240020F1490860F249C1F8900261
:103ED000ED49243108603046FFF7D0FF062000F09E
:103EE000A5FF0020EA49C1F88002012000F09EFFF2
:103EF0000120E649086000F099FF0020E449C1F87C
:103F0000800200BF15E04FF6FF7000EA4404002075
:103F1000DE490860012000F089FF0120DC49C1F87A
:103F20008002DA487838006808B1601C84B2681CE6
:103F3000C5B2102DE7DB24110120D34924310860DC
:103F4000204670BD2DE9FE4380460027002406E090
:103F50004046FFF7B3FF2DF81400601C84B2052C17
:103F6000F6DB002416E0601C85B20FE03DF814007B
:103F70003DF81510884207DD3DF814603DF8150046
:103F80002DF814002DF81560681C85B2052DEDDBA9
:103F9000601C84B2042CE6DB0027012405E03DF818
:103FA0001400384487B2601C84B2042CF7DB032071
:103FB00097FBF0F086B23046BDE8FE832DE9F04174
:103FC00004460D46B4480078FFF7BCFF0646B348E8
:103FD0000078FFF7B7FF074626802F800120BDE855
:103FE000F0817FB504460D4602A903A8FFF7E6FF5E
:103FF000064616B9002004B070BD694601A8FFF757
:10400000DDFF06460EB90020F5E7BDF80400BDF857
:104010000C10884206DCBDF80C10BDF804003230EC
:1040200081420CDBBDF80C00BDF80410884236DC80
:10403000BDF80410BDF80C00323081422FDABDF813
:104040000000BDF80810884206DCBDF80810BDF875
:104050000000323081420CDBBDF80800BDF80010D2
:1040600088421CDCBDF80010BDF8080032308142E7
:1040700015DABDF80C10BDF80420881800EBD071DB
:10408000C1F34F012180BDF80810BDF80020881849
:1040900000EBD071C1F34F0129800120ABE7002074
:1040A000A9E7F8B504460D4616467D48068004F19A
:1040B0000D018AB2193988B22B462946FCF735F929
:1040C00005F10D0083B2193881B222462046FCF773
:1040D0002CF96A1C91B2621C90B2FEF758FA6A1C65
:1040E00091B2621E90B2FEF752FA6A1E91B2621C41
:1040F00090B2FEF74CFA6A1E91B2621E90B2FEF7C1
:1041000046FA00200623009065480288294620468A
:10411000FCF7D4F9F8BD70B504460D461646604864
:10412000068029462046FEF732FA611C88B22946ED
:10413000FEF72DFA681C81B22046FEF728FA6A1CA9
:1041400091B2621C90B2FEF722FA70BD10B504461F
:104150004E487C38006800284BD124B15149881E54
:10416000FFF73FFF34E04F49881EFFF73AFF78B36F
:104170004C481238B0F9200000EE100AB8EEC00A20
:104180004848123890ED061A008A00EE900AF8EEC0
:10419000600A01EE200ABCEEC00A10EE100A414986
:1041A000123908820846B0F9220000EE100AB8EE73
:1041B000C00A084690ED071A408A00EE900AF8EE11
:1041C000600A01EE200ABCEEC00A10EE100A488216
:1041D00034481238007D00F0800010BBC020314907
:1041E000123908750846008A88810846408AC881C5
:1041F00017E02C481238007D00F0800040B12948BB
:104200001238007D20F0800026491239087508E038
:104210000020244912398881C8814FF6FF70088236
:10422000488220481238007D00F0800010BD10B593
:104230001C48123890ED060ADFED1B0A20EE200A1A
:10424000BDEEC00A10EE104A042221462820FDF7D8
:1042500029FF1448123890ED070ADFED130A20EE0B
:10426000200ABDEEC00A10EE104A042221462C207E
:10427000FDF718FF0B481238B0F920100222302049
:10428000FDF710FF074811E0900241428082404252
:104290000080404200004142600000206100002098
:1042A000300000204A00002020BCBE4C1238B0F97B
:1042B000221002223220FDF7F5FEFB4890F8241070
:1042C0003420FDF7C7FE0A2421463520FDF7C2FE43
:1042D00010BD10B53520FDF791FE04460A2C46D1DD
:1042E00004212820FDF7F3FE044600EE104AB8EE44
:1042F000C00A5FED130A80EE201AEB4880ED061A23
:1043000004212C20FDF7E3FE044600EE104AB8EE2F
:10431000C00A5FED1B0A80EE201AE34880ED071A01
:1043200002213020FDF7D3FE00B2DF4908840221CC
:104330003220FDF7CCFE00B2DB4948843420FDF783
:104340005DFED94981F82400084690F8240030B178
:104350009020D6490870D020D549087005E0D020BB
:10436000D24908709020D2490870012010BD002069
:10437000FCE72DE9F84F04460D4617461E46DDE9D9
:104380000CABDDE90A894FF47840CA490880012066
:10439000C9A310228C2100902820FCF795FA012057
:1043A000C6A310228C2100907820FCF78DFA012002
:1043B000C3A31022A02100902820FCF785FA012039
:1043C000C0A31022A02100907820FCF77DFA0120E4
:1043D000BDA31022B42100902820FCF775FA01201B
:1043E000BAA31022B42100907820FCF76DFA0120C6
:1043F000B7A31022C82100902820FCF765FA0120FD
:10440000B4A31022C82100907820FCF75DFA0120A7
:10441000B1A31022DC2100902820FCF755FA1020CF
:10442000042322468C2100904020FCF787FA1020BC
:1044300004232A468C2100909020FCF77FFA10205C
:1044400004233A46A02100904020FCF777FA102080
:1044500004233246A02100909020FCF76FFA102030
:1044600004234246B42100904020FCF767FA102054
:1044700004234A46B42100909020FCF75FFA1020F4
:1044800004235246C82100904020FCF757FA102020
:1044900004235A46C82100909020FCF74FFA1020C0
:1044A00003230090DC2160200E9AFCF747FABDE858
:1044B000F88F2DE9F0472DED068B8AB04FF00008FC
:1044C000C14600BF1F207B4908804FF6FF7084491A
:1044D0000880FEF768F84FF47840764908804FF678
:1044E000FF70FEF760F800207249088001207DA36C
:1044F0001022282100900A20FCF7E6F9012080A371
:104500001022382100900A20FCF7DEF9012083A355
:104510001022482100900A20FCF7D6F9012086A33A
:104520001022582100900A20FCF7CEF9012089A31F
:104530001022682100900A20FCF7C6F94FF4784257
:1045400014210846FFF7ADFD0020574908759FED7F
:10455000850A084680ED060AE5E3534841680120D4
:1045600088475148007D00F0C00040286FD14FF0CF
:1045700000094D48007D20F040004B490875084671
:10458000008A06A921F828004748408A01EB8801E3
:10459000488008F1010000F0FF08B8F1010F09D0D0
:1045A000B8F1020F16D0B8F1030F26D0B8F1040FFE
:1045B0000FD138E04FF6FF7214210846FFF771FD66
:1045C00069490988143988B24FF478421421FFF7F9
:1045D00068FD99E364490988143988B24FF6FF727F
:1045E0001421FFF75EFD60484088143881B24FF413
:1045F00078421420FFF755FD86E35B484088143865
:1046000081B24FF6FF721420FFF74BFD564A5288D5
:10461000143A91B2544A1288143A90B24FF4784244
:10462000FFF73FFD70E3BDF81810BDF81C20881A95
:10463000002801DB014600E041420C46BDF81A208B
:10464000BDF81E10501A002802DB014601E05CE3B1
:1046500041420D4664436D43601901F03CFD41EC5D
:104660001A0BB0EE4A0AF0EE6A0A01F0BDFCB0EE99
:10467000409AF0EE609A51EC190B01F0FFFC86B203
:10468000BDF82010BDF82420881A002801DB01465F
:1046900000E041420C46BDF82220BDF82610501A19
:1046A000002863DB014662E0380000206000002043
:1046B000610000203000002078313A0079313A0062
:1046C00078323A0079323A0078333A0079333A0056
:1046D00078343A0079343A006661632069733A00AD
:1046E00032000020506C656173652075736520741D
:1046F0006865207374796C757320636C69636B00F3
:104700007468652063726F7373206F6E20746865C0
:104710002073637265656E2E00000000546865208A
:1047200063726F73732077696C6C20616C77617949
:1047300073206D6F76650000756E74696C20746807
:10474000652073637265656E2061646A7573746D4C
:10475000656E7400697320636F6D706C6574656459
:104760002E000000000000007C00002041420D46A9
:1047700064436D43601901F0AEFC41EC1A0BB0EEDE
:104780004A0AF0EE6A0A01F02FFCB0EE409AF0EE11
:10479000609A51EC190B01F071FC87B200EE106ABF
:1047A000F8EE400A00EE107AB8EE400A80EE801A69
:1047B00011EE10AA504601F0DDFE41EC180B9FED02
:1047C000FE0B53EC102B51EC180B01F097FC0AD3A5
:1047D0009FEDFB0B53EC102B51EC180B01F0C8FDB7
:1047E00001D306B1CFBB4FF00008F74A5288143A04
:1047F00091B2F54A1288143A90B24FF6FF72FFF761
:1048000050FC4FF4784214210846FFF74AFC9FED14
:10481000EF0B53EC102B51EC180B01F0ABFC41ECFF
:10482000190B01F02BFC1FFA80FABDF82600BDF829
:104830002410BDF82220CDE9030ACDE90121BDF8FD
:1048400020000090BDF81E30BDF81C20BDF81A10E5
:10485000BDF81800FFF78DFD65E2FFE7BDF8181001
:10486000BDF82020881A002801DB014600E0414203
:104870000C46BDF81A20BDF82210501A002801DBA2
:10488000014600E041420D4664436D43601901F06A
:1048900022FC41EC1A0BB0EE4A0AF0EE6A0A01F073
:1048A000A3FBB0EE409AF0EE609A51EC190B01F0C8
:1048B000E5FB86B2BDF81C10BDF82420881A00283C
:1048C00001DB014600E041420C46BDF81E20BDF868
:1048D0002610501A002801DB014600E041420D4637
:1048E00064436D43601901F0F6FB41EC1A0BB0EE26
:1048F0004A0AF0EE6A0A01F077FBB0EE409AF0EE59
:10490000609A51EC190B01F0B9FB87B200EE106A06
:10491000F8EE400A00EE107AB8EE400A80EE801AF7
:1049200011EE10AA504601F025FE41EC180B9FED48
:10493000A20B53EC102B51EC180B01F0DFFB08D34A
:104940009FED9F0B53EC102B51EC180B01F010FD59
:1049500039D24FF000089C4A5288143A91B29A4AD0
:104960001288143A90B24FF6FF72FFF79AFB4FF499
:10497000784214210846FFF794FB9FED940B53EC0B
:10498000102B51EC180B01F0F5FB41EC190B01F069
:1049900075FB1FFA80FABDF82610BDF82400BDF89B
:1049A0002220CDE9031ACDE90120BDF820000090B6
:1049B000BDF81E30BDF81C20BDF81A10BDF8180057
:1049C000FFF7D7FCAFE1BDF81C10BDF82020881A16
:1049D000002801DB014600E041420C46BDF81E20E4
:1049E000BDF82210501A002801DB014600E04142C8
:1049F0000D4664436D43601901F06DFB41EC1A0BE9
:104A0000B0EE4A0AF0EE6A0A01F0EEFAB0EE409A11
:104A1000F0EE609A51EC190B01F030FB86B2BDF854
:104A20001810BDF82420881A002801DB014600E098
:104A300041420C46BDF81A20BDF82610501A002835
:104A400001DB014600E041420D4664436D436019BD
:104A500001F041FB41EC1A0BB0EE4A0AF0EE6A0A93
:104A600001F0C2FAB0EE409AF0EE609A51EC190BE8
:104A700001F004FB87B200EE106AF8EE400A00EE87
:104A8000107AB8EE400A80EE801A11EE10AA504655
:104A900001F070FD41EC180B9FED470B53EC102B10
:104AA00051EC180B01F02AFB08D39FED450B53EC9A
:104AB000102B51EC180B01F05BFC39D24FF00008C1
:104AC000414A5288143A91B23F4A1288143A90B23D
:104AD0004FF6FF72FFF7E5FA4FF4784214210846CB
:104AE000FFF7DFFA9FED390B53EC102B51EC180B4D
:104AF00001F040FB41EC190B01F0C0FA1FFA80FAFB
:104B0000BDF82610BDF82400BDF82220CDE9031A17
:104B1000CDE90120BDF820000090BDF81E30BDF8A1
:104B20001C20BDF81A10BDF81800FFF722FCFAE0AF
:104B3000BDF81C00BDF81810401A00EE100AF8EE7F
:104B4000C00A21480088283800EE100AB8EEC00AD2
:104B500080EE201A1F4880ED061ABDF81C00BDF833
:104B60001810084400EE100AF8EEC00A1648008833
:104B700000EE100AB8EE400A164890ED061A01EE53
:104B8000600AF0EE000A80EE201ABDEEC10A10EEB7
:104B9000100A00B20F490884BDF82200BDF81A10AF
:104BA000401A00EE100AF8EEC00A0748408828387C
:104BB00000EE100A10E00000666666666666EE3F6C
:104BC000CDCCCCCCCCCCF03F7C0000200000000051
:104BD0000000594038000020B8EEC00A80EE201ACC
:104BE000734880ED071ABDF82200BDF81A1008447A
:104BF00000EE100AF8EEC00A6E48408800EE100A77
:104C0000B8EE400A6A4890ED071A01EE600AF0EE2D
:104C1000000A80EE201ABDEEC10A10EE100A00B2A2
:104C2000634948840A4692ED060ABDEEC00A10EEBA
:104C3000101A002901DB0A4600E04A42022A0DDC74
:104C40005B4A92ED070ABDEEC00A10EE100A00287A
:104C500001DB024600E04242022A37DD4FF0000845
:104C6000544A5288143A91B2524A1288143A90B275
:104C70004FF6FF72FFF715FA4FF4784214210846F9
:104C8000FFF70FFA01204CA310221A2100902820D0
:104C9000FBF71AFE464890F8240008B9012000E00E
:104CA0000020434981F82400084690F8240030B1E0
:104CB000902046490870D0204549087005E0D02072
:104CC000424908709020424908702CE01F20414959
:104CD00008804FF6FF70FDF766FC01203EA310220E
:104CE0006E2100902320FBF7EFFD4FF47A7000F067
:104CF000E5F8FFF79CFA4FF6FF70FDF754FC0AB099
:104D0000BDEC068BBDE8F08700BF0A2000F0D6F8A6
:104D100009F101001FFA80F9B9F57A7F02DDFFF78A
:104D2000D8FA01E000BF18E400BF00BFE7E71CB5F8
:104D30000121062000F07AFF0620009000208DF867
:104D400004008DF8060003208DF8050001208DF881
:104D500007006946264800F0E7F9012000908DF829
:104D600004006946224800F0DFF942F2100000908A
:104D700001208DF8040069461E4800F0D5F90C4961
:104D80001231881EFFF71AF9FDF734F9FFF7A1FA7F
:104D900008B100201CBD4FF6FF70FDF704FCFFF7C3
:104DA00088FBFFF744FAFFF794FA0120F2E70000CE
:104DB000380000207C0000205450204E656564209F
:104DC000726561646A7573742100000060000020E0
:104DD0006100002030000020546F75636820536329
:104DE0007265656E2041646A757374204F4B2100B3
:104DF000000402400008024010B504466FF00400B1
:104E000000F0EEF8E11704EB5171C1F3C701394A24
:104E100011701046007800EB4001C1EBC0104FF656
:104E2000FF7101EAC0003449088010BD0146314AD3
:104E300012784A434FF0E0235A6100229A611A46E1
:104E4000126942F001021A6100BF4FF0E0221069BE
:104E500000F001021AB100F48032002AF5D04FF0C0
:104E6000E022126922F001024FF0E0231A610022D1
:104E70009A6170470146204A12884A434FF0E02366
:104E80005A6100229A611A46126942F001021A61BF
:104E900000BF4FF0E022106900F001021AB100F4E7
:104EA0008032002AF5D04FF0E022126922F0010290
:104EB0004FF0E0231A6100229A61704770B50446F2
:104EC0004FF4077094FBF0F0C6B24FF4077094FBF8
:104ED000F0F100FB114085B205E04FF40770FFF7D9
:104EE000C9FF701EC6B2002EF7D115B12846FFF7D4
:104EF000C1FF70BD680000206A000020094880479B
:104F000009480047FEE7FEE7FEE7FEE7FEE7FEE7AB
:104F1000FEE7FEE7FEE7FEE704480549054A064BC3
:104F200070470000B50F000889010008D00100207B
:104F3000D0070020D0030020D003002032490143D5
:104F4000324A1160704770B5002100230F22C478E7
:104F50001CB32E4C246804F4E064C4F5E064C4F38C
:104F60000721C1F10404E3B20A4144789C40E1B254
:104F70008478144021430C07210E254C0578615597
:104F8000047804F01F050124AC4005786D11AD00D4
:104F900005F1E025C5F8004109E0047804F01F059B
:104FA0000124AC401B4D0678761145F8264070BDB3
:104FB000194A0A400243154B1B1F1A60704739B14A
:104FC000124A121D12680243104B1B1D1A6006E0A4
:104FD0000E4A121D126882430C4B1B1D1A6070474B
:104FE000042808D14FF0E021096941F004014FF095
:104FF000E022116107E04FF0E021096921F004018E
:105000004FF0E022116170470000FA050CED00E05E
:1050100000E400E080E100E080FFFF1F10B50446DF
:105020009848844208D10121084600F06AFE002118
:10503000012000F066FE76E09348844208D1012109
:10504000022000F05EFE0021022000F05AFE6AE01D
:105050008E48844208D10121042000F052FE002134
:10506000042000F04EFE5EE08948844208D1012110
:10507000082000F046FE0021082000F042FE52E029
:105080008448844208D10121102000F03AFE00211A
:10509000102000F036FE46E07F48844208D101210E
:1050A000202000F02EFE0021202000F02AFE3AE011
:1050B0007A48844208D10121402000F022FE0021DC
:1050C000402000F01EFE2EE07548844208D10121E8
:1050D000802000F016FE0021802000F012FE22E069
:1050E0007048844208D10121801500F00AFE002199
:1050F000A01500F006FE16E06B48844208D101219D
:10510000401500F0FEFD0021601500F0FAFD0AE0F8
:105110006648844207D10121001500F0F2FD00210C
:10512000201500F0EEFD10BDF0B50A460021002369
:10513000002400BF3DE0012505FA01F3156805EAEA
:1051400003049C4234D105684F000326BE40B5439A
:10515000056015794E00B540066835430560157940
:10516000012D02D01579022D16D185684F00032636
:10517000BE40B543856055794E00B54086683543DD
:105180008560456801268E40B5434560456896793F
:105190008E40B6B235434560C5684F000326BE4019
:1051A000B543C560D5794E00B540C6683543C56086
:1051B000491C1029BFD3F0BD4FF6FF7101600021DB
:1051C000017141718171C171704708B54FF480322E
:1051D0000092009A0A430092009AC261C161009A4B
:1051E000C261C2690092C269009208BD02460020F5
:1051F00013690B400BB1012000E00020704701460D
:10520000086980B270470246002053690B400BB119
:10521000012000E0002070470146486980B27047D5
:1052200001837047418370470AB1018300E04183E5
:1052300070474161704742694A4042617047F0B52A
:10524000002300244D07ED0E02FA05F3CE1000F105
:10525000200555F826504E07F70E0F26BE40B543E1
:10526000CF1000F1200646F82750CE1000F120059F
:1052700055F8265045EA0304CE1000F1200545F804
:105280002640F0BD00000240000402400008024039
:10529000000C0240001002400014024000180240BE
:1052A000001C02400020024000240240002802406E
:1052B00030B943F2DB028100A1F1C0410A6005E090
:1052C00043F2D2028100A1F1C0410A606FF0704246
:1052D000411C8900A1F1C0410A608100A1F1C041D7
:1052E000C1F804217047D0E901121143C26811438B
:1052F000026911434269114382691143C269114332
:10530000026A1143426A1143826A1143C26A11431D
:10531000026B114302689200A2F1C04211608168E1
:1053200008290BD101688900A1F1C041096841F049
:10533000400201688900A1F1C0410A60416B09681F
:10534000426B526841EA0211426B926841EA0221C3
:10535000426B928941EA0241426B128A41EA025150
:10536000426B127D41EA0261426B9269114302680D
:10537000521C9200A2F1C0421160C16AB1F5804F87
:105380001BD1816B0968826B526841EA0211826B02
:10539000926841EA0221826B128A41EA0251826BD1
:1053A000127D41EA0261826B9269114302689200A8
:1053B000A2F1C042C2F8041107E06FF07042016828
:1053C0008900A1F1C041C1F80421704700210160AA
:1053D0000221416000218160C16001614161816100
:1053E000C16101624FF48051416249008162002134
:1053F000C1620163F84941638163704751B1820022
:10540000A2F1C042126842F001038200A2F1C04240
:10541000136009E08200A2F1C0421268EF4B1A400B
:105420008300A3F1C0431A60704710280AD11821E5
:105430004FF020421166402151664FF0FC319166D9
:10544000D16610E01821E64A116040214FF0204259
:10545000C2F884104FF0FC31E14A083211604FF07D
:105460002042C2F88C10704730B500210022002382
:10547000446844F0080485682C43C5682C430569DA
:105480002C43456944EA4524856944EA4531C469A9
:105490002468C5696D6844EA0524C5692D8944EA14
:1054A0000544C5692D7B44EA0562046A2468056ADF
:1054B0006D6844EA0524056A2D8944EA0544056AB5
:1054C0002D7B44EA05630468102C05D14FF020447D
:1054D0002166A266E36608E0C14C21604FF02044DB
:1054E000C4F88820BE4C0C34236030BD102101600C
:1054F000002141608160C160016141618161FC21E5
:10550000C2691160C2695160C2699160C269D160AB
:10551000026A1160026A5160026A9160026AD16097
:10552000704799B1102808D14FF02042126E42F016
:1055300004024FF020431A661DE0A94A126842F0A7
:1055400004024FF02043C3F8802014E0102809D152
:105550004FF02042126EA14BDB1E1A404FF0204349
:105560001A6608E09E4A12689C4BDB1E1A404FF0F8
:105570002043C3F88020704799B1102808D14FF01C
:105580002042126E42F040024FF020431A661DE0A6
:10559000934A126842F040024FF02043C3F8802043
:1055A00014E0102809D14FF02042126E8B4B3F3B84
:1055B0001A404FF020431A6608E0894A1268874B68
:1055C0003F3B1A404FF02043C3F88020704701460C
:1055D0000020102903D14FF02042506F02E0804A92
:1055E00014321068704718207D492031086000206F
:1055F0000906C1F8A4004FF0FC3079492831086051
:10560000091D0860091D08607047016841F010011C
:10561000426841EA4221826841EA4231704A2032BE
:105620001160C1680968C268526841EA0221C26813
:10563000128941EA0241C268127B41EA0261684A6A
:1056400028321160016909680269526841EA022141
:105650000269128941EA02410269127B41EA026150
:105660005F4A2C321160416909684269526841EA17
:1056700002214269128941EA02414269127B41EAF0
:1056800002614FF02042C2F8B01070470021016063
:1056900041608160FC21C2681160C2685160C268CB
:1056A0009160C268D160026911600269516002694B
:1056B00091600269D160426911604269516042693A
:1056C00091604269D160704748B14549203109680D
:1056D00041F004014FF02042C2F8A01009E0404917
:1056E000203109683D4AD21E11404FF02042C2F8D5
:1056F000A010704710B5F2B1102807D14FF0204329
:105700005B6E0B434FF02044636632E0B0F5807F60
:1057100008D1334B1B1D1B680B434FF02044C4F8CA
:10572000843026E02E4B24331B680B434FF020447B
:10573000C4F8A4301DE0102807D14FF020435B6E61
:105740008B434FF02044636613E0B0F5807F08D1AF
:10575000234B1B1D1B688B434FF02044C4F884303F
:1057600007E01F4B24331B688B434FF02044C4F8E1
:10577000A43010BD10B5024600200023102A03D12A
:105780004FF02044636E09E0B2F5807F03D1144CE2
:10579000241D236802E0124C2434236803EA010428
:1057A0000CB1012000E0002010BD102807D14FF0FF
:1057B0002042526E8A434FF020435A6619E0B0F5FA
:1057C000807F0FD1064A121D12688A434FF0204392
:1057D000C3F884200DE00000148B0008FEFF0F00CA
:1057E000800000A0234A12688A434FF02043C3F888
:1057F000A420704770B50246002000230024002535
:10580000102A03D14FF02046736E08E0B2F5807F76
:1058100003D1184E203E336801E0164E336803EA88
:10582000010403EAD10514B10DB1012000E000200C
:1058300070BD102808D14FF02042526E22EAD102EA
:105840004FF020435A6614E0B0F5807F09D1094A31
:10585000203A126822EAD1024FF02043C3F8842094
:1058600007E0044A126822EAD1024FF02043C3F84D
:10587000A4207047A40000A0F948006840F001008F
:10588000F74908600020F64908310860F4480068CC
:10589000F4490840F2490860F348091D0860F348DC
:1058A000EF4984310860F0481038091D0860EC4861
:1058B000006820F48020EA4908600020E8490C31A3
:1058C0000860E7498C31086070470021E44A921C67
:1058D000117011460870704710B501460022002370
:1058E00000204A11012A02D1DD4C236808E0022A77
:1058F00003D1DB4C7034236802E0D94C7434236844
:1059000001F01F02012494401C400CB1012000E072
:10591000002010BD38B5002000900024002500BFF5
:105920003120FFF7D9FF05460098401C00900098F1
:10593000B0F5A04F01D0002DF2D03120FFF7CCFF01
:1059400008B1012400E00024204638BD01460020B3
:10595000C34A106820F0F80040EAC10010607047A8
:10596000C349086070470021BD4A70321170117040
:10597000012802D004280AD104E00121B84A70327B
:10598000117005E00521B64A7032117000E000BFC9
:1059900000BF7047B7490860704770B5049C41EA82
:1059A00082150126C6EB530645EA0645054345EA3E
:1059B0000465AB4E361D356070BDAD490866704755
:1059C000820142EA0172A64B84331A607047A849EB
:1059D0008866704710B5830143EA016343EA0273A6
:1059E0009F4C8834236010BDA14908677047A049C7
:1059F000C864704702460020994B0833186820F0AD
:105A0000EC6042EA01031843954B08331860704775
:105A100002460020924B0833186820F0784042EA92
:105A2000010318438E4B083318607047014600206D
:105A30008B4A0832106820F003000843106070475A
:105A400087480830006800F00C00704701460020CD
:105A5000834A0832106820F0F00008431060704755
:105A6000014600207E4A0832106820F4E0500843C6
:105A70001060704701460020794A0832106820F40F
:105A8000604040EAC10010607047F0B5002100227C
:105A90000024022500260223714F08373F6807F0D3
:105AA0000C0121B1042905D0082937D105E0724F36
:105AB000076036E0714F076033E0694F3F1D3F6874
:105AC000C7F38056664F3F1D3F6807F03F036EB136
:105AD0006A4FB7FBF3F7DFF888C10CF1040CDCF870
