:020000040800F2
:10000000D0070020B54F0008BD0E0008BF0E000845
:10001000C30E0008C70E0008CB0E00080000000049
:10002000000000000000000000000000CF0E0008EB
:10003000D10E000800000000D30E0008D50E000805
:10004000CF4F0008CF4F0008CF4F0008CF4F000818
:10005000CF4F0008CF4F0008CF4F0008CF4F000808
:10006000CF4F0008CF4F0008CF4F0008CF4F0008F8
:10007000CF4F0008CF4F0008CF4F0008CF4F0008E8
:10008000CF4F0008CF4F0008CF4F0008CF4F0008D8
:10009000CF4F0008CF4F0008CF4F0008CF4F0008C8
:1000A000CF4F0008CF4F0008CF4F0008CF4F0008B8
:1000B000CF4F0008CF4F0008CF4F0008CF4F0008A8
:1000C000CF4F0008CF4F0008CF4F0008CF4F000898
:1000D000CF4F0008CF4F0008CF4F0008CF4F000888
:1000E000CF4F0008CF4F0008CF4F0008CF4F000878
:1000F000CF4F0008CF4F0008CF4F0008CF4F000868
:10010000CF4F0008CF4F0008CF4F0008CF4F000857
:10011000CF4F0008CF4F0008CF4F0008CF4F000847
:10012000CF4F0008CF4F0008CF4F0008CF4F000837
:10013000CF4F0008CF4F0008CF4F0008CF4F000827
:10014000CF4F0008CF4F0008CF4F0008CF4F000817
:10015000CF4F0008CF4F0008CF4F0008CF4F000807
:10016000CF4F0008CF4F0008CF4F0008CF4F0008F7
:10017000CF4F0008CF4F0008CF4F0008CF4F0008E7
:10018000CF4F0008CF4F000800F002F800F03EF813
:100190000AA090E8000C82448344AAF10107DA45E2
:1001A00001D100F033F8AFF2090EBAE80F0013F0F6
:1001B000010F18BFFB1A43F001031847E08A000043
:1001C000008B0000103A24BF78C878C1FAD85207D3
:1001D00024BF30C830C144BF04680C6070470000C1
:1001E0000023002400250026103A28BF78C1FBD840
:1001F000520728BF30C148BF0B6070471FB506F0DB
:1002000086FA05F0D8FE1FBD10B510BD05F012FF2F
:100210001146FFF7F3FF00F023F805F030FF03B4B9
:10022000FFF7F2FF03BC05F035FF00000B49D1F8E2
:1002300000C04A685CF8043B1068184442F8040B9C
:100240008C4528BFA1F1DC0C8A4228BFA1F1DC0259
:10025000C1F800C04A6020F00040704768010020EB
:100260004FF4A06004F0C6FEA82004F021FE02F0C6
:1002700067FB15E000F084FF00F0C0FF01F040F8DC
:1002800001F0F0F801F008FA01F0AFF901F0DEFA40
:1002900001F019FB01F069FD01F05DFB01F07AFC52
:1002A000E8E7000070B505460E461446314628467C
:1002B00002F089F9204602F02BF970BD2DE9F05FBC
:1002C00004460D4616461F46301B401C1FFA80FA96
:1002D000781B401C1FFA80FB3B46324629462046CD
:1002E00002F026F94FF000080FE04FF0000906E099
:1002F0000A9802F00DF909F101001FFA80F9D145C1
:10030000F6DB08F101001FFA80F8D845EDDBFE4866
:100310004088401E83B2FC480088401E82B2002103
:10032000084602F005F9BDE8F09F2DE9FF4F85B0C2
:1003300081468A460020049003900798A0EB0905A7
:100340000898A0EB0A06CDF80890CDF804A0002D7F
:1003500001DD012705E00DB9002702E04FF0FF376E
:100360006D42002E02DD4FF0010806E016B94FF095
:10037000000802E04FF0FF387642B54201DD2C461E
:1003800000E034464FF0000B21E0019A91B2029A4E
:1003900090B202F022F90498284404900398304463
:1003A00003900498A04205DD0498001B0490029875
:1003B000384402900398A04205DD0398001B039087
:1003C0000198404401900BF101001FFA80FB601C72
:1003D0008345DADD09B0BDE8F08F2DE9F041044630
:1003E0000D4616461F462B46324629462046FFF745
:1003F0009CFF3B46224629462046FFF796FF3B4698
:10040000324639462046FFF790FF3B4632462946A2
:100410003046FFF78AFFBDE8F081F8B504460D4687
:1004200016461F46B94800883B463246294600908A
:100430002046FFF743FFF8BD2DE9F04104460D4685
:1004400016461F46DDF81880EA1991B2A21990B23B
:100450004246FFF727FFEA1991B2A21B90B242462B
:10046000FFF720FFEA1B91B2A21990B24246FFF7B4
:1004700019FFEA1B91B2A21B90B24246FFF712FF8E
:10048000AA1991B2E21990B24246FFF70BFFAA19DE
:1004900091B2E21B90B24246FFF704FFAA1B91B251
:1004A000E21990B24246FFF7FDFEAA1B91B2E21B91
:1004B00090B24246FFF7F6FEBDE8F0812DE9FF4F0E
:1004C00081B0824617469846DDF838B0002445468C
:1004D0004FEA4800C0F10306BBF1000F1FD01BE03C
:1004E000A14608E04B462246009750460299FFF786
:1004F000A3FF09F10109A945F4DD002E04DA042067
:1005000000FB0460861D06E0601B042101FB006007
:1005100000F10A066D1E641CAC42E1DD18E015E036
:100520002B462246009750460299FFF785FF002E82
:1005300004DA042000FB0460861D06E0601B042131
:1005400001FB006000F10A066D1E641CAC42E7DD91
:1005500005B0BDE8F08F2DE9F04704460D4616467C
:100560001F46DDE908893B46324629462046FFF70B
:10057000DCFE4B46424639463046FFF7D6FE2B4658
:10058000224649464046FFF7D0FEBDE8F087028884
:100590000B8803800A8070472DE9FF4F85B0002645
:1005A0000027BDF81800BDF82010884207DD08A913
:1005B00006A8FFF7ECFF07A905A8FFF7E8FFBDF8BD
:1005C0002000BDF84C10884207DD08A913A8FFF7EA
:1005D000DEFF07A912A8FFF7DAFFBDF81800BDF883
:1005E0002010884207DD08A906A8FFF7D0FF07A959
:1005F00005A8FFF7CCFFBDF81800BDF84C108842E5
:1006000038D1BDF8140003900490BDF81C00BDF86B
:100610001010884203DABDF81C00049008E0BDF811
:100620001C00BDF80C10884202DDBDF81C000390D0
:10063000BDF84800BDF81010884203DABDF8480044
:10064000049008E0BDF84800BDF80C10884202DDB7
:10065000BDF8480003902D4800880090BDF8183080
:10066000BDF80C201946BDF81000FFF727FE09B0B1
:10067000BDE8F08FBDF81C00BDF81410A0EB010B15
:10068000BDF82000BDF81810401A0290BDF84800CF
:10069000BDF81410451ABDF84C00BDF81810A0EBB9
:1006A0000109BDF84800BDF81C10A0EB010ABDF817
:1006B0004C00BDF82010401A0190BDF82000BDF894
:1006C0004C10884202D1BDF8208004E0BDF8200023
:1006D000401E1FFA80F8BDF818402CE0029896FBE7
:1006E000F0F0BDF81410084480B2049097FBF9F0C4
:1006F000BDF81410084480B203905E442F44BDF846
:100700001000BDF80C1003E07C0000203000002039
:10071000884203DD03A904A8FFF739FFF7480088E2
:1007200023460090BDF80C202146BDF81000FFF7CD
:10073000C5FD601C84B24445D0DDBDF82000201A00
:1007400000FB0AF6BDF81800201A00FB05F727E0A9
:10075000019896FBF0F0BDF81C10084480B204909C
:1007600097FBF9F0BDF81410084480B2039056448A
:100770002F44BDF81000BDF80C10884203DD03A91A
:1007800004A8FFF704FFDD48008823460090BDF869
:100790000C202146BDF81000FFF790FD601C84B2CC
:1007A000BDF84C008442D3DD00BF60E72DE9FF4F68
:1007B00083B081468A469346DDE91064CF480088BD
:1007C0000290A6F12000C6B204EBD47009EB6000E1
:1007D000401E82B20AEB0400401E83B251464846D6
:1007E000019401F0A5FE129860BB002527E00C2CB7
:1007F00007D106EB4600C24901EB800010F80580E6
:1008000004E0C04800EB061010F8058000270FE058
:1008100008F0800018B1584601F07AFE02E0069810
:1008200001F076FE4FEA48604FEA1068781CC7B2C4
:1008300004EBD471B7EB610FEADB681CC5B2A542CB
:10084000D5DB2FE000252BE00C2C07D106EB460072
:10085000AB4901EB800010F8058004E0A94800EBEB
:10086000061010F80580002713E0A448A0F800B097
:1008700008F0800038B10AEB050291B209EB0702DB
:1008800090B201F0AAFE4FEA48604FEA1068781C67
:10089000C7B204EBD471B7EB610FE6DB681CC5B2DD
:1008A000A542D1DB95490298088097484088401EB0
:1008B00083B295480088401E82B20021084601F0AC
:1008C00037FE07B0BDE8F08F2DE9FE4306460F4620
:1008D00015461C46DDF828801DE08B480088401E28
:1008E000B04204DB88484088401EB84201DABDE8C7
:1008F000FE8320788DE82101844803887F480288A0
:1009000039463046FFF752FF284605EBD07106EB1B
:1009100061018EB2641C20787E2802DC20782028B9
:10092000DBDA00BFE3E710B50246012000E05043E8
:100930000B1EA1F10104E1B2F9D110BD2DE9FF4F69
:1009400083B0074691461E46109C4FF0000A0025D2
:1009500043E0701B401EC1B20A20FFF7E4FFB9FB61
:10096000F0F00A21B0FBF1F201FB1208BAF1000F1E
:100970001BD1701EA84218DDB8F1000F13D1002062
:100980002021A346CDE90014029004EBDB7149104D
:1009900001FB057188B25D490B8858490A880499A2
:1009A000FFF704FF17E04FF0010A002108F13000C3
:1009B000C0B2A346CDE90141009004EBDB714910C0
:1009C00001FB057188B251490B884C490A8804998A
:1009D000FFF7ECFE00BF681CC5B2B542B9DB07B03B
:1009E000BDE8F08F2DE9FC5F0546884691469A46A2
:1009F000DDF830B000954920019000245FE004EB61
:100A00000410434911F810009BF80010884253D19C
:100A100004EB04103E4901EB400040789BF80110C4
:100A2000884249D108F10F0083B205F10F0082B26C
:100A30004146284601F07CFD00263BE0002734E0DB
:100A40000D9890B904EB0410314901EB4000801C73
:100A5000805D80213941084018B1484601F058FDB9
:100A600021E0504601F054FD1DE02448A0F800901C
:100A700004EB0410264901EB4000801C805D8021BE
:100A80003941084018B14146284601F0A6FD681CCE
:100A900085B20098281A102805D1009D08F10100A0
:100AA0001FFA80F803E0781CC7B2082FC8DB00BF2C
:100AB000701CC6B2202EC1DB00BF601C84B201983E
:100AC00084429CDB10484088401E83B20E48008858
:100AD000401E82B20021084601F02AFDBDE8FC9FBD
:100AE0002DE9FC5F0546884691469A46DDF830B010
:100AF000009507200190002474E0000030000020E1
:100B0000186700088C6B00087C0000203200002071
:100B10007C71000804EB840000EB4410E34911F8F9
:100B200010009BF80010884259D104EB840000EBC0
:100B30004410DE4901EB400040789BF801108842E8
:100B40004DD108F1170083B205F1170082B241467A
:100B5000284601F0EDFC00263FE0002738E00D9824
:100B6000A0B904EB840000EB4410D04901EB400035
:100B7000801C805D80213941084018B1484601F051
:100B8000C7FC23E0504601F0C3FC1FE0C848A0F8B2
:100B9000009004EB840000EB4410C44901EB4000DA
:100BA000801C805D80213941084018B141462846AB
:100BB00001F013FD681C85B20098281A182805D189
:100BC000009D08F101001FFA80F803E0781CC7B20D
:100BD000082FC4DB00BF701CC6B2482EBDDB00BFAF
:100BE000601C84B20198844294DBB2484088401E65
:100BF00083B2B0480088401E82B20021084601F04E
:100C000097FCBDE8FC9F2DE9FC5F054688469146B0
:100C10009A46DDF830B000950420019000245FE092
:100C200004EB8410A44911F810009BF800108842CE
:100C300053D104EB8410A04901EB400040789BF8AD
:100C40000110884249D108F11F0083B205F11F004D
:100C500082B24146284601F06BFC00263BE00027AB
:100C600034E00D9890B904EB8410934901EB4000F7
:100C7000801C805D80213941084018B1484601F050
:100C800047FC21E0504601F043FC1DE08848A0F8F5
:100C9000009004EB8410884901EB4000801C805DCB
:100CA00080213941084018B14146284601F095FCA1
:100CB000681C85B20098281A202805D1009D08F1EB
:100CC00001001FFA80F803E0781CC7B2082FC8DBC8
:100CD00000BF701CC6B2802EC1DB00BF601C84B296
:100CE000019884429CDB73484088401E83B271485F
:100CF0000088401E82B20021084601F019FCBDE8C0
:100D0000FC9F2DE9FF4F83B0064688469146DDE9FA
:100D10001147109DB2464FF0000B71E0BBF1000F80
:100D200040D104EBD471634A1288A2EB6101B14255
:100D300004DB60494988091B414502DA07B0BDE878
:100D4000F08F2878802802DD4FF0010B58E02878DA
:100D50000D2806D108EB04001FFA80F856466D1CDA
:100D60001EE0102C0DDD102128788DE883004A4606
:100D700041463046069BFFF719FD06F1080086B292
:100D80000EE028788DE891004A4641463046069BA1
:100D9000FFF70CFD204604EBD07106EB61018EB22B
:100DA0006D1C2DE043480088001BB04204DB414825
:100DB0004088001B404500DAC0E74FF0000B202CB4
:100DC00008D1CDE900574A4641463046069BFFF719
:100DD0001AFF12E0182C08D1CDE900574A464146C7
:100DE0003046069BFFF77CFE07E0CDE900574A46F8
:100DF00041463046069BFFF7F5FDAD1C301986B223
:100E0000287800288AD100BF98E72DE9FE4F0E46CA
:100E100017469846DDE90D9A0C9C204605F0D4F85B
:100E200085B224490988A1EBC50000EBD071C1F35C
:100E30004F0B43463A46314658468DE81006FFF7B9
:100E400060FFBDE8FE8F2DE9F05F07468846154636
:100E50001E46DDF8289008EB0600401E83B2781984
:100E6000401E82B24146384601F062FB00240AE08F
:100E700019F814B009EB440090F801A04BEA0A20DD
:100E800001F046FB641C05FB06F0A042F0DC0948BB
:100E90004088401E83B207480088401E82B200216D
:100EA000084601F045FBBDE8F09F00002E7B0008DE
:100EB000300000207C000020347D0008704700BF17
:100EC000FEE700BFFEE700BFFEE700BFFEE770479A
:100ED00070477047704700000CB5002001900090EB
:100EE0007648006840F480307449086000BF734859
:100EF000006800F4003000900198401C01900098B8
:100F000018B90198B0F5A04FF1D16C48006800F411
:100F1000003010B10120009001E000200090009806
:100F2000012846D165484030006840F08050634950
:100F3000403108606248006840F440406049086001
:100F40005E48083000685D4908310860084600685E
:100F500040F4004008600846006840F4A050086073
:100F60005848091F0860081F006840F08070091F7A
:100F7000086000BF5148006800F000700028F9D0F8
:100F800040F20570504908604C480830006820F075
:100F900003004A49083108600846006840F0020032
:100FA000086000BF45480830006800F00C000828C1
:100FB000F8D10CBD10B54548006840F470004349B5
:100FC00008603E48006840F001003C49086000208D
:100FD0003A4908310860394800683D4908403749B6
:100FE00008603C48091D0860081F006820F4802044
:100FF000091F0860002031490C310860FFF76CFFC1
:101000004FF0006031498039086010BD70B5002094
:101010000022022300240221284D08352D6805F006
:101020000C0020B1042806D0082834D107E02A4D4E
:101030002A4E356033E02A4D284E35602FE01F4D93
:101040002D1D2D68C5F380541C4D2D1D2D6805F0F8
:101050003F0154B1224DB5FBF1F5184E361D3668EF
:10106000C6F3881605FB06F209E01B4DB5FBF1F54A
:10107000124E361D3668C6F3881605FB06F20F4D74
:101080002D1D2D68C5F301456D1C6B00B2FBF3F5FA
:10109000124E356003E0104D104E356000BF00BFAA
:1010A000064D08352D68C5F303150E4E705D0B4DCA
:1010B0002D68C540094E356070BD00000038024003
:1010C0000070004008544007003C024088ED00E0FA
:1010D000FFFFF6FE103000240024F4000000002082
:1010E00000127A00040000203EB504464FF6FF705F
:1010F000FE4908801F200090FD480288142300212B
:101100000846FFF7DBF8012010211F234FF6FF727E
:10111000CDE90041029002210020FFF776FE1F205A
:101120000090F3484088401E83B2F1480088401E7A
:1011300082B2EF484088143881B20020FFF7BEF831
:1011400001201021EBA2CDE900210290E84840885F
:10115000123881B21F234FF6FF720020FFF755FEB1
:101160004FF6FF700090E2484088153883B2E0489F
:101170000088401E82B215210020FFF79FF83EBD77
:101180000EB5E2A0FFF7B0FF01201021E5A21F235A
:10119000CDE900210290DA021E210020FFF735FE82
:1011A00001201021DBA21F23CDE900210290DA02E9
:1011B0003C210020FFF729FE01201021DCA21F2383
:1011C000CDE9002102904FF61F025A210020FFF7BF
:1011D0001CFE01201021DEA21F23CDE90021029078
:1011E0001A4678210020FFF710FE40F2DC5003F091
:1011F000C1FE40F2DC5003F0BDFE0EBD0EB54FF651
:10120000FF700090BA484088401E83B2B8480088FA
:10121000401E82B200210846FFF750F8012010213D
:10122000D2A24FF6E073CDE9002102901F221E21C9
:101230001420FFF766FD4FF4487003F09BFE4FF457
:1012400078400090AA484088401E83B2A848008891
:10125000401E82B200210846FFF730F8012010211D
:10126000C4A24FF6E073CDE9002102901F221E2197
:101270001420FFF746FD4FF4487003F07BFE4FF457
:10128000FC6000909A484088401E83B298480088CD
:10129000401E82B200210846FFF710F801201021FD
:1012A000B6A24FF6E073CDE9002102901F221E2165
:1012B0001420FFF726FD4FF4487003F05BFE1F205B
:1012C00000908B484088401E83B289480088401EA9
:1012D00082B200210846FEF7F1FF01201021A9A2E9
:1012E0004FF6E073CDE9002102904FF478421E21C1
:1012F0001420FFF706FD4FF4487003F03BFE0EBDCF
:101300002DE9F0470024A1A0FFF7EEFE00BF4CE05E
:10131000A44830F8140075490880DFF8D4C1BCF83F
:10132000025005EBD57C4FEA6C0CACF16E0CC4EBB3
:1013300004190CEB490C0CF1640C1FFA8CF3DFF868
:10134000B0C1BCF8006006EBD67C4FEA6C0CACF187
:101350006E0CC4EB04190CEB490C0CF1640C1FFA75
:101360008CF2DFF88CC1BCF8027007EBD77C4FEA37
:101370006C0CACF16E0CC4EB04190CEB490C1FFAAD
:101380008CF1DFF86CC1BCF8008008EBD87C4FEA28
:101390006C0CACF16E0CC4EB04190CEB490C1FFA8D
:1013A0008CF0FFF71AF8601CC4B2052CB0DB40F2D9
:1013B000DC5003F0DFFD00244CE07A4830F81400E4
:1013C0004A490880DFF828C1BCF8027007EBD77CD7
:1013D0004FEA6C0CACF16E0CC4EB04190CEB490C2D
:1013E0000CF1640C1FFA8CF3DFF804C1BCF8005058
:1013F00005EBD57C4FEA6C0CACF16E0CC4EB041918
:101400000CEB490C0CF1640C1FFA8CF2DFF8E0C015
:10141000BCF8028008EBD87C4FEA6C0CACF16E0C87
:10142000C4EB04190CEB490C1FFA8CF1DFF8C0C0B7
:10143000BCF8006006EBD67C4FEA6C0CACF16E0C8D
:10144000C4EB04190CEB490C1FFA8CF0FEF7E5FF16
:10145000601CC4B2052CB0DB40F2DC5003F08AFD06
:10146000BDE8F087F8B500244FA0FFF73DFE00BFB0
:101470001FE000201E4B00905D8805EBD5735B10CC
:10148000463BC4EBC40707EB8707D919184B1E88E6
:1014900006EBD6735B10463BC4EBC40707EB87072C
:1014A000D819404B33F814203223FFF707F8601C9B
:1014B000C4B2052CDDDB40F2DC5003F05BFD002400
:1014C0008BE001200A4B00905D8805EBD5735B1023
:1014D000463BC4EBC40707EB8707D919044B1E88AA
:1014E00006EBD6735B10463B6AE00000300000203C
:1014F0007C000020687474703A2F2F7777772E6CF9
:10150000636477696B692E636F6D0000C8ABB6AF1B
:10151000B5E7D7D3D7DBBACFB2E2CAD4B3CCD0F2D7
:1015200000000000C8ABB6AFB5E7D7D3000000009D
:10153000342E3022204D65676132353630204E54CE
:1015400033353531302034383058383030000000F1
:101550007869616F46656E674051447465636820C1
:10156000323032322D30332D30320000424C205494
:101570006573740052454420000000004752454501
:101580004E200000424C554520000000B2E2CAD473
:10159000323A475549BED8D0CECCEEB3E4B2E2CA17
:1015A000D400000014000020B2E2CAD4333A4755F8
:1015B00049BBADD4B2CCEEB3E4B2E2CAD400000071
:1015C000C4EBC40707EB8707D819E84B33F814209E
:1015D0003223FEF773FF601CC4B2052CFFF671AF17
:1015E00040F2DC5003F0C6FCF8BD0EB5E0A0FFF7FA
:1015F0007BFD00200C21E3A24FF6E073CDE9002132
:1016000002901F221E210A20FFF77BFB01200C21E4
:10161000E7A24FF6E073CDE9002102901F222D21B1
:101620000A20FFF76EFB00200C21ECA24FF6E073BE
:10163000CDE9002102901F223C210A20FFF761FB27
:1016400000201021EDA24FF6E073CDE900210290B9
:101650001F2250210A20FFF754FB01201021F2A283
:101660004FF6E073CDE9002102901F2264210A2089
:10167000FFF747FB00201021F6A24FF6E073CDE9FB
:10168000002102901F2278210A20FFF73AFB4FF435
:10169000966003F06FFC0EBD2DE9FC5F0024F5A001
:1016A000FFF722FD00BF60E0B04830F81400F849B1
:1016B0000880F848458805EBD57040101138C4EB18
:1016C000041100EB410081B2F248068806EBD670A7
:1016D00040100B38C4EB041200EB420080B2DFF87C
:1016E000B4C3CDE90001BCF8027007EBD77C4FEA28
:1016F0006C0CACF1670CC4EB041B0CEB4B0C1FFA2D
:101700008CF3DFF890C3BCF8008008EBD87C4FEA7C
:101710006C0CACF13D0CC4EB041B0CEB4B0C1FFA36
:101720008CF2DFF870C3BCF8029009EBD97C4FEA69
:101730006C0CACF1110CC4EB041B0CEB4B0C1FFA42
:101740008CF1DFF850C3BCF800A00AEBDA7C4FEA5A
:101750006C0CACF16E0CC4EB041B0CEB4B0C1FFAC5
:101760008CF0FEF7F8FE601CC4B2052C9CDB40F246
:10177000DC5003F0FFFB002460E07C4830F81400EC
:10178000C3490880C348458805EBD570401011381F
:10179000C4EB041100EB410081B2BE48068806EBA1
:1017A000D67040100B38C4EB041200EB420080B23C
:1017B000DFF8E0C2CDE90001BCF8027007EBD77C8E
:1017C0004FEA6C0CACF1670CC4EB041B0CEB4B0C3C
:1017D0001FFA8CF3DFF8BCC2BCF8008008EBD87CA1
:1017E0004FEA6C0CACF13D0CC4EB041B0CEB4B0C46
:1017F0001FFA8CF2DFF89CC2BCF8029009EBD97C8E
:101800004FEA6C0CACF1110CC4EB041B0CEB4B0C51
:101810001FFA8CF1DFF87CC2BCF800A00AEBDA7C7E
:101820004FEA6C0CACF16E0CC4EB041B0CEB4B0CD4
:101830001FFA8CF0FEF7B0FE601CC4B2052C9CDBD6
:1018400040F2DC5003F096FBBDE8FC9F0EB592A081
:10185000FFF74AFC0020102194A24FF6E073CDE977
:10186000002102901F221E210A20FFF74AFA0020C1
:10187000102197A24FF6E073CDE9002102901F22BC
:1018800032210A20FFF73DFA0120182196A24FF6D7
:10189000E073CDE9002102901F2246210A20FFF7C4
:1018A00030FA0120202196A24FF6E073CDE9002105
:1018B00002901F2264210A20FFF723FA4FF496605A
:1018C00003F058FB0EBD0EB591A0FFF70DFC954837
:1018D00028231A461E2100900846FFF7B4FA01207B
:1018E000102191A24FF6E073CDE9002102901F2252
:1018F0004B212A20FFF705FA8A4828231A461E2181
:1019000000905A20FFF79FFA0120102186A24FF67F
:10191000E073CDE9002102901F224B216620FFF7E2
:10192000F0F9804828231A461E2100909620FFF7E0
:101930008AFA012010217CA24FF6E073CDE9002144
:1019400002901F224B21A220FFF7DBF94FF4966093
:1019500003F010FB0EBD10B588B00024734B0FCB05
:10196000CDE90623CDE9040100BF0CE114000020FD
:10197000B2E2CAD4353AD3A2CEC4CFD4CABEB2E200
:10198000CAD40000365831323A61626364656667D2
:1019900068696A6B6C6D6E6F70717273747576774F
:1019A00078797A30313233343536373839000000BF
:1019B000365831323A4142434445464748494A4BFA
:1019C0004C4D4E4F505152535455565758595A300A
:1019D0003132333435363738390000003658313239
:1019E0003A7E21402324255E262A28295F2B7B7DF1
:1019F0003A3C3E3F2F7C2D2B2E00000038583136CC
:101A00003A6162636465666768696A6B6C6D6E6F84
:101A1000707172737475767778797A3031323334C5
:101A20003536373839000000385831363A414243AC
:101A30004445464748494A4B4C4D4E4F50515253EE
:101A40005455565758595A30313233343536373861
:101A500039000000385831363A7E21402324255E73
:101A6000262A28295F2B7B7D3A3C3E3F2F7C2D2B5D
:101A70002E000000B2E2CAD4343A475549205472CD
:101A800069616E676C65CCEEB3E4B2E2CAD4000063
:101A9000300000207C000020B2E2CAD4363AD6D012
:101AA000CEC4CFD4CABEB2E2CAD400003136583157
:101AB000363AC8ABB6AFB5E7D7D3BCBCCAF5D3D0BE
:101AC000CFDEB9ABCBBEBBB6D3ADC4FA00000000CD
:101AD00031365831363A57656C636F6D65C8ABB6B1
:101AE000AFB5E7D7D300000032345832343AC9EEEC
:101AF000DBDACAD0D6D0CEC4B2E2CAD4000000002D
:101B000033325833323AD7D6CCE5B2E2CAD40000E9
:101B1000B2E2CAD4373ACDBCC6ACCFD4CABEB2E268
:101B2000CAD400003C7F000851510000BC8B000863
:101B30004FF6FF7000F05DFD204600F09FFEEAA02A
:101B4000FFF7D2FA0121102204A850F824004FF622
:101B5000E073CDE9012100901F221E211420FFF720
:101B6000D0F8E64828231A46322100901E20FFF7BD
:101B70006AF94FF47A7003F0FDF94FF47A7003F0CC
:101B8000F9F9601CC4B2042CD2DB002000F076FE10
:101B900008B010BD08B5002500264FF4784703F0C3
:101BA00016F900F013FC02F097F9D5A0FFF79CFAA4
:101BB0000120DC4900900988183988B2DAA3102284
:101BC0000021FEF781FE3846D8490880D5490090AB
:101BD00009881C398AB2D3490988323988B212235C
:101BE0000221FEF76BFBBFE0012000F00DFC044674
:101BF000CF48416800208847CD48007D00F0800034
:101C0000002879D0CA48008AC6490988884276DA0D
:101C1000C748408AC3494988884270DAC448018A63
:101C2000C04800881838814222DDC148408A102807
:101C30001EDAB3A0FFF758FA0120BA4900900988CC
:101C4000183988B2B8A310220021FEF73DFEB7482C
:101C500007800088B349009009881C398AB2B149CD
:101C60000988323988B212230221FEF727FB46E0A9
:101C7000AF48018AAB4800883238814234DDAC4835
:101C8000018AA84800881C3881422DDAA848408A79
:101C9000142829DA052096FBF0F100FB1160A54914
:101CA00031F810809F49CDF8008009881C398AB22C
:101CB0009C490988323988B212230221FEF7FEFAC4
:101CC0003046711C8EB2052190FBF1F201FB12002F
:101CD000984931F8100095490880084607880A207D
:101CE00003F048F90BE007E0914A518A108A8F4AC5
:101CF000128802F05CFA02E00A2003F03BF9012CA2
:101D000025D14FF6FF7000F074FC02F021FC02F0C8
:101D1000DAFA7BA0FFF7E8F90120824900900988F0
:101D2000183988B280A310220021FEF7CDFD7F482C
:101D3000078000887B49009009881C398AB279495C
:101D40000988323988B212230221FEF7B7FA681CDB
:101D500085B21E2D08D100257748006808B90120FA
:101D600000E00020744908603EE738B573A0FFF733
:101D7000BBF91F206D490880754804F007F9012060
:101D800074A31022322100900F20FEF79DFD012048
:101D900076A31022462100900F20FEF795FD01202A
:101DA00078A310225A2100900F20FEF78DFD01200C
:101DB0007AA310226E2100900F20FEF785FD0120EE
:101DC0007CA31022822100900F20FEF77DFD0120D0
:101DD0007EA31022962100900F20FEF775FD0120B2
:101DE0007FA31022AA2100900F20FEF76DFD4FF473
:101DF00078404E490880002473E0FEF717FA42F25B
:101E0000107190FBF1F201FB1205102005232A4608
:101E1000322100906420FEF791FDFEF707FA42F2AE
:101E2000107190FBF1F201FB1205102005232A46E8
:101E3000462100906420FEF781FDFEF7F7F942F29B
:101E4000107190FBF1F201FB1205102005232A46C8
:101E50005A2100906420FEF771FDFEF7E7F942F287
:101E6000107190FBF1F201FB1205102005232A46A8
:101E70006E2100906420FEF761FDFEF7D7F942F273
:101E8000107190FBF1F201FB1205102005232A4688
:101E9000822100906420FEF751FDFEF7C7F9322140
:101EA00090FBF1F201FB1205102005232A46962132
:101EB00000906420FEF742FDFEF7B8F9642190FB24
:101EC000F1F201FB1205102005232A46AA210090F9
:101ED0006420FEF733FD4FF4FA7003F04BF8601CFA
:101EE000C4B20F2C89DB38BDB2E2CAD4393AC6C1BC
:101EF000C4BBD0FDD7AAB2E2CAD400003C7F000820
:101F0000B2E2CAD431303A546F756368B2E2CAD4CF
:101F100028B0B44B455930BCFCD0A3D7BC292020F5
:101F2000200000007C0000205253540030000020AC
:101F30003800002014000020A4824242B2E2CAD439
:101F4000383AB6AFCCACCAFDD7D6CFD4CABE0000A3
:101F500040E20100204843484F3A20202020202022
:101F6000202020202075672F6D3300002020434F54
:101F7000323A202020202020202020202070706D48
:101F8000000000002054564F433A202020202020FB
:101F9000202020202075672F6D330000504D322EF9
:101FA000353A202020202020202020202075672F57
:101FB0006D33000020504D31303A20202020202069
:101FC000202020202075672F6D33000020205445ED
:101FD000503A2020202020202020202020430000D4
:101FE000202048554D3A202020202020202020204D
:101FF0002025000010B500F0BBF810BD70B50446F8
:10200000002600F0D4F82546E11704EB116109120F
:10201000A02202EB4101C8B200F075F900F008F906
:10202000E11704EB11610912A4EB0121C8B200F021
:102030006AF900F0FDF800F0BAF8A12000F063F9A9
:1020400000F0F6F8002000F08BF9064600F0D1F819
:10205000304670BD70B504460E4600F0A8F825461F
:10206000E11704EB11610912A02202EB4101C8B291
:1020700000F049F900F0DCF8E11704EB11610912F6
:10208000A4EB0121C8B200F03EF900F0D1F83046CF
:1020900000F039F900F0CCF800F0ABF80A2002F0BB
:1020A00069FF70BD2DE9F04105460E461746002434
:1020B00009E0E20026FA02F2D1B22A1990B2FFF743
:1020C000C9FF601CC4B2BC42F3DBBDE8F0812DE95E
:1020D000F04107460C460026002509E03602391972
:1020E000491B491E88B2FFF789FF0644681CC5B228
:1020F000A542F3DB3046BDE8F08110B5FF20FFF7C5
:102100007DFF0446552C01D1002010BD5521FF2034
:10211000FFF7A0FFFF20FFF771FF0446552C01D108
:102120000020F2E70120F0E770B506460C461546A0
:1021300008E03046721C96B2FFF760FF04F8010B0E
:10214000681E85B2002DF4D170BD70B505460C46F1
:10215000164606E021782846FFF77CFF681C85B20A
:10216000641C301EA6F101018EB2F3D170BD0000D7
:102170001CB50121022003F0B5FD4FF44070009022
:1021800001208DF8040000208DF8060003208DF852
:10219000050001208DF807006946894803F020F802
:1021A0000120884908608849C1F8A4021CBD10B507
:1021B0008348006820F44020814908600846006890
:1021C00040F48020086001207E49091D08607E4996
:1021D000C1F8A002042002F085FE00207949091D03
:1021E0000860042002F07EFE00207749C1F8A002BA
:1021F00010BD10B57248006820F440207049086096
:102200000846006840F48020086000206D4908609E
:102210006D49C1F8A402042002F064FE012069495E
:1022200008606949C1F8A402042002F05BFE10BDF9
:1022300010B500246248006820F44020604908601E
:1022400008460068086001205E49091D086002F028
:1022500049FE01205C49C1F8A00202F043FE07E0FC
:10226000601CC4B2FA2C03DDFFF7C3FF012010BDD0
:1022700054487C3800680028F2D15249086000BFF9
:10228000F5E710B500204F4908604D48006820F47C
:1022900040204B4908600846006840F480200860F0
:1022A00000204949C1F8A402022002F01BFE0120CF
:1022B00044490860022002F015FE00204249C1F89E
:1022C000A00210BD10B500203E4908603C480068DF
:1022D00020F440203A4908600846006840F4802015
:1022E000086001203849C1F8A402022002F0FAFD7A
:1022F000012034490860022002F0F4FD0020324938
:10230000C1F8A00210BD70B504462D48006820F445
:1023100040202B4908600846006840F4802008608F
:10232000002028490860002517E0E0092549091D1B
:1023300008606006040E022002F0D4FD012022494C
:10234000C1F8A002022002F0CDFD00201D49086066
:10235000022002F0C7FD681CC5B2082DE5DB70BD88
:1023600070B5054600241648006820F44020144942
:102370000860084600680860002616E00020114941
:102380000860022002F0AEFD01200F49C1F8A00252
:102390006006040E0B487C38006808B1601CC4B2AB
:1023A000012002F09FFD701CC6B2082EE6DB15B9B5
:1023B000FFF788FF01E0FFF764FF204670BD0000D3
:1023C00000040240A0824042008040421CB501212E
:1023D000112003F087FC1C20009000208DF80400E1
:1023E00003208DF8050001208DF807006946354867
:1023F00002F0F6FE0120009002208DF807006946E9
:10240000314802F0EDFE1CBD10B5044614B10120A8
:102410002E4908702D480078002837D0102129480F
:1024200002F040FF78B10821264802F03BFF50B18E
:102430000421244802F036FF28B10121224802F08D
:1024400031FF012822D10A2002F094FD00201F490B
:10245000087010211B4802F025FF08B9012010BDAB
:102460000821184802F01EFF08B90220F7E70421EE
:10247000144802F017FF08B90320F0E701211248C1
:1024800002F010FF01281BD10420E8E710210D48BD
:1024900002F008FF012813D108210A4802F002FFC8
:1024A00001280DD10421074802F0FCFE012807D1C4
:1024B0000121054802F0F6FE10B901200349087019
:1024C0000020CCE700100240000002402E00002057
:1024D00001B5BDF800000090BDF80000F949088082
:1024E00008BD01B5BDF800000090BDF80000F54939
:1024F000891C088008BDF34A10804FF0D842A2F82A
:102500008010704700B5F0490889FFF7E1FF00BD72
:10251000EC49891C0880704710B5034603F0F800A9
:10252000000201F0FC0440EAC40040EAD20010BD01
:1025300070B504460D461E46E3498889FFF7C8FF7B
:102540002012FFF7CEFFE0498989491C88B2FFF7C6
:10255000BFFFE0B2FFF7C5FFDB498989891C88B25C
:10256000FFF7B6FF1012FFF7BCFFD7498989C91CD6
:1025700088B2FFF7ADFFD0B2FFF7B3FFD249C889E9
:10258000FFF7A6FF2812FFF7ACFFCF49C989491C06
:1025900088B2FFF79DFFE8B2FFF7A3FFCA49C989D8
:1025A000891C88B2FFF794FF3012FFF79AFFC649E3
:1025B000C989C91C88B2FFF78BFFF0B2FFF791FF02
:1025C000FFF7A0FF70BD30B504460D462B462246EE
:1025D00029462046FFF7ACFF30BD30B504460D4616
:1025E00029462046FFF7EFFFB8480088FFF790FF25
:1025F00030BD70B50446B4480088B349498800FB33
:1026000001F6B1484088401E83B2AF480088401EA2
:1026100082B200210846FFF78BFF002503E0A9489E
:10262000801C04806D1CB542F9D370BD00B59FB00D
:1026300001217A2003F056FB0121084603F08AFBB2
:102640004FF400401D9001208DF8780000208DF897
:102650007A0002208DF8790001208DF87B001DA9F9
:102660009B4802F0BDFD80201D9001208DF8780070
:1026700000208DF87A0002208DF8790001208DF875
:102680007B001DA9934802F0ABFD4CF233701D9006
:1026900002208DF8780000208DF87A0003208DF854
:1026A000790001208DF87B001DA98A4802F098FD71
:1026B0004FF680701D9002208DF8780000208DF874
:1026C0007A0003208DF8790001208DF87B001DA988
:1026D000814802F085FD4FF480501D9002208DF856
:1026E000780000208DF87A0003208DF87900012011
:1026F0008DF87B001DA9794802F072FD4FF48050DF
:102700001D9002208DF8780000208DF87A000320BB
:102710008DF8790001208DF87B001DA9704802F02A
:102720005FFD0C2200216B4802F0E5FD0C22012127
:10273000684802F0E0FD0C220421664802F0DBFD4F
:102740000C220521634802F0D6FD0C2208216148C5
:1027500002F0D1FD0C2209215E4802F0CCFD0C22D2
:102760000A215C4802F0C7FD0C220E21594802F0F4
:10277000C2FD0C220F21574802F0BDFD0C2207219B
:10278000554802F0B8FD0C220821534802F0B3FD71
:102790000C220921504802F0AEFD0C220A214E48BD
:1027A00002F0A9FD0C220B214B4802F0A4FD0C22E3
:1027B0001146494802F09FFD0C220D21464802F0C7
:1027C0009AFD0C220E21444802F095FD0C220F21A7
:1027D000414802F090FD0C221146404802F08BFD6A
:1027E0000C2211463E4802F086FD0F200790002083
:1027F00008903C20099000200A900B900C900D90BE
:102800000A200090002001901020029000200390E8
:1028100004900590069006200E9000200F901090D6
:102820001020119000201290149013901590169083
:102830004FF480501790002018904FF4804019906A
:1028400000201A9007A81B90CDF870D00EA802F0B7
:10285000A6FD0121062002F02DFE1FB000BD10B51F
:10286000002020490860642002F084FB01201E49FA
:10287000C1F89C02322002F07DFB10BD00B503467A
:102880004FF42850104988814FF42C50C8814FF4E0
:10289000305008814FF43850488133B1012B25D096
:1028A000022B30D0032B48D13AE04FF4F0700649A8
:1028B00008804FF44870488000214FF45850FFF7CB
:1028C0001AFE3BE07E00006C7C00002030000020FF
:1028D00000040240000C02400010024000140240BC
:1028E000001802409C824142008041424FF44870EF
:1028F000FE4908804FF4F070488060214FF4585032
:10290000FFF7F9FD1AE04FF4F070F84908804FF432
:1029100048704880C0214FF45850FFF7ECFD0DE09F
:102920004FF44870F14908804FF4F0704880A021BE
:102930004FF45850FFF7DFFD00E000BF00BF00BDBF
:1029400010B5FFF773FE322002F014FB4FF4704015
:10295000FFF7BEFD5520FFF7C4FD4FF20100FFF762
:10296000B7FDAA20FFF7BDFD4FF20200FFF7B0FD53
:102970005220FFF7B6FD4FF20300FFF7A9FD082034
:10298000FFF7AFFD4FF20400FFF7A2FD0120FFF7B4
:10299000A8FD4FF43640FFF79BFD3420FFF7A1FD63
:1029A0004BF20160FFF794FD3420FFF79AFD4BF2E4
:1029B0000260FFF78DFD3420FFF793FD4FF43040A8
:1029C000FFF786FD0D20FFF78CFD4BF20100FFF7AE
:1029D0007FFD0D20FFF785FD4BF20200FFF778FD2C
:1029E0000D20FFF77EFD4FF43740FFF771FD2420E7
:1029F000FFF777FD4BF20170FFF76AFD2420FFF728
:102A000070FD4BF20270FFF763FD2420FFF769FDB4
:102A10004FF43140FFF75CFD0D20FFF762FD4BF2F4
:102A20000110FFF755FD0D20FFF75BFD4BF2021083
:102A3000FFF74EFD0D20FFF754FD4FF43840FFF730
:102A400047FD2420FFF74DFD4BF60100FFF740FD49
:102A50002420FFF746FD4BF60200FFF739FD242046
:102A6000FFF73FFD4FF43240FFF732FD0020FFF744
:102A700038FD4FF43940FFF72BFD2420FFF731FDDF
:102A80004BF60110FFF724FD2420FFF72AFD4BF63B
:102A90000210FFF71DFD2420FFF723FD4FF4334004
:102AA000FFF716FD0520FFF71CFD4BF20130FFF785
:102AB0000FFD0520FFF715FD4BF20230FFF708FD73
:102AC0000520FFF70EFD4FF43A40FFF701FD3420DB
:102AD000FFF707FD4BF60120FFF7FAFC3420FFF764
:102AE00000FD4BF60220FFF7F3FC3420FFF7F9FC62
:102AF0004FF43540FFF7ECFC0B20FFF7F2FC4BF2F4
:102B00000150FFF7E5FC0B20FFF7EBFC4BF2025006
:102B1000FFF7DEFC0B20FFF7E4FC4FF43C40FFF72F
:102B2000D7FC0020FFF7DDFC4BF60140FFF7D0FC9F
:102B3000A320FFF7D6FC4BF60240FFF7C9FC0020AC
:102B4000FFF7CFFC4FF43D40FFF7C2FC0020FFF73A
:102B5000C8FC4BF60150FFF7BBFCA320FFF7C1FCFC
:102B60004BF60250FFF7B4FC0020FFF7BAFC4FF41D
:102B70003E40FFF7ADFC0020FFF7B3FC4BF60160D1
:102B8000FFF7A6FC6320FFF7ACFC4FF45140FFF7C2
:102B90009FFC0020FFF7A5FC4DF20110FFF798FC09
:102BA0003720FFF79EFC4DF20210FFF791FC00204A
:102BB000FFF797FC4DF20310FFF78AFC5220FFF756
:102BC00090FC4DF20410FFF783FC0020FFF789FC16
:102BD0004DF20510FFF77CFC7B20FFF782FC4DF2E5
:102BE0000610FFF775FC0020FFF77BFC4DF2071085
:102BF000FFF76EFC9920FFF774FC4DF20810FFF709
:102C000067FC0020FFF76DFC4DF20910FFF760FC38
:102C1000B120FFF766FC4DF20A10FFF759FC0020C7
:102C2000FFF75FFC4DF20B10FFF752FCD220FFF7CD
:102C300058FC4DF20C10FFF74BFC0020FFF751FC45
:102C40004DF20D10FFF744FCF620FFF74AFC4DF261
:102C50000E10FFF73DFC0120FFF743FC4DF20F1073
:102C6000FFF736FC2720FFF73CFC4DF21010FFF772
:102C70002FFC0120FFF735FC4DF21110FFF728FC67
:102C80004E20FFF72EFC4DF21210FFF721FC012021
:102C9000FFF727FC4DF21310FFF71AFC8C20FFF70B
:102CA00020FC4DF21410FFF713FC0120FFF719FC74
:102CB0004DF21510FFF70CFCBE20FFF712FC4DF291
:102CC0001610FFF705FC0220FFF70BFC4DF2171062
:102CD000FFF7FEFB0B20FFF704FC4DF21810FFF787
:102CE000F7FB0220FFF7FDFB02E000007C00002064
:102CF0004DF21910FFF7ECFB4820FFF7F2FB4DF205
:102D00001A10FFF7E5FB0220FFF7EBFB4DF21B105B
:102D1000FFF7DEFB4A20FFF7E4FB4DF21C10FFF744
:102D2000D7FB0220FFF7DDFB4DF21D10FFF7D0FBB4
:102D30007E20FFF7D6FB4DF21E10FFF7C9FB0220E5
:102D4000FFF7CFFB4DF21F10FFF7C2FBBC20FFF7D0
:102D5000C8FB4DF22010FFF7BBFB0220FFF7C1FBC1
:102D60004DF22110FFF7B4FBE120FFF7BAFB4DF263
:102D70002210FFF7ADFB0320FFF7B3FB4DF223104A
:102D8000FFF7A6FB1020FFF7ACFB4DF22410FFF776
:102D90009FFB0320FFF7A5FB4DF22510FFF798FBE3
:102DA0003120FFF79EFB4DF22610FFF791FB032029
:102DB000FFF797FB4DF22710FFF78AFB5A20FFF72A
:102DC00090FB4DF22810FFF783FB0320FFF789FBF0
:102DD0004DF22910FFF77CFB7320FFF782FB4DF2C9
:102DE0002A10FFF775FB0320FFF77BFB4DF22B103A
:102DF000FFF76EFB9420FFF774FB4DF22C10FFF7EA
:102E000067FB0320FFF76DFB4DF22D10FFF760FB12
:102E10009F20FFF766FB4DF22E10FFF759FB0320B2
:102E2000FFF75FFB4DF22F10FFF752FBB320FFF7C8
:102E300058FB4DF23010FFF74BFB0320FFF751FB1F
:102E40004DF23110FFF744FBB920FFF74AFB4DF27A
:102E50003210FFF73DFB0320FFF743FB4DF2331029
:102E6000FFF736FBC120FFF73CFB4FF45240FFF762
:102E70002FFB0020FFF735FB4DF20120FFF728FB69
:102E80003720FFF72EFB4DF20220FFF721FB002039
:102E9000FFF727FB4DF20320FFF71AFB5220FFF745
:102EA00020FB4DF20420FFF713FB0020FFF719FB76
:102EB0004DF20520FFF70CFB7B20FFF712FB4DF2D4
:102EC0000620FFF705FB0020FFF70BFB4DF2072064
:102ED000FFF7FEFA9920FFF704FB4DF20820FFF7F9
:102EE000F7FA0020FFF7FDFA4DF20920FFF7F0FA9C
:102EF000B120FFF7F6FA4DF20A20FFF7E9FA0020B9
:102F0000FFF7EFFA4DF20B20FFF7E2FAD220FFF7BE
:102F1000E8FA4DF20C20FFF7DBFA0020FFF7E1FAA8
:102F20004DF20D20FFF7D4FAF620FFF7DAFA4DF252
:102F30000E20FFF7CDFA0120FFF7D3FA4DF20F2054
:102F4000FFF7C6FA2720FFF7CCFA4DF21020FFF763
:102F5000BFFA0120FFF7C5FA4DF21120FFF7B8FACA
:102F60004E20FFF7BEFA4DF21220FFF7B1FA012012
:102F7000FFF7B7FA4DF21320FFF7AAFA8C20FFF7FC
:102F8000B0FA4DF21420FFF7A3FA0120FFF7A9FAD7
:102F90004DF21520FFF79CFABE20FFF7A2FA4DF282
:102FA0001620FFF795FA0220FFF79BFA4DF2172043
:102FB000FFF78EFA0B20FFF794FA4DF21820FFF777
:102FC00087FA0220FFF78DFA4DF21920FFF780FAF9
:102FD0004820FFF786FA4DF21A20FFF779FA02200F
:102FE000FFF77FFA4DF21B20FFF772FA4A20FFF736
:102FF00078FA4DF21C20FFF76BFA0220FFF771FA06
:103000004DF21D20FFF764FA7E20FFF76AFA4DF2B9
:103010001E20FFF75DFA0220FFF763FA4DF21F2032
:10302000FFF756FABC20FFF75CFA4DF22020FFF7BD
:103030004FFA0220FFF755FA4DF22120FFF748FA28
:10304000E120FFF74EFA4DF22220FFF741FA03206C
:10305000FFF747FA4DF22320FFF73AFA1020FFF767
:1030600040FA4DF22420FFF733FA0320FFF739FA34
:103070004DF22520FFF72CFA3120FFF732FA4DF2FE
:103080002620FFF725FA0320FFF72BFA4DF2272021
:10309000FFF71EFA5A20FFF724FA4DF22820FFF717
:1030A00017FA0320FFF71DFA4DF22920FFF710FA57
:1030B0007320FFF716FA4DF22A20FFF709FA0320D2
:1030C000FFF70FFA4DF22B20FFF702FA9420FFF7DB
:1030D00008FA4DF22C20FFF7FBF90320FFF701FA65
:1030E0004DF22D20FFF7F4F99F20FFF7FAF94DF28A
:1030F0002E20FFF7EDF90320FFF7F3F94DF22F2013
:10310000FFF7E6F9B320FFF7ECF94DF23020FFF7B7
:10311000DFF90320FFF7E5F94DF23120FFF7D8F989
:10312000B920FFF7DEF94DF23220FFF7D1F9032085
:10313000FFF7D7F94DF23320FFF7CAF9C120FFF7A7
:10314000D0F94FF45340FFF7C3F90020FFF7C9F956
:103150004DF20130FFF7BCF93720FFF7C2F94DF20D
:103160000230FFF7B5F90020FFF7BBF94DF203304D
:10317000FFF7AEF95220FFF7B4F94DF20430FFF734
:10318000A7F90020FFF7ADF94DF20530FFF7A0F9E0
:103190007B20FFF7A6F94DF20630FFF799F90020E2
:1031A000FFF79FF94DF20730FFF792F99920FFF7EB
:1031B00098F94DF20830FFF78BF90020FFF791F9ED
:1031C0004DF20930FFF784F9B120FFF78AF94DF28B
:1031D0000A30FFF77DF90020FFF783F94DF20B303D
:1031E000FFF776F9D220FFF77CF94DF20C30FFF7AC
:1031F0006FF90020FFF775F94DF20D30FFF768F910
:10320000F620FFF76EF94DF20E30FFF761F901205D
:10321000FFF767F94DF20F30FFF75AF92720FFF754
:1032200060F94DF21030FFF753F90120FFF759F91B
:103230004DF21130FFF74CF94E20FFF752F94DF2E5
:103240001230FFF745F90120FFF74BF94DF213302B
:10325000FFF73EF98C20FFF744F94DF21430FFF7E9
:1032600037F90120FFF73DF94DF21530FFF730F93E
:10327000BE20FFF736F94DF21630FFF729F902208C
:10328000FFF72FF94DF21730FFF722F90B20FFF768
:1032900028F94DF21830FFF71BF90220FFF721F94A
:1032A0004DF21930FFF714F94820FFF71AF94DF2E3
:1032B0001A30FFF70DF90220FFF713F94DF21B301A
:1032C000FFF706F94A20FFF70CF94DF21C30FFF723
:1032D000FFF80220FFF705F94DF21D30FFF7F8F86F
:1032E0007E20FFF7FEF84DF21E30FFF7F1F80220C6
:1032F000FFF7F7F84DF21F30FFF7EAF8BC20FFF7B1
:10330000F0F84DF22030FFF7E3F80220FFF7E9F87C
:103310004DF22130FFF7DCF8E120FFF7E2F84DF243
:103320002230FFF7D5F80320FFF7DBF84DF223300A
:10333000FFF7CEF81020FFF7D4F84DF22430FFF756
:10334000C7F80320FFF7CDF84DF22530FFF7C0F89E
:103350003120FFF7C6F84DF22630FFF7B9F8032009
:10336000FFF7BFF84DF22730FFF7B2F85A20FFF70A
:10337000B8F84DF22830FFF7ABF80320FFF7B1F8AB
:103380004DF22930FFF7A4F87320FFF7AAF84DF2A9
:103390002A30FFF79DF80320FFF7A3F84DF22B30FA
:1033A000FFF796F89420FFF79CF84DF22C30FFF7CA
:1033B0008FF80320FFF795F84DF22D30FFF788F8CE
:1033C0009F20FFF78EF84DF22E30FFF781F8032093
:1033D000FFF787F84DF22F30FFF77AF8B320FFF7A9
:1033E00080F84DF23030FFF773F80320FFF779F8DB
:1033F0004DF23130FFF76CF8B920FFF772F84DF25B
:103400003230FFF765F80320FFF76BF84DF23330E9
:10341000FFF75EF8C120FFF764F84FF45440FFF760
:1034200057F80020FFF75DF84DF20140FFF750F824
:103430003720FFF756F84DF20240FFF749F8002019
:10344000FFF74FF84DF20340FFF742F85220FFF725
:1034500048F84DF20440FFF73BF80020FFF741F831
:103460004DF20540FFF734F87B20FFF73AF84DF2B4
:103470000640FFF72DF80020FFF733F84DF2074024
:10348000FFF726F89920FFF72CF84DF20840FFF7D8
:103490001FF80020FFF725F84DF20940FFF718F854
:1034A000B120FFF71EF84DF20A40FFF711F8002097
:1034B000FFF717F84DF20B40FFF70AF8D220FFF79D
:1034C00010F84DF20C40FFF703F80020FFF709F861
:1034D0004DF20D40FEF7FCFFF620FFF702F84DF22B
:1034E0000E40FEF7F5FF0120FEF7FBFF4DF20F4007
:1034F000FEF7EEFF2720FEF7F4FF4DF21040FEF737
:10350000E7FF0120FEF7EDFF4DF21140FEF7E0FF6F
:103510004E20FEF7E6FF4DF21240FEF7D9FF0120E4
:10352000FEF7DFFF4DF21340FEF7D2FF8C20FEF7CF
:10353000D8FF4DF21440FEF7CBFF0120FEF7D1FF7C
:103540004DF21540FEF7C4FFBE20FEF7CAFF4DF254
:103550001640FEF7BDFF0220FEF7C3FF4DF21740F5
:10356000FEF7B6FF0B20FEF7BCFF4DF21840FEF74A
:10357000AFFF0220FEF7B5FF4DF21940FEF7A8FF9E
:103580004820FEF7AEFF4DF21A40FEF7A1FF0220E1
:10359000FEF7A7FF4DF21B40FEF79AFF4A20FEF709
:1035A000A0FF4DF21C40FEF793FF0220FEF799FFAB
:1035B0004DF21D40FEF78CFF7E20FEF792FF4DF28C
:1035C0001E40FEF785FF0220FEF78BFF4DF21F40E5
:1035D000FEF77EFFBC20FEF784FF4DF22040FEF791
:1035E00077FF0220FEF77DFF4DF22140FEF770FFCE
:1035F000E120FEF776FF4DF22240FEF769FF03203F
:10360000FEF76FFF4DF22340FEF762FF1020FEF73A
:1036100068FF4DF22440FEF75BFF0320FEF761FFD9
:103620004DF22540FEF754FF3120FEF75AFF4DF2D0
:103630002640FEF74DFF0320FEF753FF4DF22740D3
:10364000FEF746FF5A20FEF74CFF4DF22840FEF7EA
:103650003FFF0320FEF745FF4DF22940FEF738FFFC
:103660007320FEF73EFF4DF22A40FEF731FF0320A4
:10367000FEF737FF4DF22B40FEF72AFF9420FEF7AE
:1036800030FF4DF22C40FEF723FF0320FEF729FF09
:103690004DF22D40FEF71CFF9F20FEF722FF4DF25A
:1036A0002E40FEF715FF0320FEF71BFF4DF22F40C3
:1036B000FEF70EFFB320FEF714FF4DF23040FEF789
:1036C00007FF0320FEF70DFF4DF23140FEF700FF2C
:1036D000B920FEF706FF4DF23240FEF7F9FE032057
:1036E000FEF7FFFE4DF23340FEF7F2FEC120FEF77B
:1036F000F8FE4FF45540FEF7EBFE0020FEF7F1FE1A
:103700004DF20150FEF7E4FE3720FEF7EAFE4DF2DF
:103710000250FEF7DDFE0020FEF7E3FE4DF20350FF
:10372000FEF7D6FE5220FEF7DCFE4DF20450FEF707
:10373000CFFE0020FEF7D5FE4DF20550FEF7C8FE85
:103740007B20FEF7CEFE4DF20650FEF7C1FE0020B4
:10375000FEF7C7FE4DF20750FEF7BAFE9920FEF7BE
:10376000C0FE4DF20850FEF7B3FE0020FEF7B9FE92
:103770004DF20950FEF7ACFEB120FEF7B2FE4DF25D
:103780000A50FEF7A5FE0020FEF7ABFE4DF20B50EF
:10379000FEF79EFED220FEF7A4FE4DF20C50FEF77F
:1037A00097FE0020FEF79DFE4DF20D50FEF790FEB5
:1037B000F620FEF796FE4DF20E50FEF789FE012030
:1037C000FEF78FFE4DF20F50FEF782FE2720FEF728
:1037D00088FE4DF21050FEF77BFE0120FEF781FEC1
:1037E0004DF21150FEF774FE4E20FEF77AFE4DF2B8
:1037F0001250FEF76DFE0120FEF773FE4DF21350DE
:10380000FEF766FE8C20FEF76CFE4DF21450FEF7BC
:103810005FFE0120FEF765FE4DF21550FEF758FEE3
:10382000BE20FEF75EFE4DF21650FEF751FE02205E
:10383000FEF757FE4DF21750FEF74AFE0B20FEF73B
:1038400050FE4DF21850FEF743FE0220FEF749FEEF
:103850004DF21950FEF73CFE4820FEF742FE4DF2B5
:103860001A50FEF735FE0220FEF73BFE4DF21B50CC
:10387000FEF72EFE4A20FEF734FE4DF21C50FEF7F6
:1038800027FE0220FEF72DFE4DF21D50FEF720FE12
:103890007E20FEF726FE4DF21E50FEF719FE022096
:1038A000FEF71FFE4DF21F50FEF712FEBC20FEF782
:1038B00018FE4DF22050FEF70BFE0220FEF711FE1F
:1038C0004DF22150FEF704FEE120FEF70AFE4DF214
:1038D0002250FEF7FDFD0320FEF703FE4DF22350BC
:1038E000FEF7F6FD1020FEF7FCFD4DF22450FEF72A
:1038F000EFFD0320FEF7F5FD4DF22550FEF7E8FD44
:103900003120FEF7EEFD4DF22650FEF7E1FD0320DB
:10391000FEF7E7FD4DF22750FEF7DAFD5A20FEF7DD
:10392000E0FD4DF22850FEF7D3FD0320FEF7D9FD50
:103930004DF22950FEF7CCFD7320FEF7D2FD4DF27B
:103940002A50FEF7C5FD0320FEF7CBFD4DF22B50AC
:10395000FEF7BEFD9420FEF7C4FD4DF22C50FEF79D
:10396000B7FD0320FEF7BDFD4DF22D50FEF7B0FD73
:103970009F20FEF7B6FD4DF22E50FEF7A9FD032065
:10398000FEF7AFFD4DF22F50FEF7A2FDB320FEF77C
:10399000A8FD4DF23050FEF79BFD0320FEF7A1FD80
:1039A0004DF23150FEF794FDB920FEF79AFD4DF22D
:1039B0003250FEF78DFD0320FEF793FD4DF233509C
:1039C000FEF786FDC120FEF78CFD4FF45640FEF752
:1039D0007FFD0020FEF785FD4DF20160FEF778FDCA
:1039E0003720FEF77EFD4DF20260FEF771FD0020EC
:1039F000FEF777FD4DF20360FEF76AFD5220FEF7F9
:103A000070FD4DF20460FEF763FD0020FEF769FDD6
:103A10004DF20560FEF75CFD7B20FEF762FD4DF286
:103A20000660FEF755FD0020FEF75BFD4DF20760D6
:103A3000FEF74EFD9920FEF754FD4DF20860FEF7AB
:103A400047FD0020FEF74DFD4DF20960FEF740FDF9
:103A5000B120FEF746FD4DF20A60FEF739FD002069
:103A6000FEF73FFD4DF20B60FEF732FDD220FEF770
:103A700038FD4DF20C60FEF72BFD0020FEF731FD06
:103A80004DF20D60FEF724FDF620FEF72AFD4DF203
:103A90000E60FEF71DFD0120FEF723FD4DF20F60C5
:103AA000FEF716FD2720FEF71CFD4DF21060FEF715
:103AB0000FFD0120FEF715FD4DF21160FEF708FD28
:103AC0004E20FEF70EFD4DF21260FEF701FD0120C3
:103AD000FEF707FD4DF21360FEF7FAFC8C20FEF7AF
:103AE00000FD4DF21460FEF7F3FC0120FEF7F9FC37
:103AF0004DF21560FEF7ECFCBE20FEF7F2FC4DF235
:103B00001660FEF7E5FC0220FEF7EBFC4DF21760B5
:103B1000FEF7DEFC0B20FEF7E4FC4DF21860FEF72A
:103B2000D7FC0220FEF7DDFC4DF21960FEF7D0FC59
:103B30004820FEF7D6FC4DF21A60FEF7C9FC0220C1
:103B4000FEF7CFFC4DF21B60FEF7C2FC4A20FEF7E9
:103B5000C8FC4DF21C60FEF7BBFC0220FEF7C1FC66
:103B60004DF21D60FEF7B4FC7E20FEF7BAFC4DF26C
:103B70001E60FEF7ADFC0220FEF7B3FC4DF21F60A5
:103B8000FEF7A6FCBC20FEF7ACFC4DF22060FEF771
:103B90009FFC0220FEF7A5FC4DF22160FEF798FC89
:103BA000E120FEF79EFC4DF22260FEF791FC03201F
:103BB000FEF797FC4DF22360FEF78AFC1020FEF71B
:103BC00090FC4DF22460FEF783FC0320FEF789FC95
:103BD0004DF22560FEF77CFC3120FEF782FC4DF2B1
:103BE0002660FEF775FC0320FEF77BFC4DF2276094
:103BF000FEF76EFC5A20FEF774FC4DF22860FEF7CB
:103C000067FC0320FEF76DFC4DF22960FEF760FCB7
:103C10007320FEF766FC4DF22A60FEF759FC032084
:103C2000FEF75FFC4DF22B60FEF752FC9420FEF78E
:103C300058FC4DF22C60FEF74BFC0320FEF751FCC4
:103C40004DF22D60FEF744FC9F20FEF74AFC4DF23A
:103C50002E60FEF73DFC0320FEF743FC4DF22F6083
:103C6000FEF736FCB320FEF73CFC4DF23060FEF769
:103C70002FFC0320FEF735FC4DF23160FEF728FCE7
:103C8000B920FEF72EFC4DF23260FEF721FC032036
:103C9000FEF727FC4DF23360FEF71AFCC120FEF759
:103CA00020FC4FF47040FEF713FC5520FEF719FC82
:103CB0004FF20100FEF70CFCAA20FEF712FC4FF2B7
:103CC0000200FEF705FC5220FEF70BFC4FF203004A
:103CD000FEF7FEFB0820FEF704FC4FF20400FEF79F
:103CE000F7FB0020FEF7FDFB4FF43040FEF7F0FB42
:103CF0000820FEF7F6FB4BF20100FEF7E9FB05207A
:103D0000FEF7EFFB4BF20200FEF7E2FB0220FEF7AC
:103D1000E8FB4BF20300FEF7DBFB0520FEF7E1FBBF
:103D20004BF20400FEF7D4FB0220FEF7DAFB4FF45F
:103D30003640FEF7CDFB0820FEF7D3FB4FF43540AD
:103D4000FEF7C6FB5020FEF7CCFB4FF43740FEF7E2
:103D5000BFFB0020FEF7C5FB4BF20170FEF7B8FB7E
:103D60000020FEF7BEFB4FF43840FEF7B1FB012008
:103D7000FEF7B7FB4BF60100FEF7AAFB0520FEF7A6
:103D8000B0FB4BF60200FEF7A3FB0520FEF7A9FBF4
:103D90004BF60300FEF79CFB0520FEF7A2FB4FF459
:103DA0003C40FEF795FB0020FEF79BFB4BF60140E5
:103DB000FEF78EFB0020FEF794FB4BF60240FEF769
:103DC00087FB0020FEF78DFB4FF44C40FEF780FB95
:103DD0000320FEF786FB4CF60140FEF779FB00203E
:103DE000FEF77FFB4CF60240FEF772FB0020FEF769
:103DF00078FB4FF43D40FEF76BFB0120FEF771FBB3
:103E00004BF60150FEF764FB8420FEF76AFB4BF68D
:103E10000250FEF75DFB0720FEF763FB4BF60350F5
:103E2000FEF756FB3120FEF75CFB4BF60450FEF725
:103E30004FFB0020FEF755FB4FF43A40FEF748FBDE
:103E40000120FEF74EFB4FF47F40FEF741FBAA2016
:103E5000FEF747FB4FF60170FEF73AFB5520FEF7E1
:103E600040FB4FF60270FEF733FB2520FEF739FBCF
:103E70004FF60370FEF72CFB0120FEF732FB4FF4E8
:103E80005450FEF725FB0020FEF72BFB4FF4585053
:103E9000FEF71EFB0020FEF724FB4FF46850FEF7F0
:103EA00017FB5520FEF71DFB4FF48850FEF710FB63
:103EB000782001F05FF84FF42450FEF709FB4FF42F
:103EC0003050FEF705FB0020FEF7D8FC4FF6FF70E0
:103ED000FEF78FFB10BD00001CB50121202001F072
:103EE00001FF4FF4C060009001208DF80400002015
:103EF0008DF8060003208DF8050001208DF80700DD
:103F00006946044801F06CF94FF4C061014801F0C2
:103F1000E3F91CBD0014024070B50446002500BF43
:103F200017E004F0800018B10120FE49086002E0AB
:103F30000020FC4908606006040E0020FA49086071
:103F4000012000F0CFFF0120F849C1F88002681C71
:103F5000C5B2082DE5DB70BD70B50646002500240E
:103F60000020F1490860F249C1F8AC02F14908604B
:103F70003046FFF7D1FF062000F0B4FF0020EB49E8
:103F8000C1F88002012000F0ADFF0120E649086081
:103F900000F0A8FF0020E549C1F8800200BF15E04D
:103FA0004FF6FF7000EA44040020DF49086001205A
:103FB00000F098FF0120DD49C1F88002DA48783826
:103FC000006808B1601C84B2681CC5B2102DE7DB24
:103FD00024110120D7490860204670BD2DE9FE4319
:103FE00080460027002406E04046FFF7B5FF2DF885
:103FF0001400601C84B2052CF6DB002416E0601C63
:1040000085B20FE03DF814003DF81510884207DD39
:104010003DF814603DF815002DF814002DF81560DA
:10402000681C85B2052DEDDB601C84B2042CE6DB38
:104030000027012405E03DF81400384487B2601CD5
:1040400084B2042CF7DB032097FBF0F086B23046F5
:10405000BDE8FE832DE9F04104460D46B6480078E0
:10406000FFF7BCFF0646B5480078FFF7B7FF0746E5
:1040700026802F800120BDE8F0817FB504460D46E3
:1040800002A903A8FFF7E6FF064616B9002004B010
:1040900070BD694601A8FFF7DDFF06460EB9002096
:1040A000F5E7BDF80400BDF80C10884206DCBDF849
:1040B0000C10BDF80400323081420CDBBDF80C005E
:1040C000BDF80410884236DCBDF80410BDF80C00C1
:1040D000323081422FDABDF80000BDF80810884266
:1040E00006DCBDF80810BDF80000323081420CDB60
:1040F000BDF80800BDF8001088421CDCBDF80010B7
:10410000BDF808003230814215DABDF80C10BDF858
:104110000420881800EBD071C1F34F012180BDF855
:104120000810BDF80020881800EBD071C1F34F01D2
:1041300029800120ABE70020A9E7F8B504460D4629
:1041400016467F48068004F10D018AB2193988B2FB
:104150002B462946FCF7E9F805F10D0083B2193822
:1041600081B222462046FCF7E0F86A1C91B2621C3C
:1041700090B2FEF732FA6A1C91B2621E90B2FEF75C
:104180002CFA6A1E91B2621C90B2FEF726FA6A1EE1
:1041900091B2621E90B2FEF720FA00200623009032
:1041A0006748028829462046FCF788F9F8BD70B5B3
:1041B00004460D4616466248068029462046FEF70C
:1041C0000CFA611C88B22946FEF707FA681C81B216
:1041D0002046FEF702FA6A1C91B2621C90B2FEF70A
:1041E000FCF970BD10B504464F487C3800680028C3
:1041F0004BD124B15349881EFFF73FFF34E05149AA
:10420000881EFFF73AFF78B34E481238B0F9200005
:1042100000EE100AB8EEC00A4A48123890ED061AAD
:10422000008A00EE900AF8EE600A01EE200ABCEE69
:10423000C00A10EE100A4349123908820846B0F944
:10424000220000EE100AB8EEC00A084690ED071AE8
:10425000408A00EE900AF8EE600A01EE200ABCEEF9
:10426000C00A10EE100A488236481238007D00F06D
:10427000800010BBC0203349123908750846008AF7
:1042800088810846408AC88117E02E481238007D90
:1042900000F0800040B12B481238007D20F08000F3
:1042A00028491239087508E000202649123988810A
:1042B000C8814FF6FF700882488222481238007D7C
:1042C00000F0800010BD10B51E48123890ED060AAF
:1042D000DFED1D0A20EE200ABDEEC00A10EE104AE6
:1042E000042221462820FDF7DDFE1648123890ED05
:1042F000070ADFED150A20EE200ABDEEC00A10EE17
:10430000104A042221462C20FDF7CCFE0D4812381D
:10431000B0F9201002223020FDF7C4FE09481238FF
:1043200014E00000AC824242808240420080404261
:1043300000804242B402414260000020610000203F
:10434000300000204A00002020BCBE4CB0F92210F2
:1043500002223220FDF7A6FEFB4890F824103420FC
:10436000FDF778FE0A2421463520FDF773FE10BDC7
:1043700010B53520FDF742FE04460A2C46D1042133
:104380002820FDF7A4FE044600EE104AB8EEC00A4D
:104390005FED130A80EE201AEB4880ED061A042127
:1043A0002C20FDF794FE044600EE104AB8EEC00A39
:1043B0005FED1B0A80EE201AE34880ED071A022108
:1043C0003020FDF784FE00B2DF490884022132204C
:1043D000FDF77DFE00B2DC4948843420FDF70EFE77
:1043E000D94981F82400084690F8240030B1902083
:1043F000D6490870D020D649087005E0D020D349AE
:1044000008709020D2490870012010BD0020FCE700
:104410002DE9F84F04460D4617461E46DDE90CAB64
:10442000DDE90A894FF47840CA4908800120CAA30F
:1044300010228C2100902820FCF746FA0120C7A307
:1044400010228C2100907820FCF73EFA0120C4A3B2
:104450001022A02100902820FCF736FA0120C1A3E9
:104460001022A02100907820FCF72EFA0120BEA394
:104470001022B42100902820FCF726FA0120BBA3CB
:104480001022B42100907820FCF71EFA0120B8A376
:104490001022C82100902820FCF716FA0120B5A3AD
:1044A0001022C82100907820FCF70EFA0120B2A358
:1044B0001022DC2100902820FCF706FA10200423AB
:1044C00022468C2100904020FCF738FA102004236B
:1044D0002A468C2100909020FCF730FA102004230B
:1044E0003A46A02100904020FCF728FA102004232F
:1044F0003246A02100909020FCF720FA10200423DF
:104500004246B42100904020FCF718FA1020042302
:104510004A46B42100909020FCF710FA10200423A2
:104520005246C82100904020FCF708FA10200423CE
:104530005A46C82100909020FCF700FA102003236F
:104540000090DC2160200E9AFCF7F8F9BDE8F88FA6
:104550002DE9F0472DED068B8AB04FF00008C146DB
:1045600000BF1F207B4908804FF6FF7084490880F8
:10457000FEF73FF84FF47840764908804FF6FF7019
:10458000FEF737F800207349088001207DA3102230
:10459000282100900A20FCF797F9012080A310221F
:1045A000382100900A20FCF78FF9012083A3102204
:1045B000482100900A20FCF787F9012086A31022E9
:1045C000582100900A20FCF77FF9012089A31022CE
:1045D000682100900A20FCF777F94FF47842142103
:1045E0000846FFF7AAFD0020574908759FED850A88
:1045F000084680ED060AE6E35348416801208847F3
:104600005148007D00F0C00040286FD14FF00009F4
:104610004D48007D20F040004B4908750846008A4F
:1046200006A921F828004848408A01EB8801488003
:1046300008F1010000F0FF08B8F1010F09D0B8F14E
:10464000020F16D0B8F1030F26D0B8F1040F0FD126
:1046500038E04FF6FF7214210846FFF76EFD6A49F5
:104660000988143988B24FF478421421FFF765FDA8
:104670009AE365490988143988B24FF6FF7214210C
:10468000FFF75BFD60484088143881B24FF47842F0
:104690001420FFF752FD87E35B484088143881B24D
:1046A0004FF6FF721420FFF748FD574A5288143A1C
:1046B00091B2554A1288143A90B24FF47842FFF7FB
:1046C0003CFD71E3BDF81810BDF81C20881A0028C5
:1046D00001DB014600E041420C46BDF81A20BDF85E
:1046E0001E10501A002802DB014601E05DE3414242
:1046F0000D4664436D43601901F049FD41EC1A0B0E
:10470000B0EE4A0AF0EE6A0A01F0CAFCB0EE409A36
:10471000F0EE609A51EC190B01F00CFD86B2BDF879
:104720002010BDF82420881A002801DB014600E093
:1047300041420C46BDF82220BDF82610501A002830
:1047400064DB014663E061E0380000206000002087
:10475000610000203000002078313A0079313A00C1
:1047600078323A0079323A0078333A0079333A00B5
:1047700078343A0079343A006661632069733A000C
:1047800032000020506C656173652075736520747C
:104790006865207374796C757320636C69636B0052
:1047A0007468652063726F7373206F6E2074686520
:1047B0002073637265656E2E0000000054686520EA
:1047C00063726F73732077696C6C20616C776179A9
:1047D00073206D6F76650000756E74696C20746867
:1047E000652073637265656E2061646A7573746DAC
:1047F000656E7400697320636F6D706C65746564B9
:104800002E000000000000007C00002041420D4608
:1048100064436D43601901F0BAFC41EC1A0BB0EE31
:104820004A0AF0EE6A0A01F03BFCB0EE409AF0EE64
:10483000609A51EC190B01F07DFC87B200EE106A12
:10484000F8EE400A00EE107AB8EE400A80EE801AC8
:1048500011EE10AA504601F0E9FE41EC180B9FED55
:10486000FE0B53EC102B51EC180B01F0A3FC0AD3F8
:104870009FEDFB0B53EC102B51EC180B01F0D4FD0A
:1048800001D306B1CFBB4FF00008F74A5288143A63
:1048900091B2F54A1288143A90B24FF6FF72FFF7C0
:1048A0004CFC4FF4784214210846FFF746FC9FED7C
:1048B000EF0B53EC102B51EC180B01F0B7FC41EC53
:1048C000190B01F037FC1FFA80FABDF82600BDF87D
:1048D0002410BDF82220CDE9030ACDE90121BDF85D
:1048E00020000090BDF81E30BDF81C20BDF81A1045
:1048F000BDF81800FFF78CFD65E2FFE7BDF8181062
:10490000BDF82020881A002801DB014600E0414262
:104910000C46BDF81A20BDF82210501A002801DB01
:10492000014600E041420D4664436D43601901F0C9
:104930002EFC41EC1A0BB0EE4A0AF0EE6A0A01F0C6
:10494000AFFBB0EE409AF0EE609A51EC190B01F01B
:10495000F1FB86B2BDF81C10BDF82420881A00288F
:1049600001DB014600E041420C46BDF81E20BDF8C7
:104970002610501A002801DB014600E041420D4696
:1049800064436D43601901F002FC41EC1A0BB0EE78
:104990004A0AF0EE6A0A01F083FBB0EE409AF0EEAC
:1049A000609A51EC190B01F0C5FB87B200EE106A5A
:1049B000F8EE400A00EE107AB8EE400A80EE801A57
:1049C00011EE10AA504601F031FE41EC180B9FED9C
:1049D000A20B53EC102B51EC180B01F0EBFB08D39E
:1049E0009FED9F0B53EC102B51EC180B01F01CFDAD
:1049F00039D24FF000089C4A5288143A91B29A4A30
:104A00001288143A90B24FF6FF72FFF796FB4FF4FC
:104A1000784214210846FFF790FB9FED940B53EC6E
:104A2000102B51EC180B01F001FC41EC190B01F0BB
:104A300081FB1FFA80FABDF82610BDF82400BDF8EE
:104A40002220CDE9031ACDE90120BDF82000009015
:104A5000BDF81E30BDF81C20BDF81A10BDF81800B6
:104A6000FFF7D6FCAFE1BDF81C10BDF82020881A76
:104A7000002801DB014600E041420C46BDF81E2043
:104A8000BDF82210501A002801DB014600E0414227
:104A90000D4664436D43601901F079FB41EC1A0B3C
:104AA000B0EE4A0AF0EE6A0A01F0FAFAB0EE409A65
:104AB000F0EE609A51EC190B01F03CFB86B2BDF8A8
:104AC0001810BDF82420881A002801DB014600E0F8
:104AD00041420C46BDF81A20BDF82610501A002895
:104AE00001DB014600E041420D4664436D4360191D
:104AF00001F04DFB41EC1A0BB0EE4A0AF0EE6A0AE7
:104B000001F0CEFAB0EE409AF0EE609A51EC190B3B
:104B100001F010FB87B200EE106AF8EE400A00EEDA
:104B2000107AB8EE400A80EE801A11EE10AA5046B4
:104B300001F07CFD41EC180B9FED470B53EC102B63
:104B400051EC180B01F036FB08D39FED450B53ECED
:104B5000102B51EC180B01F067FC39D24FF0000814
:104B6000414A5288143A91B23F4A1288143A90B29C
:104B70004FF6FF72FFF7E1FA4FF47842142108462E
:104B8000FFF7DBFA9FED390B53EC102B51EC180BB0
:104B900001F04CFB41EC190B01F0CCFA1FFA80FA42
:104BA000BDF82610BDF82400BDF82220CDE9031A77
:104BB000CDE90120BDF820000090BDF81E30BDF801
:104BC0001C20BDF81A10BDF81800FFF721FCFAE010
:104BD000BDF81C00BDF81810401A00EE100AF8EEDF
:104BE000C00A21480088283800EE100AB8EEC00A32
:104BF00080EE201A1F4880ED061ABDF81C00BDF893
:104C00001810084400EE100AF8EEC00A1648008892
:104C100000EE100AB8EE400A164890ED061A01EEB2
:104C2000600AF0EE000A80EE201ABDEEC10A10EE16
:104C3000100A00B20F490884BDF82200BDF81A100E
:104C4000401A00EE100AF8EEC00A074840882838DB
:104C500000EE100A10E00000666666666666EE3FCB
:104C6000CDCCCCCCCCCCF03F7C00002000000000B0
:104C70000000594038000020B8EEC00A80EE201A2B
:104C8000784880ED071ABDF82200BDF81A100844D4
:104C900000EE100AF8EEC00A7348408800EE100AD1
:104CA000B8EE400A6F4890ED071A01EE600AF0EE88
:104CB000000A80EE201ABDEEC10A10EE100A00B202
:104CC000684948840A4692ED060ABDEEC00A10EE15
:104CD000101A002901DB0A4600E04A42022A0DDCD4
:104CE000604A92ED070ABDEEC00A10EE100A0028D5
:104CF00001DB024600E04242022A37DD4FF00008A5
:104D0000594A5288143A91B2574A1288143A90B2CA
:104D10004FF6FF72FFF711FA4FF47842142108465C
:104D2000FFF70BFA012051A310221A21009028202E
:104D3000FBF7CAFD4B4890F8240008B9012000E0B9
:104D40000020484981F82400084690F8240030B13A
:104D500090204B490870D0204A49087005E0D020C7
:104D6000474908709020474908702CE01F204649A9
:104D700008804FF6FF70FDF73CFC012043A3102292
:104D80006E2100902320FBF79FFD4FF47A7000F016
:104D9000F1F8FFF798FA4FF6FF70FDF72AFC0AB01A
:104DA000BDEC068BBDE8F08700BF0A2000F0E2F8FA
:104DB00009F101001FFA80F9B9F57A7F02DDFFF7EA
:104DC000D7FA01E000BF17E400BF00BFE7E71CB55A
:104DD0000121262000F086FF0620009000208DF89B
:104DE00004008DF8060003208DF8050001208DF8E1
:104DF000070069462B4800F0F3F9012000908DF878
:104E000004006946274800F0EBF94FF40050009089
:104E100001208DF804006946234800F0E1F94FF4C1
:104E20000060009001208DF8040069461F4800F0E2
:104E3000D7F90C491231881EFFF70CF9FDF7DAF8A3
:104E4000FFF796FA08B100201CBD4FF6FF70FDF782
:104E5000D0FBFFF77DFBFFF736FAFFF789FA012059
:104E6000F2E70000380000207C0000205450204E63
:104E700065656420726561646A7573742100000061
:104E8000600000206100002030000020546F756336
:104E9000682053637265656E2041646A757374207F
:104EA0004F4B210000040240000802400014024061
:104EB00010B504466FF0040000F0EEF8E11704EBC3
:104EC0005171C1F3C701394A11701046007800EBE7
:104ED0004001C1EBC0104FF6FF7101EAC000344938
:104EE000088010BD0146314A12784A434FF0E02352
:104EF0005A6100229A611A46126942F001021A614F
:104F000000BF4FF0E022106900F001021AB100F476
:104F10008032002AF5D04FF0E022126922F001021F
:104F20004FF0E0231A6100229A6170470146204A3F
:104F300012884A434FF0E0235A6100229A611A46D0
:104F4000126942F001021A6100BF4FF0E0221069BD
:104F500000F001021AB100F48032002AF5D04FF0BF
:104F6000E022126922F001024FF0E0231A610022D0
:104F70009A61704770B504464FF4077094FBF0F0E7
:104F8000C6B24FF4077094FBF0F100FB114085B2FC
:104F900005E04FF40770FFF7C9FF701EC6B2002E80
:104FA000F7D115B12846FFF7C1FF70BD680000209A
:104FB0006A0000200948804709480047FEE7FEE7ED
:104FC000FEE7FEE7FEE7FEE7FEE7FEE7FEE7FEE7B9
:104FD00004480549054A064B70470000B50F000814
:104FE00089010008D0010020D0070020D003002054
:104FF000D003002032490143324A1160704770B536
:10500000002100230F22C4781CB32E4C246804F422
:10501000E064C4F5E064C4F30721C1F10404E3B221
:105020000A4144789C40E1B28478144021430C0743
:10503000210E254C05786155047804F01F050124E4
:10504000AC4005786D11AD0005F1E025C5F80041D3
:1050500009E0047804F01F050124AC401B4D0678DC
:10506000761145F8264070BD194A0A400243154B97
:105070001B1F1A60704739B1124A121D1268024391
:10508000104B1B1D1A6006E00E4A121D1268824367
:105090000C4B1B1D1A607047042808D14FF0E0210B
:1050A000096941F004014FF0E022116107E04FF07F
:1050B000E021096921F004014FF0E02211617047FD
:1050C0000000FA050CED00E000E400E080E100E003
:1050D00080FFFF1F10B504469848844208D1012183
:1050E000084600F06AFE0021012000F066FE76E02E
:1050F0009348844208D10121022000F05EFE002185
:10510000022000F05AFE6AE08E48844208D1012154
:10511000042000F052FE0021042000F04EFE5EE06C
:105120008948844208D10121082000F046FE002170
:10513000082000F042FE52E08448844208D1012158
:10514000102000F03AFE0021102000F036FE46E06C
:105150007F48844208D10121202000F02EFE00214A
:10516000202000F02AFE3AE07A48844208D101214A
:10517000402000F022FE0021402000F01EFE2EE024
:105180007548844208D10121802000F016FE0021DC
:10519000802000F012FE22E07048844208D10121F4
:1051A000801500F00AFE0021A01500F006FE16E0B2
:1051B0006B48844208D10121401500F0FEFD00211A
:1051C000601500F0FAFD0AE06648844207D101212B
:1051D000001500F0F2FD0021201500F0EEFD10BDDD
:1051E000F0B50A4600210023002400BF3DE0012560
:1051F00005FA01F3156805EA03049C4234D10568F9
:105200004F000326BE40B543056015794E00B540FA
:105210000668354305601579012D02D01579022DF8
:1052200016D185684F000326BE40B5438560557989
:105230004E00B540866835438560456801268E403E
:10524000B5434560456896798E40B6B235434560B2
:10525000C5684F000326BE40B543C560D5794E00F2
:10526000B540C6683543C560491C1029BFD3F0BDA1
:105270004FF6FF7101600021017141718171C171AF
:10528000704708B54FF480320092009A0A430092AA
:10529000009AC261C161009AC261C2690092C2698A
:1052A000009208BD0246002013690B400BB101209B
:1052B00000E0002070470146086980B2704702464E
:1052C000002053690B400BB1012000E00020704723
:1052D0000146486980B27047018370474183704737
:1052E0000AB1018300E04183704741617047426920
:1052F0004A4042617047F0B5002300244D07ED0E8F
:1053000002FA05F3CE1000F1200555F826504E079D
:10531000F70E0F26BE40B543CF1000F1200646F829
:105320002750CE1000F1200555F8265045EA030419
:10533000CE1000F1200545F82640F0BD00000240E7
:105340000004024000080240000C0240001002402D
:105350000014024000180240001C024000200240DD
:10536000002402400028024030B943F2DB028100F1
:10537000A1F1C0410A6005E043F2D2028100A1F12F
:10538000C0410A606FF07042411C8900A1F1C04128
:105390000A608100A1F1C041C1F804217047D0E941
:1053A00001121143C268114302691143426911435A
:1053B00082691143C2691143026A1143426A11436F
:1053C000826A1143C26A1143026B11430268920060
:1053D000A2F1C0421160816808290BD101688900DF
:1053E000A1F1C041096841F0400201688900A1F1C2
:1053F000C0410A60416B0968426B526841EA021180
:10540000426B926841EA0221426B928941EA024171
:10541000426B128A41EA0251426B127D41EA0261FB
:10542000426B926911430268521C9200A2F1C04281
:105430001160C16AB1F5804F1BD1816B0968826B25
:10544000526841EA0211826B926841EA0221826B42
:10545000128A41EA0251826B127D41EA0261826B3B
:105460009269114302689200A2F1C042C2F804118D
:1054700007E06FF0704201688900A1F1C041C1F8F6
:1054800004217047002101600221416000218160F8
:10549000C160016141618161C16101624FF480516C
:1054A0004162490081620021C1620163F8494163A0
:1054B0008163704751B18200A2F1C042126842F08C
:1054C00001038200A2F1C042136009E08200A2F150
:1054D000C0421268EF4B1A408300A3F1C0431A6028
:1054E000704710280AD118214FF020421166402140
:1054F00051664FF0FC319166D16610E01821E64A02
:10550000116040214FF02042C2F884104FF0FC316E
:10551000E14A083211604FF02042C2F88C10704707
:1055200030B5002100220023446844F00804856857
:105530002C43C5682C4305692C43456944EA45243E
:10554000856944EA4531C4692468C5696D6844EADF
:105550000524C5692D8944EA0544C5692D7B44EAC3
:105560000562046A2468056A6D6844EA0524056AD0
:105570002D8944EA0544056A2D7B44EA05630468E5
:10558000102C05D14FF020442166A266E36608E0A6
:10559000C14C21604FF02044C4F88820BE4C0C342C
:1055A000236030BD10210160002141608160C16035
:1055B000016141618161FC21C2691160C269516070
:1055C000C2699160C269D160026A1160026A516069
:1055D000026A9160026AD160704799B1102808D1BF
:1055E0004FF02042126E42F004024FF020431A6640
:1055F0001DE0A94A126842F004024FF02043C3F8AC
:10560000802014E0102809D14FF02042126EA14BE7
:10561000DB1E1A404FF020431A6608E09E4A1268CB
:105620009C4BDB1E1A404FF02043C3F8802070478C
:1056300099B1102808D14FF02042126E42F040027A
:105640004FF020431A661DE0934A126842F0400270
:105650004FF02043C3F8802014E0102809D14FF008
:105660002042126E8B4B3F3B1A404FF020431A668C
:1056700008E0894A1268874B3F3B1A404FF02043AD
:10568000C3F88020704701460020102903D14FF055
:105690002042506F02E0804A143210687047182090
:1056A0007D492031086000200906C1F8A4004FF0B0
:1056B000FC30794928310860091D0860091D08601F
:1056C0007047016841F01001426841EA4221826856
:1056D00041EA4231704A20321160C1680968C268EB
:1056E000526841EA0221C268128941EA0241C26855
:1056F000127B41EA0261684A283211600169096837
:105700000269526841EA02210269128941EA0241B2
:105710000269127B41EA02615F4A2C3211604169E1
:1057200009684269526841EA02214269128941EAE4
:1057300002414269127B41EA02614FF02042C2F805
:10574000B01070470021016041608160FC21C26897
:105750001160C2685160C2689160C268D16002691C
:10576000116002695160026991600269D160426909
:10577000116042695160426991604269D16070472D
:1057800048B145492031096841F004014FF02042F9
:10579000C2F8A01009E04049203109683D4AD21EF4
:1057A00011404FF02042C2F8A010704710B5F2B17E
:1057B000102807D14FF020435B6E0B434FF020447D
:1057C000636632E0B0F5807F08D1334B1B1D1B6848
:1057D0000B434FF02044C4F8843026E02E4B243392
:1057E0001B680B434FF02044C4F8A4301DE0102880
:1057F00007D14FF020435B6E8B434FF0204463662C
:1058000013E0B0F5807F08D1234B1B1D1B688B4331
:105810004FF02044C4F8843007E01F4B24331B684A
:105820008B434FF02044C4F8A43010BD10B502469D
:1058300000200023102A03D14FF02044636E09E0BA
:10584000B2F5807F03D1144C241D236802E0124C72
:105850002434236803EA01040CB1012000E0002095
:1058600010BD102807D14FF02042526E8A434FF0EE
:1058700020435A6619E0B0F5807F0FD1064A121D09
:1058800012688A434FF02043C3F884200DE00000E3
:10589000CC8B0008FEFF0F00800000A0234A126896
:1058A0008A434FF02043C3F8A420704770B50246E6
:1058B0000020002300240025102A03D14FF02046A9
:1058C000736E08E0B2F5807F03D1184E203E336836
:1058D00001E0164E336803EA010403EAD10514B16E
:1058E0000DB1012000E0002070BD102808D14FF05C
:1058F0002042526E22EAD1024FF020435A6614E051
:10590000B0F5807F09D1094A203A126822EAD10213
:105910004FF02043C3F8842007E0044A126822EACB
:10592000D1024FF02043C3F8A4207047A40000A088
:10593000F948006840F00100F74908600020F64986
:1059400008310860F4480068F4490840F2490860EA
:10595000F348091D0860F348EF4984310860F048B6
:105960001038091D0860EC48006820F48020EA49DE
:1059700008600020E8490C310860E7498C31086074
:1059800070470021E44A921C11701146087070475C
:1059900010B501460022002300204A11012A02D13D
:1059A000DD4C236808E0022A03D1DB4C7034236805
:1059B00002E0D94C7434236801F01F0201249440A2
:1059C0001C400CB1012000E0002010BD38B50020C3
:1059D00000900024002500BF3120FFF7D9FF0546C5
:1059E0000098401C00900098B0F5A04F01D0002D09
:1059F000F2D03120FFF7CCFF08B1012400E00024F1
:105A0000204638BD01460020C34A106820F0F80047
:105A100040EAC10010607047C34908607047002128
:105A2000BD4A703211701170012802D004280AD1C9
:105A300004E00121B84A7032117005E00521B64A30
:105A40007032117000E000BF00BF7047B7490860B6
:105A5000704770B5049C41EA82150126C6EB5306D7
:105A600045EA0645054345EA0465AB4E361D3560FB
:105A700070BDAD4908667047820142EA0172A64BCB
:105A800084331A607047A8498866704710B583014F
:105A900043EA016343EA02739F4C8834236010BDDC
:105AA000A14908677047A049C864704702460020B2
:105AB000994B0833186820F0EC6042EA0103184360
:105AC000954B08331860704702460020924B08330C
:105AD000186820F0784042EA010318438E4B0833DF
