:020000040800F2
:100000003808002085020008E7390008D51A0008E2
:10001000E5390008B104000879510008000000002B
:100020000000000000000000000000002D3C00085F
:100030009D05000800000000093A00089D3D0008E9
:100040009F0200089F0200089F0200089F0200080C
:100050009F0200089F0200089F0200089F020008FC
:100060009F0200089F0200089F0200089F020008EC
:100070009F0200089F0200089F0200089F020008DC
:100080009F0200089F0200089F0200089F020008CC
:100090009F0200089F0200089F0200089F020008BC
:1000A0009F0200089F0200089F0200089F020008AC
:1000B0009F0200089F0200089F0200089F0200089C
:1000C0009F0200089F0200089F0200089F0200088C
:1000D0009F0200089F0200089F0200089F0200087C
:1000E0009F0200089F0200089F0200089F0200086C
:1000F0009F0200089F0200089F0200089F0200085C
:100100009F0200089F0200089F0200089F0200084B
:100110009F0200089F0200089F0200089F0200083B
:100120009F0200089F0200089F0200089F0200082B
:100130009F0200089F0200089F0200089F0200081B
:100140009F0200089F0200089F0200089F0200080B
:100150009F0200089F0200089F0200089F020008FB
:100160009F0200089F0200089F0200089F020008EB
:100170009F0200089F0200089F0200080000000084
:100180009F0200089F0200089F0200089F020008CB
:100190009F0200089F0200089F0200089F020008BB
:1001A0009F0200089F0200089F02000800F002F86A
:1001B00000F03EF80AA090E8000C82448344AAF1C3
:1001C0000107DA4501D100F033F8AFF2090EBAE8C1
:1001D0000F0013F0010F18BFFB1A43F0010318477B
:1001E000B87D0000D87D0000103A24BF78C878C1DF
:1001F000FAD8520724BF30C830C144BF04680C602D
:10020000704700000023002400250026103A28BF74
:1002100078C1FBD8520728BF30C148BF0B60704778
:100220001FB505F036FC00F062F81FBD10B510BD1B
:1002300000F09CF81146FFF7F3FF05F09BF800F083
:10024000BAF803B4FFF7F2FF03BC00F0BFF80000F8
:100250000B49D1F800C04A685CF8043B10681844A8
:1002600042F8040B8C4528BFA1F1DC0C8A4228BF60
:10027000A1F1DC02C1F800C04A6020F000407047E4
:10028000CC0100200948804709480047FEE7FEE707
:10029000FEE7FEE7FEE7FEE7FEE7FEE7FEE7FEE736
:1002A00004480549054A064B70470000A13D000877
:1002B000AD01000838020020380800203804002072
:1002C000380400200B4910B5A1F17C020A4CC2E9A8
:1002D0003712372106E000EB104342F82130074B7C
:1002E00000FB03400B1EA1F10101F4DC10BD012055
:1002F000E8E700006C010020E119D666CD0D010091
:1003000010B5431C02E010F8011B71B18107FAD14E
:100310004FF0013202C88C1A8C4314EAC211F9D092
:10032000C01A0A0603D0C01E10BDC01A10BD0A04B0
:1003300001D0801E10BD0902FCD0401E10BD7047C8
:100340007047704710B500F009F8006810BD10B58F
:10035000044600F003F8046010BD00000048704738
:10036000D401002000487047D40100207546FFF7F3
:10037000F9FFAE4605006946534620F00700854662
:1003800018B020B5FFF78CFFBDE820404FF0000605
:100390004FF000074FF000084FF0000B21F007016D
:1003A000AC46ACE8C009ACE8C009ACE8C009ACE8B0
:1003B000C0098D46704710B50446AFF30080204653
:1003C000BDE81040FFF73DBF70470000014918200D
:1003D000ABBEFEE72600020001F09EBB2DE9F04116
:1003E0000D460146002004464E1908E00702301B66
:1003F000401E80B200F007F8641C3844E4B2AC42FE
:10040000F4D3BDE8F08110B5044601F02DFC200ABC
:10041000A02101EB4000C0B201F0F6FB01F064FC4A
:10042000E0B201F0F1FB01F05FFC01F01DFCA12046
:1004300001F0EAFB01F058FC002001F0B1FB04469A
:1004400001F032FC204610BD2DE9F04116460D4664
:100450000746002409E0E00025FA00F0C1B238198F
:1004600080B200F006F8641CE4B2B442F3D3BDE8F5
:10047000F08170B50D46044601F0F6FB200AA0217C
:1004800001EB4000C0B201F0BFFB01F02DFCE0B277
:1004900001F0BAFB01F028FC284601F0B5FB01F0A1
:1004A00023FC01F001FCBDE870400A2004F0F8BE16
:1004B000FEE70000FEB51BA000F072F80025102436
:1004C0001DA08DE831004FF6E07633461F221E2135
:1004D0000A2003F0ADFB21A08DE8310033461F2236
:1004E00032210A2003F0A4FB182022A1CDE900103C
:1004F000012433461F22029446210A2003F098FB70
:10050000202022A1CDE9001033461F22029464214D
:100510000A2003F08DFBBDE8FE404FF4966004F026
:10052000BFBE0000B2E2CAD4363AD6D0CEC4CFD4D1
:10053000CABEB2E2CAD4000031365831363AC8AB2E
:10054000B6AFB5E7D7D3BCBCCAF5D3D0CFDEB9AB15
:10055000CBBEBBB6D3ADC4FA000000003136583173
:10056000363A57656C636F6D65C8ABB6AFB5E7D704
:10057000D300000032345832343AC9EEDBDACAD044
:10058000D6D0CEC4B2E2CAD4000000003332583311
:10059000323AD7D6CCE5B2E2CAD4000070470000A8
:1005A0002DE9FE4381461F484FF6FF751E4C05801E
:1005B0001F270097002122881423084601F006FD1A
:1005C00001264FF01008CDF80090CDE901861F23D9
:1005D0002A460221002000F089FC00976088411E15
:1005E0008BB221881438491E8AB281B2002001F0F2
:1005F000EDFC0EA1CDE90018029660881F23123889
:1006000081B22A46002000F071FC00956088152117
:10061000153883B22088401E82B2002001F0D6FC3B
:10062000BDE8FE8328000020AC00002068747470D0
:100630003A2F2F7777772E6C636477696B692E6317
:100640006F6D00002DE9F0479846DDE908549146AA
:100650000E46074601F044FC23462A4641464846DA
:1006600001F03EFC33463A4621462846BDE8F047B5
:1006700001F036BCFEB524A0FFF792FF0C2527A0A1
:10068000CDE9000500244FF6E0773B461F221E21EE
:1006900002940A2003F0CCFA01262BA08DE8610019
:1006A0003B461F222D210A2003F0C2FA31A0CDE9DA
:1006B00000053B461F223C2102940A2003F0B8FAB1
:1006C000102534A0CDE900053B461F22502102949D
:1006D0000A2003F0ADFA3AA08DE861003B461F22E4
:1006E00064210A2003F0A4FA40A0CDE900053B46AE
:1006F0001F22782102940A2003F09AFABDE8FE40F6
:100700004FF4966004F0CCBDB2E2CAD4353AD3A21D
:10071000CEC4CFD4CABEB2E2CAD4000036583132F9
:100720003A6162636465666768696A6B6C6D6E6F77
:10073000707172737475767778797A3031323334B8
:100740003536373839000000365831323A414243A5
:100750004445464748494A4B4C4D4E4F50515253E1
:100760005455565758595A30313233343536373854
:1007700039000000365831323A7E21402324255E6C
:10078000262A28295F2B7B7D3A3C3E3F2F7C2D2B50
:100790002E000000385831363A616263646566673E
:1007A00068696A6B6C6D6E6F707172737475767751
:1007B00078797A30313233343536373839000000C1
:1007C000385831363A4142434445464748494A4BF6
:1007D0004C4D4E4F505152535455565758595A300C
:1007E0003132333435363738390000003858313635
:1007F0003A7E21402324255E262A28295F2B7B7DF3
:100800003A3C3E3F2F7C2D2B2E00000070B5B3F5F7
:10081000804F05D06FF0704140F82210002070BD6D
:1008200050F82230084C2340D1E9004544EA051431
:100830008D688E892D0245EA064589692C430C4353
:100840001C4340F82240E9E70000F0CFF0B50C6807
:1008500050F82450194A1540D1E90123D1E9036722
:100860001A433E4332434E6932438E693243CE6966
:1008700032430E6A32434E6A32438E6A3243CE6A44
:100880003243CE6B32430E6B32434E6B32432A43BC
:10089000082B01D142F0400240F824204A6BB2F507
:1008A000801F08D10A6832B14FF480720A6104498E
:1008B0000268114301600020F0BD00008000E0FFED
:1008C00000011000F0B500EB820253688E8903F03E
:1008D0004044D1E9003543EA05138D682D0245EA0D
:1008E00006452B430E8A0D4D05EB065633430E7D10
:1008F0006F0107EB066633438E693343234353602E
:100900000268D20207D54268098A22F4700205EB18
:100910000151114341600020F0BD00000000F0FFD4
:1009200030B5D1E901231A43D1E9033423431A43F3
:100930004B690D681A438B691A43D1E90734012DBD
:10094000496A05686FF30E0505D01A4322430A432E
:100950002A43026008E0234329430B4341680360B4
:100960006FF30E010A434260002030BD426942EA43
:100970004101416100207047F8B514460546D1E9B0
:10098000000210438A686FF01F03C96803EB42122C
:1009900042EA412108430090286100F0C1FB06466D
:1009A00009E0601C07D024B100F0BAFB801BA04214
:1009B00001D90320F8BDA8698006F2D40020F8BD53
:1009C000F0B56FF00F05D1E9003405EB04145B1EA0
:1009D0002E0123438C682F0306EB04244FEA054CB9
:1009E00023430D8A8E8ACC68097E4FF07F4E07EB39
:1009F00005450CEB06560EEB0161012A0CD082680E
:100A00003F1107EB043423432B43334302F070427E
:100A10000B43134383600FE0C2682B430B4302F088
:100A200070428168134301F070422103A1F58051A7
:100A300031431143C36081600020F0BD2DE9FF4FB9
:100A400087B00027DDE91423BDF82840B846A1424D
:100A500008D90D4621460446BDF82400ADF82850BB
:100A6000ADF82440BDF828509CB2A54207D9ADF896
:100A700028401446BDF824202B46ADF82440BDF88C
:100A80002840A14208D90D4621460446BDF824005D
:100A9000ADF82850ADF824401FFA83F90E464945B9
:100AA00021D1BDF82410ADF80400814201D20846DE
:100AB00002E001D9ADF8041091B2814201D208469A
:100AC00005E0BDF80420914201D9ADF804103C497D
:100AD0003346BDF8042009880091194601F076FAE2
:100AE0000BB0BDE8F08FBDF824300546581BBDF8AB
:100AF00028100690881B92B20590D01A0290A9EB9C
:100B00000100A2EB050AA9EB060B0490494501D1AF
:100B1000039102E0491E88B2039034461FE098FB1F
:100B2000FBF10598294497FBF0F01FFA81FCADF822
:100B300004C02844069980B20F44D044604503D9CC
:100B400001466046ADF804101D492346BDF8042057
:100B500009880091194601F039FA641CA4B203987F
:100B60008442DCD9BDF82800271A02984743A61B07
:100B700006FB0AF621E00498BDF8241097FBF0F07C
:100B8000084496FBFBF129441FFA81FC029980B2CC
:100B9000ADF804C00F445644604503D90146604691
:100BA000ADF8041006492346BDF8042009880091D9
:100BB000194601F00BFA641CA4B24C45DBD98FE74F
:100BC000280000202DE9FF4F83B0054682464920CA
:100BD00089464FF000084FF0800B01903049109A81
:100BE00008EB081011F81030127893423CD101EB59
:100BF00040000090417810984078814234D109F14A
:100C00000F0083B205F10F0082B24946284602F078
:100C10001FFD0026009800248719119890B12149E2
:100C200005980880B9782BFA04F0014203D04946B0
:100C3000284601F0A1F96D1CADB2A5EB0A00102801
:100C400027D009E0B9782BFA04F0014201D00598C9
:100C500000E0069802F0C0FE641CE4B2082CDCD36D
:100C6000761CF6B2202ED5D308F1010001991FFAA7
:100C700080F88845B2D30C494888401E83B2088862
:100C800007B0401EBDE8F04F82B20021084602F0D6
:100C9000DFBC09F1010055461FFA80F9E0E70000CA
:100CA0000065000828000020AC0000202DE9FF4F5F
:100CB00083B0054682460720019000208946804681
:100CC0004FF0800B00EB800101EB48102F49109A88
:100CD00011F81030127893423CD101EB40000090A3
:100CE000417810984078814234D109F1170083B2DD
:100CF00005F1170082B24946284602F0A9FC0026F9
:100D0000009800248719119890B12149059808800E
:100D1000B9782BFA04F0014203D04946284601F085
:100D20002BF96D1CADB2A5EB0A00182827D009E0FD
:100D3000B9782BFA04F0014201D0059800E006983A
:100D400002F04AFE641CE4B2082CDCD3761CF6B236
:100D5000482ED5D308F1010080B20199804688421F
:100D6000B0D30C494888401E83B2088807B0401EA3
:100D7000BDE8F04F82B20021084602F069BC09F1DB
:100D8000010055461FFA80F9E0E70000B26E000846
:100D900028000020AC0000202DE9FF4F83B005465D
:100DA0008246042089464FF000084FF0800B0190E6
:100DB0003049109A08EB881011F8103012789342DD
:100DC0003CD101EB4000009041781098407881427E
:100DD00034D109F11F0083B205F11F0082B24946E8
:100DE000284602F035FC0026009800248719119847
:100DF00090B1214905980880B9782BFA04F0014296
:100E000003D04946284601F0B7F86D1CADB2A5EBFA
:100E10000A00202827D009E0B9782BFA04F0014213
:100E200001D0059800E0069802F0D6FD641CE4B2FB
:100E3000082CDCD3761CF6B2802ED5D308F1010045
:100E400001991FFA80F88845B2D30C494888401EA2
:100E500083B2088807B0401EBDE8F04F82B200217F
:100E6000084602F0F5BB09F1010055461FFA80F96A
:100E7000E0E70000B870000828000020AC00002067
:100E800010B5144602F0E0FB2046BDE8104002F029
:100E9000A3BD00002DE9F0411F461646CA19521E97
:100EA00093B28219521E92B2069D02F0D1FB002429
:100EB0007E4309E005EB440115F81400497840EA47
:100EC000012002F089FD641CA642F3DC0649488833
:100ED000401E83B20888BDE8F041401E82B2002166
:100EE000084602F0B5BB0000AC0000202DE9FE432F
:100EF0001F46DDE90A469046894620460C9DFFF7CD
:100F0000FFF90A4980B240420988CDE9004601EB69
:100F1000C00000EBD070C0F34F003B46424649464C
:100F2000029502F085FEBDE8FE830000AC000020C3
:100F30002DE9F84FDFF8A091002209F1040A0AF127
:100F4000040B4FF00F080BF1040E01260B689640BE
:100F50003340B34271D14C68022C01D0122C11D114
:100F6000D40800EB84073D6A5407E40E08FA04FC39
:100F700025EA0C05D1F810C00CFA04FC4CEA050C6B
:100F8000C7F820C007685400032591F804C0A540A5
:100F90000CF0030CAF430CFA04FC4CEA070CC0F84D
:100FA00000C04F68012F05D0022F03D0112F01D0B0
:100FB000122F11D18768D1F80CC0AF430CFA04FC92
:100FC0004CEA070CC0F808C04768B7430E79C6F36F
:100FD000001696403E434660C668AE438D68A54005
:100FE0003543C5604C68E4006FD53C4C256845F43A
:100FF00080452560246822F0030504F480440094B1
:10100000374C2E19D6F808789407250F08FA05F4FE
:10101000A743344CA04201D100242EE0324CA04220
:1010200001D1012429E0314CA04201D1022424E065
:101030002F4CA04202D103241FE046E02D4CA042D9
:1010400001D1042419E02C4CA04201D1052414E064
:101050002A4CA04201D106240FE0294CA04201D124
:1010600007240AE0274CA04201D1082405E0264CC1
:10107000A04201D1092400E00A24AC403C43C6F858
:101080000848D9F800404D464E689C43F60300D509
:101090001C432C60DAF8004055464E689C43B6036A
:1010A00000D51C432C60DBF800405D464E689C4335
:1010B000F60200D51C432C60DEF8004075464E68F1
:1010C0009C43B60200D51C432C60521C102AFFF42E
:1010D0003CAFBDE8F88F0000003C014044380240BE
:1010E00000300140000002400004024000080240BD
:1010F000000C0240001002400014024000180240A0
:10110000001C024000200240002402400069084008
:1011100000D0012070470AB1816170470904FBE7E4
:101120000148006870470000200000200248016864
:10113000491C016070470000200000200B4810B5DA
:10114000016841F400710160016841F4806101604F
:10115000016841F480710160052000F03FF80F2024
:1011600000F006F800F015F8002010BD003C024029
:1011700010B5044600F08CF94FF47A71B0FBF1F031
:1011800000F094FC00222146501E00F007F80020D9
:1011900010BD08B50020009008BD0000F0B40E4B53
:1011A0001B68C3F30223C3F10704042C00D90424F1
:1011B0001D1D072D01D2002300E0DB1E012606FACB
:1011C00004F56D1E0D409D409E40761E164045EA7A
:1011D0000601F0BC02F008BC0CED00E0064A00F08D
:1011E000070110684FF6FF03184040EA0120034949
:1011F00008431060704700000CED00E00000FA05A5
:101200002DE9F8431D48016841F0805101600068F4
:10121000012700F080500090380490FAA0F0DFF829
:101220006080B0FA80F048F82070FFF779FF04463C
:101230004FF47A75134E04E0FFF772FF001BA842CB
:1012400013D87068C003F7D54FF4003090FAA0F0BF
:10125000B0FA80F048F82070FFF762FF044607E01C
:10126000FFF75EFF001BA84202D90320BDE8F88308
:1012700070688003F4D50020F8E700004038024091
:1012800000000E42007000402DE9F05FDFF8F8A189
:1012900004460F46DAF80000DFF8F08100F00F0294
:1012A000C8B27A49814641F2883608F10808BA4244
:1012B00061D202468AF80020DAF8000000F00F0040
:1012C000B8427DD12078800707D5D8F80020A368E0
:1012D00022F0F0021A43C8F800202078C0072DD071
:1012E000606801281AD002281BD0032819D0096889
:1012F0008907002964DAD8F80010474621F0030175
:101300000143C8F80010FFF70BFF0546606801288D
:101310000FD0022818D003281CD027E009688903C1
:10132000E7E709688901E4E7FFF7FAFE401BB042EE
:1013300058D83868C0F381000128F5D188E0FFF75C
:10134000EFFE401BB0424DD83868C0F38100022840
:10135000F5D17DE03868FFF7E3FE401BB042F9D9D4
:1013600040E0FFF7DDFE401BB0423BD8386810F08C
:101370000C0FF6D16CE02078800707D5D8F8002054
:10138000A36822F0F0021A43C8F800202078C007B2
:101390004CD06068012828D0022829D0032827D003
:1013A00009688907002949DAD8F8002022F00302E9
:1013B0000243C8F80020FFF7B3FE0546606800E06E
:1013C0003CE001281DD0022829D0032838D0B3469C
:1013D0004646306810F00C0F28D0FFF7A1FE411BE5
:1013E0005945F6D90320BDE8F09F09688903D9E77C
:1013F00009688901D6E7FFF793FE411B594502D9D9
:10140000F0E7B34646463068C0F381000128F2D1C8
:101410000CE0FFF785FE411B594502D9E2E7B346D0
:1014200046463068C0F381000228F2D18AF8009065
:10143000DAF8000000F00F00B84209D00120D2E72E
:1014400044462068FFF76CFE401BB042F9D9C9E75B
:101450002078400707D5D8F80010E26821F4E05161
:101460001143C8F800102078000708D5D8F80010FC
:10147000226921F4604141EAC201C8F800100F203E
:10148000FFF776FE0020AEE7003C02400038024045
:1014900010B500F017F808490968F02292FAA2F294
:1014A00001F0F001B2FA82F2D140044A515CC84026
:1014B0000349086010BD000008380240507F000852
:1014C0000C00002030B51948006810F00C011848D5
:1014D00012D0184C04290ED008290DD1134A121F1E
:1014E0001168136801F03F015D0247F6C07304D52F
:1014F000B4FBF1F003E0204630BDB0FBF1F0116821
:10150000194093FAA3F3B3FA83F3D940484311681F
:101510004FF4403292FAA2F201F44031B2FA82F270
:10152000D140491C4900B0FBF1F030BD0838024001
:101530000024F40040787D012DE9F84F044600783E
:10154000DFF8FCA2BF4DC0074FF0000648D0DAF824
:1015500000105046C1F38101012908D00068C0F392
:10156000810002280AD1281D0068400206D528689B
:10157000800335D56068002873D031E0DFF8C4926D
:1015800009F1020989F80060FFF7CAFD074641F238
:10159000883804E0FFF7C4FDC11B41457AD82868AC
:1015A0008003F7D4207989F80000606860B1FFF704
:1015B000B7FD074604E0FFF7B3FDC11B4145EDD879
:1015C00028688003F7D50BE0FFF7AAFD074604E083
:1015D000FFF7A6FDC11B4145E0D828688003F7D47A
:1015E0002078DFF86492800744D5DAF8001050467E
:1015F00011F00C0F4FF0F80809D00068C0F381001B
:1016000002280BD18E48001F0068400206D42868CB
:10161000800714D5E068012823D110E0E068D0B13C
:101620000120C9F80000FFF77BFD074604E0FFF743
:1016300077FDC01B6428B1D828688007F7D52868D3
:1016400098FAA8F22169B2FA82F220F0F8009140EB
:10165000084328600EE0C9F80060FFF761FD074607
:1016600005E0EAE0FFF75CFDC01B642812D828689B
:101670008007F7D42078000725D5DFF8C4817348A8
:10168000616908F16C0881B101210160FFF748FD33
:10169000074605E07EE0FFF743FDC01B642879D8CC
:1016A000D8F800008007F6D50DE00660FFF738FD9A
:1016B000074604E0FFF734FDC01B64286AD8D8F859
:1016C00000008007F6D42078400753D55C483830B6
:1016D000016841F0805101600068DFF8748100F01A
:1016E00080500090D8F8001041F48071C8F80010C4
:1016F000FFF716FD074604E0FFF712FDC01B642844
:1017000048D8D8F80000C005F6D5DFF834B10BF1A1
:10171000680B8BF80060FFF703FD074641F288383D
:1017200004E0FFF7FDFCC11B41457ED8DBF800005B
:101730008007F6D4207A8BF80000A06868B1FFF724
:10174000EFFC074604E0FFF7EBFCC11B41456CD8FA
:10175000DBF800008007F6D50CE0FFF7E1FC074658
:1017600004E0FFF7DDFCC11B41455ED8DBF800005B
:101770008007F6D4A069E8B3DAF80010C1F381015C
:1017800002295AD0022806D0C9F86060FFF7C8FCC9
:1017900004464DE049E04F46C9F86060FFF7C0FCE1
:1017A000064604E0FFF7BCFC801B64283DD828688F
:1017B0008001F7D4D4E90701084347F6C07191FAD4
:1017C000A1F1626AB1FA81F18A40A16A4FF0FF3358
:1017D00003EB51014FF4403393FAA3F3B3FA83F3CD
:1017E00099400A4310434FF0706292FAA2F2B2FAA3
:1017F00082F200E01FE0E16A914008431049091FAE
:10180000086001203866FFF78BFC044604E0FFF710
:1018100087FC001B642808D828688001F7D50AE0F7
:10182000FFF77EFC001B642802D90320BDE8F88F77
:1018300028688001F4D40020F8E70120F6E70000D2
:10184000083802400038024000004742800E4742FC
:101850000070004070B50D46040003D094F82C00D1
:1018600010B107E0012070BD002084F82D00204653
:1018700000F012F8022084F82C00211D2068FFF7E8
:101880004FF8D4E900022946FFF79AF8012084F8BE
:101890002C00002070BD0000304800B5016887B002
:1018A00041F001010160006800F0010005902B4843
:1018B0000838016841F004010160016801F0040189
:1018C0000591016841F008010160016801F008011B
:1018D0000591016841F010010160016801F01001FB
:1018E0000591016841F020010160016801F02001CB
:1018F0000591016841F0400101600068694600F00F
:10190000400005900D2000900220019001200290DF
:10191000032003900C2004901148FFF709FB4CF2C0
:101920000370009069460F48FFF702FB4FF6837083
:10193000009069460C48FFF7FBFA4FF63F00009015
:1019400069460A48FFF7F4FA48F2371000906946F2
:101950000748FFF7EDFA07B000BD00003838024035
:1019600000080240000C0240001002400014024037
:101970000018024010B5044690F82C00022809D047
:10198000022084F82C002068FEF7F0FF012084F884
:101990002C00002010BD70B5044690F82C000D46B8
:1019A00002280CD0022084F82C002068FEF7E4FF07
:1019B0002868022804D0012084F82C00002070BD83
:1019C0000520F9E770B515460E46040003D094F8DB
:1019D000490010B107E0012070BD002084F84800E4
:1019E000204600F01BF804F108012068FEF72EFFE6
:1019F0003146A2682068FEF765FFD4E90102294656
:101A0000236BFEF703FFA168206850F8212042F005
:101A1000010240F82120002070BD00001A4800B5E6
:101A2000016887B041F001010160006800F0010029
:101A3000059015480838016841F008010160016807
:101A400001F008010591016841F010010160006892
:101A5000694600F0100005904EF2B370009002202D
:101A6000019001200290032003900C20049007486D
:101A7000FFF75EFA4FF68070009069460448FFF762
:101A800057FA07B000BD000038380240000C024091
:101A9000001002404FF0E0210428086903D020F034
:101AA00004000861704740F00400FAE710B5401EDA
:101AB000B0F1807F01D3012010BD4FF0E0246061C0
:101AC0000F21601701F090FF0020A0610720206126
:101AD000002010BDFEE7000070B50D4C0025C4F8D5
:101AE00090520C48016821F440610160016841F4A2
:101AF00080610160C4F89452022004F5247403F05C
:101B0000DDFB01202060022003F0D8FB256070BDC2
:101B100000804342001C02400E4810B5016886B0A8
:101B200041F0800101600068012400F08000059010
:101B30003020CDE900040220CDE902406946064884
:101B4000FFF7F6F90548C0F89442C0F8904206B095
:101B500010BD000030380240001C024000804342AB
:101B600070B50D4C0026C4F890620C48016821F451
:101B700040610160016841F4806101600125C4F8A1
:101B80009452022004F5247403F098FB256002208F
:101B900003F094FB266070BD00804342001C0240AD
:101BA0002DE9F047814616480024016821F4406180
:101BB000016001680160134E254627464FF0010879
:101BC000C6F89072022003F079FBC6F89082600696
:101BD000040ED6F8140208B1641CE4B2012003F02C
:101BE0006DFB6D1CEDB2082DEAD3B9F1000F04D0E6
:101BF000FFF772FF2046BDE8F087FFF7B1FFF9E776
:101C0000001C0240008043422DE9F0410546144883
:101C1000016821F440610160016841F48061016064
:101C2000104E0027C6F890723C464FF00108E809B4
:101C3000C6F894026806050E022003F03FFBC6F8C2
:101C40009082022003F03AFBC6F89072022003F063
:101C500035FB641CE4B2082CE9D3BDE8F081000038
:101C6000001C02400080434270B50D48016821F419
:101C700040610160016841F480610160094C01200C
:101C8000C4F89402C4F89002042004F5247403F00C
:101C900015FB00256560042003F010FB256070BD76
:101CA000001C02400080434270B50D48016821F4D9
:101CB00040610160016841F480610160094C0020CD
:101CC000C4F89002C4F89402042004F5247403F0CC
:101CD000F5FA01252560042003F0F0FA656070BD77
:101CE000001C02400080434270B512480024016885
:101CF00021F440610160016801600F4D0126C5F8C3
:101D00009462304603F0DAFAC5F89062012003F0DD
:101D1000D5FA07E0641CE4B2FA2C03D9FFF7C4FF3C
:101D2000012070BDD5F814020028F3D1C5F8900247
:101D300070BD0000001C02400080434270B51B488B
:101D400086B00025016841F001010160016801F0E1
:101D500001010591016841F004010160016801F091
:101D600004010591016841F08001016000680324CD
:101D700000F08000059002200126CDE90204CDE9A3
:101D8000006569460A48FFF7D3F8700303948DE8AD
:101D9000610069460748FFF7CBF80C2000906946C0
:101DA0000548FFF7C5F806B070BD000030380240A6
:101DB0000000024000080240001C02402DE9F047EC
:101DC0000126304C7703DFF8C080DFF8C090304D3B
:101DD00001281DD02078A0B108212846FFF796F9E8
:101DE000C0B104212846FFF791F998B13946404621
:101DF000FFF78CF970B101214846FFF787F90128F8
:101E000008D008212846FFF781F9012826D037E0BD
:101E10002670E1E70A2003F043FA00202070082131
:101E20002846FFF773F980B104212846FFF76EF9C1
:101E300070B139464046FFF769F958B1012148466B
:101E4000FFF764F9012807D01AE00120BDE8F08708
:101E50000220FBE70320F9E70420F7E704212846E6
:101E6000FFF754F901280BD139464046FFF74EF9E8
:101E7000012805D101214846FFF748F900B926702D
:101E80000020E3E758000020000802400000024064
:101E9000001C024030B505460A48048840882146A7
:101EA0004443491E401E8AB283B20021084601F015
:101EB000CFFB0021044801E00580491CA142FBD36F
:101EC00030BD0000AC0000200000086038B5034CB5
:101ED0002488009400F07AF838BD00002800002023
:101EE0002DE9FE4F0026A2EB000882465F1A701E05
:101EF00035468946B8F1000F02DD4FF0010102E0DE
:101F000003D14FF00001019102E0C8F100080190F7
:101F1000002F02DD4FF0010002E003D14FF000007E
:101F2000009002E0C7F1000700904046B84501DD8F
:101F3000044600E03C46601C4FF0000B029015E0A8
:101F40001FFA89F11FFA8AF000F016F846443D4462
:101F5000A64202DD0199361B8A44A54202DD0099A2
:101F60002D1B89440BF101001FFA80FB02998B4560
:101F7000E6DDBDE8FE8F000000B501F065FB02481C
:101F800002490088088000BD280000200000086089
:101F90002DE9F0411C4615460E4607460B46FFF755
:101FA0009FFF3A46234631461046FFF799FF2346E6
:101FB0002A4619463846FFF793FF2A4623463146FC
:101FC000BDE8F0411046FFF78BBF00002DE9F0415E
:101FD000141A641CA6B25C1A641CA7B2DDF818803F
:101FE00001F036FB00250AE0002404E0404601F041
:101FF000F3FC641CA4B2B442F8D36D1CADB2BD4274
:10200000F2D3064841880088491EBDE8F041401ED1
:102010008BB282B20021084601F01ABBAC0000204E
:102020000FB4214810B501688EB0002441F00201C0
:102030000160006807A900F002000C904FF4907056
:10204000079001200890099003200A901748FEF796
:102050006FFF17484FF0204110AA01601549C0E9F1
:1020600001141021C460C0E9044184610902C46103
:10207000C0E909418900C0E90B4189014463C0E915
:102080000E410F20CDE90004462102910694CDE9CE
:10209000100425201290694616940548FFF792FC1B
:1020A0000EB010BC5DF814FB303802400004024052
:1020B0005C000020040100A02DE9FE4F8DE87000B7
:1020C000FFF7AEFF322003F0EBF84FF470421046FA
:1020D00001F010FC552001F001FC4FF201042046F4
:1020E00001F008FCAA2001F0F9FB651C284601F06C
:1020F00001FC522001F0F2FBA61C304601F0FAFB75
:10210000082001F0EBFBE71C384601F0F3FB01204F
:1021100001F0E4FB4FF43648404601F0EBFB34207D
:1021200001F0DCFB4BF2016001F0E4FB342001F034
:10213000D5FB4BF2026001F0DDFB342001F0CEFB59
:102140004FF43049484601F0D5FB0D2001F0C6FBA5
:102150004BF2010A504601F0CDFB0D2001F0BEFB11
:102160004BF2020B584601F0C5FB0D2001F0B6FB07
:102170004FF4374001F0BEFB242001F0AFFB4BF2DF
:10218000017001F0B7FB242001F0A8FB4BF20270B4
:1021900001F0B0FB242001F0A1FB4FF4314001F02D
:1021A000A9FB0D2001F09AFB4BF2011001F0A2FBFC
:1021B0000D2001F093FB4BF2021001F09BFB0D2070
:1021C00001F08CFB4FF4384001F094FB242001F027
:1021D00085FB4BF6010001F08DFB242001F07EFB16
:1021E0004BF6020001F086FB242001F077FB4FF450
:1021F000324001F07FFB002001F070FB4FF43940CA
:1022000001F078FB242001F069FB4BF6011001F08E
:1022100071FB242001F062FB4BF6021001F06AFB17
:10222000242001F05BFB4FF4334001F063FB0520F9
:1022300001F054FB4BF2013001F05CFB052001F092
:102240004DFB4BF2023001F055FB052001F046FB3F
:102250004FF43A4001F04EFB342001F03FFB4BF6C7
:10226000012001F047FB342001F038FB4BF602203F
:1022700001F040FB342001F031FB4FF4354001F018
:1022800039FB0B2001F02AFB4BF2015001F032FB2D
:102290000B2001F023FB4BF2025001F02BFB0B2033
:1022A00001F01CFB4FF43C4001F024FB002001F046
:1022B00015FB4BF6014001F01DFBA32001F00EFBC6
:1022C0004BF6024001F016FB002001F007FB4FF433
:1022D0003D4001F00FFB002001F000FB4BF60150E8
:1022E00001F008FBA32001F0F9FA4BF6025001F0CF
:1022F00001FB002001F0F2FA4FF43E4001F0FAFA3F
:10230000002001F0EBFA4BF6016001F0F3FA6320D4
:1023100001F0E4FA4FF4514001F0ECFA002001F032
:10232000DDFA4DF2011001F0E5FA372001F0D6FA9E
:102330004DF2021001F0DEFA002001F0CFFA4DF26A
:10234000031001F0D7FA522001F0C8FA4DF2041040
:1023500001F0D0FA002001F0C1FA4DF2051001F0B1
:10236000C9FA7B2001F0BAFA4DF2061001F0C2FA68
:10237000002001F0B3FA4DF2071001F0BBFA9920EA
:1023800001F0ACFA4DF2081001F0B4FA002001F0AF
:10239000A5FA4DF2091001F0ADFAB12001F09EFA54
:1023A0004DF20A1001F0A6FA002001F097FA4DF262
:1023B0000B1001F09FFAD22001F090FA4DF20C10B0
:1023C00001F098FA002001F089FA4DF20D1001F0A9
:1023D00091FAF62001F082FA4DF20E1001F08AFA1D
:1023E000012001F07BFA4DF20F1001F083FA272053
:1023F00001F074FA4DF2101001F07CFA012001F0A6
:102400006DFA4DF2111001F075FA4E2001F066FAE6
:102410004DF2121001F06EFA012001F05FFA4DF258
:10242000131001F067FA8C2001F058FA4DF21410E5
:1024300001F060FA012001F051FA4DF2151001F09F
:1024400059FABE2001F04AFA4DF2161001F052FA84
:10245000022001F043FA4DF2171001F04BFA0B2065
:1024600001F03CFA4DF2181001F044FA022001F09C
:1024700035FA4DF2191001F03DFA482001F02EFA1C
:102480004DF21A1001F036FA022001F027FA4DF24F
:102490001B1001F02FFA4A2001F020FA4DF21C1017
:1024A00001F028FA022001F019FA4DF21D1001F096
:1024B00021FA7E2001F012FA4DF21E1001F01AFAF4
:1024C000022001F00BFA4DF21F1001F013FABC20AC
:1024D00001F004FA4DF2201001F00CFA022001F094
:1024E000FDF94DF2211001F005FAE12001F0F6F9B5
:1024F0004DF2221001F0FEF9032001F0EFF94DF248
:10250000231001F0F7F9102001F0E8F94DF2241042
:1025100001F0F0F9032001F0E1F94DF2251001F08E
:10252000E9F9312001F0DAF94DF2261001F0E2F973
:10253000032001F0D3F94DF2271001F0DBF95A2006
:1025400001F0CCF94DF2281001F0D4F9032001F08C
:10255000C5F94DF2291001F0CDF9732001F0BEF953
:102560004DF22A1001F0C6F9032001F0B7F94DF23F
:102570002B1001F0BFF9942001F0B0F94DF22C10AE
:1025800001F0B8F9032001F0A9F94DF22D1001F086
:10259000B1F99F2001F0A2F94DF22E1001F0AAF935
:1025A000032001F09BF94DF22F1001F0A3F9B320A5
:1025B00001F094F94DF2301001F09CF9032001F084
:1025C0008DF94DF2311001F095F9B92001F086F93D
:1025D0004DF2321001F08EF9032001F07FF94DF237
:1025E000331001F087F9C12001F078F94FF452401F
:1025F00001F080F9002001F071F94DF2012001F0A5
:1026000079F9372001F06AF94DF2022001F072F9F0
:10261000002001F063F94DF2032001F06BF9522024
:1026200001F05CF94DF2042001F064F9002001F0A2
:1026300055F94DF2052001F05DF97B2001F04EF9CE
:102640004DF2062001F056F9002001F047F94DF255
:10265000072001F04FF9992001F040F94DF20820D0
:1026600001F048F9002001F039F94DF2092001F09C
:1026700041F9B12001F032F94DF20A2001F03AF9A6
:10268000002001F02BF94DF20B2001F033F9D2209C
:1026900001F024F94DF20C2001F02CF9002001F09A
:1026A0001DF94DF20D2001F025F9F62001F016F983
:1026B0004DF20E2001F01EF9012001F00FF94DF24C
:1026C0000F2001F017F9272001F008F94DF2102032
:1026D00001F010F9012001F001F94DF2112001F093
:1026E00009F94E2001F0FAF84DF2122001F002F93A
:1026F000012001F0F3F84DF2132001F0FBF88C20DB
:1027000001F0ECF84DF2142001F0F4F8012001F092
:10271000E5F84DF2152001F0EDF8BE2001F0DEF8ED
:102720004DF2162001F0E6F8022001F0D7F84DF244
:10273000172001F0DFF80B2001F0D0F84DF218203F
:1027400001F0D8F8022001F0C9F84DF2192001F08B
:10275000D1F8482001F0C2F84DF21A2001F0CAF871
:10276000022001F0BBF84DF21B2001F0C3F84A2013
:1027700001F0B4F84DF21C2001F0BCF8022001F089
:10278000ADF84DF21D2001F0B5F87E2001F0A6F85D
:102790004DF21E2001F0AEF8022001F09FF84DF23C
:1027A0001F2001F0A7F8BC2001F098F84DF220207E
:1027B00001F0A0F8022001F091F84DF2212001F083
:1027C00099F8E12001F08AF84DF2222001F092F808
:1027D000032001F083F84DF2232001F08BF8102044
:1027E00001F07CF84DF2242001F084F8032001F080
:1027F00075F84DF2252001F07DF8312001F06EF8DA
:102800004DF2262001F076F8032001F067F84DF232
:10281000272001F06FF85A2001F060F84DF22820CF
:1028200001F068F8032001F059F84DF2292001F079
:1028300061F8732001F052F84DF22A2001F05AF8A5
:10284000032001F04BF84DF22B2001F053F89420B7
:1028500001F044F84DF22C2001F04CF8032001F077
:102860003DF84DF22D2001F045F89F2001F036F89B
:102870004DF22E2001F03EF8032001F02FF84DF22A
:102880002F2001F037F8B32001F028F84DF2302066
:1028900001F030F8032001F021F84DF2312001F071
:1028A00029F8B92001F01AF84DF2322001F022F88F
:1028B000032001F013F84DF2332001F01BF8C12082
:1028C00001F00CF84FF4534001F014F8002001F02F
:1028D00005F84DF2013001F00DF8372000F0FEFF51
:1028E0004DF2023001F006F8002000F0F7FF4DF243
:1028F000033000F0FFFF522000F0F0FF4DF20430F3
:1029000000F0F8FF002000F0E9FF4DF2053000F084
:10291000F1FF7B2000F0E2FF4DF2063000F0EAFF0D
:10292000002000F0DBFF4DF2073000F0E3FF9920BC
:1029300000F0D4FF4DF2083000F0DCFF002000F082
:10294000CDFF4DF2093000F0D5FFB12000F0C6FFF9
:102950004DF20A3000F0CEFF002000F0BFFF4DF234
:102960000B3000F0C7FFD22000F0B8FF4DF20C3062
:1029700000F0C0FF002000F0B1FF4DF20D3000F07C
:10298000B9FFF62000F0AAFF4DF20E3000F0B2FFC2
:10299000012000F0A3FF4DF20F3000F0ABFF272025
:1029A00000F09CFF4DF2103000F0A4FF012000F079
:1029B00095FF4DF2113000F09DFF4E2000F08EFF8C
:1029C0004DF2123000F096FF012000F087FF4DF22B
:1029D000133000F08FFF8C2000F080FF4DF2143098
:1029E00000F088FF012000F079FF4DF2153000F073
:1029F00081FFBE2000F072FF4DF2163000F07AFF2A
:102A0000022000F06BFF4DF2173000F073FF0B2037
:102A100000F064FF4DF2183000F06CFF022000F06F
:102A20005DFF4DF2193000F065FF482000F056FFC1
:102A30004DF21A3000F05EFF022000F04FFF4DF221
:102A40001B3000F057FF4A2000F048FF4DF21C30C9
:102A500000F050FF022000F041FF4DF21D3000F069
:102A600049FF7E2000F03AFF4DF21E3000F042FF99
:102A7000022000F033FF4DF21F3000F03BFFBC207E
:102A800000F02CFF4DF2203000F034FF022000F067
:102A900025FF4DF2213000F02DFFE12000F01EFF58
:102AA0004DF2223000F026FF032000F017FF4DF218
:102AB000233000F01FFF102000F010FF4DF22430F3
:102AC00000F018FF032000F009FF4DF2253000F060
:102AD00011FF312000F002FF4DF2263000F00AFF16
:102AE000032000F0FBFE4DF2273000F003FF5A20D8
:102AF00000F0F4FE4DF2283000F0FCFE032000F060
:102B0000EDFE4DF2293000F0F5FE732000F0E6FEF8
:102B10004DF22A3000F0EEFE032000F0DFFE4DF211
:102B20002B3000F0E7FE942000F0D8FE4DF22C3060
:102B300000F0E0FE032000F0D1FE4DF22D3000F059
:102B4000D9FE9F2000F0CAFE4DF22E3000F0D2FEDA
:102B5000032000F0C3FE4DF22F3000F0CBFEB32077
:102B600000F0BCFE4DF2303000F0C4FE032000F057
:102B7000B5FE4DF2313000F0BDFEB92000F0AEFEE2
:102B80004DF2323000F0B6FE032000F0A7FE4DF209
:102B9000333000F0AFFEC12000F0A0FE4FF45440EF
:102BA00000F0A8FE002000F099FE4DF2014000F078
:102BB000A1FE372000F092FE4DF2024000F09AFE96
:102BC000002000F08BFE4DF2034000F093FE5220F7
:102BD00000F084FE4DF2044000F08CFE002000F076
:102BE0007DFE4DF2054000F085FE7B2000F076FE74
:102BF0004DF2064000F07EFE002000F06FFE4DF228
:102C0000074000F077FE992000F068FE4DF2084082
:102C100000F070FE002000F061FE4DF2094000F06F
:102C200069FEB12000F05AFE4DF20A4000F062FE4B
:102C3000002000F053FE4DF20B4000F05BFED2206E
:102C400000F04CFE4DF20C4000F054FE002000F06D
:102C500045FE4DF20D4000F04DFEF62000F03EFE28
:102C60004DF20E4000F046FE012000F037FE4DF21E
:102C70000F4000F03FFE272000F030FE4DF21040E4
:102C800000F038FE012000F029FE4DF2114000F066
:102C900031FE4E2000F022FE4DF2124000F02AFEDE
:102CA000012000F01BFE4DF2134000F023FE8C20AB
:102CB00000F014FE4DF2144000F01CFE012000F064
:102CC0000DFE4DF2154000F015FEBE2000F006FE90
:102CD0004DF2164000F00EFE022000F0FFFD4DF216
:102CE000174000F007FE0B2000F0F8FD4DF21840F1
:102CF00000F000FE022000F0F1FD4DF2194000F05E
:102D0000F9FD482000F0EAFD4DF21A4000F0F2FD16
:102D1000022000F0E3FD4DF21B4000F0EBFD4A20E5
:102D200000F0DCFD4DF21C4000F0E4FD022000F05C
:102D3000D5FD4DF21D4000F0DDFD7E2000F0CEFD02
:102D40004DF21E4000F0D6FD022000F0C7FD4DF20E
:102D50001F4000F0CFFDBC2000F0C0FD4DF2204030
:102D600000F0C8FD022000F0B9FD4DF2214000F056
:102D7000C1FDE12000F0B2FD4DF2224000F0BAFDAD
:102D8000032000F0ABFD4DF2234000F0B3FD102016
:102D900000F0A4FD4DF2244000F0ACFD032000F053
:102DA0009DFD4DF2254000F0A5FD312000F096FD7F
:102DB0004DF2264000F09EFD032000F08FFD4DF205
:102DC000274000F097FD5A2000F088FD4DF2284082
:102DD00000F090FD032000F081FD4DF2294000F04D
:102DE00089FD732000F07AFD4DF22A4000F082FD4B
:102DF000032000F073FD4DF22B4000F07BFD94208A
:102E000000F06CFD4DF22C4000F074FD032000F04A
:102E100065FD4DF22D4000F06DFD9F2000F05EFD40
:102E20004DF22E4000F066FD032000F057FD4DF2FC
:102E30002F4000F05FFDB32000F050FD4DF2304018
:102E400000F058FD032000F049FD4DF2314000F044
:102E500051FDB92000F042FD4DF2324000F04AFD34
:102E6000032000F03BFD4DF2334000F043FDC12054
:102E700000F034FD4FF4554000F03CFD002000F020
:102E80002DFD4DF2015000F035FD372000F026FDFC
:102E90004DF2025000F02EFD002000F01FFD4DF21B
:102EA000035000F027FD522000F018FD4DF20450B1
:102EB00000F020FD002000F011FD4DF2055000F063
:102EC00019FD7B2000F00AFD4DF2065000F012FDC6
:102ED000002000F003FD4DF2075000F00BFD99209B
:102EE00000F0FCFC4DF2085000F004FD002000F062
:102EF000F5FC4DF2095000F0FDFCB12000F0EEFCB5
:102F00004DF20A5000F0F6FC002000F0E7FC4DF214
:102F10000B5000F0EFFCD22000F0E0FC4DF20C5022
:102F200000F0E8FC002000F0D9FC4DF20D5000F05C
:102F3000E1FCF62000F0D2FC4DF20E5000F0DAFC7D
:102F4000012000F0CBFC4DF20F5000F0D3FC272005
:102F500000F0C4FC4DF2105000F0CCFC012000F059
:102F6000BDFC4DF2115000F0C5FC4E2000F0B6FC47
:102F70004DF2125000F0BEFC012000F0AFFC4DF20B
:102F8000135000F0B7FC8C2000F0A8FC4DF2145058
:102F900000F0B0FC012000F0A1FC4DF2155000F053
:102FA000A9FCBE2000F09AFC4DF2165000F0A2FCE5
:102FB000022000F093FC4DF2175000F09BFC0B2018
:102FC00000F08CFC4DF2185000F094FC022000F050
:102FD00085FC4DF2195000F08DFC482000F07EFC7D
:102FE0004DF21A5000F086FC022000F077FC4DF202
:102FF0001B5000F07FFC4A2000F070FC4DF21C508A
:1030000000F078FC022000F069FC4DF21D5000F049
:1030100071FC7E2000F062FC4DF21E5000F06AFC54
:10302000022000F05BFC4DF21F5000F063FCBC205E
:1030300000F054FC4DF2205000F05CFC022000F047
:103040004DFC4DF2215000F055FCE12000F046FC13
:103050004DF2225000F04EFC032000F03FFC4DF2F8
:10306000235000F047FC102000F038FC4DF22450B3
:1030700000F040FC032000F031FC4DF2255000F040
:1030800039FC312000F02AFC4DF2265000F032FCD1
:10309000032000F023FC4DF2275000F02BFC5A20B7
:1030A00000F01CFC4DF2285000F024FC032000F03E
:1030B00015FC4DF2295000F01DFC732000F00EFCB1
:1030C0004DF22A5000F016FC032000F007FC4DF2F0
:1030D0002B5000F00FFC942000F000FC4DF22C501F
:1030E00000F008FC032000F0F9FB4DF22D5000F039
:1030F00001FC9F2000F0F2FB4DF22E5000F0FAFB95
:10310000032000F0EBFB4DF22F5000F0F3FBB32057
:1031100000F0E4FB4DF2305000F0ECFB032000F037
:10312000DDFB4DF2315000F0E5FBB92000F0D6FB9D
:103130004DF2325000F0DEFB032000F0CFFB4DF2E9
:10314000335000F0D7FBC12000F0C8FB4FF45640CD
:1031500000F0D0FB002000F0C1FB4DF2016000F058
:10316000C9FB372000F0BAFB4DF2026000F0C2FB51
:10317000002000F0B3FB4DF2036000F0BBFB5220D7
:1031800000F0ACFB4DF2046000F0B4FB002000F056
:10319000A5FB4DF2056000F0ADFB7B2000F09EFB2F
:1031A0004DF2066000F0A6FB002000F097FB4DF208
:1031B000076000F09FFB992000F090FB4DF2086043
:1031C00000F098FB002000F089FB4DF2096000F050
:1031D00091FBB12000F082FB4DF20A6000F08AFB07
:1031E000002000F07BFB4DF20B6000F083FBD2204F
:1031F00000F074FB4DF20C6000F07CFB002000F04E
:103200006DFB4DF20D6000F075FBF62000F066FBE3
:103210004DF20E6000F06EFB012000F05FFB4DF2FE
:103220000F6000F067FB272000F058FB4DF21060A4
:1032300000F060FB012000F051FB4DF2116000F046
:1032400059FB4E2000F04AFB4DF2126000F052FB99
:10325000012000F043FB4DF2136000F04BFB8C208B
:1032600000F03CFB4DF2146000F044FB012000F044
:1032700035FB4DF2156000F03DFBBE2000F02EFB4B
:103280004DF2166000F036FB022000F027FB4DF2F5
:10329000176000F02FFB0B2000F020FB4DF21860B0
:1032A00000F028FB022000F019FB4DF2196000F03D
:1032B00021FB482000F012FB4DF21A6000F01AFBCF
:1032C000022000F00BFB4DF21B6000F013FB4A20C4
:1032D00000F004FB4DF21C6000F00CFB022000F03B
:1032E000FDFA4DF21D6000F005FB7E2000F0F6FABD
:1032F0004DF21E6000F0FEFA022000F0EFFA4DF2EF
:103300001F6000F0F7FABC2000F0E8FA4DF22060F0
:1033100000F0F0FA022000F0E1FA4DF2216000F036
:10332000E9FAE12000F0DAFA4DF2226000F0E2FA68
:10333000032000F0D3FA4DF2236000F0DBFA1020F6
:1033400000F0CCFA4DF2246000F0D4FA032000F033
:10335000C5FA4DF2256000F0CDFA312000F0BEFA3A
:103360004DF2266000F0C6FA032000F0B7FA4DF2E5
:10337000276000F0BFFA5A2000F0B0FA4DF2286042
:1033800000F0B8FA032000F0A9FA4DF2296000F02D
:10339000B1FA732000F0A2FA4DF22A6000F0AAFA06
:1033A000032000F09BFA4DF22B6000F0A3FA94206A
:1033B00000F094FA4DF22C6000F09CFA032000F02B
:1033C0008DFA4DF22D6000F095FA9F2000F086FAFC
:1033D0004DF22E6000F08EFA032000F07FFA4DF2DD
:1033E0002F6000F087FAB32000F078FA4DF23060D9
:1033F00000F080FA032000F071FA4DF2316000F025
:1034000079FAB92000F06AFA4DF2326000F072FAEF
:10341000032000F063FA4DF2336000F06BFAC12034
:1034200000F05CFA104600F065FA552000F056FAFC
:10343000204600F05FFAAA2000F050FA284600F07B
:1034400059FA522000F04AFA304600F053FA0820A8
:1034500000F044FA384600F04DFA002000F03EFA41
:10346000484600F047FA082000F038FA504600F0CD
:1034700041FA052000F032FA584600F03BFA0220EB
:1034800000F02CFA4BF2030000F034FA052000F0B3
:1034900025FA4BF2040000F02DFA022000F01EFA8B
:1034A000404600F027FA082000F018FA4FF43540A3
:1034B00000F020FA502000F011FA4FF4374000F0ED
:1034C00019FA002000F00AFA4BF2017000F012FA2B
:1034D000002000F003FA4FF4384000F00BFA01200E
:1034E00000F0FCF94BF6010000F004FA052000F0B2
:1034F000F5F94BF6020000F0FDF9052000F0EEF9B9
:103500004BF6030000F0F6F9052000F0E7F94FF460
:103510003C4000F0EFF9002000F0E0F94BF60140EC
:1035200000F0E8F9002000F0D9F94BF6024000F075
:10353000E1F9002000F0D2F94FF44C4000F0DAF944
:10354000032000F0CBF94CF6014000F0D3F9002045
:1035500000F0C4F94CF6024000F0CCF9002000F075
:10356000BDF94FF43D4000F0C5F9012000F0B6F977
:103570004BF6015000F0BEF9842000F0AFF94BF695
:10358000025000F0B7F9072000F0A8F94BF60350FD
:1035900000F0B0F9312000F0A1F94BF6045000F032
:1035A000A9F9002000F09AF94FF43A4000F0A2F98E
:1035B000012000F093F94FF47F4000F09BF9AA201E
:1035C00000F08CF94FF6017000F094F9552000F0EE
:1035D00085F94FF6027000F08DF9252000F07EF994
:1035E0004FF6037000F086F9012000F077F94FF4F0
:1035F000545000F07FF9002000F070F94FF458505B
:1036000000F078F9002000F069F94FF4685000F0FC
:1036100071F9552000F062F94FF4885000F06AF912
:10362000782001F03DFE4FF4245000F063F94FF490
:10363000305000F05FF9002000F076F9BDE8FE4F51
:103640004FF6FF70FEF726BC0B460246AFF3008034
:10365000F0B5224C07461D460E46A08900F04AF9F7
:10366000380A00F03BF9A089401C80B200F042F912
:10367000F8B200F033F9A089801C80B200F03AF96A
:10368000100A00F02BF9A089C01C80B200F032F9BA
:10369000D0B200F023F9E08900F02CF9300A00F0F4
:1036A0001DF9E089401C80B200F024F9F0B200F06E
:1036B00015F9E089801C80B200F01CF9280A00F09E
:1036C0000DF9E089C01C80B200F014F9E8B200F0F6
:1036D00005F9BDE8F04000F019B90000AC00002089
:1036E0002DE9FF4F81B00EAE824696E831002038BA
:1036F00000F0FF080298DFF8E4B02044401E83B2D7
:103700000AEB5400BBF80010401E009182B25046F4
:103710000299FFF79DFF4FF0000685BB304908EB8B
:10372000480001EB800901F2744101EB081818E030
:103730000C2C03D018F8065000270DE019F806509D
:10374000FAE7280601D5039800E0049800F044F950
:103750006806050E7F1CFFB2B7EB540FF1D3761C41
:10376000F6B2A642E4D328E00C2C09D01D4800EBA9
:1037700008100025875D029800EB060916E01AE0A4
:10378000174808EB480100EB8100F2E70398ABF81B
:103790000000380606D50AEB05001FFA89F180B251
:1037A000FEF7EAFB7806070E6D1CEDB2B5EB540F81
:1037B000ECD3761CF6B2A642D6D30098ABF8000044
:1037C00009484188008805B0491EBDE8F04F401EF9
:1037D0008BB282B200210846FFF73ABF28000020D2
:1037E0009C5A0008105F0008AC0000202DE9FF4F34
:1037F00083B00027DDF840801D4681463C46BA462E
:103800004FEA5806DFF864B02AE0281B401EC1B218
:103810000A2001F03DFE0599B1FBF0F00A21B0FB52
:10382000F1F201FB120027B9691E8C4201DA40B1A6
:1038300001273030C0B28DE8010506FB049080B24C
:1038400005E0202206FB04908DE8040580B20849BB
:10385000BBF800300A880499FFF742FF641CE4B209
:10386000AC42D2D307B0BDE8F08F00002A000020A0
:10387000280000202DE9FE4F1C4616460F4605463F
:10388000DFF84C90DFF84CA0DFF84CB0DDF830806A
:1038900017E0B9F80020521EAA4217DBB9F802104F
:1038A000491EB94212DB8DE84101BAF80030BBF87D
:1038B000002039462846FFF713FF05EB560085B276
:1038C000641C2078A0F120015E29E2D9BDE8FE8FBA
:1038D000AC0000202A0000202800002001B5BDF81F
:1038E0000000ADF80000BDF800000149088008BDE7
:1038F0000000086001B5BDF80000ADF80000BDF89B
:1039000000000149088008BDFEFF076001480089EA
:10391000FFF7F0BFAC000020024A1080901C01802D
:1039200070470000FEFF076010B417494FF428529B
:103930004FF448738A814FF42C52CA814FF43052AD
:103940000A814FF438524A814FF4F0724FF45854C0
:1039500060B101280ED0022810D0032812D10B80AC
:103960004A80A021204610BCFFF7D6BF0A804B80BA
:103970000021F7E70B804A806021F3E70A804B8043
:10398000C021EFE710BC7047AC000020104810B514
:10399000016886B041F0020101600068012100F079
:1039A000020005900320CDE90210CDE90001094C89
:1039B00069462046FDF7BCFA012211462046FDF774
:1039C000AAFB012202212046FDF7A5FB06B010BD8F
:1039D000303802400004024001490880704700006E
:1039E00000000860FEE770470907090E002806DAA4
:1039F00000F00F0000F1E02080F8141D704700F186
:103A0000E02080F80014704770470000FEB520A049
:103A1000FCF7C6FD234C28231E211A4608460094B5
:103A2000FDF738FA102620A0CDE9000601254FF653
:103A3000E0773B461F224B2102952A2000F0F8F840
:103A400028231A461E215A200094FDF723FA16A0B7
:103A5000CDE900063B461F224B210295662000F06F
:103A6000E7F828231A461E2196200094FDF712FA43
:103A70000DA0CDE900063B461F224B210295A22056
:103A800000F0D6F8BDE8FE404FF4966001F008BCA7
:103A9000B2E2CAD4373ACDBCC6ACCFD4CABEB2E2C9
:103AA000CAD40000C0720008515100002DE9F04F47
:103AB0001E4887B003AE0FC886E80F000024DFF869
:103AC00070804FF6FF7A01274FF010094FF6E07B28
:103AD0004FF47A755046FEF7DDF92046FFF724FFD4
:103AE00014A0FCF75DFD56F82410CDE900195B46E3
:103AF0001F2202971E21142000F09AF828231A464C
:103B000032211E20CDF80080FDF7C4F9284601F0CF
:103B1000C7FB284601F0C4FB641CE4B2042CD9D3D3
:103B20000020FFF701FF07B0BDE8F08F407F0008DD
:103B3000C0720008B2E2CAD4393AC6C1C4BBD0FDD3
:103B4000D7AAB2E2CAD4000000B5164887B014491B
:103B50000022C0E900120121816008211023C0E980
:103B60000313402343614FF4C073C0E906320A02D5
:103B700002624A0242628A0282620220CDE90001A8
:103B800006210291CDE9031005900690694605488B
:103B9000FDF760FE034800F007F807B000BD000025
:103BA000400100A0BC00002010B5002301221146F6
:103BB000184600F021F84FF4FA7001F07FFB002363
:103BC00001220221184600F017F8002308220321E1
:103BD000184600F011F84FF40C7301220421002064
:103BE00000F00AF8BDE8104040F2AB210148FDF7B3
:103BF000C1BE0000BC0000201FB5002410B1012888
:103C000002D002E0102400E00824CDE90014CDE940
:103C100002234FF4805269460348FDF7BCFE00289A
:103C200000D0012004B010BDBC000020704700008F
:103C30002DE9FF4F83B08846DDE9105406468246E1
:103C40004FF00009DFF8CCB0129F1DE0B9F1000F72
:103C500020D0BBF80010091BB14218DBBBF80200F2
:103C6000011B414513DB4FF00009202C46D0CDE964
:103C70000057DDE90523182C4146304647D0FCF7B4
:103C8000A1FF301986B2AD1C28780028DED107B01C
:103C9000BDE8F08FBBF80020A2EB5402B242F6DB85
:103CA000BBF802100A1B41464245F0DB802802D9CE
:103CB0004FF00109E8E70D280DD0102C12D9102182
:103CC0008DE88300DDE9052341463046FFF708FD16
:103CD0000836B6B210E008EB04001FFA80F856462A
:103CE0006D1C09E08DE89100DDE905233046FFF702
:103CF000F7FC06EB540086B26D1CC5E7CDE9005712
:103D0000DDE9052341463046FDF746F8B9E7FCF703
:103D1000CDFFB6E7AC00002070B51E4C92B0002578
:103D2000266846F080562660246804F0805411947A
:103D3000194C266846F44046266024680DF1240C90
:103D400004F4404411940124009401940224069444
:103D50008CE80D006605CDE907616846FDF7ECFBD0
:103D600000B1FEE7FDF74CFA00B1FEE70CA90F2009
:103D700081E831004FF4A0500F904FF48050109024
:103D800005210CA8FDF780FA002800D0FEE712B04C
:103D900070BD00004038024000700040FDF7C6B919
:103DA0001048016841F4700101600F48016841F05A
:103DB000010101600C4A00210832116002680B4BBE
:103DC0001A400260031D0A4A1A60026822F4802227
:103DD000026005480C3001600249580680390860CD
:103DE0007047000088ED00E000380240FFFFF6FE5B
:103DF000103000242DE9FF4F81B00D46DDE910871A
:103E0000464906464FF47840DDF838B0DDF8489072
:103E100008809246012442A310228C21282000947D
:103E2000FFF728FD3FA310228C2178200094FFF794
:103E300021FD3DA31022A02128200094FFF71AFDA8
:103E40003AA31022A02178200094FFF713FD38A395
:103E50001022B42128200094FFF70CFD35A3102276
:103E6000B42178200094FFF705FD33A31022C82168
:103E700028200094FFF7FEFC30A31022C8217820F0
:103E80000094FFF7F7FC2EA31022DC2128200094D9
:103E9000FFF7F0FC1024042332468C2140200094CC
:103EA000FFF7A4FC04232A468C2190200094FFF7FE
:103EB0009DFC04235246A02140200094FFF796FC6D
:103EC00004230094A0219020049AFFF78FFC042380
:103ED0005A46B42140200094FFF788FC0094042344
:103EE000B42190200F9AFFF781FC04234246C82199
:103EF00040200094FFF77AFC04233A46C821902022
:103F00000094FFF773FC03234A46DC2160200094F1
:103F1000FFF76CFC05B0BDE8F08F00002800002022
:103F200078313A0079313A0078323A0079323A0001
:103F300078333A0079333A0078343A0079343A00E9
:103F40006661632069733A002DE9F04FFA4E1F2035
:103F50002DED0C8B89B04FF6FF770024254630807D
:103F6000F64807803846FDF795FF4FF47848A6F8E5
:103F700000803846FDF78EFF002737800126F0A32A
:103F8000102228210A200096FFF774FCF3A31022C8
:103F900038210A200096FFF76DFCF7A31022482174
:103FA0000A200096FFF766FCFAA3102258210A2087
:103FB0000096FFF75FFCFEA3102268210A200096FE
:103FC000FFF758FC14214246084600F0DDFAFC4990
:103FD0000F759FEDFC0A81ED060A9FEDFBCB9FED6F
:103FE000FCDB9FEDFDBBB146FD4E88464FF0900BCC
:103FF000A1F1040AD8F80410474601208847387D0B
:10400000B9EB901F45D120F04000387505A83A8AD9
:1040100020F8242000EB8400641C0025798AE4B297
:10402000B8464180012C06D0022C11D0032C1ED0A2
:10403000042C2ED13CE014214FF6FF72084600F00C
:10404000A3FA30884FF47842143880B214211EE06D
:1040500030884FF6FF72143880B2142100F094FAC1
:1040600070884FF47842143881B214200FE07088C1
:104070004FF6FF72143881B2142000F085FA708870
:104080004FF47842143881B23088143880B200F08E
:104090007BFA0A2001F004F96D1CADB2B5F57A7F08
:1040A000A8D900F0AFFA09B0BDEC0C8BBDE8F08FD9
:1040B000BDF81400BDF81810411A00D54942BDF8EA
:1040C0001600BDF81A20801A00D5404249434043EB
:1040D000084401F01EFA41EC100B01F04EF851ECCF
:1040E000100B01F0E9F984B2BDF81C00BDF82010F6
:1040F000411A00D54942BDF81E00BDF82220801AA1
:1041000000D5404249434043084401F002FA41ECE3
:10411000100B01F032F851EC100B01F0CDF900EE6C
:10412000104A87B2F8EE400A00EE107AB8EE401A54
:1041300080EE810A10EE100A01F03AFCB0EE4C9AC3
:10414000F0EE6C9A41EC180B53EC192B01F0F4F9DA
:104150005BD3B0EE4DAAF0EE6DAA53EC1A2B51ECE6
:10416000180B01F023FB50D3ECB3E7B3BDF81400F8
:10417000BDF81C10411A00D54942BDF81600BDF823
:104180001E20801A00D5404249434043084401F0B4
:10419000C0F941EC100B00F0F0FF51EC100B01F0F6
:1041A0008BF984B2BDF81800BDF82010411A00D573
:1041B0004942BDF81A00BDF82220801A00D54042BD
:1041C00049434043084401F0A4F941EC100B00F0CE
:1041D000D4FF51EC100B01F06FF900EE104A80B2E1
:1041E000F8EE400A00E010E000EE100AB8EE401AC7
:1041F00080EE810A10EE100A01F0DAFB41EC180B98
:1042000053EC192B01F098F931D27088002414383E
:1042100081B230884FF6FF72143880B200F0B4F9E2
:1042200014214FF47842084600F0AEF953EC1B2BF2
:1042300051EC180B01F0BCF901F03EF980B2BDF869
:104240002220BDF82030BDF81E10CDE90320CDE9B5
:104250000113BDF81C000090BDF81A30BDF81820FD
:10426000BDF81610BDF81400FFF7C4FDC2E653EC0C
:104270001A2B51EC180B01F099FAC6D3BDF81800AF
:10428000BDF81C10411A00D54942BDF81A00BDF80E
:104290001E20801A00D5404249434043084401F0A3
:1042A00038F941EC100B00F068FF51EC100B01F0F5
:1042B00003F984B2BDF81400BDF82010411A00D5EE
:1042C0004942BDF81600BDF82220801A00D54042B0
:1042D00049434043084401F01CF941EC100B00F045
:1042E0004CFF51EC100B01F0E7F800EE104A80B2E1
:1042F000F8EE400A00EE100AB8EE401A80EE810A8D
:1043000010EE100A01F054FB41EC180B53EC192B82
:1043100001F012F9B1D353EC1A2B51EC180B01F048
:1043200045FAAAD3BDF81800BDF81410421A00EEE1
:10433000102AB8EEC01A55E0280000202A000020FC
:10434000506C6561736520757365207468652073B2
:1043500074796C757320636C69636B007468652095
:1043600063726F7373206F6E20746865207363725D
:1043700065656E2E000000005468652063726F73DF
:10438000732077696C6C20616C77617973206D6F35
:1043900076650000756E74696C20746865207363BF
:1043A0007265656E2061646A7573746D656E740004
:1043B000697320636F6D706C657465642E00000016
:1043C0003000002000000000666666666666EE3F0C
:1043D000CDCCCCCCCCCCF03F00000000000059404C
:1043E000AC00002032880844A2F1280300EE103A05
:1043F000F6EE001A4746B8EEC00AC0EE010A00EE1B
:10440000100AB8EE401A00EE102AB8EE400AC8EDC5
:10441000060A00EEC10AFDEEE00A20EE210ABDEE1A
:10442000C00A10EE100AA8F82000BDF81E00BDF862
:104430001630C11A00EE101A71881844B8EEC01A6E
:10444000A1F1280400EE104AB8EEC02A82EE010A5B
:1044500001EE100AB8EE412A01EE101AB8EE411A28
:1044600087ED070A00EE421A21EE211ABDEEC11AAD
:1044700011EE100A788410EE900A002800DA40420B
:10448000022808DCBDEEC00A10EE100A002800DA8F
:10449000404202282BDD143A143990B2002489B22C
:1044A0004FF6FF7200F070F814214FF4784208467E
:1044B00000F06AF81BA310221A212820CDF80090E2
:1044C000FFF7D8F997F8240048B1002087F82400B6
:1044D00038B18AF800B0D0218AF801108AE50120AD
:1044E000F4E7D0218AF800108AF801B082E5124979
:1044F0001F204FF6FF7408802046FDF7CBFC0FA36A
:1045000010226E212320CDF80090FFF7B3F94FF46D
:104510007A7000F0C5FE00F0E1F92046FDF7BAFC24
:10452000C1E500005450204E6565642072656164E9
:104530006A7573742100000028000020546F7563B1
:10454000682053637265656E2041646A75737420D8
:104550004F4B210070B506460A480C460280304693
:10456000FDF70AFD751CA8B22146FDF705FD641C88
:10457000A1B23046FDF700FDA1B2A8B2BDE870407F
:10458000FDF7FABC280000202DE9F843DFF8709011
:1045900004460D30A9F8002082B2A4F10C000D46AB
:1045A00080B20B46FDF79CFC05F10D0083B2193873
:1045B00081B222461046FDF793FC6E1C04F10108FF
:1045C000B1B21FFA88F0FDF7D7FCB1B2661EB0B2E7
:1045D000FDF7D2FC6F1EB9B21FFA88F0FDF7CCFCD4
:1045E000B9B2B0B2FDF7C8FC002000900623B9F8BC
:1045F00000202946204600F07BFEBDE8F88300003D
:104600002800002010B535202DED028BFBF7FBFEB6
:104610000A2803D00020BDEC028B10BD0421282005
:10462000FBF7DCFE00EE100A9FED178A174CB8EE80
:10463000C00A04212C20C0EE080AC4ED060AFBF7CC
:10464000CDFE00EE100A02213020B8EEC00AC0EE06
:10465000080AC4ED070AFBF7C1FE208402213220BC
:10466000FBF7BCFE60843420FBF7CDFE9023211FB6
:1046700084F82400D02210B10B704A7001E00A7057
:104680004B700120C7E7000020BCBE4C300000206A
:1046900030B5294887B00024016841F080010160ED
:1046A000016801F080010591016841F480710160A9
:1046B000016801F480710591016841F040010160D9
:1046C00000681E4D00F04000059040200090012041
:1046D000019002900320039069462846FCF728FCCD
:1046E0004FF48471009169461548FCF721FC802045
:1046F000CDE9000469462846FCF71AFC0820009022
:1047000069461048FCF714FC0F49881E00F094F825
:10471000FBF762FEFFF776FF10B1002007B030BD57
:104720004FF6FF70FDF7B6FBFFF70EFC00F0D6F872
:10473000FFF768FF0120F1E730380240001C02401B
:104740000020024000180240420000202DE9F05FE6
:1047500000251E4F2C462E46C7F89852DFF8708071
:10476000C8F88C52C8F8A05207F5267700F04EF929
:10477000062000F0A3FD3E60012000F09FFD4FF0F9
:104780000109C7F80090484600F098FD3E60B24627
:104790004E46DFF840B04FF6FF79A7F5267709EAD5
:1047A0004404C7F898A2012000F088FDC7F8986279
:1047B000DBF80C0208B1641CA4B26D1CEDB2102D24
:1047C000EDD32009C8F8A062BDE8F09F0080434205
:1047D0000000444200004342FEB5064600246D46F8
:1047E0003046FFF7B3FF25F81400641CA4B2052C73
:1047F000F6D300214C1CA0B20BE035F8113035F88F
:104800001020934203D925F8112025F81030401CC0
:1048100080B20528F1D3A1B20429EBD300210120F5
:1048200035F81020401C114480B289B20428F7D317
:104830000320B1FBF0F0FEBD2DE9F041074F064625
:104840000D463878FFF7C8FF04467878FFF7C4FFB5
:10485000348028800120BDE8F08100002C00002079
:1048600070B586B00C460546694604A8FFF7E4FF1C
:1048700000282FD001A903A8FFF7DEFF002829D0C8
:10488000BDF80C30BDF81020934203D803F132007C
:10489000824205D39A421FD802F1320083421BD2D2
:1048A000BDF80410BDF80000814203D801F13206C2
:1048B000B04204D388420FD8323081420CD2D01893
:1048C00040082880BDF80000BDF8041008444008E6
:1048D0002080012006B070BD0020FBE710B51B4C06
:1048E00004222DED028B282094ED060A9FED188AF4
:1048F00020EE080ABDEEC00A10EE101AFBF7A4FD68
:1049000094ED070A04222C2020EE080ABDEEC00A0E
:1049100010EE101AFBF798FDB4F920100222302097
:10492000FBF792FDB4F9221002223220FBF78CFD36
:1049300094F824103420FBF79CFDBDEC028B0A2177
:10494000BDE810403520FBF794BD0000300000208A
:1049500020BCBE4C2B4910B5D1F81C122A4C31B1E9
:10496000207D010642D520F08000207545E0020040
:10497000254800F1120100F1100002D0FFF770FF8E
:104980002AE0FFF76DFF38B3B4F9200094ED061A62
:1049900000EE100A208A00EE900AB8EEC00AF8EE87
:1049A000600A01EE200ABCEEC00A10EE100A208256
:1049B000B4F9220094ED071A00EE100A608A00EEA6
:1049C000900AB8EEC00AF8EE600A01EE200ABCEECA
:1049D000C00A10EE100A6082207D00060DD4C020AF
:1049E0002075208AA081608AE08106E00020A081F5
:1049F000E0814FF6FF7020826082207D00F0800011
:104A000010BD000000804342300000202DE9F04737
:104A100000240E4E0E4F0546A0464FF00109280611
:104A200001D5484600E04046C6F88C026806050EEF
:104A3000C7F89882012000F041FCC7F89892641CE6
:104A4000E4B2082CEBD3BDE8F0870000000044423C
:104A5000008043422DE9F84300241FA0FBF7A0FD8E
:104A6000234D244E00270097C4EBC400698800EB57
:104A7000800000EB51012A88322300EB520036F807
:104A800014204638463900F033FC641CE4B2052C8F
:104A9000E9D340F2DC58404600F002FC0024012734
:104AA0000097C4EBC400698800EB800000EB510163
:104AB0002A88322300EB520036F814204638463953
:104AC00000F016FC641CE4B2052CE9D34046BDE8B6
:104AD000F84300F0E5BB0000B2E2CAD4333A4755D0
:104AE00049BBADD4B2CCEEB3E4B2E2CAD40000000C
:104AF000AC000020000000202DE9FE43374C4FF6AB
:104B0000FF70009060880021401E83B22088401E04
:104B100082B20846FDF75AFA102631A0CDE9000608
:104B200001254FF6E07843461F221E2102951420EE
:104B3000FFF77EF84FF44879484600F0B1FB4FF498
:104B40007847009760880021401E83B22088401E6D
:104B500082B20846FDF73AFA23A0CDE900064346A3
:104B60001F221E2102951420FFF762F8484600F02C
:104B700097FB4FF4FC60009060880021401E83B2D8
:104B80002088401E82B20846FDF720FA18A0CDE921
:104B9000000643461F221E2102951420FFF748F805
:104BA000484600F07DFB1F20009060880021401ED9
:104BB00083B22088401E82B20846FDF707FA0EA095
:104BC000CDE9000643463A461E2102951420FFF720
:104BD0002FF84846BDE8FE4300F062BBAC00002061
:104BE000424C20546573740052454420000000007C
:104BF000475245454E200000424C554520000000DC
:104C00002DE9F84351A0FBF7CBFC554D1F20288020
:104C10005448FBF757FB012453A3102232210F20E5
:104C20000094FEF727FE56A3102246210F20009481
:104C3000FEF720FE58A310225A210F200094FEF701
:104C400019FE5BA310226E210F200094FEF712FEC6
:104C50005DA3102282210F200094FEF70BFE60A3BB
:104C6000102296210F200094FEF704FE61A310226B
:104C7000AA210F200094FEF7FDFD4FF47840288014
:104C800000251024322742F210764FF064084FF4CA
:104C9000FA79FBF7DDFA90FBF6F106FB110205232A
:104CA000322164200094FEF7A1FDFBF7D1FA90FBBE
:104CB000F6F106FB11020523462164200094FEF75D
:104CC00095FDFBF7C5FA90FBF6F106FB11020523F3
:104CD0005A2164200094FEF789FDFBF7B9FA90FB96
:104CE000F6F106FB110205236E2164200094FEF705
:104CF0007DFDFBF7ADFA90FBF6F106FB11020523F3
:104D0000822164200094FEF771FDFBF7A1FA90FB6D
:104D1000F7F107FB11020523962164200094FEF7AA
:104D200065FDFBF795FA90FBF8F208FB12020523EC
:104D3000AA2164200094FEF759FD484600F0B0FA1D
:104D40006D1CEDB20F2DA4D3BDE8F883B2E2CAD436
:104D5000383AB6AFCCACCAFDD7D6CFD4CABE000065
:104D60002800002040E20100204843484F3A20201C
:104D700020202020202020202075672F6D33000068
:104D80002020434F323A20202020202020202020A5
:104D90002070706D000000002054564F433A2020D0
:104DA00020202020202020202075672F6D33000038
:104DB000504D322E353A2020202020202020202047
:104DC0002075672F6D33000020504D31303A202080
:104DD00020202020202020202075672F6D33000008
:104DE00020205445503A2020202020202020202020
:104DF00020430000202048554D3A2020202020202C
:104E000020202020202500002DE9F041002425A0AD
:104E1000FBF7C6FB294E2A4F2A4D36F8140038807E
:104E200068884108C4EB041001EB4001A1F10A02BB
:104E300093B22A886E39520802EB4000A0F10A02B0
:104E40006E3892B289B280B2FDF7A2F8641CE4B267
:104E5000052CE2D340F2DC58404600F021FA002451
:104E600036F81400388068884108C4EB041001EB60
:104E70004001A1F10A0293B22A886E39520802EB6E
:104E80004000A0F10A026E3892B289B280B2FDF7FA
:104E90001DF8641CE4B2052CE2D34046BDE8F041A5
:104EA00000F0FEB9B2E2CAD4323A475549BED8D072
:104EB000CECCEEB3E4B2E2CAD40000000000002081
:104EC00028000020AC0000202DE9FC4100242BA08C
:104ED000FBF766FB304E314F314D36F81400388009
:104EE00068884108C4EB041001EB4002A2F11103F1
:104EF00099B22B88673A5B0803EB4000A0F10B0CDA
:104F00001FFA8CF3CDE9003193B2A0F13D026E3867
:104F100092B280B2FBF796FB641CE4B2052CDCD3A2
:104F200040F2DC58404600F0BBF9002436F814008B
:104F3000388068882B884108C4EB041001EB4002DC
:104F40005B08A2F1110103EB4000A0F10B0389B251
:104F50009BB2CDE90031673A93B2A0F13D026E38C1
:104F600092B280B2FBF76AFD641CE4B2052CDDD37B
:104F70004046BDE8FC4100F093B90000B2E2CAD45B
:104F8000343A47554920547269616E676C65CCEEBE
:104F9000B3E4B2E2CAD400000000002028000020E0
:104FA000AC00002008B500252C464FF47846FFF7EA
:104FB0006FFBFCF7C3FEFEF7E9FC60A0FBF7F0FA1D
:104FC000DFF89C914FF0010ACDF800A0B9F800007D
:104FD00064A3183880B210220021FEF74BFC624F08
:104FE00012233E800096B9F80000A0F11C018AB29D
:104FF000323880B20221FCF7E9FF0120FCF7DEFE27
:10500000DFF8688183460020D8F80410884798F8B4
:105010001400000652D5B8F81000B9F800304A461E
:1050200098424ED2B8F81210B2F802C0614548D288
:10503000A3F11802C84690421DDD10291BD23FA0E3
:10504000FBF7AEFACDF800A0B8F8000045A3183879
:1050500080B210220021FEF70DFC3E800096B8F8C9
:1050600000001223A0F11C018AB2323880B2022162
:10507000FCF7ACFF25E0A3F1320C604525DD1C3BBD
:10508000984222DA142920D24FF00508B4FBF8F137
:1050900008FB1140364E9AB2122336F810000090E9
:1050A0001FFA8CF00221FCF791FFB4FBF8F108FB2A
:1050B0001140641C36F810603E80A4B20A2000F053
:1050C000EFF8BBF1010F04D027E03A88FFF742FA6E
:1050D000F7E74FF6FF70FCF7DDFEFEF735FFFFF751
:1050E000FDFB16A0FBF75CFACDF800A0B9F80000B4
:1050F000C846183880B21BA310220021FEF7BAFB65
:105100003E800096B8F800001223A0F11C018AB27C
:10511000323880B20221FCF759FF6D1CADB21E2D52
:105120007FF46BAF13490025D1F8840218B1002039
:10513000C1F8840261E70120FAE70000B2E2CAD4B4
:1051400031303A546F756368B2E2CAD428B0B44BB8
:10515000455930BCFCD0A3D7BC292020200000003A
:10516000AC000020525354002800002030000020E2
:105170000000002000804042FEE700B52DED048BCA
:10518000B0EE409AF0EE609A83B051EC190B00F04B
:1051900043FB41EC180B18EE100A18EE901A8DED37
:1051A000008B002818BF0120084320F00040C0F108
:1051B0007F6000F1E040C00F14D019EE101A19EE14
:1051C000900A8DED009B002918BF0121084320F0B3
:1051D0000040C0F17F6000F1E040C00F04BF01203B
:1051E000FBF7B5F8B0EE480A03B0F0EE680ABDEC84
:1051F000048B00BD2DE9F05F15461C46DDF828B094
:105200000E46074601EB040800EB050A1FFA88F179
:105210001FFA8AF05A46FBF733FE1FFA88F1A7EB14
:1052200005081FFA88F05A46FBF72AFEA6EB040988
:105230001FFA89F11FFA8AF05A46FBF721FE1FFA7E
:1052400089F11FFA88F05A46FBF71AFE06EB0509AA
:1052500007EB04081FFA89F11FFA88F05A46FBF79A
:105260000FFE3C1B1FFA89F1A0B25A46FBF708FE5D
:10527000751BA9B21FFA88F05A46FBF701FEA9B2C6
:10528000A0B25A46BDE8F05FFBF7FABD10B5044680
:105290000420FCF7FFFB0148046010BD240000203F
:1052A00070B5054600244FF47A7603E0304600F0EE
:1052B00005F8641CAC42F9D370BD000070B54FF026
:1052C000E02500216C69094AAB6912685043AA695C
:1052D0009A42FCD002D2A3EB020302E0A4EB020646
:1052E0003344194413468142F1D370BD2400002099
:1052F0002DE9F84F89461E469046824600247142A9
:1053000003220A9802EB4105C8B930E0274608E0BD
:105310003B46224649465046CDF80080FFF76AFFDB
:105320007F1CB742F4DD002D03DA05EB8405AD1DCB
:1053300004E0A01B05EB80050A35761E641CB44210
:10534000E4DDBDE8F88F3346224649465046CDF8A5
:105350000080FFF74FFF002D03DA05EB8405AD1D3C
:1053600004E0A01B05EB80050A35761E641CB442E0
:10537000E9DDE6E7FBF7E2FE0823022219214FF4FC
:10538000B470FEF7C9FCB420FFF780FFFEF7DCFB2A
:10539000FCF792FE00F016F8FFF7AEFBFFF734FDC6
:1053A000FFF758FBFFF790FDFBF764F9FBF782F876
:1053B000FEF72CFBFFF724FCFEF778FBFFF7F2FD6E
:1053C000E8E70000FEB51AA0FBF7EAF80125102473
:1053D0001DA08DE831001F23DE0232461E21002071
:1053E000FBF784FD14A08DE831001F2332463C21D9
:1053F0000020FBF77BFD17A08DE831001F234FF63F
:105400001F025A210020FBF771FD1AA08DE8310020
:105410001F231A4678210020FBF768FD40F2DC5478
:105420002046FFF73DFF2046BDE8FE40FFF738BFAE
:10543000C8ABB6AFB5E7D7D3D7DBBACFB2E2CAD4E1
:10544000B3CCD0F200000000C8ABB6AFB5E7D7D3FD
:1054500000000000342E3022204D65676132353661
:1054600030204E54333535313020343830583830D0
:10547000300000007869616F46656E674051447482
:1054800065636820323032322D30332D30320000E7
:105490000346012000E05843491EC9B2FBD27047C1
:1054A000491058BFC1F140415B1058BFC3F14043A0
:1054B0008B42EFF3008070474FEA1153A3F58063EE
:1054C000D3F11E03A8BFD3F1200C08DB4FF000423C
:1054D00042EAC12252EA505232FA03F070470942BE
:1054E0000BD4102BC4BF0020704703F5787CBCF1AF
:1054F000FF3F05D04FF0FF3070474FF0000070477E
:1055000070B500F0FFF800BF49922480002070477A
:10551000F0E7B0FA80F310FA03F10AD0C3F11D03EB
:1055200003F580634FEA41504FEA035202EBD12169
:1055300070474FF00000704751EA030C17D41CF578
:10554000801F58BFBCF5801F00F10680994218BF2C
:10555000704708BF9042704707D711F5801F58BFAA
:1055600013F5801F19D499427047894270471CF582
:10557000801F08D5BCF5801FF7D58B4218BF704738
:1055800008BF824270474FF4001C1CEB410F38BF2C
:105590001CEB430F01D28B42704770B500F0B2F89C
:1055A000922449004FF000514FF08053FFF778BF2D
:1055B000DFF848C170B51CEA111E1EBF1CEA1315A6
:1055C0009EEA0C0F95EA0C0F00F06F8081EA03044D
:1055D00023EA4C134EEAD47E21EA4C1141F48011A7
:1055E00043F48013AE44A1FB024CA0FB0365AEF173
:1055F0007F7E361955EB0C05A1FB034C4CF10003E3
:10560000A0FB021C16EB0C06654153F10003094296
:1056100018BF46F0010613F4007F0BD14FEA0331A7
:105620004FEA0530340341EA155140EA16506FF055
:1056300003020AE04FEAC3214FEAC520F40241EA1F
:10564000555140EA56506FF0020202EB2E4201EB38
:10565000025585EACE710AD05FEA440C18BF24F0E7
:10566000004450F1000041F1000120EAD47040F202
:10567000FE7C624500D270BDA84214BF4FF080444A
:105680004FF04044002E08BF0024BEF1806FA8BF39
:10569000A1F1C041BDE8704080F282804FF000006F
:1056A00001F1C04101F0004170479EEA0C0F0CEA85
:1056B000131518BF95EA0C0F06D04FF0000081EAD1
:1056C000030E0EF0004170BD00F01CF88900013E91
:1056D00000F007B800F009B84FEA430C5FEA5C5CE1
:1056E00008D081EA030100F05BB84FEA410C5FEAA1
:1056F0005C5CF6D14FF00000014970470000FF07E5
:105700000000F87F0EF1020E2EF0030E5EF8046B1F
:10571000364205D4012A43EB030515F5001F12D8C4
:10572000012841EB010C1CF5001F0CD80ED14FEAEB
:10573000D17C15F5001F0CEB4C0C0CF1020C08BFD2
:105740004CEBD37C04E04FF0080C01E04FEAD37C33
:105750000CEB4C0526FA05F606F00706B6F1040C2C
:1057600006D20EEB860CBDE870404CF0010C604791
:10577000DFE80CF0090B02024FF000414FF000008F
:10578000A1F5002170BD19461046012851EB010416
:1057900018BFD4F5001484BF002001F0004170BD93
:1057A0000808A0F500114FEA3101704753EA010CD7
:1057B00017D41CF5801F58BFBCF5801F00F1068070
:1057C0008B4218BF704708BF8242704707D713F556
:1057D000801F58BF11F5801F19D48B4270479B4220
:1057E00070471CF5801F08D5BCF5801FF7D599427E
:1057F00018BF704708BF904270474FF4001C1CEB65
:10580000430F38BF1CEB410F01D2994270470FB4D0
:105810000CBC03BCFFF7C1BE2DE9F04101F5801CB3
:10582000BCF5001FC0F2A9804FEA115C21EA0C51BF
:105830000CF1FD0C41F480115FEA5C0C0CF5C07CAE
:1058400001D34000494130A4890241EA90518702C6
:105850008E0E0A0CA45D04FB04F602FB06F6C6F1EC
:105860004046A4FB0662F60D46EA422606FB06F415
:10587000A4FB01235242C3F1404338BF5B1EA6FB89
:1058800002420024E6FB0324D20B42EA4446A6FB74
:105890000623A1FB02E2A3FB07E4E3FB61426442AF
:1058A000C2F1404E38BFAEF1010EA6FB04234FF00B
:1058B0000002E6FB0E32A2FB03463400E2FB626408
:1058C000A1FB06E6A4FB07E8E4FB61687642C8F1A9
:1058D000405838BFA8F10108A2FB06E4A3FB08E585
:1058E000E2FB6854A1FB05E6A7FB04E8E1FB648644
:1058F00018F1200556F10006A809A8F11B08B10906
:1059000008F03F08B8F10A0F40EA86601CD901EBA5
:105910000C51BDE8F08100BFFCF5EEE8E2DDD8D324
:10592000CFCBC7C3C0BDB9B6B4B1AEACA9A7A5A310
:10593000A19F9D9B9A9896959392908F8D8C8B8921
:105940008887868584838281A0FB006800FB01F242
:1059500008EB4208B8EB872807D5341858EB010448
:10596000D5D5401C51F10001D1E7341A78EB010480
:10597000CDD4401E71F10001C9E75FEA4C0C5FEA2B
:105980009C5C0DD105D34FF0000001F00041BDE853
:10599000F081BDE8F04170B5FFF7B4FE6DDBFFBEEE
:1059A000BDE8F0414FF00000004970470000F87F6B
:1059B00043004FEAD30C4FEA3C0C43401FBF400763
:1059C0000CF1605113F0FE4F70471CF0006F03D1D3
:1059D00000200CF0004170470CF0004343EA507087
:1059E00010B540EACC0000F00EF800BF00000092B5
:1059F0004FEA0001FFF7D4BE4FF000414FF0000026
:105A0000A1F5002170470EF1020E2EF0030E5EF894
:105A1000044B244204D44FEA4102B2F17F4F11D823
:105A20004FEA4003B3F17F4F0CD80ED14FEAD07C40
:105A3000B2F17F4F0CEB4C0C0CF1020C08BF4CEB9D
:105A4000D17C04E04FF0080C01E04FEAD17C0CEB74
:105A50004C0324FA03F404F00704B4F1040C06D256
:105A60000EEB840CBDE810404CF0010C6047DFE801
:105A70000CF0070802024FF00040A0F5800010BDB6
:105A80000846420018BFD2F1807288BF00F0004083
:105A900010BD4FF04070E1EE100A704700000000AA
:105AA0000000000000000000000020202020202036
:105AB00000200000002850500000000000000000FE
:105AC00000002828FC2850FC50500000002078A836
:105AD000A0603028A8F02000000048A8B05028346A
