:020000040800F2
:10000000D0070020B54C00085D0E00085F0E000808
:10001000630E0008670E00086B0E00080000000069
:100020000000000000000000000000006F0E00084B
:10003000710E000800000000730E0008750E000825
:10004000CF4C0008CF4C0008CF4C0008CF4C000824
:10005000CF4C0008CF4C0008CF4C0008CF4C000814
:10006000CF4C0008CF4C0008CF4C0008CF4C000804
:10007000CF4C0008CF4C0008CF4C0008CF4C0008F4
:10008000CF4C0008CF4C0008CF4C0008CF4C0008E4
:10009000CF4C0008CF4C0008CF4C0008CF4C0008D4
:1000A000CF4C0008CF4C0008CF4C0008CF4C0008C4
:1000B000CF4C0008CF4C0008CF4C0008CF4C0008B4
:1000C000CF4C0008CF4C0008CF4C0008CF4C0008A4
:1000D000CF4C0008CF4C0008CF4C0008CF4C000894
:1000E000CF4C0008CF4C0008CF4C0008CF4C000884
:1000F000CF4C0008CF4C0008CF4C0008CF4C000874
:10010000CF4C0008CF4C0008CF4C0008CF4C000863
:10011000CF4C0008CF4C0008CF4C0008CF4C000853
:10012000CF4C0008CF4C0008CF4C0008CF4C000843
:1001300000F002F800F03CF80AA090E8000C8244BD
:100140008344AAF10107DA4501D100F031F8AFF29A
:10015000090EBAE80F0013F0010F18BFFB1A43F0A5
:1001600001031847F88A0000188B0000103A24BFDA
:1001700078C878C1FAD8520724BF30C830C144BF0C
:1001800004680C607047000000230024002500264E
:10019000103A28BF78C1FBD8520728BF30C148BFEA
:1001A0000B6070471FB505F018FD1FBD10B510BDE1
:1001B00005F052FD1146FFF7F5FF00F02FFE05F0A8
:1001C00070FD03B4FFF7F2FF03BC05F075FD0000FE
:1001D0000B49D1F800C04A685CF8043B1068184429
:1001E00042F8040B8C4528BFA1F1DC0C8A4228BFE1
:1001F000A1F1DC02C1F800C04A6020F00040704765
:100200006801002070B505460E4614463146284662
:1002100001F053FF204601F002FF70BD2DE9F05FB1
:1002200004460D4616461F46301B401C1FFA80FA36
:10023000781B401C1FFA80FB3B463246294620466D
:1002400001F0F1FE4FF000080FE04FF0000906E06A
:100250000A9801F0E4FE09F101001FFA80F9D14586
:10026000F6DB08F101001FFA80F8D845EDDBFE4807
:100270004088401E83B2FC480088401E82B20021A4
:10028000084601F0D0FEBDE8F09F2DE9FF4F85B094
:1002900081468A460020049003900798A0EB090548
:1002A0000898A0EB0A06CDF80890CDF804A0002D20
:1002B00001DD012705E00DB9002702E04FF0FF370F
:1002C0006D42002E02DD4FF0010806E016B94FF036
:1002D000000802E04FF0FF387642B54201DD2C46BF
:1002E00000E034464FF0000B21E0019A91B2029AEF
:1002F00090B201F0ECFE0498284404900398304436
:1003000003900498A04205DD0498001B0490029815
:10031000384402900398A04205DD0398001B039027
:100320000198404401900BF101001FFA80FB601C12
:100330008345DADD09B0BDE8F08F2DE9F0410446D0
:100340000D4616461F462B46324629462046FFF7E5
:100350009CFF3B46224629462046FFF796FF3B4638
:10036000324639462046FFF790FF3B463246294643
:100370003046FFF78AFFBDE8F081F8B504460D4628
:1003800016461F46B94800883B463246294600902B
:100390002046FFF743FFF8BD2DE9F04104460D4626
:1003A00016461F46DDF81880EA1991B2A21990B2DC
:1003B0004246FFF727FFEA1991B2A21B90B24246CC
:1003C000FFF720FFEA1B91B2A21990B24246FFF755
:1003D00019FFEA1B91B2A21B90B24246FFF712FF2F
:1003E000AA1991B2E21990B24246FFF70BFFAA197F
:1003F00091B2E21B90B24246FFF704FFAA1B91B2F2
:10040000E21990B24246FFF7FDFEAA1B91B2E21B31
:1004100090B24246FFF7F6FEBDE8F0812DE9FF4FAE
:1004200081B0824617469846DDF838B0002445462C
:100430004FEA4800C0F10306BBF1000F1FD01BE0DC
:10044000A14608E04B462246009750460299FFF726
:10045000A3FF09F10109A945F4DD002E04DA042007
:1004600000FB0460861D06E0601B042101FB0060A8
:1004700000F10A066D1E641CAC42E1DD18E015E0D7
:100480002B462246009750460299FFF785FF002E23
:1004900004DA042000FB0460861D06E0601B0421D2
:1004A00001FB006000F10A066D1E641CAC42E7DD32
:1004B00005B0BDE8F08F2DE9F04704460D4616461D
:1004C0001F46DDE908893B46324629462046FFF7AC
:1004D000DCFE4B46424639463046FFF7D6FE2B46F9
:1004E000224649464046FFF7D0FEBDE8F087028825
:1004F0000B8803800A8070472DE9FF4F85B00026E6
:100500000027BDF81800BDF82010884207DD08A9B3
:1005100006A8FFF7ECFF07A905A8FFF7E8FFBDF85D
:100520002000BDF84C10884207DD08A913A8FFF78A
:10053000DEFF07A912A8FFF7DAFFBDF81800BDF823
:100540002010884207DD08A906A8FFF7D0FF07A9F9
:1005500005A8FFF7CCFFBDF81800BDF84C10884285
:1005600038D1BDF8140003900490BDF81C00BDF80C
:100570001010884203DABDF81C00049008E0BDF8B2
:100580001C00BDF80C10884202DDBDF81C00039071
:10059000BDF84800BDF81010884203DABDF84800E5
:1005A000049008E0BDF84800BDF80C10884202DD58
:1005B000BDF8480003902D4800880090BDF8183021
:1005C000BDF80C201946BDF81000FFF727FE09B052
:1005D000BDE8F08FBDF81C00BDF81410A0EB010BB6
:1005E000BDF82000BDF81810401A0290BDF8480070
:1005F000BDF81410451ABDF84C00BDF81810A0EB5A
:100600000109BDF84800BDF81C10A0EB010ABDF8B7
:100610004C00BDF82010401A0190BDF82000BDF834
:100620004C10884202D1BDF8208004E0BDF82000C3
:10063000401E1FFA80F8BDF818402CE0029896FB87
:10064000F0F0BDF81410084480B2049097FBF9F064
:10065000BDF81410084480B203905E442F44BDF8E6
:100660001000BDF80C1003E07C0000202E000020DC
:10067000884203DD03A904A8FFF739FFF748008883
:1006800023460090BDF80C202146BDF81000FFF76E
:10069000C5FD601C84B24445D0DDBDF82000201AA1
:1006A00000FB0AF6BDF81800201A00FB05F727E04A
:1006B000019896FBF0F0BDF81C10084480B204903D
:1006C00097FBF9F0BDF81410084480B2039056442B
:1006D0002F44BDF81000BDF80C10884203DD03A9BB
:1006E00004A8FFF704FFDD48008823460090BDF80A
:1006F0000C202146BDF81000FFF790FD601C84B26D
:10070000BDF84C008442D3DD00BF60E72DE9FF4F08
:1007100083B081468A469346DDE91064CF4800885D
:100720000290A6F12000C6B204EBD47009EB600081
:10073000401E82B20AEB0400401E83B25146484676
:10074000019401F070FC129860BB002527E00C2C8E
:1007500007D106EB4600C24901EB800010F8058086
:1007600004E0C04800EB061010F8058000270FE0F9
:1007700008F0800018B1584601F051FC02E00698DC
:1007800001F04DFC4FEA48604FEA1068781CC7B290
:1007900004EBD471B7EB610FEADB681CC5B2A5426C
:1007A000D5DB2FE000252BE00C2C07D106EB460013
:1007B000AB4901EB800010F8058004E0A94800EB8C
:1007C000061010F80580002713E0A448A0F800B038
:1007D00008F0800038B10AEB050291B209EB07027C
:1007E00090B201F074FC4FEA48604FEA1068781C40
:1007F000C7B204EBD471B7EB610FE6DB681CC5B27E
:10080000A542D1DB95490298088097484088401E50
:1008100083B295480088401E82B20021084601F04C
:1008200002FC07B0BDE8F08F2DE9FE4306460F46F7
:1008300015461C46DDF828801DE08B480088401EC8
:10084000B04204DB88484088401EB84201DABDE867
:10085000FE8320788DE82101844803887F48028840
:1008600039463046FFF752FF284605EBD07106EBBC
:1008700061018EB2641C20787E2802DC207820285A
:10088000DBDA00BFE3E710B50246012000E0504389
:100890000B1EA1F10104E1B2F9D110BD2DE9FF4F0A
:1008A00083B0074691461E46109C4FF0000A002573
:1008B00043E0701B401EC1B20A20FFF7E4FFB9FB02
:1008C000F0F00A21B0FBF1F201FB1208BAF1000FBF
:1008D0001BD1701EA84218DDB8F1000F13D1002003
:1008E0002021A346CDE90014029004EBDB714910EE
:1008F00001FB057188B25D490B8858490A88049943
:10090000FFF704FF17E04FF0010A002108F1300063
:10091000C0B2A346CDE90141009004EBDB71491060
:1009200001FB057188B251490B884C490A8804992A
:10093000FFF7ECFE00BF681CC5B2B542B9DB07B0DB
:10094000BDE8F08F2DE9FC5F0546884691469A4642
:10095000DDF830B000954920019000245FE004EB01
:100960000410434911F810009BF80010884253D13D
:1009700004EB04103E4901EB400040789BF8011065
:10098000884249D108F10F0083B205F10F0082B20D
:100990004146284601F047FB00263BE0002734E0B3
:1009A0000D9890B904EB0410314901EB4000801C14
:1009B000805D80213941084018B1484601F02FFB85
:1009C00021E0504601F02BFB1DE02448A0F80090E8
:1009D00004EB0410264901EB4000801C805D80215F
:1009E0003941084018B14146284601F070FB681CA7
:1009F00085B20098281A102805D1009D08F1010041
:100A00001FFA80F803E0781CC7B2082FC8DB00BFCC
:100A1000701CC6B2202EC1DB00BF601C84B20198DE
:100A200084429CDB10484088401E83B20E480088F8
:100A3000401E82B20021084601F0F5FABDE8FC9F95
:100A40002DE9FC5F0546884691469A46DDF830B0B0
:100A5000009507200190002474E000002E00002083
:100A6000F2660008666B00087C0000203000002061
:100A70005671000804EB840000EB4410E34911F8C0
:100A800010009BF80010884259D104EB840000EB61
:100A90004410DE4901EB400040789BF80110884289
:100AA0004DD108F1170083B205F1170082B241461B
:100AB000284601F0B8FA00263FE0002738E00D98FC
:100AC000A0B904EB840000EB4410D04901EB4000D6
:100AD000801C805D80213941084018B1484601F0F2
:100AE0009EFA23E0504601F09AFA1FE0C848A0F8A9
:100AF000009004EB840000EB4410C44901EB40007B
:100B0000801C805D80213941084018B1414628464B
:100B100001F0DDFA681C85B20098281A182805D162
:100B2000009D08F101001FFA80F803E0781CC7B2AD
:100B3000082FC4DB00BF701CC6B2482EBDDB00BF4F
:100B4000601C84B20198844294DBB2484088401E05
:100B500083B2B0480088401E82B20021084601F0EE
:100B600062FABDE8FC9F2DE9FC5F05468846914688
:100B70009A46DDF830B000950420019000245FE033
:100B800004EB8410A44911F810009BF8001088426F
:100B900053D104EB8410A04901EB400040789BF84E
:100BA0000110884249D108F11F0083B205F11F00EE
:100BB00082B24146284601F036FA00263BE0002783
:100BC00034E00D9890B904EB8410934901EB400098
:100BD000801C805D80213941084018B1484601F0F1
:100BE0001EFA21E0504601F01AFA1DE08848A0F8EC
:100BF000009004EB8410884901EB4000801C805D6C
:100C000080213941084018B14146284601F05FFA79
:100C1000681C85B20098281A202805D1009D08F18B
:100C200001001FFA80F803E0781CC7B2082FC8DB68
:100C300000BF701CC6B2802EC1DB00BF601C84B236
:100C4000019884429CDB73484088401E83B27148FF
:100C50000088401E82B20021084601F0E4F9BDE898
:100C6000FC9F2DE9FF4F83B0064688469146DDE99B
:100C70001147109DB2464FF0000B71E0BBF1000F21
:100C800040D104EBD471634A1288A2EB6101B142F6
:100C900004DB60494988091B414502DA07B0BDE819
:100CA000F08F2878802802DD4FF0010B58E028787B
:100CB0000D2806D108EB04001FFA80F856466D1C7B
:100CC0001EE0102C0DDD102128788DE883004A46A7
:100CD00041463046069BFFF719FD06F1080086B233
:100CE0000EE028788DE891004A4641463046069B42
:100CF000FFF70CFD204604EBD07106EB61018EB2CC
:100D00006D1C2DE043480088001BB04204DB4148C5
:100D10004088001B404500DAC0E74FF0000B202C54
:100D200008D1CDE900574A4641463046069BFFF7B9
:100D30001AFF12E0182C08D1CDE900574A46414667
:100D40003046069BFFF77CFE07E0CDE900574A4698
:100D500041463046069BFFF7F5FDAD1C301986B2C3
:100D6000287800288AD100BF98E72DE9FE4F0E466B
:100D700017469846DDE90D9A0C9C204604F036FF94
:100D800085B224490988A1EBC50000EBD071C1F3FD
:100D90004F0B43463A46314658468DE81006FFF75A
:100DA00060FFBDE8FE8F2DE9F05F074688461546D7
:100DB0001E46DDF8289008EB0600401E83B2781925
:100DC000401E82B24146384601F02DF900240AE067
:100DD00019F814B009EB440090F801A04BEA0A207E
:100DE00001F01DF9641C05FB06F0A042F0DC094887
:100DF0004088401E83B207480088401E82B200210E
:100E0000084601F010F9BDE8F09F0000087B0008DB
:100E10002E0000207C0000200E7D000804F05EFE05
:100E20004FF4A06003F066FF01F057FA15E000F000
:100E30005FF900F09BF900F01BFA00F0CBFA00F02C
:100E4000E3FB00F08AFB00F0B9FC00F0F4FC00F0DA
:100E500043FF00F038FD00F055FEE8E7704700BFA3
:100E6000FEE700BFFEE700BFFEE700BFFEE77047FA
:100E700070477047704700000CB50020019000904B
:100E80006C48006840F480306A49086000BF6948D7
:100E9000006800F4003000900198401C0190009818
:100EA00018B90198B0F5A06FF1D16248006800F45C
:100EB000003010B10120009001E000200090009867
:100EC000012843D15C48006840F010005A4908608E
:100ED0000846006820F0030008600846006840F0FB
:100EE000020008605348406852494860084640681C
:100EF00048600846406840F48060486008464068A2
:100F000020F47C1048600846406840F4E8104860CF
:100F10000846006840F08070086000BF45480068DF
:100F200000F000700028F9D04248406820F003002B
:100F3000404948600846406840F00200486000BFF1
:100F40003C48406800F00C000828F9D10CBD10B5F1
:100F5000FFF792FF10BD10B53648006840F0010061
:100F600034490860084640683449084031494860BF
:100F700008460068324908402E4908600846006863
:100F800020F4802008600846406820F4FE00486095
:100F90004FF41F008860FFF7DAFF4FF00060294927
:100FA000086010BD10B5002100200022214B5B68B5
:100FB00003F00C0121B1042906D0082928D107E04B
:100FC000214B224C236027E01F4B204C236023E061
:100FD000184B5B6803F47010164B5B6803F48032A7
:100FE000022303EB904022B9194B4343174C236073
:100FF0000DE0104B5B6803F4003323B1144B434303
:10100000124C236003E0104B4343104C236003E079
:101010000D4B0E4C236000BF00BF064B5B68C3F353
:1010200003130C4CE15C094B1B68CB40074C23605D
:1010300010BD000000100240002002400000FFF838
:10104000FFFFF6FE08ED00E000127A00000000202D
:1010500000093D00040000203EB504464FF6FF7035
:10106000FE4908801F200090FD48028814230021BB
:101070000846FFF7D3F8012010211F234FF6FF7217
:10108000CDE90041029002210020FFF76EFE1F20F3
:101090000090F3484088401E83B2F1480088401E0B
:1010A00082B2EF484088143881B20020FFF7B6F8CA
:1010B00001201021EBA2CDE900210290E8484088F0
:1010C000123881B21F234FF6FF720020FFF74DFE4A
:1010D0004FF6FF700090E2484088153883B2E04830
:1010E0000088401E82B215210020FFF797F83EBD10
:1010F0000EB5E2A0FFF7B0FF01201021E5A21F23EB
:10110000CDE900210290DA021E210020FFF72DFE1A
:1011100001201021DBA21F23CDE900210290DA0279
:101120003C210020FFF721FE01201021DCA21F231B
:10113000CDE9002102904FF61F025A210020FFF74F
:1011400014FE01201021DEA21F23CDE90021029010
:101150001A4678210020FFF708FE40F2DC5004F028
:10116000FAFC40F2DC5004F0F6FC0EBD0EB54FF672
:10117000FF700090BA484088401E83B2B84800888B
:10118000401E82B200210846FFF748F801201021D6
:10119000D2A24FF6E073CDE9002102901F221E215A
:1011A0001420FFF75EFD4FF4487004F0D4FC4FF4B8
:1011B00078400090AA484088401E83B2A848008822
:1011C000401E82B200210846FFF728F801201021B6
:1011D000C4A24FF6E073CDE9002102901F221E2128
:1011E0001420FFF73EFD4FF4487004F0B4FC4FF4B8
:1011F000FC6000909A484088401E83B2984800885E
:10120000401E82B200210846FFF708F80120102195
:10121000B6A24FF6E073CDE9002102901F221E21F5
:101220001420FFF71EFD4FF4487004F094FC1F20BB
:1012300000908B484088401E83B289480088401E39
:1012400082B200210846FEF7E9FF01201021A9A281
:101250004FF6E073CDE9002102904FF478421E2151
:101260001420FFF7FEFC4FF4487004F074FC0EBD30
:101270002DE9F0470024A1A0FFF7EEFE00BF4CE0EF
:10128000A44830F8140075490880DFF8D4C1BCF8D0
:10129000025005EBD57C4FEA6C0CACF16E0CC4EB44
:1012A00004190CEB490C0CF1640C1FFA8CF3DFF8F9
:1012B000B0C1BCF8006006EBD67C4FEA6C0CACF118
:1012C0006E0CC4EB04190CEB490C0CF1640C1FFA06
:1012D0008CF2DFF88CC1BCF8027007EBD77C4FEAC8
:1012E0006C0CACF16E0CC4EB04190CEB490C1FFA3E
:1012F0008CF1DFF86CC1BCF8008008EBD87C4FEAB9
:101300006C0CACF16E0CC4EB04190CEB490C1FFA1D
:101310008CF0FFF712F8601CC4B2052CB0DB40F271
:10132000DC5004F018FC00244CE07A4830F814003B
:101330004A490880DFF828C1BCF8027007EBD77C67
:101340004FEA6C0CACF16E0CC4EB04190CEB490CBD
:101350000CF1640C1FFA8CF3DFF804C1BCF80050E8
:1013600005EBD57C4FEA6C0CACF16E0CC4EB0419A8
:101370000CEB490C0CF1640C1FFA8CF2DFF8E0C0A6
:10138000BCF8028008EBD87C4FEA6C0CACF16E0C18
:10139000C4EB04190CEB490C1FFA8CF1DFF8C0C048
:1013A000BCF8006006EBD67C4FEA6C0CACF16E0C1E
:1013B000C4EB04190CEB490C1FFA8CF0FEF7DDFFAF
:1013C000601CC4B2052CB0DB40F2DC5004F0C3FB5F
:1013D000BDE8F087F8B500244FA0FFF73DFE00BF41
:1013E0001FE000201E4B00905D8805EBD5735B105D
:1013F000463BC4EBC40707EB8707D919184B1E8877
:1014000006EBD6735B10463BC4EBC40707EB8707BC
:10141000D819404B33F814203223FEF7FFFF601C2D
:10142000C4B2052CDDDB40F2DC5004F094FB002458
:101430008BE001200A4B00905D8805EBD5735B10B3
:10144000463BC4EBC40707EB8707D919044B1E883A
:1014500006EBD6735B10463B6AE000002E000020CE
:101460007C000020687474703A2F2F7777772E6C89
:10147000636477696B692E636F6D0000C8ABB6AFAC
:10148000B5E7D7D3D7DBBACFB2E2CAD4B3CCD0F268
:1014900000000000C8ABB6AFB5E7D7D3000000002E
:1014A000342E3022204D65676132353630204E545F
:1014B0003335353130203438305838303000000082
:1014C0007869616F46656E67405144746563682052
:1014D000323032322D30332D30320000424C205425
:1014E0006573740052454420000000004752454592
:1014F0004E200000424C554520000000B2E2CAD404
:10150000323A475549BED8D0CECCEEB3E4B2E2CAA7
:10151000D400000014000020B2E2CAD4333A475588
:1015200049BBADD4B2CCEEB3E4B2E2CAD400000001
:10153000C4EBC40707EB8707D819E84B33F814202E
:101540003223FEF76BFF601CC4B2052CFFF671AFAF
:1015500040F2DC5004F0FFFAF8BD0EB5E0A0FFF752
:101560007BFD00200C21E3A24FF6E073CDE90021C2
:1015700002901F221E210A20FFF773FB01200C217D
:10158000E7A24FF6E073CDE9002102901F222D2142
:101590000A20FFF766FB00200C21ECA24FF6E07357
:1015A000CDE9002102901F223C210A20FFF759FBC0
:1015B00000201021EDA24FF6E073CDE9002102904A
:1015C0001F2250210A20FFF74CFB01201021F2A21C
:1015D0004FF6E073CDE9002102901F2264210A201A
:1015E000FFF73FFB00201021F6A24FF6E073CDE994
:1015F000002102901F2278210A20FFF732FB4FF4CE
:10160000966004F0A8FA0EBD2DE9FC5F0024F5A059
:10161000FFF722FD00BF60E0B04830F81400F84941
:101620000880F848458805EBD57040101138C4EBA8
:10163000041100EB410081B2F248068806EBD67037
:1016400040100B38C4EB041200EB420080B2DFF80C
:10165000B4C3CDE90001BCF8027007EBD77C4FEAB8
:101660006C0CACF1670CC4EB041B0CEB4B0C1FFABD
:101670008CF3DFF890C3BCF8008008EBD87C4FEA0D
:101680006C0CACF13D0CC4EB041B0CEB4B0C1FFAC7
:101690008CF2DFF870C3BCF8029009EBD97C4FEAFA
:1016A0006C0CACF1110CC4EB041B0CEB4B0C1FFAD3
:1016B0008CF1DFF850C3BCF800A00AEBDA7C4FEAEB
:1016C0006C0CACF16E0CC4EB041B0CEB4B0C1FFA56
:1016D0008CF0FEF7F0FE601CC4B2052C9CDB40F2DF
:1016E000DC5004F038FA002460E07C4830F8140044
:1016F000C3490880C348458805EBD57040101138B0
:10170000C4EB041100EB410081B2BE48068806EB31
:10171000D67040100B38C4EB041200EB420080B2CC
:10172000DFF8E0C2CDE90001BCF8027007EBD77C1E
:101730004FEA6C0CACF1670CC4EB041B0CEB4B0CCC
:101740001FFA8CF3DFF8BCC2BCF8008008EBD87C31
:101750004FEA6C0CACF13D0CC4EB041B0CEB4B0CD6
:101760001FFA8CF2DFF89CC2BCF8029009EBD97C1E
:101770004FEA6C0CACF1110CC4EB041B0CEB4B0CE2
:101780001FFA8CF1DFF87CC2BCF800A00AEBDA7C0F
:101790004FEA6C0CACF16E0CC4EB041B0CEB4B0C65
:1017A0001FFA8CF0FEF7A8FE601CC4B2052C9CDB6F
:1017B00040F2DC5004F0CFF9BDE8FC9F0EB592A0DA
:1017C000FFF74AFC0020102194A24FF6E073CDE908
:1017D000002102901F221E210A20FFF742FA00205A
:1017E000102197A24FF6E073CDE9002102901F224D
:1017F00032210A20FFF735FA0120182196A24FF670
:10180000E073CDE9002102901F2246210A20FFF754
:1018100028FA0120202196A24FF6E073CDE900219D
:1018200002901F2264210A20FFF71BFA4FF49660F2
:1018300004F091F90EBD0EB591A0FFF70DFC95488F
:1018400028231A461E2100900846FFF7ACFA012013
:10185000102191A24FF6E073CDE9002102901F22E2
:101860004B212A20FFF7FDF98A4828231A461E211A
:1018700000905A20FFF797FA0120102186A24FF618
:10188000E073CDE9002102901F224B216620FFF773
:10189000E8F9804828231A461E2100909620FFF779
:1018A00082FA012010217CA24FF6E073CDE90021DD
:1018B00002901F224B21A220FFF7D3F94FF496602C
:1018C00004F049F90EBD10B588B00024734B0FCB5E
:1018D000CDE90623CDE9040100BF0CE1140000208E
:1018E000B2E2CAD4353AD3A2CEC4CFD4CABEB2E291
:1018F000CAD40000365831323A6162636465666763
:1019000068696A6B6C6D6E6F7071727374757677DF
:1019100078797A303132333435363738390000004F
:10192000365831323A4142434445464748494A4B8A
:101930004C4D4E4F505152535455565758595A309A
:1019400031323334353637383900000036583132C9
:101950003A7E21402324255E262A28295F2B7B7D81
:101960003A3C3E3F2F7C2D2B2E000000385831365C
:101970003A6162636465666768696A6B6C6D6E6F15
:10198000707172737475767778797A303132333456
:101990003536373839000000385831363A4142433D
:1019A0004445464748494A4B4C4D4E4F505152537F
:1019B0005455565758595A303132333435363738F2
:1019C00039000000385831363A7E21402324255E04
:1019D000262A28295F2B7B7D3A3C3E3F2F7C2D2BEE
:1019E0002E000000B2E2CAD4343A4755492054725E
:1019F00069616E676C65CCEEB3E4B2E2CAD40000F4
:101A00002E0000207C000020B2E2CAD4363AD6D0A4
:101A1000CEC4CFD4CABEB2E2CAD4000031365831E7
:101A2000363AC8ABB6AFB5E7D7D3BCBCCAF5D3D04E
:101A3000CFDEB9ABCBBEBBB6D3ADC4FA000000005D
:101A400031365831363A57656C636F6D65C8ABB641
:101A5000AFB5E7D7D300000032345832343AC9EE7C
:101A6000DBDACAD0D6D0CEC4B2E2CAD400000000BD
:101A700033325833323AD7D6CCE5B2E2CAD400007A
:101A8000B2E2CAD4373ACDBCC6ACCFD4CABEB2E2F9
:101A9000CAD40000187F000851510000988B00083C
:101AA0004FF6FF7000F01FFB204600F0C8FBEAA0D5
:101AB000FFF7D2FA0121102204A850F824004FF6B3
:101AC000E073CDE9012100901F221E211420FFF7B1
:101AD000C8F8E64828231A46322100901E20FFF756
:101AE00062F94FF47A7004F036F84FF47A7004F02B
:101AF00032F8601CC4B2042CD2DB002000F09FFB43
:101B000008B010BD08B5002500264FF4784702F054
:101B1000F8FE00F027FA03F0A7F8D5A0FFF79CFA2B
:101B20000120DC4900900988183988B2DAA3102214
:101B30000021FEF779FE3846D8490880D549009043
:101B400009881C398AB2D3490988323988B21223EC
:101B50000221FEF763FBBEE000F01EFA0446D04807
:101B6000416800208847CE48007D00F080000028B2
:101B700079D0CB48008AC7490988884276DAC848B4
:101B8000408AC4494988884270DAC548018AC148F8
:101B900000881838814222DDC148408A10281EDAA8
:101BA000B3A0FFF759FA0120BA4900900988183903
:101BB00088B2B9A310220021FEF736FEB74807808D
:101BC0000088B449009009881C398AB2B149098853
:101BD000323988B212230221FEF720FB46E0B048DA
:101BE000018AAC4800883238814234DDAC48018A31
:101BF000A84800881C3881422DDAA948408A142858
:101C000029DA052096FBF0F100FB1160A54931F8B7
:101C10001080A049CDF8008009881C398AB29D49FE
:101C20000988323988B212230221FEF7F7FA3046CA
:101C3000711C8EB2052190FBF1F201FB1200994953
:101C400031F8100095490880084607880A2003F0FB
:101C500082FF0BE007E0924A518A108A8F4A12886D
:101C600002F015F802E00A2003F075FF012C25D1DF
:101C70004FF6FF7000F037FA02F0DAF902F09DF843
:101C80007BA0FFF7E9F90120824900900988183903
:101C900088B281A310220021FEF7C6FD7F4807808D
:101CA00000887C49009009881C398AB279490988E2
:101CB000323988B212230221FEF7B0FA681C85B2CD
:101CC0001E2D08D100257848006808B9012000E0E1
:101CD0000020754908603FE738B574A0FFF7BCF9EC
:101CE0001F206E490880764803F062FF012075A32B
:101CF0001022322100900F20FEF796FD012077A3DD
:101D00001022462100900F20FEF78EFD012079A3BE
:101D100010225A2100900F20FEF786FD01207BA3A0
:101D200010226E2100900F20FEF77EFD01207DA382
:101D30001022822100900F20FEF776FD01207FA364
:101D40001022962100900F20FEF76EFD012080A347
:101D50001022AA2100900F20FEF766FD4FF4784074
:101D60004E490880002473E0FEF732FA42F2107107
:101D700090FBF1F201FB1205102005232A463221C7
:101D800000906420FEF78AFDFEF722FA42F21071FD
:101D900090FBF1F201FB1205102005232A46462193
:101DA00000906420FEF77AFDFEF712FA42F21071FD
:101DB00090FBF1F201FB1205102005232A465A215F
:101DC00000906420FEF76AFDFEF702FA42F21071FD
:101DD00090FBF1F201FB1205102005232A466E212B
:101DE00000906420FEF75AFDFEF7F2F942F21071FE
:101DF00090FBF1F201FB1205102005232A468221F7
:101E000000906420FEF74AFDFEF7E2F9322190FBD4
:101E1000F1F201FB1205102005232A4696210090BD
:101E20006420FEF73BFDFEF7D3F9642190FBF1F24D
:101E300001FB1205102005232A46AA2100906420E8
:101E4000FEF72CFD4FF4FA7003F085FE601CC4B25F
:101E50000F2C89DB38BD0000B2E2CAD4393AC6C1C2
:101E6000C4BBD0FDD7AAB2E2CAD40000187F0008D4
:101E7000B2E2CAD431303A546F756368B2E2CAD460
:101E800028B0B44B455930BCFCD0A3D7BC29202086
:101E9000200000007C000020525354002E0000203F
:101EA000340000201400002094812142B2E2CAD400
:101EB000383AB6AFCCACCAFDD7D6CFD4CABE000034
:101EC00040E20100204843484F3A202020202020B3
:101ED000202020202075672F6D3300002020434FE5
:101EE000323A202020202020202020202070706DD9
:101EF000000000002054564F433A2020202020208C
:101F0000202020202075672F6D330000504D322E89
:101F1000353A202020202020202020202075672FE7
:101F20006D33000020504D31303A202020202020F9
:101F3000202020202075672F6D330000202054457D
:101F4000503A202020202020202020202043000064
:101F5000202048554D3A20202020202020202020DD
:101F60002025000008B50121442003F04DFA182077
:101F7000ADF8000048208DF8030069461C4802F0C7
:101F800087FF0120ADF8000028208DF80300694686
:101F9000184802F07DFF08BD10B51021144803F069
:101FA0000AF850B10821124803F005F828B10121C0
:101FB000104803F000F8012818D10A2003F0CBFDE7
:101FC00010210B4802F0F7FF08B9012010BD0821CD
:101FD000074802F0F0FF08B90220F7E701210548A1
:101FE00002F0E9FF012801D10320EFE70020EDE72F
:101FF0000018014000080140FE490880704700BFFA
:10200000FC49891C08807047FA4A1080921C118094
:10201000704700B5F8490889FFF7EEFF00BDF549A4
:10202000891C0880704730B504460D46F2498889FE
:10203000FFF7E2FF2012FFF7E2FFEF498989491C11
:1020400088B2FFF7D9FFE0B2FFF7D9FFEA498989E3
:10205000891C88B2FFF7D0FF1012FFF7D0FFE649C6
:102060008989C91C88B2FFF7C7FFD0B2FFF7C7FF45
:10207000E149C889FFF7C0FF2812FFF7C0FFDE491A
:10208000C989491C88B2FFF7B7FFE8B2FFF7B7FF6D
:10209000D949C989891C88B2FFF7AEFF1812FFF72A
:1020A000AEFFD549C989C91C88B2FFF7A5FFD8B2D0
:1020B000FFF7A5FFFFF7ADFF30BD30B504460D4675
:1020C0002B46224629462046FFF7ADFF30BD30B5EE
:1020D00004460D4629462046FFF7EFFFC748008813
:1020E000FFF79DFF30BD70B50446C3480088C24964
:1020F000498800FB01F6C0484088401E83B2BE48B4
:102100000088401E82B200210846FFF78CFF0025A0
:1021100003E0B848801C04806D1CB542F9D370BD43
:1021200000B59FB00121080203F061F901214FF4CD
:10213000B47003F069F94FF40060ADF87800102036
:102140008DF87B0003208DF87A001EA9AC4802F0C0
:102150009FFE4FF40061AA4802F047FF4CF2337033
:10216000ADF8780018208DF87B0003208DF87A00F8
:102170001EA9A34802F08CFE4FF68070ADF87800DF
:1021800018208DF87B0003208DF87A001EA99D4849
:1021900002F07EFE41F20100ADF8780018208DF8C3
:1021A0007B0003208DF87A001EA9974802F070FE8C
:1021B00001200890002009900F200A9000200B9029
:1021C0000C900D900E90019002900320039000203F
:1021D000049005900690079006200F900020109024
:1021E00011901020129000201390159014901690CA
:1021F00017904FF480501890002019904FF48040B1
:102200001A9000201B9008A81C9001A81D900FA8F0
:1022100003F0AAF90121062003F00EFB1FB000BD58
:1022200010B5002079490860642003F094FC012077
:102230007749C1F8AC01322003F08DFC10BD00B528
:1022400003464FF428506C4988814FF42C50C881C4
:102250004FF4305008814FF43850488133B1012B8E
:1022600011D0022B1CD0032B34D126E04FF4F07098
:10227000614908804FF44870488000214FF458505D
:10228000FFF7C2FE27E04FF448705B4908804FF427
:10229000F070488060214FF45850FFF7B5FE1AE007
:1022A0004FF4F070544908804FF448704880C021C2
:1022B0004FF45850FFF7A8FE0DE04FF448704E4918
:1022C00008804FF4F0704880A0214FF45850FFF779
:1022D0009BFE00E000BF00BF00BD10B5FFF720FF70
:1022E000322003F038FC4FF47040FFF785FE552094
:1022F000FFF785FE4FF20100FFF77EFEAA20FFF7F1
:102300007EFE4FF20200FFF777FE5220FFF777FEC6
:102310004FF20300FFF770FE0820FFF770FE4FF248
:102320000400FFF769FE0120FFF769FE4FF4364015
:10233000FFF762FE3420FFF762FE4BF20160FFF709
:102340005BFE3420FFF75BFE4BF20260FFF754FEAA
:102350003420FFF754FE4FF43040FFF74DFE0D20C0
:10236000FFF74DFE4BF20100FFF746FE0D20FFF791
:1023700046FE4BF20200FFF73FFE0D20FFF73FFE47
:102380004FF43740FFF738FE2420FFF738FE4BF2BA
:102390000170FFF731FE2420FFF731FE4BF202708F
:1023A000FFF72AFE2420FFF72AFE4FF43140FFF703
:1023B00023FE0D20FFF723FE4BF20110FFF71CFE5A
:1023C0000D20FFF71CFE4BF20210FFF715FE0D204B
:1023D000FFF715FE4FF43840FFF70EFE2420FFF7FD
:1023E0000EFE4BF60100FFF707FE2420FFF707FE65
:1023F00010E00000FE07006C7C0000202E00002092
:10240000001401400018014000200140AC8122422C
:10241000008022424BF60200FFF7EEFD2420FFF77A
:10242000EEFD4FF43240FFF7E7FD0020FFF7E7FD38
:102430004FF43940FFF7E0FD2420FFF7E0FD4BF6B5
:102440000110FFF7D9FD2420FFF7D9FD4BF602104C
:10245000FFF7D2FD2420FFF7D2FD4FF43340FFF702
:10246000CBFD0520FFF7CBFD4BF20130FFF7C4FD9C
:102470000520FFF7C4FD4BF20230FFF7BDFD05203C
:10248000FFF7BDFD4FF43A40FFF7B6FD3420FFF7EC
:10249000B6FD4BF60120FFF7AFFD3420FFF7AFFD8F
:1024A0004BF60220FFF7A8FD3420FFF7A8FD4FF4FC
:1024B0003540FFF7A1FD0B20FFF7A1FD4BF20150C6
:1024C000FFF79AFD0B20FFF79AFD4BF20250FFF742
:1024D00093FD0B20FFF793FD4FF43C40FFF78CFD7D
:1024E0000020FFF78CFD4BF60140FFF785FDA32090
:1024F000FFF785FD4BF60240FFF77EFD0020FFF75A
:102500007EFD4FF43D40FFF777FD0020FFF777FD9C
:102510004BF60150FFF770FDA320FFF770FD4BF65F
:102520000250FFF769FD0020FFF769FD4FF43E40C0
:10253000FFF762FD0020FFF762FD4BF60160FFF739
:102540005BFD6320FFF75BFD4FF45140FFF754FD47
:102550000020FFF754FD4DF20110FFF74DFD37202D
:10256000FFF74DFD4DF20210FFF746FD0020FFF78B
:1025700046FD4DF20310FFF73FFD5220FFF73FFDF0
:102580004DF20410FFF738FD0020FFF738FD4DF243
:102590000510FFF731FD7B20FFF731FD4DF20610EE
:1025A000FFF72AFD0020FFF72AFD4DF20710FFF785
:1025B00023FD9920FFF723FD4DF20810FFF71CFDC6
:1025C0000020FFF71CFD4DF20910FFF715FDB120AB
:1025D000FFF715FD4DF20A10FFF70EFD0020FFF783
:1025E0000EFD4DF20B10FFF707FDD220FFF707FDA0
:1025F0004DF20C10FFF700FD0020FFF700FD4DF23B
:102600000D10FFF7F9FCF620FFF7F9FC4DF20E1064
:10261000FFF7F2FC0120FFF7F2FC4DF20F10FFF77D
:10262000EBFC2720FFF7EBFC4DF21010FFF7E4FC6A
:102630000120FFF7E4FC4DF21110FFF7DDFC4E2006
:10264000FFF7DDFC4DF21210FFF7D6FC0120FFF77B
:10265000D6FC4DF21310FFF7CFFC8C20FFF7CFFC18
:102660004DF21410FFF7C8FC0120FFF7C8FC4DF233
:102670001510FFF7C1FCBE20FFF7C1FC4DF216108C
:10268000FFF7BAFC0220FFF7BAFC4DF21710FFF774
:10269000B3FC0B20FFF7B3FC4DF21810FFF7ACFCB6
:1026A0000220FFF7ACFC4DF21910FFF7A5FC482003
:1026B000FFF7A5FC4DF21A10FFF79EFC0220FFF772
:1026C0009EFC4DF21B10FFF797FC4A20FFF797FC8A
:1026D0004DF21C10FFF790FC0220FFF790FC4DF22A
:1026E0001D10FFF789FC7E20FFF789FC4DF21E10BC
:1026F000FFF782FC0220FFF782FC4DF21F10FFF76C
:102700007BFCBC20FFF77BFC4DF22010FFF774FC34
:102710000220FFF774FC4DF22110FFF76DFCE12061
:10272000FFF76DFC4DF22210FFF766FC0320FFF768
:1027300066FC4DF22310FFF75FFC1020FFF75FFCF3
:102740004DF22410FFF758FC0320FFF758FC4DF220
:102750002510FFF751FC3120FFF751FC4DF22610F8
:10276000FFF74AFC0320FFF74AFC4DF22710FFF762
:1027700043FC5A20FFF743FC4DF22810FFF73CFCC6
:102780000320FFF73CFC4DF22910FFF735FC7320C6
:10279000FFF735FC4DF22A10FFF72EFC0320FFF760
:1027A0002EFC4DF22B10FFF727FC9420FFF727FC9F
:1027B0004DF22C10FFF720FC0320FFF720FC4DF218
:1027C0002D10FFF719FC9F20FFF719FC4DF22E107A
:1027D000FFF712FC0320FFF712FC4DF22F10FFF75A
:1027E0000BFCB320FFF70BFC4DF23010FFF704FC9D
:1027F0000320FFF704FC4DF23110FFF7FDFBB92079
:10280000FFF7FDFB4DF23210FFF7F6FB0320FFF759
:10281000F6FB4DF23310FFF7EFFBC120FFF7EFFBA4
:102820004FF45240FFF7E8FB0020FFF7E8FB4DF2C2
:102830000120FFF7E1FB3720FFF7E1FB4DF202201B
:10284000FFF7DAFB0020FFF7DAFB4DF20320FFF77A
:10285000D3FB5220FFF7D3FB4DF20420FFF7CCFB54
:102860000020FFF7CCFB4DF20520FFF7C5FB7B20D6
:10287000FFF7C5FB4DF20620FFF7BEFB0020FFF778
:10288000BEFB4DF20720FFF7B7FB9920FFF7B7FB20
:102890004DF20820FFF7B0FB0020FFF7B0FB4DF230
:1028A0000920FFF7A9FBB120FFF7A9FB4DF20A2091
:1028B000FFF7A2FB0020FFF7A2FB4DF20B20FFF772
:1028C0009BFBD220FFF79BFB4DF20C20FFF794FB04
:1028D0000020FFF794FB4DF20D20FFF78DFBF62053
:1028E000FFF78DFB4DF20E20FFF786FB0120FFF76F
:1028F00086FB4DF20F20FFF77FFB2720FFF77FFBC2
:102900004DF21020FFF778FB0120FFF778FB4DF226
:102910001120FFF771FB4E20FFF771FB4DF21220E3
:10292000FFF76AFB0120FFF76AFB4DF21320FFF768
:1029300063FB8C20FFF763FB4DF21420FFF75CFB79
:102940000120FFF75CFB4DF21520FFF755FBBE2081
:10295000FFF755FB4DF21620FFF74EFB0220FFF765
:102960004EFB4DF21720FFF747FB0B20FFF747FB0D
:102970004DF21820FFF740FB0220FFF740FB4DF21D
:102980001920FFF739FB4820FFF739FB4DF21A20D9
:10299000FFF732FB0220FFF732FB4DF21B20FFF75F
:1029A0002BFB4A20FFF72BFB4DF21C20FFF724FBEB
:1029B0000220FFF724FB4DF21D20FFF71DFB7E20B8
:1029C000FFF71DFB4DF21E20FFF716FB0220FFF75D
:1029D00016FB4DF21F20FFF70FFBBC20FFF70FFB8C
:1029E0004DF22020FFF708FB0220FFF708FB4DF215
:1029F0002120FFF701FBE120FFF701FB4DF2222030
:102A0000FFF7FAFA0320FFF7FAFA4DF22320FFF757
:102A1000F3FA1020FFF7F3FA4DF22420FFF7ECFA57
:102A20000320FFF7ECFA4DF22520FFF7E5FA3120FD
:102A3000FFF7E5FA4DF22620FFF7DEFA0320FFF755
:102A4000DEFA4DF22720FFF7D7FA5A20FFF7D7FA20
:102A50004DF22820FFF7D0FA0320FFF7D0FA4DF20D
:102A60002920FFF7C9FA7320FFF7C9FA4DF22A208F
:102A7000FFF7C2FA0320FFF7C2FA4DF22B20FFF74F
:102A8000BBFA9420FFF7BBFA4DF22C20FFF7B4FA03
:102A90000320FFF7B4FA4DF22D20FFF7ADFA9F2087
:102AA000FFF7ADFA4DF22E20FFF7A6FA0320FFF74D
:102AB000A6FA4DF22F20FFF79FFAB320FFF79FFAF7
:102AC0004DF23020FFF798FA0320FFF798FA4DF205
:102AD0003120FFF791FAB920FFF791FA4DF2322039
:102AE000FFF78AFA0320FFF78AFA4DF23320FFF747
:102AF00083FAC120FFF783FA4FF45340FFF77CFAC3
:102B00000020FFF77CFA4DF20130FFF775FA37200D
:102B1000FFF775FA4DF20230FFF76EFA0020FFF76B
:102B20006EFA4DF20330FFF767FA5220FFF767FAAB
:102B30004DF20430FFF760FA0020FFF760FA4DF223
:102B40000530FFF759FA7B20FFF759FA4DF20630AE
:102B5000FFF752FA0020FFF752FA4DF20730FFF765
:102B60004BFA9920FFF74BFA4DF20830FFF744FA81
:102B70000020FFF744FA4DF20930FFF73DFAB1208B
:102B8000FFF73DFA4DF20A30FFF736FA0020FFF763
:102B900036FA4DF20B30FFF72FFAD220FFF72FFA5B
:102BA0004DF20C30FFF728FA0020FFF728FA4DF21B
:102BB0000D30FFF721FAF620FFF721FA4DF20E3023
:102BC000FFF71AFA0120FFF71AFA4DF20F30FFF75C
:102BD00013FA2720FFF713FA4DF21030FFF70CFA23
:102BE0000120FFF70CFA4DF21130FFF705FA4E20E5
:102BF000FFF705FA4DF21230FFF7FEF90120FFF75B
:102C0000FEF94DF21330FFF7F7F98C20FFF7F7F9D3
:102C10004DF21430FFF7F0F90120FFF7F0F94DF213
:102C20001530FFF7E9F9BE20FFF7E9F94DF216304C
:102C3000FFF7E2F90220FFF7E2F94DF21730FFF754
:102C4000DBF90B20FFF7DBF94DF21830FFF7D4F971
:102C50000220FFF7D4F94DF21930FFF7CDF94820E3
:102C6000FFF7CDF94DF21A30FFF7C6F90220FFF752
:102C7000C6F94DF21B30FFF7BFF94A20FFF7BFF945
:102C80004DF21C30FFF7B8F90220FFF7B8F94DF20A
:102C90001D30FFF7B1F97E20FFF7B1F94DF21E307C
:102CA000FFF7AAF90220FFF7AAF94DF21F30FFF74C
:102CB000A3F9BC20FFF7A3F94DF22030FFF79CF9F0
:102CC0000220FFF79CF94DF22130FFF795F9E12042
:102CD000FFF795F94DF22230FFF78EF90320FFF749
:102CE0008EF94DF22330FFF787F91020FFF787F9AF
:102CF0004DF22430FFF780F90320FFF780F94DF201
:102D00002530FFF779F93120FFF779F94DF22630B8
:102D1000FFF772F90320FFF772F94DF22730FFF742
:102D20006BF95A20FFF76BF94DF22830FFF764F981
:102D30000320FFF764F94DF22930FFF75DF97320A6
:102D4000FFF75DF94DF22A30FFF756F90320FFF740
:102D500056F94DF22B30FFF74FF99420FFF74FF95A
:102D60004DF22C30FFF748F90320FFF748F94DF2F8
:102D70002D30FFF741F99F20FFF741F94DF22E303A
:102D8000FFF73AF90320FFF73AF94DF22F30FFF73A
:102D900033F9B320FFF733F94DF23030FFF72CF958
:102DA0000320FFF72CF94DF23130FFF725F9B92058
:102DB000FFF725F94DF23230FFF71EF90320FFF738
:102DC0001EF94DF23330FFF717F9C120FFF717F95D
:102DD0004FF45440FFF710F90020FFF710F94DF2BF
:102DE0000140FFF709F93720FFF709F94DF20240DA
:102DF000FFF702F90020FFF702F94DF20340FFF759
:102E0000FBF85220FFF7FBF84DF20440FFF7F4F80F
:102E10000020FFF7F4F84DF20540FFF7EDF87B20B6
:102E2000FFF7EDF84DF20640FFF7E6F80020FFF758
:102E3000E6F84DF20740FFF7DFF89920FFF7DFF8DB
:102E40004DF20840FFF7D8F80020FFF7D8F84DF210
:102E50000940FFF7D1F8B120FFF7D1F84DF20A4051
:102E6000FFF7CAF80020FFF7CAF84DF20B40FFF752
:102E7000C3F8D220FFF7C3F84DF20C40FFF7BCF8BF
:102E80000020FFF7BCF84DF20D40FFF7B5F8F62033
:102E9000FFF7B5F84DF20E40FFF7AEF80120FFF74F
:102EA000AEF84DF20F40FFF7A7F82720FFF7A7F87D
:102EB0004DF21040FFF7A0F80120FFF7A0F84DF207
:102EC0001140FFF799F84E20FFF799F84DF21240A4
:102ED000FFF792F80120FFF792F84DF21340FFF749
:102EE0008BF88C20FFF78BF84DF21440FFF784F835
:102EF0000120FFF784F84DF21540FFF77DF8BE2062
:102F0000FFF77DF84DF21640FFF776F80220FFF745
:102F100076F84DF21740FFF76FF80B20FFF76FF8C8
:102F20004DF21840FFF768F80220FFF768F84DF2FD
:102F30001940FFF761F84820FFF761F84DF21A4099
:102F4000FFF75AF80220FFF75AF84DF21B40FFF73F
:102F500053F84A20FFF753F84DF21C40FFF74CF8A6
:102F60000220FFF74CF84DF21D40FFF745F87E2098
:102F7000FFF745F84DF21E40FFF73EF80220FFF73D
:102F80003EF84DF21F40FFF737F8BC20FFF737F847
:102F90004DF22040FFF730F80220FFF730F84DF2F5
:102FA0002140FFF729F8E120FFF729F84DF22240F0
:102FB000FFF722F80320FFF722F84DF22340FFF736
:102FC0001BF81020FFF71BF84DF22440FFF714F810
:102FD0000320FFF714F84DF22540FFF70DF83120DC
:102FE000FFF70DF84DF22640FFF706F80320FFF734
:102FF00006F84DF22740FEF7FFFF5A20FEF7FFFFCD
:103000004DF22840FEF7F8FF0320FEF7F8FF4DF2DF
:103010002940FEF7F1FF7320FEF7F1FF4DF22A4041
:10302000FEF7EAFF0320FEF7EAFF4DF22B40FEF722
:10303000E3FF9420FEF7E3FF4DF22C40FEF7DCFFA8
:103040000320FEF7DCFF4DF22D40FEF7D5FF9F2059
:10305000FEF7D5FF4DF22E40FEF7CEFF0320FEF720
:10306000CEFF4DF22F40FEF7C7FFB320FEF7C7FF9C
:103070004DF23040FEF7C0FF0320FEF7C0FF4DF2D7
:103080003140FEF7B9FFB920FEF7B9FF4DF23240EB
:10309000FEF7B2FF0320FEF7B2FF4DF23340FEF71A
:1030A000ABFFC120FEF7ABFF4FF45540FEF7A4FF86
:1030B0000020FEF7A4FF4DF20150FEF79DFF3720E0
:1030C000FEF79DFF4DF20250FEF796FF0020FEF73F
:1030D00096FF4DF20350FEF78FFF5220FEF78FFF51
:1030E0004DF20450FEF788FF0020FEF788FF4DF2F6
:1030F0000550FEF781FF7B20FEF781FF4DF2065061
:10310000FEF77AFF0020FEF77AFF4DF20750FEF738
:1031100073FF9920FEF773FF4DF20850FEF76CFF26
:103120000020FEF76CFF4DF20950FEF765FFB1205D
:10313000FEF765FF4DF20A50FEF75EFF0020FEF736
:103140005EFF4DF20B50FEF757FFD220FEF757FF00
:103150004DF20C50FEF750FF0020FEF750FF4DF2ED
:103160000D50FEF749FFF620FEF749FF4DF20E50D5
:10317000FEF742FF0120FEF742FF4DF20F50FEF72F
:103180003BFF2720FEF73BFF4DF21050FEF734FFC8
:103190000120FEF734FF4DF21150FEF72DFF4E20B7
:1031A000FEF72DFF4DF21250FEF726FF0120FEF72D
:1031B00026FF4DF21350FEF71FFF8C20FEF71FFF76
:1031C0004DF21450FEF718FF0120FEF718FF4DF2E4
:1031D0001550FEF711FFBE20FEF711FF4DF21650FD
:1031E000FEF70AFF0220FEF70AFF4DF21750FEF726
:1031F00003FF0B20FEF703FF4DF21850FEF7FCFE15
:103200000220FEF7FCFE4DF21950FEF7F5FE4820B5
:10321000FEF7F5FE4DF21A50FEF7EEFE0220FEF725
:10322000EEFE4DF21B50FEF7E7FE4A20FEF7E7FEEA
:103230004DF21C50FEF7E0FE0220FEF7E0FE4DF2DC
:103240001D50FEF7D9FE7E20FEF7D9FE4DF21E502E
:10325000FEF7D2FE0220FEF7D2FE4DF21F50FEF71F
:10326000CBFEBC20FEF7CBFE4DF22050FEF7C4FE95
:103270000220FEF7C4FE4DF22150FEF7BDFEE12014
:10328000FEF7BDFE4DF22250FEF7B6FE0320FEF71C
:10329000B6FE4DF22350FEF7AFFE1020FEF7AFFE54
:1032A0004DF22450FEF7A8FE0320FEF7A8FE4DF2D3
:1032B0002550FEF7A1FE3120FEF7A1FE4DF226506B
:1032C000FEF79AFE0320FEF79AFE4DF22750FEF716
:1032D00093FE5A20FEF793FE4DF22850FEF78CFE27
:1032E0000320FEF78CFE4DF22950FEF785FE732079
:1032F000FEF785FE4DF22A50FEF77EFE0320FEF714
:103300007EFE4DF22B50FEF777FE9420FEF777FEFF
:103310004DF22C50FEF770FE0320FEF770FE4DF2CA
:103320002D50FEF769FE9F20FEF769FE4DF22E50EC
:10333000FEF762FE0320FEF762FE4DF22F50FEF70D
:103340005BFEB320FEF75BFE4DF23050FEF754FEFD
:103350000320FEF754FE4DF23150FEF74DFEB9202A
:10336000FEF74DFE4DF23250FEF746FE0320FEF70B
:1033700046FE4DF23350FEF73FFEC120FEF73FFE02
:103380004FF45640FEF738FE0020FEF738FE4DF2AF
:103390000160FEF731FE3720FEF731FE4DF202608C
:1033A000FEF72AFE0020FEF72AFE4DF20360FEF72C
:1033B00023FE5220FEF723FE4DF20460FEF71CFEB2
:1033C0000020FEF71CFE4DF20560FEF715FE7B2087
:1033D000FEF715FE4DF20660FEF70EFE0020FEF72A
:1033E0000EFE4DF20760FEF707FE9920FEF707FE7E
:1033F0004DF20860FEF700FE0020FEF700FE4DF2E1
:103400000960FEF7F9FDB120FEF7F9FD4DF20A6003
:10341000FEF7F2FD0020FEF7F2FD4DF20B60FEF725
:10342000EBFDD220FEF7EBFD4DF20C60FEF7E4FD64
:103430000020FEF7E4FD4DF20D60FEF7DDFDF62005
:10344000FEF7DDFD4DF20E60FEF7D6FD0120FEF722
:10345000D6FD4DF20F60FEF7CFFD2720FEF7CFFD22
:103460004DF21060FEF7C8FD0120FEF7C8FD4DF2D9
:103470001160FEF7C1FD4E20FEF7C1FD4DF2126056
:10348000FEF7BAFD0120FEF7BAFD4DF21360FEF71C
:10349000B3FD8C20FEF7B3FD4DF21460FEF7ACFDDA
:1034A0000120FEF7ACFD4DF21560FEF7A5FDBE2034
:1034B000FEF7A5FD4DF21660FEF79EFD0220FEF719
:1034C0009EFD4DF21760FEF797FD0B20FEF797FD6E
:1034D0004DF21860FEF790FD0220FEF790FD4DF2D0
:1034E0001960FEF789FD4820FEF789FD4DF21A604C
:1034F000FEF782FD0220FEF782FD4DF21B60FEF713
:103500007BFD4A20FEF77BFD4DF21C60FEF774FD4B
:103510000220FEF774FD4DF21D60FEF76DFD7E206A
:10352000FEF76DFD4DF21E60FEF766FD0220FEF710
:1035300066FD4DF21F60FEF75FFDBC20FEF75FFDEC
:103540004DF22060FEF758FD0220FEF758FD4DF2C7
:103550002160FEF751FDE120FEF751FD4DF22260A2
:10356000FEF74AFD0320FEF74AFD4DF22360FEF709
:1035700043FD1020FEF743FD4DF22460FEF73CFDB5
:103580000320FEF73CFD4DF22560FEF735FD3120AE
:10359000FEF735FD4DF22660FEF72EFD0320FEF707
:1035A0002EFD4DF22760FEF727FD5A20FEF727FD7E
:1035B0004DF22860FEF720FD0320FEF720FD4DF2BE
:1035C0002960FEF719FD7320FEF719FD4DF22A6000
:1035D000FEF712FD0320FEF712FD4DF22B60FEF701
:1035E0000BFD9420FEF70BFD4DF22C60FEF704FD61
:1035F0000320FEF704FD4DF22D60FEF7FDFC9F2039
:10360000FEF7FDFC4DF22E60FEF7F6FC0320FEF700
:10361000F6FC4DF22F60FEF7EFFCB320FEF7EFFC57
:103620004DF23060FEF7E8FC0320FEF7E8FC4DF2B7
:103630003160FEF7E1FCB920FEF7E1FC4DF23260AB
:10364000FEF7DAFC0320FEF7DAFC4DF23360FEF7FA
:10365000D3FCC120FEF7D3FC4FF47040FEF7CCFC46
:103660005520FEF7CCFC4FF20100FEF7C5FCAA2066
:10367000FEF7C5FC4FF20200FEF7BEFC5220FEF73B
:10368000BEFC4FF20300FEF7B7FC0820FEF7B7FCC4
:103690004FF20400FEF7B0FC0020FEF7B0FC4FF440
:1036A0003040FEF7A9FC0820FEF7A9FC4BF2010010
:1036B000FEF7A2FC0520FEF7A2FC4BF20200FEF78B
:1036C0009BFC0220FEF79BFC4BF20300FEF794FCF0
:1036D0000520FEF794FC4BF20400FEF78DFC02205F
:1036E000FEF78DFC4FF43640FEF786FC0820FEF70F
:1036F00086FC4FF43540FEF77FFC5020FEF77FFC40
:103700004FF43740FEF778FC0020FEF778FC4BF2D0
:103710000170FEF771FC0020FEF771FC4FF4384099
:10372000FEF76AFC0120FEF76AFC4BF60100FEF78B
:1037300063FC0520FEF763FC4BF60200FEF75CFC21
:103740000520FEF75CFC4BF60300FEF755FC052058
:10375000FEF755FC4FF43C40FEF74EFC0020FEF710
:103760004EFC4BF60140FEF747FC0020FEF747FCFD
:103770004BF60240FEF740FC0020FEF740FC4FF401
:103780004C40FEF739FC0320FEF739FC4CF60140B3
:10379000FEF732FC0020FEF732FC4CF60240FEF74A
:1037A0002BFC0020FEF72BFC4FF43D40FEF724FCE1
:1037B0000120FEF724FC4BF60150FEF71DFC84208F
:1037C000FEF71DFC4BF60250FEF716FC0720FEF735
:1037D00016FC4BF60350FEF70FFC3120FEF70FFCF2
:1037E0004BF60450FEF708FC0020FEF708FC4FF4EF
:1037F0003A40FEF701FC0120FEF701FC4FF47F4048
:10380000FEF7FAFBAA20FEF7FAFB4FF60170FEF76F
:10381000F3FB5520FEF7F3FB4FF60270FEF7ECFBCF
:103820002520FEF7ECFB4FF60370FEF7E5FB0120C9
:10383000FEF7E5FB4FF45450FEF7DEFB0020FEF7E9
:10384000DEFB4FF45850FEF7D7FB0020FEF7D7FB06
:103850004FF46850FEF7D0FB5520FEF7D0FB4FF435
:103860008850FEF7C9FB782002F075F94FF4245018
:10387000FEF7C2FB4FF43050FEF7BEFB0020FEF710
:10388000DEFC4FF6FF70FEF72EFC10BD10B501F008
:10389000BBF810BD70B50446002601F0CCF82546F3
:1038A000E11704EB11610912A02202EB4101C8B239
:1038B00001F073F901F000F9E11704EB116109124D
:1038C000A4EB0121C8B201F068F901F0F5F801F0AC
:1038D000B2F8A12001F061F901F0EEF8002001F04A
:1038E0008AF9064601F0C7F8304670BD70B5044647
:1038F0000E4601F0A0F82546E11704EB116109120C
:10390000A02202EB4101C8B201F047F901F0D4F85E
:10391000E11704EB11610912A4EB0121C8B201F017
:103920003CF901F0C9F8304601F037F901F0C4F86C
:1039300001F0A1F80A2002F00EF970BD2DE9F04166
:1039400005460E461746002409E0E20026FA02F278
:10395000D1B22A1990B2FFF7C9FF601CC4B2BC42B1
:10396000F3DBBDE8F0812DE9F04107460C46002667
:10397000002509E036023919491B491E88B2FFF7B4
:1039800089FF0644681CC5B2A542F3DB3046BDE89A
:10399000F08110B5FF20FFF77DFF0446552C01D1C3
:1039A000002010BD5521FF20FFF7A0FFFF20FFF7EB
:1039B00071FF0446552C01D10020F2E70120F0E709
:1039C00070B506460C46154608E03046721C96B2A5
:1039D000FFF760FF04F8010B681E85B2002DF4D1DB
:1039E00070BD70B505460C46164606E0217828469F
:1039F000FFF77CFF681C85B2641C301EA6F1010134
:103A00008EB2F3D170BD0000002100BF14E000F0C1
:103A100080021AB10122FE4B1A6002E00022FC4B28
:103A20001A604206100E0022FA4B1A600122FA4B6D
:103A3000C3F884214A1CD1B20829E8DB704770B56D
:103A40000646002500240020F2490860F349C1F829
:103A5000A401EF49083108603046FFF7D5FF062082
:103A600002F055F80020EC49C1F88401012002F071
:103A70004EF80120E74908600020E749C1F88401B9
:103A800000BF12E04FF6FF7000EA44040020E14955
:103A900008600120E049C1F88401DE487C380068F4
:103AA00008B1601C84B2681CC5B2102DEADB241179
:103AB0000120D74908310860204670BD2DE9FE433A
:103AC00080460027002406E04046FFF7B8FF2DF8A7
:103AD0001400601C84B2052CF6DB002416E0601C88
:103AE00085B20FE03DF814003DF81510884207DD5F
:103AF0003DF814603DF815002DF814002DF8156000
:103B0000681C85B2052DEDDB601C84B2042CE6DB5D
:103B10000027012405E03DF81400384487B2601CFA
:103B200084B2042CF7DB032097FBF0F086B230461A
:103B3000BDE8FE832DE9F04104460D46B848007803
:103B4000FFF7BCFF0646B7480078FFF7B7FF074608
:103B500026802F800120BDE8F0817FB504460D4608
:103B600002A903A8FFF7E6FF064616B9002004B035
:103B700070BD694601A8FFF7DDFF06460EB90020BB
:103B8000F5E7BDF80400BDF80C10884206DCBDF86E
:103B90000C10BDF80400323081420CDBBDF80C0083
:103BA000BDF80410884236DCBDF80410BDF80C00E6
:103BB000323081422FDABDF80000BDF8081088428B
:103BC00006DCBDF80810BDF80000323081420CDB85
:103BD000BDF80800BDF8001088421CDCBDF80010DC
:103BE000BDF808003230814215DABDF80C10BDF87E
:103BF0000420881800EBD071C1F34F012180BDF87B
:103C00000810BDF80020881800EBD071C1F34F01F7
:103C100029800120ABE70020A9E7F8B504460D464E
:103C200016468148068004F10D018AB2193988B21E
:103C30002B462946FCF729FB05F10D0083B2193804
:103C400081B222462046FCF720FB6A1C91B2621C1E
:103C500090B2FEF73CFA6A1C91B2621E90B2FEF777
:103C600036FA6A1E91B2621C90B2FEF730FA6A1EF2
:103C700091B2621E90B2FEF72AFA0020062300904D
:103C80006948028829462046FCF7C8FBF8BD70B594
:103C900004460D4616466448068029462046FEF72F
:103CA00016FA611C88B22946FEF711FA681C81B227
:103CB0002046FEF70CFA6A1C91B2621C90B2FEF725
:103CC00006FA70BD2DE9F041044651487C38006881
:103CD000002853D124B15549881EFFF73EFF3CE030
:103CE0005249881EFFF739FFB8B350491239B1F96C
:103CF000200002F091FB07464C491239088A02F075
:103D0000A3FB8046494812388169404602F0B0FB67
:103D10000646394602F020FA054602F05DFB4349AB
:103D200012390882B1F9220002F076FB07463F49BA
:103D30001239488A02F088FB80463C481238C16933
:103D4000404602F095FB0646394602F005FA054664
:103D500002F042FB35491239488234481238007D5E
:103D600000F0800010BBC0203049123908750846A9
:103D7000008A88810846408AC88117E02B4812389B
:103D8000007D00F0800040B128481238007D20F00E
:103D9000800026491239087508E0002023491239AD
:103DA0008881C8814FF6FF70088248821F48123808
:103DB000007D00F08000BDE8F08170B51B4912392C
:103DC00088691B4902F054FB054602F0E9FA0446F3
:103DD000042221462820FFF7B1FD14491239C86991
:103DE000134902F045FB054602F0DAFA04460422C4
:103DF00021462C20FFF7A2FD0C481238B0F9201004
:103E000002223020FFF79AFD0848123812E0000025
:103E1000A4812342848121420080214200802342E8
:103E20005C0000205D0000202E00002046000020E5
:103E300020BCBE4CB0F9221002223220FFF77EFDDA
:103E4000F74890F824103420FFF750FD0A2421464B
:103E50003520FFF74BFD70BD70B53520FFF71AFD1B
:103E600004460A2C42D104212820FFF77CFD044699
:103E7000204602F0D1FA0546EA4902F0CFF9E849B6
:103E8000886104212C20FFF76EFD0446204602F0D5
:103E9000C3FA0546E34902F0C1F9E149C8610221CC
:103EA0003020FFF760FD00B2DD4908840221322096
:103EB000FFF759FD00B2DA4948843420FFF7EAFCE5
:103EC000D74981F82400084690F8240030B19020AA
:103ED000D5490870D020D549087005E0D020D249D6
:103EE00008709020D1490870012070BD0020FCE7C7
:103EF0002DE9F84F04460D4617461E46DDE90CAB8A
:103F0000DDE90A894FF47840C94908800120C9A336
:103F100010228C2100902820FCF786FC0120C6A3EB
:103F200010228C2100907820FCF77EFC0120C3A396
:103F30001022A02100902820FCF776FC0120C0A3CD
:103F40001022A02100907820FCF76EFC0120BDA378
:103F50001022B42100902820FCF766FC0120BAA3AF
:103F60001022B42100907820FCF75EFC0120B7A35A
:103F70001022C82100902820FCF756FC0120B4A391
:103F80001022C82100907820FCF74EFC0120B1A33C
:103F90001022DC2100902820FCF746FC102004238E
:103FA00022468C2100904020FCF778FC102004234E
:103FB0002A468C2100909020FCF770FC10200423EE
:103FC0003A46A02100904020FCF768FC1020042312
:103FD0003246A02100909020FCF760FC10200423C2
:103FE0004246B42100904020FCF758FC10200423E6
:103FF0004A46B42100909020FCF750FC1020042386
:104000005246C82100904020FCF748FC10200423B1
:104010005A46C82100909020FCF740FC1020032352
:104020000090DC2160200E9AFCF738FCBDE8F88F88
:1040300000B595B0002010900A9010901F207C4988
:1040400008804FF6FF7085490880FEF74CF84FF462
:104050007840774908804FF6FF70FEF744F800205B
:104060007349088001207EA31022282100900A2095
:10407000FCF7DAFB012081A31022382100900A20EE
:10408000FCF7D2FB012084A31022482100900A20D3
:10409000FCF7CAFB012087A31022582100900A20B8
:1040A000FCF7C2FB01208AA31022682100900A209D
:1040B000FCF7BAFB4FF4784214210846FFF7ADFD38
:1040C000002057490875886153E2554840680990B7
:1040D0000120099988475248007D00F0C00040281F
:1040E0007AD100200A904E48007D20F040004C49D3
:1040F00008750846018A11AA109822F8201048482D
:10410000418A109802EB800041801098401CC0B298
:1041100010901098012806D0022815D0032829D025
:10412000042810D141E04FF6FF7214210846FFF732
:1041300074FD6B480088143880B24FF47842142123
:104140000990FFF76AFDC7E365480088143880B21C
:104150004FF6FF7214210990FFF75FFD6048408819
:10416000143880B24FF47842014609901420FFF7CA
:1041700054FDB1E35A484088143880B24FF6FF72BC
:10418000014609901420FFF748FD5548408814382F
:1041900080B2099052480088143880B24FF47842B7
:1041A00008900999FFF739FD96E3BDF84400BDF882
:1041B0004810401A0990002801DB099801E009988D
:1041C00040420D90BDF8461011A8C088081A099009
:1041D000002802DB099802E07FE3099840420C9036
:1041E0000D9840430D900C9840430C90DDE90C1065
:1041F0000844059001F0C5FDCDE9060101F062FD1E
:10420000CDE9080101F090FD80B20F90BDF84C009F
:10421000BDF85010401A0990002863DB099863E04C
:104220003400002020BCBE4C5C0000205D0000205B
:104230002E00002078313A0079313A0078323A0085
:1042400079323A0078333A0079333A0078343A00D8
:1042500079343A006661632069733A0030000020C7
:10426000506C656173652075736520746865207393
:1042700074796C757320636C69636B007468652076
:1042800063726F7373206F6E20746865207363723E
:1042900065656E2E000000005468652063726F73C0
:1042A000732077696C6C20616C77617973206D6F16
:1042B00076650000756E74696C20746865207363A0
:1042C0007265656E2061646A7573746D656E7400E5
:1042D000697320636F6D706C657465642E000000F7
:1042E0007C000020099840420D9011A84189C089A6
:1042F000081A0990002801DB099801E0099840425A
:104300000C900D9840430D900C9840430C90DDE9C3
:104310000C100844059001F034FDCDE9060101F0D0
:10432000D1FCCDE9080101F0FFFC80B20E900E989F
:1043300002F08AF809900F9802F086F8089009991F
:1043400001F06CFF0B900B9801F0DAFE4FF0663233
:10435000FE4BCDE9080101F027FD0DD30B9801F0CC
:10436000CFFEFB4AFB4BCDE9080101F0ADFD03D3C5
:104370000F9808B10E98E8BB00201090F6484088CE
:10438000143880B20990F4480088143880B24FF68F
:10439000FF7208900999FFF740FC4FF4784214210E
:1043A0000846FFF73AFCED490B9802F061F80890D7
:1043B00002F012F880B211A90990C989BDF8502005
:1043C00011AB5B89CDE90132CDE90310BDF84C009A
:1043D000009011A8C0880890BDF848000790BDF86B
:1043E00046000690BDF84400059006A90EC9FFF7E7
:1043F0007FFD81E2FFE7BDF84400BDF84C10401A94
:104400000990002801DB099801E0099840420D90CD
:10441000BDF8461011A84089081A0990002801DB50
:10442000099801E0099840420C900D9840430D9086
:104430000C9840430C90DDE90C100844059001F005
:10444000A0FCCDE9060101F03DFCCDE9080101F039
:104450006BFC80B20F90BDF84800BDF85010401AB8
:104460000990002801DB099801E0099840420D906D
:1044700011A8C188C089081A0990002801DB099891
:1044800001E0099840420C900D9840430D900C9823
:1044900040430C90DDE90C100844059001F071FCDC
:1044A000CDE9060101F00EFCCDE9080101F03CFC6C
:1044B00080B20E900E9801F0C7FF09900F9801F09E
:1044C000C3FF0890099901F0A9FE0B900B9801F029
:1044D00017FE4FF066329D4BCDE9080101F064FCF8
:1044E00009D30B9801F00CFE994A9A4BCDE90801CB
:1044F00001F0EAFC3ED20020109097484088143822
:1045000080B2099094480088143880B24FF6FF7248
:1045100008900999FFF781FB4FF47842142108466F
:10452000FFF77BFB8D490B9801F0A2FF089001F08B
:1045300053FF80B20146099011A8C089BDF85020F0
:1045400011AB5B89CDE90132CDE90301BDF84C0027
:10455000009011A8C0880890BDF848000790BDF8E9
:1045600046000690BDF84400059006A90EC9FFF765
:10457000BFFCC1E1BDF84800BDF84C10401A0990DD
:10458000002801DB099801E0099840420D9011A82C
:10459000C1884089081A0990002801DB099801E0C8
:1045A000099840420C900D9840430D900C98404360
:1045B0000C90DDE90C100844059001F0E2FBCDE918
:1045C000060101F07FFBCDE9080101F0ADFB80B2EF
:1045D0000F90BDF84400BDF85010401A0990002813
:1045E00001DB099801E0099840420D90BDF84610A2
:1045F00011A8C089081A0990002801DB099801E078
:10460000099840420C900D9840430D900C984043FF
:104610000C90DDE90C100844059001F0B2FBCDE9E7
:10462000060101F04FFBCDE9080101F07DFB80B2EE
:104630000E900E9801F008FF09900F9801F004FF0A
:104640000890099901F0EAFD0B900B9801F058FDD4
:104650004FF066323D4BCDE9080101F0A5FB09D3CF
:104660000B9801F04DFD3A4A3A4BCDE9080101F0B3
:104670002BFC3ED20020109037484088143880B27E
:10468000099035480088143880B24FF6FF720890C0
:104690000999FFF7C2FA4FF4784214210846FFF750
:1046A000BCFA2E490B9801F0E3FE089001F094FE4D
:1046B00080B20246099011A8C189BDF8500011AB23
:1046C0005B89CDE90130CDE90312BDF84C000090C3
:1046D00011A8C0880890BDF848000790BDF84600B2
:1046E0000690BDF84400059006A90EC9FFF700FC2E
:1046F00002E1BDF84800BDF84410401A079001F0EF
:104700008BFE0990144800882838079001F084FE39
:104710000890099901F082FD11498861BDF84800AF
:10472000BDF844100844049001F076FE05900C4852
:10473000806901460490059801F09AFE07900648AA
:104740000088059001F080FE06900BE06666EE3F63
:10475000CDCCCCCCCCCCF03F7C0000200000C842BB
:1047600034000020079901F04FFF4FF0804108907E
:1047700001F054FD099001F013FE00B29049088445
:1047800011A84089BDF84610401A079001F044FE78
:1047900009908C4840882838079001F03DFE089029
:1047A000099901F03BFD8649C86111A84089BDF80F
:1047B00046100844049001F02FFE05908048C0691F
:1047C00001460490059801F053FE07907D4840880B
:1047D000059001F039FE0690079901F015FF4FF0A2
:1047E0008041089001F01AFD099001F0D9FD00B256
:1047F0007349488408468069079001F0D1FD08900C
:10480000002801DB089801E00898404202280DDCEE
:104810006B48C069079001F0C3FD0990002801DBD7
:10482000099801E00998404202283ADD00201090E2
:1048300064484088143880B209906248008814386F
:1048400080B24FF6FF7208900999FFF7E6F94FF42E
:10485000784214210846FFF7E0F901205AA31022FC
:104860001A2100902820FBF7DFFF554890F824001C
:1048700008B9012000E00020514981F824000846D1
:1048800090F8240030B1902054490870D020544949
:10489000087005E0D02051490870902050490870F8
:1048A0002AE01F204F4908804FF6FF70FDF71BFCE0
:1048B00001204DA310226E2100902320FBF7B4FFAE
:1048C0004FF47A7001F047F9FFF777FA4FF6FF706F
:1048D000FDF709FC15B000BD00BF0A2001F03BF94F
:1048E0000A98401C80B20A900A98B0F57A7F02DDDF
:1048F000FFF7B2FA02E000BFFFF7E7BB00BF00BF5F
:10490000E8E708B50121882000F07EFD0220ADF81F
:10491000000010208DF8030003208DF80200694686
:10492000374800F0B5FA0221354800F05EFB04205C
:10493000ADF8000048208DF803006946304800F0CB
:10494000A7FA04212E4800F050FB4FF42060ADF888
:10495000000010208DF8030003208DF80200694646
:10496000284800F095FA4FF42061264800F03DFBFE
:104970004FF48060ADF8000048208DF803006946D0
:10498000204800F085FA4FF480611E4800F02DFBAE
:104990000B491231881EFFF7CDF8FEF777FFFFF7BE
:1049A0005BFA08B1002008BD4FF6FF70FDF79BFBD6
:1049B000FFF73EFBFFF701FAFFF74EFA0120F2E79F
:1049C000340000207C0000205450204E6565642097
:1049D000726561646A757374210000005C000020D8
:1049E0005D0000202E000020546F75636820536323
:1049F0007265656E2041646A757374204F4B2100A7
:104A0000000C0140001C014008B50121082000F005
:104A1000FBFCC020ADF8000010208DF8030003203F
:104A20008DF8020069468D4800F032FAC0218B48AB
:104A300000F0DBFA08BD10B58848006820F070402F
:104A4000864908600846006840F040500860012030
:104A5000834908608349C1F89801042001F057F8A0
:104A600000207F490860042001F051F800207D49B2
:104A7000C1F8980110BD10B57848006820F070406A
:104A8000764908600846006840F040500860002001
:104A90007349091F08607349C1F89C01042001F0A3
:104AA00036F801206E49091F08606E49C1F89C0163
:104AB000042001F02CF810BD10B5002467480068F0
:104AC00020F07040654908600846006840F00040EA
:104AD000086001206249086001F019F8012061496D
:104AE000C1F8980101F013F807E0601CC4B2FA2C79
:104AF00003DDFFF7C0FF012010BD59488038006872
:104B00000028F2D15649091F086000BFF4E710B52C
:104B100000205349091F08605048006820F0704089
:104B20004E4908600846006840F040500860002088
:104B30004C49C1F89C01022000F0E9FF01204849DE
:104B4000091F0860022000F0E2FF00204549C1F87B
:104B5000980110BD10B500204149091F08603F4869
:104B6000006820F070403D4908600846006840F049
:104B70004050086001203B49C1F89C01022000F030
:104B8000C6FF01203649091F0860022000F0BFFF60
:104B900000203449C1F8980110BD70B504462F4873
:104BA000006820F070402D4908600846006840F019
:104BB0004050086000202A49091F0860002517E0BE
:104BC000E009274908606006040E022000F09FFFFC
:104BD00001202449C1F89801022000F098FF00202C
:104BE0001F49091F0860022000F091FF681CC5B230
:104BF000082DE5DB70BD70B5054600241748006838
:104C000020F07040154908600846006840F00040F8
:104C10000860002617E000201149091F08600220E3
:104C200000F075FF01200F49C1F898016006040EDD
:104C30000B488038006808B1601CC4B2012000F045
:104C400066FF701CC6B2082EE5DB15B9FFF782FFC0
:104C500001E0FFF75CFF204670BD0000000C014042
:104C60009C8121420080214208B50121482000F0AA
:104C7000CBFB2020ADF8000010208DF803000320AE
:104C80008DF802006946094800F002F92021074822
:104C900000F0ABF92020ADF800006946044800F0B0
:104CA000F7F82021024800F0A0F908BD000C0140EF
:104CB000001801400948804709480047FEE7FEE721
:104CC000FEE7FEE7FEE7FEE7FEE7FEE7FEE7FEE7BC
:104CD00004480549054A064B70470000570F000875
:104CE00031010008D0010020D0070020D0030020AF
:104CF000D003002031490143314A1160704770B53B
:104D0000002100230F22C47804B32D4C246804F43E
:104D1000E064C4F5E064210AC1F10403CA404478A8
:104D200004FA03F18478144021430901254C0678E4
:104D3000A155047804F01F050124AC4005786D11DD
:104D4000AD0005F1E025C5F8004109E0047804F064
:104D50001F050124AC401C4D0678761145F826400D
:104D600070BD1A4A0A400243154B1B1F1A60704758
:104D700039B1134A121D12680243114B1B1D1A60F0
:104D800006E00F4A121D126882430D4B1B1D1A606C
:104D90007047042808D14FF0E021096941F004016F
:104DA0004FF0E022116107E04FF0E021096921F0A6
:104DB00004014FF0E0221161704700000000FA0585
:104DC0000CED00E000E400E080E100E080FFFF1F68
:104DD00010B50446CC48844208D10121042000F0DB
:104DE0002DFB0021042000F029FB46E0C748844247
:104DF00008D10121082000F021FB0021082000F04B
:104E00001DFB3AE0C248844208D10121102000F085
:104E100015FB0021102000F011FB2EE0BD4884425C
:104E200008D10121202000F009FB0021202000F002
:104E300005FB22E0B848844208D10121402000F05F
:104E4000FDFA0021402000F0F9FA16E0B348844250
:104E500008D10121802000F0F1FA0021802000F02B
:104E6000EDFA0AE0AE48844207D10121801500F036
:104E7000E5FA0021A01500F0E1FA10BD10B50121FE
:104E8000084600F0DBFA0021012000F0D7FA10BD3F
:104E90002DE9F041024600250026002000230024D1
:104EA000002791F803C00CF00F0591F803C00CF037
:104EB000100CBCF1000F03D091F802C04CEA0505BC
:104EC00091F800C0BCF1000F31D0146800202BE035
:104ED0004FF0010C0CFA00F3B1F800C00CEA030625
:104EE0009E4220D183004FF00F0C0CFA03F7BC4315
:104EF00005FA03FC4CEA040491F803C0BCF1280F46
:104F000006D14FF0010C0CFA00FCC2F814C00AE004
:104F100091F803C0BCF1480F05D14FF0010C0CFA19
:104F200000FCC2F810C0401C0828D1D31460B1F8AE
:104F300000C0BCF1FF0F34DD546800202EE000F10A
:104F4000080C4FF0010808FA0CF3B1F800C00CEAA5
:104F500003069E4221D183004FF00F0C0CFA03F799
:104F6000BC4305FA03FC4CEA040491F803C0BCF10D
:104F7000280F05D100F1080C08FA0CF8C2F81480CB
:104F800091F803C0BCF1480F07D100F1080C4FF0B5
:104F9000010808FA0CF8C2F81080401C0828CED38B
:104FA0005460BDE8F0814FF6FF71018002218170ED
:104FB0000421C17070470246002093680B400BB17A
:104FC000012000E0002070470146886880B27047E9
:104FD00002460020D3680B400BB1012000E0002006
:104FE00070470146C86880B27047016170474161EF
:104FF00070470AB1016100E041617047C1607047CC
:105000004FF480320A4382618161826182698269E0
:10501000704702460020434B18684FF680731840D3
:1050200040EA021008433F4B186070473E49C86190
:105030007047F0B50A46002300240021002500F047
:105040000046B6F1004F02D1364EF16901E0354E0F
:105050007168C0F3034583B200F44016B6F5401FF3
:1050600008D121F070612F4E766826F070662D4FC2
:105070007E6012E000F48016B6F5801F06D103268C
:1050800006FA05F4A14341F0706106E0460D3601D1
:1050900003FA06F6B14341F0706122B1460D3601C4
:1050A00003FA06F6314300F00046B6F1004F02D194
:1050B0001C4EF16101E01B4E7160F0BD30B5002265
:1050C0008B071C0F0F2303FA04F2164B08338C10C6
:1050D00053F824309343134C08348D1044F8253092
:1050E00023468C1053F824308C07240F00FA04F464
:1050F00023430C4C08348D1044F8253030BD0A4948
:10510000DC3108607047000000080140000C0140DD
:10511000001001400014014000180140001C014033
:10512000002001400000014000002042DF480068EC
:1051300040F00100DD49086008464068DC4908404D
:10514000DA49486008460068DA490840D7490860EB
:105150000846006820F4802008600846406820F473
:10516000FE0048604FF41F0088607047CF4909680F
:1051700021F48031CD4A11601146096821F4802163
:105180001160B0F5803F03D0B0F5802F0ED106E05E
:10519000C649096841F48031C44A116007E0C34937
:1051A000096841F4A021C14A116000E000BF00BFBE
:1051B000704710B501460022002300204A11012A41
:1051C00002D1BA4C236806E0022A02D1B74C236A06
:1051D00001E0B64C636A01F01F02012494401C40B8
:1051E0000CB1012000E0002010BD38B50020009077
:1051F0000024002500BF3120FFF7DBFF05460098A3
:10520000401C00900098B0F5A06F01D0002DF2D0A6
:105210003120FFF7CEFF08B1012400E00024204632
:1052200038BD01460020A14A106820F0F80040EA8D
:10523000C10010607047A049086070470246002016
:105240009A4B586820F47C1042EA01031843974BAC
:105250005860704798490866704701460020934A95
:10526000506820F003000843506070478F48406842
:1052700000F00C007047014600208C4A506820F076
:10528000F00008435060704701460020874A50688C
:1052900020F4E06008435060704701460020834AD4
:1052A000506820F4605040EAC1005060704729B156
:1052B0007E4A527A02437D4B5A7204E07B4A527A0C
:1052C00082437A4B5A7270477B49D83108607047E5
:1052D00001460020754A506820F440400843506061
:1052E00070470021714A20321170704A82F82010F4
:1052F000012802D004280AD104E001216B4A20329F
:10530000117005E00521694A2032117000E000BFEC
:1053100000BF70476949086070476449096A0143E2
:10532000624A11627047654944390860704730B578
:1053300000210022002400235C4D6D6805F00C0163
:1053400021B1042905D0082923D105E05C4D056071
:1053500022E05B4D05601FE0544D6D6805F470124E
:10536000524D6D6805F48034022505EB92421CB95C
:10537000544D554305600BE04C4D6D6805F4003508
:105380001DB1504D5543056002E04D4D554305603C
:1053900002E04B4D056000BF00BF444D6D6805F055
:1053A000F0010909484D6B5C0568DD4045603F4DE3
:1053B0006D6805F4E061090A434D6B5C4568DD40AA
:1053C00085603A4D6D6805F46051C90A3E4D6B5CCD
:1053D0004568DD40C560354D6D6805F44041890B79
:1053E0003A4D6B5CC568B5FBF3F5056130BD29B17D
:1053F0002E4A526902432D4B5A6104E02B4A5269EE
:1054000082432A4B5A61704729B1284A9269024364
:10541000264B9A6104E0254A92698243234B9A61A4
:10542000704729B1214AD2690243204BDA6104E076
:105430001E4AD26982431D4BDA61704729B11B4A6B
:10544000D2680243194BDA6004E0184AD2688243FA
:10545000164BDA60704729B1144A12690243134BA4
:105460001A6104E0114A12698243104B1A617047B5
:1054700012494039086070470F49C86470470B49AA
:10548000C87170470948406A40F080700749486217
:10549000704701460020054A92680A400AB101207F
:1054A00000E00020704701498872704700100240F8
:1054B0000000FFF8FFFFF6FE000042428004424277
:1054C00000127A0000093D006400002074000020F2
:1054D00030B943F2DB028100A1F1C0410A6005E06E
:1054E00043F2D2028100A1F1C0410A606FF0704224
:1054F000411C8900A1F1C0410A608100A1F1C041B5
:10550000C1F80421704710280AD118214FF0204219
:105510001166402151664FF0FC319166D16610E072
:105520001821F74A116040214FF02042C2F8841040
:105530004FF0FC31F24A083211604FF02042C2F8BD
:105540008C1070471820EE492031086000200906B1
:10555000C1F8A4004FF0FC30E94928310860091D6A
:105560000860091D08607047D0E901121143C26844
:105570001143026911434269114382691143C269AF
:105580001143026A1143426A1143826A1143C26A9B
:105590001143026B114302689200A2F1C0421160F4
:1055A000816808290BD101688900A1F1C04109680F
:1055B00041F0400201688900A1F1C0410A60416BDD
:1055C0000968426B526841EA0211426B926841EAF3
:1055D0000221426B928941EA0241426B128A41EAFE
:1055E0000251426B127D41EA0261426B92691143A2
:1055F0000268521C9200A2F1C0421160C16AB1F56A
:10560000804F1BD1816B0968826B526841EA02119D
:10561000826B926841EA0221826B128A41EA02514E
:10562000826B127D41EA0261826B926911430268CA
:105630009200A2F1C042C2F8041107E06FF070427C
:1056400001688900A1F1C041C1F80421704730B55B
:10565000002100220023446844F0080485682C439C
:10566000C5682C4305692C43456944EA452485698E
:1056700044EA4531C4692468C5696D6844EA052473
:10568000C5692D8944EA0544C5692D7B44EA056254
:10569000046A2468056A6D6844EA0524056A2D8950
:1056A00044EA0544056A2D7B44EA05630468102C2E
:1056B00005D14FF020442166A266E36608E0904CD5
:1056C00021604FF02044C4F888208D4C0C342360B6
:1056D00030BD016841F01001426841EA4221826810
:1056E00041EA4231864A20321160C1680968C268C5
:1056F000526841EA0221C268128941EA0241C26845
:10570000127B41EA02617E4A283211600169096810
:105710000269526841EA02210269128941EA0241A2
:105720000269127B41EA0261754A2C3211604169BB
:1057300009684269526841EA02214269128941EAD4
:1057400002414269127B41EA02614FF02042C2F8F5
:10575000B01070470021016002214160002181608A
:10576000C160016141618161C16101624FF4805199
:105770004162490081620021C16201630F21426BD5
:105780001160426B5160FF21426B91600F21426BAF
:10579000D160426B1161426B51610021426B91619A
:1057A0000F21826B1160826B5160FF21826B9160CF
:1057B0000F21826BD160826B1161826B516100217C
:1057C000826B91617047102101600021416081600E
:1057D000C160016141618161FC21C2691160C269DE
:1057E0005160C2699160C269D160026A1160026A47
:1057F0005160026A9160026AD160704700210160C5
:1058000041608160FC21C2681160C2685160C26859
:105810009160C268D16002691160026951600269D9
:1058200091600269D16042691160426951604269C8
:1058300091604269D160704751B18200A2F1C042CB
:10584000126842F001038200A2F1C042136009E035
:105850008200A2F1C04212682A4B1A408300A3F1D1
:10586000C0431A60704799B1102808D14FF0204208
:10587000126E42F004024FF020431A661DE0204AE7
:10588000126842F004024FF02043C3F8802014E075
:10589000102809D14FF02042126E1A4BDB1E1A401D
:1058A0004FF020431A6608E0154A1268154BDB1EBC
:1058B0001A404FF02043C3F88020704748B1104988
:1058C0002031096841F004014FF02042C2F8A010D5
:1058D00009E00B49203109680A4AD21E11404FF0F5
:1058E0002042C2F8A0107047B9B110280CD14FF077
:1058F0002042126E42F040024FF020431A661FE031
:10590000800000A0FEFF0F00724A126842F04002C1
:105910004FF02043C3F8802012E0102808D14FF048
:105920002042126E6C4B1A404FF020431A6607E07B
:10593000684A1268684B1A404FF02043C3F8802031
:10594000704701460020102903D14FF02042506FCC
:1059500002E0604A14321068704710B5F2B11028A6
:1059600007D14FF020435B6E0B434FF0204463663A
:1059700032E0B0F5807F08D1564B1B1D1B680B43EE
:105980004FF02044C4F8843026E0524B24331B6887
:105990000B434FF02044C4F8A4301DE0102807D179
:1059A0004FF020435B6E8B434FF02044636613E05F
:1059B000B0F5807F08D1474B1B1D1B688B434FF010
:1059C0002044C4F8843007E0424B24331B688B43E7
:1059D0004FF02044C4F8A43010BD10B5024600209A
:1059E0000023102A03D14FF02044636E09E0B2F582
:1059F000807F03D1374C241D236802E0354C2434CA
:105A0000236803EA01040CB1012000E0002010BD6E
:105A1000102807D14FF02042526E8A434FF02043A6
:105A20005A6613E0B0F5807F08D12A4A121D126829
:105A30008A434FF02043C3F8842007E0254A2432EC
:105A400012688A434FF02043C3F8A420704770B512
:105A500002460020002300240025102A03D14FF025
:105A60002046736E09E0B2F5807F03D1194E361DD2
:105A7000336802E0174E2436336803EA010403EA70
:105A8000D10514B10DB1012000E0002070BD102837
:105A900008D14FF02042526E22EAD1024FF020434B
:105AA0005A6615E0B0F5807F09D10A4A121D1268C6
:105AB00022EAD1024FF02043C3F8842008E0054ACF
:105AC0002432126822EAD1024FF02043C3F8A42006
:105AD00070470000800000A0BFFF0F0010B56FF0FE
