:020000040800F2
:1000000020080220D1020008F5370008851D0008ED
:10001000DD020008770500083D51000800000000DF
:10002000000000000000000000000000193A000875
:10003000F506000800000000F7370008D13B000873
:10004000EB020008EB020008EB020008EB020008DC
:10005000EB020008EB020008EB020008EB020008CC
:10006000EB020008EB020008EB020008EB020008BC
:10007000EB020008EB020008EB020008EB020008AC
:10008000EB020008EB020008EB020008EB0200089C
:10009000EB020008EB020008EB020008EB0200088C
:1000A000EB020008EB020008EB020008EB0200087C
:1000B000EB020008EB020008EB020008EB0200086C
:1000C000EB020008EB020008EB020008EB0200085C
:1000D000EB020008EB020008EB020008EB0200084C
:1000E000EB020008EB020008EB020008EB0200083C
:1000F000EB020008EB020008EB020008EB0200082C
:10010000EB020008EB020008EB020008EB0200081B
:10011000EB020008EB020008EB020008EB0200080B
:10012000EB020008EB020008EB020008EB020008FB
:10013000EB020008EB020008EB020008EB020008EB
:10014000EB020008EB020008EB020008EB020008DB
:10015000EB020008EB020008EB020008EB020008CB
:10016000EB020008EB020008EB020008EB020008BB
:10017000EB020008EB020008EB02000800000000A0
:10018000EB020008EB020008EB020008EB0200089B
:10019000EB020008EB020008EB020008EB0200088B
:1001A000EB020008EB020008EB020008EB0200087B
:1001B000EB020008EB020008EB020008EB0200086B
:1001C000EB020008EB02000800000000EB02000850
:1001D000EB020008EB020008EB020008EB0200084B
:1001E000EB020008EB020008EB020008EB0200083B
:1001F000EB020008EB02000800F002F800F03EF805
:100200000AA090E8000C82448344AAF10107DA4571
:1002100001D100F033F8AFF2090EBAE80F0013F085
:10022000010F18BFFB1A43F0010318479477000031
:10023000B4770000103A24BF78C878C1FAD85207C2
:1002400024BF30C830C144BF04680C607047000050
:100250000023002400250026103A28BF78C1FBD8CF
:10026000520728BF30C148BF0B6070471FB505F06B
:1002700023F900F062F81FBD10B510BD00F09CF826
:100280001146FFF7F3FF05F082F800F0BAF803B467
:10029000FFF7F2FF03BC00F0BFF800000B49D1F8F4
:1002A00000C04A685CF8043B1068184442F8040B2C
:1002B0008C4528BFA1F1DC0C8A4228BFA1F1DC02E9
:1002C000C1F800C04A6020F000407047B801022029
:1002D0000948804709480047FEE7FEE7FEE7FEE7DA
:1002E000FEE7FEE7FEE7FEE7FEE7FEE70448054916
:1002F000054A064B70470000D53B0008F90100088D
:1003000020020220200802202004022020040220D3
:100310000B4910B5A1F17C020A4CC2E93712372112
:1003200006E000EB104342F82130074B00FB03408E
:100330000B1EA1F10101F4DC10BD0120E8E7000073
:1003400058010220E119D666CD0D010010B5431CFD
:1003500002E010F8011B71B18107FAD14FF00132B0
:1003600002C88C1A8C4314EAC211F9D0C01A0A06CA
:1003700003D0C01E10BDC01A10BD0A0401D0801EDB
:1003800010BD0902FCD0401E10BD70477047704779
:1003900010B500F009F8006810BD10B5044600F073
:1003A00003F8046010BD000000487047C00102203F
:1003B00000487047C00102207546FFF7F9FFAE46BE
:1003C00005006946534620F00700854618B020B561
:1003D000FFF78CFFBDE820404FF000064FF000070C
:1003E0004FF000084FF0000B21F00701AC46ACE8DD
:1003F000C009ACE8C009ACE8C009ACE8C0098D464A
:10040000704710B50446AFF300802046BDE81040A9
:10041000FFF73DBF7047000001491820ABBEFEE763
:100420002600020001F0B0BC2DE9F0470E000146A5
:100430004FF0000004461ABF01EB06084FF0A00978
:10044000BDE8F0870702A8EB0400451E01F074FD2B
:10045000280A09EB4000C0B201F032FD01F0BCFDFA
:10046000E8B201F02DFD01F0B7FD01F065FDA1201E
:1004700001F026FD01F0B0FD002001F0ADFC0546C5
:1004800001F082FD611CE819CCB2A642DAD8BDE8C1
:10049000F08710B5044601F04FFD200AA02101EBC2
:1004A0004000C0B201F00CFD01F096FDE0B201F099
:1004B00007FD01F091FD01F03FFDA12001F000FDDD
:1004C00001F08AFD002001F087FC044601F05CFD8C
:1004D000204610BD2DE9F04716000F4680464FF02C
:1004E000000414BF4FF0A00ABDE8F08708EB040534
:1004F000E00027FA00F000F0FF0901F01DFD280AD6
:100500000AEB4000C0B201F0DBFC01F065FDE8B28F
:1005100001F0D6FC01F060FD484601F0D1FC01F08D
:100520005BFD01F031FD0A2004F0A4FE601CC4B2A2
:10053000A642DBD8BDE8F08770B50D46044601F051
:10054000FBFC200AA02202EB4000C0B201F0B8FC84
:1005500001F042FDE0B201F0B3FC01F03DFD2846A0
:1005600001F0AEFC01F038FD01F00EFDBDE8704079
:100570000A2004F07FBEFEE770B4BFF34F8FBFF3D5
:100580006F8F1A4900200860194D296841F4003125
:100590002960BFF34F8FBFF36F8F16490860BFF319
:1005A0004F8F081F006843F6FF76134AC0F34E3C96
:1005B000C0F3C90406EA4C11204641EA8073136077
:1005C000401EFAD2BCF1010CF4D2BFF34F8F286861
:1005D00040F480302860BFF34F8FBFF36F8F074820
:1005E000016841F00401016070BC704750EF00E009
:1005F00014ED00E084ED00E060EF00E09CEF00E02F
:1006000030B583B01DA000F077F810244FF6E073EA
:100610001FA000250295CDE900041F221E210A20FB
:1006200003F0FCF923A04FF6E073CDE900041F228C
:10063000029532210A2003F0F1F918204FF6E073F9
:1006400022A101240294CDE900101F2246210A2094
:1006500003F0E4F920204FF6E07322A102941F2258
:10066000CDE9001064210A2003F0D8F903B04FF45B
:100670009660BDE8304004F0FDBD0000B2E2CAD48F
:10068000363AD6D0CEC4CFD4CABEB2E2CAD4000065
:1006900031365831363AC8ABB6AFB5E7D7D3BCBC64
:1006A000CAF5D3D0CFDEB9ABCBBEBBB6D3ADC4FA9F
:1006B0000000000031365831363A57656C636F6D73
:1006C00065C8ABB6AFB5E7D7D300000032345832B7
:1006D000343AC9EEDBDACAD0D6D0CEC4B2E2CAD43C
:1006E0000000000033325833323AD7D6CCE5B2E2BC
:1006F000CAD40000704700002DE9F043814621482C
:10070000214C83B04FF6FF754FF01F080021058084
:100710001423CDF800800846228801F00BFE012644
:10072000CDF8009010272A461F2302210020CDE992
:10073000017600F0BBFCCDF800806088411E8BB2D2
:1007400021881438491E8AB281B2002001F0F2FDDE
:100750000EA00296CDE9000760881F232A461238B2
:1007600081B2002000F0A2FC0095152160881538A8
:1007700083B22088401E82B2002001F0DBFD03B06E
:10078000BDE8F0831800022098000220687474709D
:100790003A2F2F7777772E6C636477696B692E63B6
:1007A0006F6D00002DE9F0471E46174688468146CA
:1007B000DDE9085401F044FD23462A463146384617
:1007C00001F03EFD43464A4621462846BDE8F04733
:1007D00001F036BD70B584B027A0FFF78DFF0C2562
:1007E0004FF6E07329A000240294CDE900051F22F2
:1007F0001E210A2003F012F92FA04FF6E073CDE975
:100800000005012602961F222D210A2003F006F979
:1008100034A04FF6E073CDE900051F2202943C217D
:100820000A2003F0FBF810254FF6E07335A0029480
:100830001F22CDE9000550210A2003F0EFF83CA06B
:100840004FF6E073CDE900051F22029664210A20CD
:1008500003F0E4F841A04FF6E073CDE900051F2254
:10086000029478210A2003F0D9F804B04FF496607E
:10087000BDE8704004F0FEBCB2E2CAD4353AD3A25F
:10088000CEC4CFD4CABEB2E2CAD400003658313288
:100890003A6162636465666768696A6B6C6D6E6F06
:1008A000707172737475767778797A303132333447
:1008B0003536373839000000365831323A41424334
:1008C0004445464748494A4B4C4D4E4F5051525370
:1008D0005455565758595A303132333435363738E3
:1008E00039000000365831323A7E21402324255EFB
:1008F000262A28295F2B7B7D3A3C3E3F2F7C2D2BDF
:100900002E000000385831363A61626364656667CC
:1009100068696A6B6C6D6E6F7071727374757677DF
:1009200078797A303132333435363738390000004F
:10093000385831363A4142434445464748494A4B84
:100940004C4D4E4F505152535455565758595A309A
:1009500031323334353637383900000038583136C3
:100960003A7E21402324255E262A28295F2B7B7D81
:100970003A3C3E3F2F7C2D2B2E000000B3F5804FDC
:1009800030B418BF6FF0704104D040F8221030BC72
:100990000020704750F82230DFF824C08D8903EA28
:1009A0000C03D1E900C44CEA041C8C688969240258
:1009B00044EA05444CEA040C4CEA01011943E4E71B
:1009C0000000F0CF70B4D1F800C050F82C201B4BC1
:1009D000D1E903561A40D1E9014335431C432C4366
:1009E0004D692C438D692C43CD692C430D6A2C43F2
:1009F0004D6A2C438D6A2C43CD6A2C430D6B2C43DE
:100A00008D6B2C434D6B2C432243082B08BF42F0C7
:100A1000400240F82C200A6BB2F5801F05D10A680D
:100A20004AB1026842F4801202600A681AB1026890
:100A3000496B1143016070BC002070478004C0FF07
:100A400000EB820270B453684FF07E46D1E900C4D7
:100A50008D8903F040434CEA041C8C68240244EA6C
:100A600005440D8A4CEA0404DFF834C00CEB05554C
:100A70002C430D7D06EB05652C438D692C432343E8
:100A80005360026812F4801F07D04268098A22F47A
:100A900070020CEB01511143416070BC00207047A3
:100AA0000000F0FF4DF8044DD1E901320C6813430A
:100AB000D1E903C24CEA02021A434B6913438A6923
:100AC000012C046843EA020CCB690A6A496A08D01F
:100AD0004CEA03031A4311436FF30E0421430160F0
:100AE0000BE024F4F8441A4321430A4341680260AE
:100AF0006FF30E014CEA010141605DF8044B0020E8
:100B00007047426942EA4101416100207047F8B5EF
:100B100014460546D1E900026FF01F0310438A68AE
:100B2000C96803EB421242EA412108430090286160
:100B300000F010FC0646A86910F0200F0ED0B4F1AA
:100B4000FF3F07D024B100F005FC801BA04201D973
:100B50000320F8BDA86910F0200FF0D10020F8BDE7
:100B60002DE9F001D1F804C06FF00F050B682C01DE
:100B70005B1E05EB0C1C43EA0C03D1F808C04FEADE
:100B80000428270304EB0C2C43EA0C050B8A2604EB
:100B9000CC68012A826808EB034C8B8A097E07EB3C
:100BA000035306EB01610DD0361306EB04342C43DE
:100BB00044EA0C0C4CEA0303194302F0704211435F
:100BC000816012E0240322F47042A4F58054234390
:100BD00022F470021A43C36845EA0C0C826003F0E9
:100BE00070434CEA01011943C160BDE8F0010020E7
:100BF000704700002DE9FF4F87B00027B846DDE9B8
:100C00001423BDF828C0614508D90C4661468446C6
:100C1000BDF82400ADF82840ADF824C09CB2BDF862
:100C200028C0A44507D963469446BDF82420ADF8F2
:100C30002840ADF824C0BDF828C0614508D90C464D
:100C400061468446BDF82400ADF82840ADF824C0C4
:100C50009EB2B1428A4620D1BDF82410ADF80400FE
:100C6000814288BFADF8041038BF084691B2814276
:100C700038BF084605D3BDF804208A4238BFADF816
:100C8000041043495346BDF80420098800911946D1
:100C900001F050FB0BB0BDE8F08FBDF82410054605
:100CA000BDF828B092B2481B0690ABEB0A00059045
:100CB000A6EB0A000390501A0290B345A2EB050977
:100CC000A6EB0B0004901CBFABF101001FFA80FBE8
:100CD0005446DA4522D80399059898FBF1F197FB21
:100CE000F0F0C84429441FFA81FCADF804C006990D
:100CF000284480B260450F4403D901466046ADF8F0
:100D0000041023462249BDF80420098800911946A1
:100D100001F010FB601C84B25C45DCD9BDF82800F2
:100D2000211A0298B44201FB00F7A4EB0A0000FB71
:100D300009F892BFDFF858A00BB0BDE8F08F049817
:100D4000BDF8241097FBF0F00844039980B298FB9B
:100D5000F1F1C84429441FFA81FC02996045ADF8BD
:100D600004C00F4403D901466046ADF80410234681
:100D7000BAF80010BDF804200091194601F0DAFA23
:100D8000601C84B2B442DAD90BB0BDE8F08F000029
:100D9000180002202DE9FF4F83B0054680468946A2
:100DA00049204FF0000ADDF844B001900AEB0A1028
:100DB0002F49109A11F810301278934232D101EB7A
:100DC0004000009041781098407881422AD109F182
:100DD0000F00494683B205F10F0082B2284602F0A7
:100DE0002FFB002700980024C619BBF1000F2ED05E
:100DF0002049059808808020B178E040014203D066
:100E00004946284601F068FA681C85B2A5EB08003F
:100E1000102826D0601CC4B2082CE6D3781CC7B2B8
:100E2000202FDFD30AF101001FFA80FA01988245D2
:100E3000BCD311484188008807B0491E401EBDE858
:100E4000F04F8BB282B20021084602F0F9BA80203E
:100E5000B178E040014214BF0598069802F0C4FC46
:100E6000D8E709F1010045461FFA80F9D6E70000EE
:100E7000265F000818000220980002202DE9FF4F8D
:100E800083B005468046894607204FF0000ADDF80A
:100E900044B001900AEB8A00304900EB4A10109AE6
:100EA00011F810301278934232D101EB40000090DB
:100EB00041781098407881422AD109F117004946BB
:100EC00083B205F1170082B2284602F0B9FA002772
:100ED00000980024C619BBF1000F2ED020490598B8
:100EE00008808020B178E040014203D0494628467E
:100EF00001F0F2F9681C85B2A5EB0800182826D08D
:100F0000601CC4B2082CE6D3781CC7B2482FDFD3CC
:100F10000AF101001FFA80FA01988245BAD31148FC
:100F20004188008807B0491E401EBDE8F04F8BB2D3
:100F300082B20021084602F083BA8020B178E040F6
:100F4000014214BF0598069802F04EFCD8E709F15B
:100F5000010045461FFA80F9D6E70000D86800086E
:100F600018000220980002202DE9FF4F83B00546AB
:100F70008046894604204FF0000ADDF844B0019015
:100F80000AEB8A102F49109A11F810301278934208
:100F900032D101EB400000904178109840788142B6
:100FA0002AD109F11F00494683B205F11F0082B220
:100FB000284602F045FA002700980024C619BBF124
:100FC000000F2ED02049059808808020B178E0409D
:100FD000014203D04946284601F07EF9681C85B2DB
:100FE000A5EB0800202826D0601CC4B2082CE6D34C
:100FF000781CC7B2802FDFD30AF101001FFA80FAF4
:1010000001988245BCD311484188008807B0491E29
:10101000401EBDE8F04F8BB282B20021084602F0BC
:101020000FBA8020B178E040014214BF05980698BD
:1010300002F0DAFBD8E709F1010045461FFA80F912
:10104000D6E70000DE6A000818000220980002209F
:101050002DE9F0411E4617468A19521E069D93B28D
:10106000C219521E92B202F0EBF907FB06F60024F9
:10107000002E0BDD05EB440015F81410407841EA12
:10108000002002F0B1FB641CA642F3DC0648418854
:101090000088491E401EBDE8F0418BB282B200219B
:1010A000084602F0CDB90000980002202DE9F04377
:1010B00083B01F4690468946DDE90A460C9D2046CE
:1010C000FFF744F90A4980B240423B46424609884C
:1010D000CDE9004601EBC00C494602950CEBDC70F3
:1010E000C0F34F0002F09AFC03B0BDE8F0830000AB
:1010F000980002202DE9F84FDFF830920022DFF847
:1011000028820F2709F1040A4FF0010E0B680EFA2E
:1011100002F52B40AB4240F00181D1F804C0BCF194
:10112000020F18BFBCF1120F15D14FEAD20C00EB21
:101130008C0CDCF820604FEA42744FEAD46407FA62
:1011400004FB26EA0B06D1F810B00BFA04F444EACB
:101150000604CCF8204006684FEA420C91F804B02F
:101160004FF003040BF0030B04FA0CF40BFA0CFB26
:1011700026EA04064BEA060606604E68012E18BFF2
:10118000022E03D0112E18BF122E14D18668D1F86A
:101190000CB026EA04060BFA0CFB4BEA0606866046
:1011A000466826EA05050E79C6F3001606FA02F629
:1011B00046EA05054560C56825EA04048D6805FA18
:1011C0000CFC4CEA040CC0F80CC0D1F804C01CF0B4
:1011D000805F7CD0D8F800C04CF4804CC8F800C0C8
:1011E000D8F800C00CF4804CCDF800C022F0030CFD
:1011F0000CF1804505F59835D5F808C84FEA82749A
:101200004FEA147407FA04F62CEA0606A0F1804CA3
:10121000BCF5003C48D0A0F1804CBCF5013C08BFB7
:101220004FF0010C40D0A0F1804CBCF5023C08BF4F
:101230004FF0020C38D0A0F1804CBCF5033C08BF45
:101240004FF0030C30D0A0F1804CBCF5043C08BF3B
:101250004FF0040C28D0A0F1804CBCF5053C08BF31
:101260004FF0050C20D0A0F1804CBCF5063C08BF27
:101270004FF0060C18D0A0F1804CBCF5073C08BF1D
:101280004FF0070C10D0A0F1804CBCF5083C08BF13
:101290004FF0080C08D0A0F1804CBCF5093C0CBF05
:1012A0004FF0090C4FF00A0C0CFA04FC4CEA060C47
:1012B000C5F808C8D9F800C04C682CEA030C14F42F
:1012C000803F18BF4CEA030CC9F800C000E025E0DD
:1012D000DAF800C04C682CEA030C14F4003F18BF85
:1012E0004CEA030CCAF800C0114CD4F800C04D6899
:1012F0002CEA030C15F4801F18BF4CEA030CC4F849
:1013000000C00C4CD4F800C04D682CEA030C15F456
:10131000001F18BF4CEA030CC4F800C0521C102A6E
:10132000FFF4F4AEBDE8F88F44380240003C0140C1
:10133000083C01400C3C01400069084018BF0120F6
:1013400070474269514041617047002A08BF090453
:10135000816170470148006870470000100002205A
:1013600002480168491C016070470000100002201B
:10137000074810B5016841F400710160052000F0D4
:101380007BF80F2000F006F800F042F8002010BDB6
:10139000003C024010B5044607484FF47A720068DA
:1013A000B0FBF2F000F0D8FC00222146501E00F005
:1013B00031F8002010BD00000C000220134A4178D3
:1013C0001160111D03780A1D002B04BF0020086066
:1013D0001AD043680B60017BC37A090741EA0361B5
:1013E000837A41EAC341437B41EA8341837B41EAFB
:1013F0004341C37B41EA0341437A41EA0321037A33
:10140000007841EA430108431060704798ED00E01E
:1014100070470000174B4DF8044D1B68C3F30223BF
:10142000C3F1070CBCF1040F88BF4FF0040C1C1D66
:10143000072C34BF0023DB1E012404FA0CFCACF1A2
:10144000010C0CEA0101994004FA03F35B1E1A40F7
:10145000114300284FEA0111B8BF00F00F0000F15E
:10146000E020B4BF80F8141D80F800145DF8044B30
:10147000704700000CED00E0074A00F0070011681B
:101480004FF6FF03194041EA002040F0FD7040F0A4
:1014900080601060704700000CED00E01C4838B51B
:1014A000016841F08051016000681A4C00F08050E2
:1014B0000090206840F480302060FFF74BFF054625
:1014C000606810F4803F09D1FFF744FF401BB0F57E
:1014D0007A7F14D8606810F4803FF5D0206840F41B
:1014E00000302060FFF736FF0546606810F4003FCB
:1014F0000BD1FFF72FFF401BB0F57A7F01D90320F6
:1015000038BD606810F4003FF3D0002038BD000003
:1015100040380240007000402DE9F047DFF8688154
:1015200004460D46D8F8000000F00F00A8420CD287
:10153000D8F8000020F00F002843C8F80000D8F8C1
:10154000000000F00F00A84270D120784F4F10F03B
:10155000020F05D03868A16820F0F0000843386019
:10156000207810F0010F4ED060684949012820D042
:101570000968022822D011F0020F57D0396821F0F3
:10158000030108433860FFF7E5FE0646606841F254
:101590008839012816D00228386800F00C0021D0C4
:1015A000F8B1FFF7D7FE801B484528D90320BDE8D6
:1015B000F087096811F4003FE0D137E011F0007FB7
:1015C000DCD133E0386800F00C0004281BD0FFF7B2
:1015D000C1FE801B4845E9D8386800F00C0004289B
:1015E000F5D110E008280ED0FFF7B4FE801B484567
:1015F000DCD8386800F00C000828F5D103E0386822
:1016000010F00C0FCDD1D8F8000000F00F00A84268
:101610000FD9D8F8000020F00F002843C8F80000C8
:10162000D8F8000000F00F00A84202D00120BDE869
:10163000F087207810F0040F05D03868E16820F4B6
:10164000E05008433860207810F0080F06D0386862
:10165000216920F4604040EAC100386000F01EF8C3
:101660003968F02292FAA2F201F0F001B2FA82F2A5
:10167000D140084A515CC840074908600F20FFF775
:1016800089FE0020BDE8F087003C02400838024097
:1016900000380240787900080C00022021480068D8
:1016A00010F00C01204808BF7047DFF880C0042903
:1016B00004BF60467047082918BF70474DF8044DB5
:1016C0001B4A1168136801F03F0113F4800F47F6BD
:1016D000C0730BD0BCFBF1F01168194093FAA3F36F
:1016E000B3FA83F3D94000FB01F00AE0B0FBF1F05C
:1016F0001168194093FAA3F3B3FA83F3D94000FBBE
:1017000001F011684FF440325DF8044B92FAA2F2F6
:1017100001F44031B2FA82F2D140491C4900B0FBD9
:10172000F1F07047083802400024F40040787D0151
:10173000043802402DE9F84FDFF8A883044600780A
:10174000A8F1040710F0010FA7F104055AD0D8F84A
:10175000000000F00C00042809D0D8F8000000F0C8
:101760000C0008280CD1386810F4800F08D02868C5
:1017700010F4003F46D06068002800F0AF8141E0DF
:101780006068B0F5803F04BF286840F480300AD01C
:1017900010B1B0F5A02F11D0286820F48030286057
:1017A000286820F4802028606068D0B1FFF7D2FD5F
:1017B0000646286810F4003F08D023E0286840F46B
:1017C00080202860286840F48030ECE7FFF7C2FDF5
:1017D000801B642800F22581286810F4003FF5D0B2
:1017E00010E0FFF7B7FD0646286810F4003F09D067
:1017F000FFF7B0FD801B642800F21381286810F405
:10180000003FF5D1207810F0020F50D0D8F800003A
:101810004FF0F80910F00C0F18D0D8F8000000F0C5
:101820000C00082804BF386810F4800F0ED0E06860
:101830000028286828D040F001002860FFF78AFDC2
:101840000646286810F0020F09D011E0286810F051
:10185000020F1CBFE06801280AD000F03FB9FFF773
:1018600079FD801B02287DD8286810F0020FF6D081
:10187000286899FAA9F22169B2FA82F220F0F800F8
:1018800091400843286012E020F001002860FFF733
:1018900061FD0646286810F0020F08D0FFF75AFDD8
:1018A000801B02285ED8286810F0020FF6D120783D
:1018B00010F0080F33D0DFF8309260690028D9F8B3
:1018C000000016D040F00100C9F80000FFF742FD0B
:1018D0000646D9F8000010F0020F20D1FFF73AFDBC
:1018E000801B02283ED8D9F8000010F0020FF5D076
:1018F00015E020F00100C9F80000FFF72BFD0646B7
:10190000D9F8000010F0020F09D0FFF723FD801B6B
:10191000022827D8D9F8000010F0020FF5D120785E
:1019200010F0040F63D07148016841F080510160EC
:1019300000686F4E00F080500090306840F4807076
:101940003060FFF707FD8146306810F4807F0BD1CF
:10195000FFF700FDA0EB0900642862D8306810F49E
:10196000807F00E05DE0F3D0A068624E012804BFF4
:10197000306840F0010009D008B1052813D0306864
:1019800020F001003060306820F004003060A06872
:1019900041F2883AD0B1FFF7DDFC8146306810F0A3
:1019A000020F08D023E0306840F004003060306857
:1019B00040F00100EAE7FFF7CDFCA0EB090050453D
:1019C0002FD8306810F0020FF5D010E0FFF7C2FCFE
:1019D0008146306810F0020F09D0FFF7BBFCA0EB86
:1019E000090050451DD8306810F0020FF5D1A069EC
:1019F000E8B3D8F8001001F00C0108296ED00228D5
:101A0000286820F0807028600ED0FFF7A3FC044601
:101A1000286810F0007F5ED0FFF79CFC001B0228B6
:101A200055D90320BDE8F88FFFF794FC06462868D7
:101A300010F0007F08D0FFF78DFC801B0228F0D843
:101A4000286810F0007FF6D1D4E9070147F6C0728C
:101A50004FF0FF3392FAA2F20843616AB2FA82F2BF
:101A60009140A26A03EB52024FF4403300E032E0AF
:101A700093FAA3F3B3FA83F39A4011434FF07062E1
:101A80000843E16A92FAA2F2B2FA82F291404FF070
:101A9000E0420843216B92FAA2F2B2FA82F291403C
:101AA00008433860286840F080702860FFF752FCD7
:101AB0000446286810F0007F0DD1FFF74BFC001B97
:101AC0000228AED8286810F0007FF6D003E028681E
:101AD00010F0007FA0D10020BDE8F88F0120BDE804
:101AE000F88F000008380240743802404038024045
:101AF0000070004070380240002804BF0120704789
:101B000070B5044690F82C000D4628B9002084F8E2
:101B10002D00204600F012F8022084F82C002068E6
:101B2000211DFEF7BFFFD4E900022946FFF718F890
:101B3000012084F82C00002070BD000030484DF8D2
:101B400004ED87B0016841F001010160006800F018
:101B5000010005902B48016841F004010160016813
:101B600001F004010591016841F00801016001687C
:101B700001F008010591016841F010010160016860
:101B800001F010010591016841F020010160016838
:101B900001F020010591016841F0400101600068F9
:101BA000694600F0400005900D2000900220019051
:101BB00001200290032003900C2004901248FFF7AC
:101BC00099FA4CF20370009010486946FFF792FAB8
:101BD0004FF6837000900E486946FFF78BFA4FF678
:101BE0003F0000900B486946FFF784FA48F237102F
:101BF000009009486946FFF77DFA07B05DF804FBDD
:101C0000383802403038024000080240000C0240E0
:101C100000100240001402400018024010B50446B3
:101C200090F82C00022808BF10BD022084F82C0078
:101C30002068FEF766FF012084F82C00002010BD0C
:101C400070B5044690F82C000D46022808BF70BD00
:101C5000022084F82C002068FEF759FF286802282B
:101C60000CBF0520012084F82C00002070BD002846
:101C700004BF0120704770B5044690F84500154632
:101C80000E4628B9002084F84400204600F01AF8D7
:101C9000206804F10801FEF795FEA268314620682D
:101CA000FEF7CEFEE36A2946D4E90102FEF766FE9E
:101CB000A168206850F8212042F0010240F821205C
:101CC000002070BD1A484DF804ED87B0016841F05E
:101CD00001010160006800F00100059015480168ED
:101CE00041F008010160016801F0080105910168F7
:101CF00041F0100101600068694600F01000059095
:101D00004EF2B37000900220019001200290032057
:101D100003900C2004900848FFF7ECF94FF6807010
:101D2000009006486946FFF7E5F907B05DF804FB47
:101D30003838024030380240000C024000100240A7
:101D40004FF0E021042808690CBF40F0040020F0A7
:101D50000400086170470000401EB0F1807F24BF7E
:101D6000012070474FF0E0214861F020044A82F8DA
:101D7000140D0020886107200861002070470000D2
:101D80000FE000E0FEE70000114810B586B00168E2
:101D900041F080010160006869460E4C00F080004F
:101DA00005903020009001200190029002200390C5
:101DB0002046FFF79FF9012220462021FFF7C5FAB0
:101DC000012220461021FFF7C0FA06B010BD000026
:101DD00030380240001C02402DE9F041374E0746E2
:101DE0000024306820F44060306030683060254660
:101DF000002230461021FFF7A8FA022003F060FA13
:101E0000012230461021FFF7A0FA60062021040EBF
:101E10003046FFF791FA00281CBF601CC4B20120B5
:101E200003F04EFA681CC5B2082DE1D34FF0000252
:101E30004FF0100130460FB3FFF787FA306820F4F7
:101E400040603060306840F480603060002230468E
:101E50002021FFF77AFA022003F032FA01223046FD
:101E60001021FFF772FA022003F02AFA002230460E
:101E70001021FFF76AFA2046BDE8F081FFF765FA06
:101E8000306820F440603060306840F4806030603A
:101E9000012230462021FFF758FA022003F010FA01
:101EA000012230461021FFF750FA022003F008FA11
:101EB000002230461021FFF748FADCE7001C024000
:101EC00070B51C4E05463046316821F440613160E2
:101ED000316841F48061316000221021FFF735FA4A
:101EE000002415F0800F05D0012230462021FFF795
:101EF0002CFA04E0002230462021FFF726FA68067B
:101F0000050E022003F0DCF9012230461021FFF714
:101F10001CFA022003F0D4F9002230461021FFF70A
:101F200014FA022003F0CCF9601CC4B2082CD8D3F8
:101F300070BD0000001C024010B5124C206820F457
:101F400040602060206840F48060206001222046CC
:101F50002021FFF7FAF9012220461021FFF7F5F9B9
:101F6000042003F0ADF9002220462021FFF7EDF90F
:101F7000042003F0A5F900222046BDE810401021FE
:101F8000FFF7E3B9001C024010B5124C206820F4A2
:101F900040602060206840F480602060002220467D
:101FA0001021FFF7D2F9002220462021FFF7CDF9BA
:101FB000042003F085F9012220461021FFF7C5F91E
:101FC000042003F07DF901222046BDE810402021C5
:101FD000FFF7BBB9001C024070B5294D00242868EA
:101FE00020F44060286028682860012220212846CB
:101FF000FFF7ABF9012003F063F901222846102115
:10200000FFF7A3F9012003F05BF920212846FFF731
:1020100093F900282DD0601CC4B2FA2C23D928686B
:1020200020F440602860286840F480602860002226
:1020300028461021FFF789F9002228462021FFF7C2
:1020400084F9042003F03CF9012228461021FFF70F
:102050007CF9042003F034F9012228462021FFF7FF
:1020600074F9012070BD20212846FFF765F900288A
:10207000D1D1002228461021FFF767F9002070BD5A
:10208000001C02401B4870B586B0016841F0010198
:102090000160016801F001010591016841F004014E
:1020A0000160016801F004010591016841F08001BF
:1020B0000160006803250026694600F08000059055
:1020C00002200124CDE902050B48CDE90046FFF7C7
:1020D00011F860036946CDE900060848CDE90245DC
:1020E000FFF708F80C20009005486946FFF702F852
:1020F00006B070BD303802400000024000080240C7
:10210000001C02402DE9F041344C0126344F0128D7
:10211000DFF8D080344D08BF267001D02078A8B1F8
:1021200008212846FFF708F9B8B104212846FFF72F
:1021300003F990B14FF400513846FFF7FDF860B154
:1021400001214046FFF7F8F8012806D0082128466B
:10215000FFF7F2F801283ED12AE00A2003F08AF8BE
:102160000020207008212846FFF7E6F8002804BF69
:102170000120BDE8F08104212846FFF7DDF80028A2
:1021800004BF0220BDE8F0814FF400513846FFF74C
:10219000D3F8002804BF0320BDE8F08101214046A8
:1021A000FFF7CAF8012804BF0420BDE8F08112E05F
:1021B00004212846FFF7C0F801280CD14103384616
:1021C000FFF7BAF8012806D101214046FFF7B4F81D
:1021D000002808BF26700020BDE8F08148000220DA
:1021E0000008024000000240001C024030B50546D5
:1021F0000B480188408801FB00F4401E83B2481E52
:1022000082B20021084601F01BF90021002C8CBF8E
:10221000044A30BD1580491C8C42FBD830BD0000FB
:102220009800022000000860DFF810C008B5BCF874
:1022300000C0CDF800C000F07DF808BD18000220F5
:102240002DE9F04F002682465F1A3546A2EB0008C2
:102250008946B8F1000F83B0C8BF012007DC0FBF6B
:1022600000204FF0FF300190C8F1000800D101902C
:10227000002FC8BF012006DC0FBF00204FF0FF3049
:1022800000907F4200D10090B845CCBF44463C4608
:102290004FF0000B601C52BF029003B0BDE8F08FFE
:1022A0001FFA89F11FFA8AF000F016F84644A64298
:1022B0003D4402DD0198361B8244A54202DD0098B0
:1022C0002D1B81440BF101001FFA80FB029883450E
:1022D000E6DD03B0BDE8F08F0B4602464DF804ED95
:1022E00001F0AEF802480349008808805DF804FB5D
:1022F00018000220000008602DE9F0411C46154638
:102300000E4607460B46FFF79BFF3A4623463146EB
:102310001046FFF795FF23462A4619463846FFF731
:102320008FFF2A46234631461046BDE8F041FFF7AD
:1023300087BF00002DE9F041A2EB000C0CF1010C6D
:102340001FFA8CF5DDF81880A3EB010C0CF1010CE1
:102350001FFA8CF701F074F80026002F0DD9002425
:10236000002D06D9404601F03FFA601C84B2A54218
:10237000F8D8701C86B2BE42F1D306484188008866
:10238000491E401EBDE8F0418BB282B200210846D2
:1023900001F056B8980002201E484DF804ED95B0A3
:1023A000016841F002010160006810A900F002001C
:1023B00000904FF480701090012011901290032033
:1023C00013901548FEF796FE01F000F813484FF001
:1023D0002041102201601249416000218160C160EA
:1023E000C0E90412120242629200C2620F2050221F
:1023F0000B92CDE90901CDE90201192004900748AB
:1024000002AA0F91089109A9FFF731FC15B05DF8F8
:1024100004FB000030380240000402404C0002205F
:10242000040100A070B5FFF7B7FF322002F022FFD1
:10243000FF4C4FF4704020805521A01C01804FF2CA
:1024400001012180AA2101804FF202012180522145
:1024500001804FF203012180082101804FF2040125
:102460002180012101804FF43641218034210180F7
:102470004BF201612180342101804BF20261218005
:10248000342101804FF4304121800D2101804BF235
:10249000010121800D2101804BF2020121800D21DB
:1024A00001804FF437412180242101804BF20171DA
:1024B0002180242101804BF202712180242101809E
:1024C0004FF4314121800D2101804BF20111218017
:1024D0000D2101804BF2021121800D2101804FF46A
:1024E00038412180242101804BF6010121802421E3
:1024F00001804BF602012180242101804FF43241FA
:102500002180002101804FF4394121802421018064
:102510004BF601112180242101804BF6021121800C
:10252000242101804FF433412180052101804BF2A9
:1025300001312180052101804BF2023121800521EA
:1025400001804FF43A412180342101804BF6012172
:102550002180342101804BF6022121803421018029
:102560004FF4354121800B2101804BF20151218034
:102570000B2101804BF2025121800B2101804FF48D
:102580003C412180002101804BF601412180A321A3
:1025900001804BF602412180002101804FF43D4132
:1025A0002180002101804BF601512180A32101806F
:1025B0004BF602512180002101804FF43E412180E1
:1025C000002101804BF601612180632101804FF4DD
:1025D00051412180002101804DF2011121803721DC
:1025E00001804DF202112180002101804DF2031182
:1025F0002180522101804DF20411218000210180AF
:102600004DF2051121807B2101804DF206112180C0
:10261000002101804DF207112180992101804DF2A6
:1026200008112180002101804DF209112180B12182
:1026300001804DF20A112180002101804DF20B1121
:102640002180D22101804DF20C11218000210180D6
:102650004DF20D112180F62101804DF20E112180E5
:10266000012101804DF20F112180272101804DF2BF
:1026700010112180012101804DF2111121804E2184
:1026800001804DF212112180012101804DF21311C0
:1026900021808C2101804DF21411218001210180C3
:1026A0004DF215112180BE2101804DF216112180BD
:1026B000022101804DF2171121800B2101804DF282
:1026C00018112180022101804DF219112180482129
:1026D00001804DF21A112180022101804DF21B115F
:1026E00021804A2101804DF21C11218002210180AC
:1026F0004DF21D1121807E2101804DF21E1121809D
:10270000022101804DF21F112180BC2101804DF278
:1027100020112180022101804DF221112180E1212F
:1027200001804DF222112180032101804DF22311FD
:102730002180102101804DF224112180032101808C
:102740004DF225112180312101804DF22611218089
:10275000032101804DF2271121805A2101804DF281
:1027600028112180032101804DF22911218073213C
:1027700001804DF22A112180032101804DF22B119D
:102780002180942101804DF22C11218003210180B0
:102790004DF22D1121809F2101804DF22E112180BB
:1027A000032101804DF22F112180B32101804DF2D0
:1027B00030112180032101804DF231112180B92196
:1027C00001804DF232112180032101804DF233113D
:1027D0002180C12101804FF45241218000210180DC
:1027E0004DF201212180372101804DF2022121800B
:1027F000002101804DF203212180522101804DF200
:1028000004212180002101804DF2052121807B21BE
:1028100001804DF206212180002101804DF2072127
:102820002180992101804DF208212180002101E0C1
:10283000FEFF076001804DF209212180B121018056
:102840004DF20A212180002101804DF20B212180CF
:10285000D22101804DF20C212180002101804DF216
:102860000D212180F62101804DF20E2121800121D0
:1028700001804DF20F212180272101804DF210218E
:102880002180012101804DF2112121804E21018002
:102890004DF212212180012101804DF2132121806E
:1028A0008C2101804DF214212180012101804DF203
:1028B00015212180BE2101804DF2162121800221A7
:1028C00001804DF2172121800B2101804DF218214A
:1028D0002180022101804DF21921218048210180AF
:1028E0004DF21A212180022101804DF21B2121800D
:1028F0004A2101804DF21C212180022101804DF2EC
:102900001D2121807E2101804DF21E212180022186
:1029100001804DF21F212180BC2101804DF2202138
:102920002180022101804DF221212180E1210180BD
:102930004DF222212180032101804DF223212180AB
:10294000102101804DF224212180032101804DF2CC
:1029500025212180312101804DF226212180032172
:1029600001804DF2272121805A2101804DF228213A
:102970002180032101804DF22921218073210180D2
:102980004DF22A212180032101804DF22B2121804B
:10299000942101804DF22C212180032101804DF2F0
:1029A0002D2121809F2101804DF22E2121800321A4
:1029B00001804DF22F212180B32101804DF2302181
:1029C0002180032101804DF231212180B921018034
:1029D0004DF232212180032101804DF233212180EB
:1029E000C12101804FF453412180002101804DF22B
:1029F00001312180372101804DF2023121800021F7
:102A000001804DF203312180522101804DF20431C9
:102A10002180002101804DF2053121807B21018040
:102A20004DF206312180002101804DF207312180D5
:102A3000992101804DF208312180002101804DF261
:102A400009312180B12101804DF20A31218000211C
:102A500001804DF20B312180D22101804DF20C31E9
:102A60002180002101804DF20D312180F62101806D
:102A70004DF20E312180012101804DF20F31218074
:102A8000272101804DF210312180012101804DF27A
:102A9000113121804E2101804DF21231218001211E
:102AA00001804DF2133121808C2101804DF21431CF
:102AB0002180012101804DF215312180BE2101804C
:102AC0004DF216312180022101804DF21731218013
:102AD0000B2101804DF218312180022101804DF23D
:102AE00019312180482101804DF21A3121800221C3
:102AF00001804DF21B3121804A2101804DF21C31B1
:102B00002180022101804DF21D3121807E21018032
:102B10004DF21E312180022101804DF21F312180B2
:102B2000BC2101804DF220312180022101804DF233
:102B300021312180E12101804DF2223121800321C8
:102B400001804DF223312180102101804DF224318A
:102B50002180032101804DF2253121803121018026
:102B60004DF226312180032101804DF22731218051
:102B70005A2101804DF228312180032101804DF23C
:102B800029312180732101804DF22A3121800321D6
:102B900001804DF22B312180942101804DF22C31A6
:102BA0002180032101804DF22D3121809F21018060
:102BB0004DF22E312180032101804DF22F312180F1
:102BC000B32101804DF230312180032101804DF28B
:102BD00031312180B92101804DF232312180032130
:102BE00001804DF233312180C12101804FF45441E5
:102BF0002180002101804DF2014121803721018097
:102C00004DF202412180002101804DF203412180DB
:102C1000522101804DF204412180002101804DF2BA
:102C2000054121807B2101804DF206412180002158
:102C300001804DF207412180992101804DF2084128
:102C40002180002101804DF209412180B1210180C4
:102C50004DF20A412180002101804DF20B4121807B
:102C6000D22101804DF20C412180002101804DF2E2
:102C70000D412180F62101804DF20E41218001217C
:102C800001804DF20F412180272101804DF210413A
:102C90002180012101804DF2114121804E210180CE
:102CA0004DF212412180012101804DF2134121801A
:102CB0008C2101804DF214412180012101804DF2CF
:102CC00015412180BE2101804DF216412180022153
:102CD00001804DF2174121800B2101804DF21841F6
:102CE0002180022101804DF219412180482101807B
:102CF0004DF21A412180022101804DF21B412180B9
:102D00004A2101804DF21C412180022101804DF2B7
:102D10001D4121807E2101804DF21E412180022132
:102D200001804DF21F412180BC2101804DF22041E4
:102D30002180022101804DF221412180E121018089
:102D40004DF222412180032101804DF22341218057
:102D5000102101804DF224412180032101804DF298
:102D600025412180312101804DF22641218003211E
:102D700001804DF2274121805A2101804DF22841E6
:102D80002180032101804DF229412180732101809E
:102D90004DF22A412180032101804DF22B412180F7
:102DA000942101804DF22C412180032101804DF2BC
:102DB0002D4121809F2101804DF22E412180032150
:102DC00001804DF22F412180B32101804DF230412D
:102DD0002180032101804DF231412180B921018000
:102DE0004DF232412180032101804DF23341218097
:102DF000C12101804FF455412180002101804DF215
:102E000001512180372101804DF2025121800021A2
:102E100001804DF203512180522101804DF2045175
:102E20002180002101804DF2055121807B2101800C
:102E30004DF206512180002101804DF20751218081
:102E4000992101804DF208512180002101804DF22D
:102E500009512180B12101804DF20A5121800021C8
:102E600001804DF20B512180D22101804DF20C5195
:102E70002180002101804DF20D512180F621018039
:102E80004DF20E512180012101804DF20F51218020
:102E9000272101804DF210512180012101804DF246
:102EA000115121804E2101804DF2125121800121CA
:102EB00001804DF2135121808C2101804DF214517B
:102EC0002180012101804DF215512180BE21018018
:102ED0004DF216512180022101804DF217512180BF
:102EE0000B2101804DF218512180022101804DF209
:102EF00019512180482101804DF21A51218002216F
:102F000001804DF21B5121804A2101804DF21C515C
:102F10002180022101804DF21D5121807E210180FE
:102F20004DF21E512180022101804DF21F5121805E
:102F3000BC2101804DF220512180022101804DF2FF
:102F400021512180E12101804DF222512180032174
:102F500001804DF223512180102101804DF2245136
:102F60002180032101804DF22551218031210180F2
:102F70004DF226512180032101804DF227512180FD
:102F80005A2101804DF228512180032101804DF208
:102F900029512180732101804DF22A512180032182
:102FA00001804DF22B512180942101804DF22C5152
:102FB0002180032101804DF22D5121809F2101802C
:102FC0004DF22E512180032101804DF22F5121809D
:102FD000B32101804DF230512180032101804DF257
:102FE00031512180B92101804DF2325121800321DC
:102FF00001804DF233512180C12101804FF45641AF
:103000002180002101804DF2016121803721018062
:103010004DF202612180002101804DF20361218087
:10302000522101804DF204612180002101804DF286
:10303000056121807B2101804DF206612180002104
:1030400001804DF207612180992101804DF20861D4
:103050002180002101804DF209612180B121018090
:103060004DF20A612180002101804DF20B61218027
:10307000D22101804DF20C612180002101804DF2AE
:103080000D612180F62101804DF20E612180012128
:1030900001804DF20F612180272101804DF21061E6
:1030A0002180012101804DF2116121804E2101809A
:1030B0004DF212612180012101804DF213612180C6
:1030C0008C2101804DF214612180012101804DF29B
:1030D00015612180BE2101804DF2166121800221FF
:1030E00001804DF2176121800B2101804DF21861A2
:1030F0002180022101804DF2196121804821018047
:103100004DF21A612180022101804DF21B61218064
:103110004A2101804DF21C612180022101804DF283
:103120001D6121807E2101804DF21E6121800221DE
:1031300001804DF21F612180BC2101804DF2206190
:103140002180022101804DF221612180E121018055
:103150004DF222612180032101804DF22361218003
:10316000102101804DF224612180032101804DF264
:1031700025612180312101804DF2266121800321CA
:1031800001804DF2276121805A2101804DF2286192
:103190002180032101804DF229612180732101806A
:1031A0004DF22A612180032101804DF22B612180A3
:1031B000942101804DF22C612180032101804DF288
:1031C0002D6121809F2101804DF22E6121800321FC
:1031D00001804DF22F612180B32101804DF23061D9
:1031E0002180032101804DF231612180B9210180CC
:1031F0004DF232612180032101804DF23361218043
:10320000C12101804FF470412180552101804FF28E
:1032100001012180AA2101804FF202012180522167
:1032200001804FF203012180082101804FF2040147
:103230002180002101804FF430412180082101804C
:103240004BF201012180052101804BF20201218016
:10325000022101804BF203012180052101804BF204
:1032600004012180022101804FF436412180082190
:10327000054601804FF435412180502101804FF4F3
:1032800037412180002101804BF201712180002112
:1032900001804FF438412180012101804BF601016A
:1032A0002180052101804BF602012180052101804A
:1032B0004BF603012180052101804FF43C41218020
:1032C000002101804BF601412180002101804BF655
:1032D00002412180002101804FF44C4121800321D3
:1032E00001804CF601412180002101804CF6024111
:1032F0002180002101804FF43D4121800121018086
:103300004BF601512180842101804BF6025121802E
:10331000072101804BF603512180312101804BF6BA
:1033200004512180002101804FF43A412180012184
:1033300001804FF47F412180AA2101804FF6017165
:103340002180552101804FF60271218025210180C5
:103350004FF603712180012101804FF454512180E7
:10336000002101804FF458512180002101804FF449
:1033700068512180552101804FF4885020807820A9
:1033800001F078FF4FF4245020804FF4305020801B
:10339000002000F0B3F90C494FF6FF760888498801
:1033A00000FB01F4491E8BB2401E82B20021084688
:1033B00000F046F80020002C98BF70BD2E80401C05
:1033C0008442FBD870BD00009800022030B5184C34
:1033D00085B0206820F480302060164D286820F0E9
:1033E0000100286000208DF80C004FF0C0420192CF
:1033F0001B228DF8082001218DF809008DF80D00A1
:1034000003228DF800108DF80A008DF80E008DF85B
:10341000010068468DF80B208DF80F10FDF7CEFFE8
:1034200005202860206840F48030206005B030BD61
:1034300024ED00E094ED00E00B460246AFF300807F
:10344000F0B4154F154CB7F80CC0A4F800C0060A2C
:10345000A51C2E800CF101062680C0B22880701CAD
:103460002080100A2880B01C2080D0B22880F889E3
:1034700020800A0A2A80421C2280C9B22980811C2D
:103480002180190A2980C01C2080D8B22880388960
:103490002080F0BC7047000098000220FEFF07600B
:1034A0002DE9FF4F83B082468B4640499046DDE9C7
:1034B0001004129E20380988C5B202910BEB04005B
:1034C0005946401E83B20AEB5400401E82B2504659
:1034D000FFF7B6FF364A002E4FF0000702F27441A4
:1034E0003ED0002C2BD905EB450002EB800001906B
:1034F00001EB051000900C2C0CBF01980098C65DE4
:103500000025B5EB540F38BF0BEB070913D2274842
:1035100016F0800FA0F8008006D00AEB05001FFA15
:1035200089F180B2FEF7D8FE7006060E681CC5B29F
:10353000B5EB540FEBD3781CC7B2A742DBD31B49C2
:10354000029808801B484188008807B0491E401E29
:10355000BDE8F04F8BB282B200210846FFF770BF82
:10356000002CECD905EB450001EB051902EB800AB4
:103570000C2C0CBF1AF8075019F807500026B6EBB0
:10358000540F0DD215F0800F14BF4046069800F07E
:103590002BF96806050E701CC6B2B6EB540FF1D3BA
:1035A000781CC7B2A742E3D3C9E700001800022085
:1035B000C2540008980002202DE9FF4F83B04FF05D
:1035C00000081D00934681464446109E19BFA5F190
:1035D000010A770807B0BDE8F08F0A23281B401EB8
:1035E0000121C2B2501EC0B204D301FB03F1401E40
:1035F000C0B2FAD2BBFBF1F01C49A1FB0021C90803
:103600004942B8F1000F01EB810100EB410006D106
:10361000544504DA002818BF4FF0010816D00021E5
:10362000029113493030C0B2CDE9000607FB049087
:103630000B88104980B20A880499FFF731FF601C9B
:10364000C4B2AC42C9D307B0BDE8F08F20210091CD
:1036500007490020CDE901600B88064907FB04906B
:103660000A8880B20499FFF71BFFE8E7CDCCCCCCE9
:103670001A000220180002202DE9F04F83B0054601
:1036800018781C4616468946DDF8308020385E28BA
:1036900084BF03B0BDE8F08F154FDFF858A0DFF806
:1036A00058B03888401EA842BCBF03B0BDE8F08FB8
:1036B0007888401E4845BCBF03B0BDE8F08F207835
:1036C0004946CDE90006CDF808802846BAF8003012
:1036D000BBF80020FFF7E4FE05EB560085B214F8B6
:1036E000010F20385E28DCD903B0BDE8F08F000060
:1036F000980002201A0002201800022025494FF4E9
:1037000028524DF8044D244B4FF448748A814FF4ED
:103710002C52CA814FF430520A814FF4385203F1CF
:10372000020C4A814FF4F07298B101281CD0022893
:1037300025D003281CBF5DF8044B70470C804A80DD
:10374000A0204FF458511980ACF800005DF8044BEC
:1037500070470A8000204C804FF458511980ACF813
:1037600000005DF8044B70470C8060204A804FF4E5
:1037700058511980ACF800005DF8044B70470A807E
:10378000C0204C804FF458511980ACF800005DF80F
:10379000044B704798000220FEFF0760104810B5E8
:1037A00086B0016841F002010160006801210D4C02
:1037B00000F0020005900320CDE90001CDE90210E0
:1037C00069462046FDF796FC012220461146FDF78A
:1037D000BCFD012220460221FDF7B7FD06B010BD59
:1037E0003038024000040240014908807047000060
:1037F000000008607047704770B584B021A0FCF7E6
:103800007BFF254E28231E211A4608460096FDF709
:103810001FFC10254FF6E07320A001240294CDE98F
:1038200000051F224B212A2000F0F8F828230096DB
:103830001E211A465A20FDF70BFC18A04FF6E07324
:10384000CDE900051F2202944B21662000F0E6F826
:10385000282300961E211A469620FDF7F9FB0FA09B
:103860004FF6E073CDE900051F2202944B21A22000
:1038700000F0D4F804B04FF49660BDE8704001F059
:10388000F9BC0000B2E2CAD4373ACDBCC6ACCFD442
:10389000CABEB2E2CAD40000E86C00085151000070
:1038A0002DE9F0411D4888B004AFDFF87480002492
:1038B00001250FC8102687E80F004FF6FF70FEF7AE
:1038C00095FC2046FFF71AFF16A0FCF715FF57F8E6
:1038D00024001F22CDE900061E214FF6E0731420BC
:1038E000029500F09BF82823CDF8008032211A467B
:1038F0001E20FDF7ADFB4FF47A7001F0BBFC4FF4D6
:103900007A7001F0B7FC601CC4B2042CD5D300203F
:10391000FFF7F4FE08B0BDE8F08100006879000808
:10392000E86C0008B2E2CAD4393AC6C1C4BBD0FDC3
:10393000D7AAB2E2CAD40000264800224DF804ED0E
:10394000234987B01023C0E90012012181600821BA
:10395000C0E90313402343614FF4C073C0E906324A
:103960000A0202624A0242628A0282620220CDE9AF
:10397000000106210291CDE90310059069460690E9
:103980001448FEF7B9F8002301221846114600F04A
:1039900023F84FF4FA7001F093FC0023012218463B
:1039A000022100F019F8002308221846032100F034
:1039B00013F80122042100204FF40C7300F00CF8DE
:1039C000044840F23731FEF729F907B05DF804FBEF
:1039D000400100A0A80002204DF804ED00284FF09F
:1039E000000C85B008BF4FF0100C03D0012808BFB1
:1039F0004FF0080CCDE9022306484FF48052CDE980
:103A0000001C6946FEF71CF9002818BF012005B00C
:103A10005DF804FBA8000220704700002DE9FF4F6D
:103A200083B006468346DFF804A188464FF00009BC
:103A3000DDE91045129F2078002804BF07B0BDE8DB
:103A4000F08F29E0B9F1000F26D0BAF80000401B32
:103A5000B042BCBF07B0BDE8F08FBAF80200401B0F
:103A60004045BCBF07B0BDE8F08F4FF00009202DE6
:103A70004FD0CDE90047DDE90523182D41463046FA
:103A800050D0FDF787F9701986B2A41C2078002861
:103A9000D8D107B0BDE8F08FBAF80000A0EB550010
:103AA000B042BCBF07B0BDE8F08FBAF80200401BBF
:103AB0004045BCBF07B0BDE8F08F2078802888BFA4
:103AC0004FF00109BED80D280ED0102D13D91021AA
:103AD0000297CDE90001DDE9052341463046FFF7B5
:103AE000DFFC06F1080011E008EB05005E461FFA56
:103AF00080F8641C0BE0CDE9000502974146DDE942
:103B000005233046FFF7CCFC06EB550086B2641C5B
:103B1000BCE7CDE90047DDE9052341463046FDF726
:103B200023FAB0E7FDF7AAF9ADE7000098000220FC
:103B3000DFF894C010B594B0DCF8004044F0805435
:103B4000CCF80040DCF800C00CF0805CCDF848C038
:103B5000DFF878C0DCF8004044F44044CCF8004082
:103B6000DCF800C002240CF4404CCDF848C04FF003
:103B7000010CCDF800C04FF4803CCDF804C04FF4E8
:103B8000800CCDE90810CDE90A23CDE9064C684642
:103B9000FDF7D0FD00B1FEE7FDF780FC00B1FEE7C8
:103BA0000F20CDE90D0400200F904FF4A05010908D
:103BB0004FF48050119007210DA8FDF7ADFC0028AF
:103BC00004BF14B010BDFEE7403802400070004052
:103BD000FDF7C6BB0F48016841F4700101600E4853
:103BE000016841F0010101600C4A00211160026886
:103BF00022F4102222F080720260031D084A1A602B
:103C0000026822F4802202600648016058060649D4
:103C10000860704788ED00E0003802400838024034
:103C2000103000240C38024008ED00E02DE9FF4F71
:103C300081B08B460EA99A464FF47840012491E852
:103C4000E0034249102242A308808C2128200094DE
:103C5000FFF712FD102200948C2178203DA3FFF77E
:103C60000BFD10220094A02128203BA3FFF704FDA8
:103C700010220094A021782038A3FFF7FDFC102229
:103C80000094B421282036A3FFF7F6FC10220094FC
:103C9000B421782033A3FFF7EFFC10220094C82151
:103CA000282031A3FFF7E8FC10220094C8217820D7
:103CB0002EA3FFF7E1FC10220094DC2128202CA386
:103CC000FFF7DAFC019A1024042300948C21402091
:103CD000FFF772FC04235A468C2100949020FFF7D2
:103CE0006BFC039A0423A02100944020FFF764FC9E
:103CF00004235246A02100949020FFF75DFC04238A
:103D00002A46B42100944020FFF756FC0423324693
:103D1000B42100949020FFF74FFC04233A46C821B9
:103D200000944020FFF748FC04234246C821009439
:103D30009020FFF741FC03234A46DC2100946020D9
:103D4000FFF73AFC05B0BDE8F08F00001800022034
:103D500078313A0079313A0078323A0079323A00D3
:103D600078333A0079333A0078343A0079343A00BB
:103D70006661632069733A002DE9F04FF84E002424
:103D8000F8491F2025462DED0E8B8BB030804FF665
:103D9000FF700880FEF72AFA4FF4784030804FF623
:103DA000FF70FEF723FAA046A6F8008010224FF01D
:103DB000010B2821CDF800B00A20EBA3FFF75CFC33
:103DC0001022CDF800B038210A20EEA3FFF754FCF2
:103DD0001022CDF800B048210A20F1A3FFF74CFCD7
:103DE0001022CDF800B058210A20F4A3FFF744FCBC
:103DF0001022CDF800B068210A20F7A3FFF73CFCA1
:103E000014214FF47842084600F06CFBF64F87F817
:103E100014809FEDF60A87ED060A9FEDF5CB9FED26
:103E2000F6DB9FEDF7BBF84EA7F10408B6EE00EA0B
:103E30004FF090094FF0D00A796801208847387D0B
:103E400000F0C001402946D120F04000387506A896
:103E5000398A002520F8241000EB8400798A4180FB
:103E6000601CC4B2012C06D0022C13D0032C20D02D
:103E7000042C3FD02FE014214FF6FF72084600F0CB
:103E800031FB308814214FF47842143880B200F0AE
:103E900029FB20E0308814214FF6FF72143880B2DD
:103EA00000F020FB70884FF47842143881B214205F
:103EB0000FE070884FF6FF72143881B2142000F0C2
:103EC00011FB70884FF47842143881B2308814386E
:103ED00080B200F007FB0A2001F0CCF9681C85B223
:103EE000B5F57A7FA8D900F03BFB0BB0BDEC0E8B8B
:103EF000BDE8F08FBDF81800BDF81C10411A48BF8E
:103F00004942BDF81A00BDF81E20801A48BF404241
:103F100001FB01F100FB00F0084400EE100AB8EECE
:103F2000400BB1EEC01BB4EE411BF1EE10FA03D012
:103F300001F005F9B0EE401BBDF82410BCEEC10B3A
:103F400010EE100A84B2BDF82000411A48BF494261
:103F5000BDF82200BDF82620801A48BF404201FB70
:103F600001F100FB00F0084400EE100AB8EE400B2F
:103F7000B1EEC01BB4EE411BF1EE10FA03D001F01C
:103F8000DEF8B0EE401BB0EE4C9BBCEEC10B10EE69
:103F9000100A00EE104A80B2F8EE400A00EE100A55
:103FA000B8EE400A80EE801AB7EEC18AB4EEC98B33
:103FB000F1EE10FA7CD3B0EE4DABB4EECA8BF1EE5D
:103FC00010FA75DC002C18BF002871D0BDF818005D
:103FD000BDF82010411A48BF4942BDF81A00BDF88B
:103FE0002220801A48BF404201FB01F100FB00F093
:103FF000084400EE100AB8EE400BB1EEC01BB4EE60
:10400000411BF1EE10FA03D001F099F8B0EE401B1D
:10401000BDF82410BCEEC10B10EE100A84B2BDF83E
:104020001C00411A48BF4942BDF81E00BDF82620B9
:10403000801A48BF404201FB01F100FB00F0084438
:1040400000EE100AB8EE400BB1EEC01BB4EE411BFF
:10405000F1EE10FA03D001F072F8B0EE401BBCEEA6
:10406000C10B10EE100A00EE104A80B2F8EE400AC2
:1040700000EE100AB8EE400A80EE801AB7EEC18A50
:10408000B4EEC98BF1EE10FA04D3B4EECA8BF1EEA4
:1040900010FA61DD708800244FF6FF72143881B287
:1040A0003088143880B200F01DFA4FF4784200E0F6
:1040B00022E01421084600F015FA28EE0B0BBDF89B
:1040C0002410BDF822200192BCEEC00B10EE100AA5
:1040D00083B2BDF826000493CDE90210BDF820009C
:1040E0000090BDF81E30BDF81C20BDF81A10BDF8B8
:1040F0001800FFF79BFD9FE6708800244FF6FF72C3
:10410000143881B23088143880B200F0EBF91421F1
:104110004FF47842084600F0E5F928EE0B0BBDF8A5
:104120002210BDF824200191BDF81A10BCEEC00B7E
:1041300010EE100A83B2BDF826000493CDE90220E8
:10414000BDF820000090BDF81E30BDF81C20BDF861
:104150001800FFF76BFD6FE658E00000000000005C
:10416000180002201A000220506C656173652075EA
:10417000736520746865207374796C757320636C43
:1041800069636B007468652063726F7373206F6E70
:10419000207468652073637265656E2E00000000F0
:1041A0005468652063726F73732077696C6C20614B
:1041B0006C77617973206D6F76650000756E746938
:1041C0006C207468652073637265656E2061646A33
:1041D0007573746D656E7400697320636F6D706CB8
:1041E000657465642E0000002000022000000000BD
:1041F000666666666666EE3FCDCCCCCCCCCCF03F36
:10420000000000000000594098000220BDF81C008A
:10421000BDF82010411A48BF4942BDF81E00BDF844
:104220002220801A48BF404201FB01F100FB00F050
:10423000084400EE100AB8EE400BB1EEC01BB4EE1D
:10424000411BF1EE10FA03D000F079FFB0EE401BF5
:10425000BDF82410BCEEC10B10EE100A84B2BDF8FC
:104260001800411A48BF4942BDF81A00BDF826207F
:10427000801A48BF404201FB01F100FB00F00844F6
:1042800000EE100AB8EE400BB1EEC01BB4EE411BBD
:10429000F1EE10FA03D000F052FFB0EE401BBCEE7E
:1042A000C10B10EE100A00EE104A80B2F8EE400A80
:1042B00000EE100AB8EE400A80EE801AB7EEC18A0E
:1042C000B4EEC98BF1EE10FAFFF416AFB4EECA8B60
:1042D000F1EE10FA3FF710AFBDF81C10BDF8180052
:1042E0000A1A00EE102A32880844B8EEC01AA2F169
:1042F000280300EE103AB8EEC00AC0EE010A00EE44
:10430000100AB8EE401A00EE102AB8EE400AC7EDC7
:10431000060A00EEC10AFDEEE00A20EE0E0ABDEE2E
:10432000C00A10EE100A3884BDF82230BDF81A0019
:10433000191A00EE101A71881844B8EEC01AA1F1CB
:10434000280C00EE10CAF8EEC01A81EE810A01EEC8
:10435000100AF8EE411A01EE101AB8EE411A87ED74
:10436000070A00EE611A21EE0E1ABDEEC11A11EE17
:10437000100A788410EE900A0028B8BF4042022844
:1043800008DCBDEEC00A10EE100A0028B8BF40429B
:1043900002282BDDA1F1140081B2A2F114004FF626
:1043A000FF7280B2002400F09DF814214FF478428F
:1043B000084600F097F81022CDF800B01A21282006
:1043C0002EA3FFF759F997F8240000280CBF01200D
:1043D000002087F82400002819BF88F8009088F88A
:1043E00001A088F800A088F8019025E528491F2041
:1043F00008804FF6FF70FDF7F9FE1022CDF800B0EF
:104400006E21232023A3FFF737F94FF47A7000F0D1
:1044100031FF97ED060A9FED258A0422282020EE21
:10442000080ABDEEC00A10EE101AFCF753F897ED1B
:10443000070A04222C2020EE080ABDEEC00A10EE66
:10444000101AFCF747F8B7F9201002223020FCF7C9
:1044500041F8B7F9221002223220FCF73BF897F816
:1044600024103420FCF768F80A213520FCF764F8A2
:104470004FF6FF70FDF7BAFE37E500005450204EAE
:1044800065656420726561646A757374210000005B
:1044900018000220546F7563682053637265656E5F
:1044A0002041646A757374204F4B210020BCBE4CC0
:1044B00070B506460A480C4602803046FDF70CFFF0
:1044C000751C2146A8B2FDF707FF641C3046A1B257
:1044D000FDF702FFA1B2A8B2BDE87040FDF7FCBE37
:1044E000180002202DE9F843DFF8709005460D30E2
:1044F0000C460B46A9F8002082B2A5F10C0080B250
:10450000FDF79EFE04F10D002A4683B2193881B2F0
:104510001046FDF795FE661C05F10108B1B21FFAC1
:1045200088F0FDF7D9FEB1B26E1EB0B2FDF7D4FE31
:10453000671EB9B21FFA88F0FDF7CEFEB9B2B0B26D
:10454000FDF7CAFE00200090B9F80020062321469E
:10455000284600F0CFFEBDE8F883000018000220D6
:1045600010B535202DED028BFBF793FF0A281EBFF7
:104570000020BDEC028B10BD04212820FBF754FF66
:1045800000EE100A9FED188A184C0421B8EEC00AFC
:104590002C20C0EE080AC4ED060AFBF745FF00EE2A
:1045A000100A02213020B8EEC00AC0EE080AC4ED9D
:1045B000070AFBF739FF022120843220FBF734FF82
:1045C00060843420FBF765FF902384F82400211FCA
:1045D000D022002819BF0B704A700A704B7001205E
:1045E000BDEC028B10BD000020BCBE4C20000220A0
:1045F0002F48F0B5016887B041F080010160016883
:1046000001F080010591016841F480710160016849
:1046100001F480710591016841F04001016000687A
:104620006946244C00F04000059040200090012095
:1046300001900290032003902046FCF75BFD4FF4AD
:1046400084711D4800916946FCF754FD802100915A
:104650000021204601916946FCF74CFD082000909E
:1046600016486946FCF746FD1548071F00F110057E
:10467000AC1C387800F0A6F80646787800F0A2F86E
:104680002E802080FBF7CEFEFFF76AFF00281EBFBA
:10469000002007B0F0BD4FF6FF70FDF7A7FDFFF754
:1046A0006BFB00F011F9FFF75BFF07B00120F0BDD5
:1046B00030380240001C0240002002400018024036
:1046C000200002202DE9F047DFF8EC800024402193
:1046D000054622464046FCF738FE384F00220821A6
:1046E0003846FCF732FE00223846B915FCF72DFE9D
:1046F000002615F0800F05D0012238460821FCF76E
:1047000024FE04E0002238460821FCF71EFE68065D
:104710000022050E40464021FCF717FE012000F064
:10472000CFFD012240464021FCF70FFE701CC6B2AF
:10473000082EDED3062000F0C3FD002240464021B3
:10474000FCF703FE012000F0BBFD012240464021A2
:10475000FCF7FBFD012000F0B3FD002240464021A4
:10476000FCF7F3FDDFF8589000254FF6FF76404642
:104770000022402106EA4404FCF7E7FD012000F096
:104780009FFD012240464021FCF7DFFD08214846FD
:10479000FCF7D2FD00281CBF601C84B2681CC5B2A7
:1047A000102DE4D30122384624091102FCF7CDFD77
:1047B0002046BDE8F0870000001C024000200240B7
:1047C0000018024070B584B0064600246D4630469D
:1047D000FFF778FF25F81400601C84B2052CF6D38F
:1047E000002101F1010C1FFA8CF005280DD235F8DB
:1047F000112035F810309A4284BF25F8113025F881
:104800001020401C80B20528F1D31FFA8CF1042936
:10481000E7D30021012035F81020401C80B211445C
:1048200089B20428F7D34AF6AB2004B001FB00F0AC
:10483000400C70BDF0B5234F85B00D460646387864
:10484000FFF7C0FF04467878FFF7BCFFADF80840DB
:10485000ADF800003878FFF7B5FF04467878FFF729
:10486000B1FFBDF80820ADF80C409442ADF804004B
:104870009CBF04F132018A4205D3A2429CBF02F1DF
:1048800032018C421AD2BDF80030834224BF00F1BD
:104890003201994205D883429CBF03F1320188421C
:1048A0000CD2101940083080BDF80000BDF804108B
:1048B00008444008288005B00120F0BD05B0002064
:1048C000F0BD00001C00022010B51B4C0422282063
:1048D0002DED028B94ED060A9FED188A20EE080A52
:1048E000BDEEC00A10EE101AFBF7F4FD94ED070AB6
:1048F00004222C2020EE080ABDEEC00A10EE101A89
:10490000FBF7E8FDB4F9201002223020FBF7E2FDAE
:10491000B4F9221002223220FBF7DCFD94F82410B7
:104920003420FBF709FEBDEC028B0A213520BDE8DF
:104930001040FBF701BE00002000022020BCBE4C4E
:1049400070B5802105462B48FCF7F6FC2A4C40B197
:10495000207D10F0800F1CBF20F0800020753ED01D
:1049600044E004F1120104F1100015B1FFF762FFF9
:104970002AE0FFF75FFF38B3B4F9200094ED061A80
:1049800000EE100A208A00EE900AB8EEC00AF8EE97
:10499000600A01EE200ABCEEC00A10EE100A208266
:1049A000B4F9220094ED071A00EE100A608A00EEB6
:1049B000900AB8EEC00AF8EE600A01EE200ABCEEDA
:1049C000C00A10EE100A6082207D10F0800F0DD119
:1049D000C0202075208AA081608AE08106E0002046
:1049E000A081E0814FF6FF7020826082207D00F080
:1049F000800070BD001C024020000220F8B5002499
:104A00001EA0FBF779FE234D0027234EC4EBC40004
:104A10000097322300EB800069882A8800EB51015F
:104A200000EB520036F814204638463900F062FC9C
:104A3000601CC4B2052CE9D340F2DC5000F01AFC33
:104A40000024012700976988C4EBC4002A88322318
:104A500000EB800000EB510100EB520036F814200F
:104A60004638463900F046FC601CC4B2052CE9D338
:104A7000BDE8F84040F2DC5000F0FCBBB2E2CAD422
:104A8000333A475549BBADD4B2CCEEB3E4B2E2CA37
:104A9000D4000000980002200000022070B53B4CBA
:104AA00084B04FF6FF70002100906088401E83B2F2
:104AB0002088401E82B20846FDF73CFC10264FF6C7
:104AC000E07333A001250295CDE900061F221E21C7
:104AD0001420FEF7A3FF4FF4487000F0CBFB4FF417
:104AE0007840009060880021401E83B22088401EDC
:104AF00082B20846FDF71EFC27A04FF6E073CDE911
:104B000000061F2202951E211420FEF787FF4FF496
:104B1000487000F0AFFB4FF4FC600090608800210B
:104B2000401E83B22088401E82B20846FDF702FC78
:104B30001BA04FF6E073CDE900061F2202951E214F
:104B40001420FEF76BFF4FF4487000F093FB1F201A
:104B5000009060880021401E83B22088401E82B2EF
:104B60000846FDF7E7FB10A04FF6E073CDE900061D
:104B70001E21029514204FF47842FEF74FFF04B037
:104B80004FF44870BDE8704000F074BB98000220FC
:104B9000424C2054657374005245442000000000CC
:104BA000475245454E200000424C5545200000002C
:104BB000F8B557A0FBF7A0FD5A4D1F2028805A4892
:104BC000FBF7A6FB01240094102232210F2057A3EB
:104BD000FEF752FD1022009446210F2059A3FEF744
:104BE0004BFD102200945A210F205CA3FEF744FDD8
:104BF000102200946E210F205EA3FEF73DFD1022CF
:104C0000009482210F2061A3FEF736FD102200944C
:104C100096210F2063A3FEF72FFD10220094AA21F6
:104C20000F2065A3FEF728FD4FF47840674F00245E
:104C300042F2107628801025FBF730FB90FBF6F14E
:104C40000523009506FB110232216420FEF7B4FC17
:104C5000FBF724FB90FBF6F10523009506FB110200
:104C600046216420FEF7A8FCFBF718FB90FBF6F149
:104C70000523009506FB11025A216420FEF79CFCD7
:104C8000FBF70CFB90FBF6F10523009506FB1102E8
:104C90006E216420FEF790FCFBF700FB90FBF6F121
:104CA0000523009506FB110282216420FEF784FC97
:104CB000FBF7F4FA87FB0021052300950A11A2EB0C
:104CC000E1716FF0180201FB02F100EB4102962145
:104CD0006420FEF771FCFBF7E1FA87FB0021052356
:104CE00000954A11A2EBE1716FF0180201FB02F18D
:104CF00000EB8102AA216420FEF75EFC4FF4FA70FB
:104D000000F0B8FA601CC4B20F2C95D3F8BD0000B7
:104D1000B2E2CAD4383AB6AFCCACCAFDD7D6CFD4FB
:104D2000CABE00001800022040E2010020484348AB
:104D30004F3A202020202020202020202075672F7F
:104D40006D3300002020434F323A202020202020C5
:104D5000202020202070706D000000002054564F4D
:104D6000433A202020202020202020202075672F5B
:104D70006D330000504D322E353A20202020202067
:104D8000202020202075672F6D33000020504D31EA
:104D9000303A202020202020202020202075672F3E
:104DA0006D33000020205445503A20202020202040
:104DB0002020202020430000202048554D3A20206C
:104DC0002020202020202020202500001F85EB51BE
:104DD0002DE9F041002426A0FBF78EFC2A4F2B4E34
:104DE0002B4D37F81400308068884108C4EB04105C
:104DF00001EB4001A1F10A0293B22A886E3989B20F
:104E0000520802EB4000A0F10A026E3892B280B262
:104E1000FDF772FA601CC4B2052CE2D340F2DC50FC
:104E200000F028FA0024C4EB041137F81400308095
:104E30006888400800EB4100A0F10A0293B22A887A
:104E40006E38520802EB410CACF10A018AB281B211
:104E5000ACF16E0080B2FDF7E7F9601CC4B2052C1E
:104E6000E1D3BDE8F04140F2DC5000F003BA0000AD
:104E7000B2E2CAD4323A475549BED8D0CECCEEB30E
:104E8000E4B2E2CAD40000000000022018000220B0
:104E900098000220F0B5002483B02BA0FBF72CFC77
:104EA000304E314F314D36F81400388068882B88E9
:104EB0004108C4EB04105B0801EB4002A2F11101B0
:104EC00089B203EB4000A0F10B039BB2673ACDE936
:104ED000003193B2A0F13D026E3892B280B2FBF77E
:104EE00061FC601CC4B2052CDDD340F2DC5000F044
:104EF000C1F9002436F81400388068882B884108EE
:104F0000C4EB04105B0801EB4002A2F1110189B26D
:104F100003EB4000A0F10B039BB2673ACDE90031EF
:104F200093B2A0F13D026E3892B280B2FBF762FEFE
:104F3000601CC4B2052CDDD303B040F2DC50BDE8E8
:104F4000F04000F097B90000B2E2CAD4343A4755B5
:104F50004920547269616E676C65CCEEB3E4B2E2CD
:104F6000CAD400000000022018000220980002208D
:104F7000002482B026464FF47845FFF739FBFDF751
:104F800081F8FEF70BFC5DA0FBF7B6FBDFF8909114
:104F90004FF0010ACDF800A01022002161A3B9F85A
:104FA0000000183880B2FEF767FB5F4F28461223D7
:104FB00038800090B9F80000A0F11C018AB23238A4
:104FC00080B20221FDF7B6F9DFF860810120FDF71C
:104FD00099F8D8F8041083460020884798F8140000
:104FE00010F0800F55D0B8F81000B9F800208242B8
:104FF00052D9B8F81210B9F802308B424CD9A2F14C
:10500000180398421DDD10291BD23CA0FBF774FB4E
:10501000CDF800A01022B9F80000002141A31838F3
:1050200080B2FEF729FB3D8012230095B9F80000FD
:10503000A0F11C018AB2323880B20221FDF77AF960
:105040002AE0A2F132039842C4BF1C3A82421CDD1E
:1050500014291AD2364892B2A0FB061080084042AA
:1050600000EB80008119334800EB410502212888BC
:10507000009098B21223FDF75DF9701C2D8886B25E
:105080003D800A2000F0F6F806E03A88FFF710FAB3
:1050900002E00A2000F0EEF8BBF1010F22D14FF63A
:1050A000FF70FDF7A3F8FEF767FEFFF70DFC13A0F6
:1050B000FBF722FBCDF800A01022B9F80000002178
:1050C00018A3183880B2FEF7D7FA3D801223009556
:1050D000B9F80000A0F11C018AB2323880B2022176
:1050E000FDF728F9601C84B21E2C7FF46FAF1248C4
:1050F00000240221FCF725F968E70000B2E2CAD4D7
:1051000031303A546F756368B2E2CAD428B0B44BF8
:10511000455930BCFCD0A3D7BC292020200000007A
:105120009800022052535400180002202000022050
:10513000CDCCCCCC0000022000040240FEE700B53C
:105140002DED028BB1EEC08B83B018EE100A18EE75
:10515000901A8DED008B002818BF0120084320F025
:105160000040C0F17F6000F1E040C00F14D010EEAD
:10517000101A10EE900A8DED000B002918BF0121C6
:10518000084320F00040C0F17F6000F1E040C00F14
:1051900004BF0120FBF701F9B0EE480B03B0BDECF2
:1051A000028B00BD2DE9F05F1D46164600EB060B95
:1051B0000F4601EB05090A9C1FFA89F180461FFA88
:1051C0008BF0FEF739F92046FEF70EFBA8EB060A36
:1051D0001FFA8AF01FFA89F1FEF72EF92046FEF732
:1051E00003FBA7EB05091FFA8BF01FFA89F1FEF705
:1051F00023F92046FEF7F8FA1FFA8AF01FFA89F120
:10520000FEF71AF92046FEF7EFFA08EB050907EB5F
:10521000060A1FFA89F01FFA8AF1FEF70DF92046F7
:10522000FEF7E2FAA8EB05081FFA88F01FFA8AF1E8
:10523000FEF702F92046FEF7D7FABD1B1FFA89F0E8
:10524000A9B2FEF7F9F82046FEF7CEFA1FFA88F069
:10525000A9B2FEF7F1F82046BDE8F05FFEF7C4BA48
:1052600010B504460420FCF76BFD0148046010BD36
:1052700014000220F0B4002400289CBFF0BC70474A
:105280000E494FF47A724FF0E026096801FB02F5EF
:10529000D6F814C00021B369B2699A42FCD026BF87
:1052A000ACEB02073B449B1A19441346A942F3D3C3
:1052B000641C8442ECD3F0BC704700001400022050
:1052C00030B44FF0E02400216369094A126800FB02
:1052D00002FCA269A0699042FCD026BF1D1A2A4494
:1052E000121A114402466145F4D330BC70470000E5
:1052F000140002202DE9F84F1C46894600259046EF
:10530000614282460A98032202EB410610B3002C48
:10531000B8BFBDE8F88F2F46A5420ADC3B462A46B7
:1053200049465046CDF80080FFF73CFF7F1CA7425E
:10533000F4DD002EBCBF06EB8500861D05DB281BB7
:10534000641E06EB800000F10A066D1CA542E2DD3A
:10535000BDE8F88F002CB8BFBDE8F88F23462A4679
:1053600049465046CDF80080FFF71CFF002EBCBF19
:1053700006EB8500861D05DB281B641E06EB8000FE
:1053800000F10A066D1CA542E8DDBDE8F88FFBF7C9
:10539000F3F8FBF7EDFF0923022219214FF4D8702F
:1053A000FEF7C6FBD820FFF75BFFFEF7C5FAFDF757
:1053B00039F800F015F8FFF771FBFFF709FDFFF76B
:1053C0001DFBFFF767FDFBF705FAFBF719F9FEF781
:1053D00013FAFFF7EDFBFEF763FAFFF7C9FDE8E705
:1053E00030B583B01CA0FBF787F910241F2320A041
:1053F000CDE9000401250295DA021E210020FBF709
:1054000055FE1F23029516A0CDE90004DA023C21C7
:105410000020FBF74BFE19A04FF61F02CDE9000458
:105420001F2302955A210020FBF740FE1BA0029586
:105430001F23CDE9000478211A460020FBF736FE31
:1054400040F2DC50FFF716FF03B040F2DC50BDE83D
:105450003040FFF70FBF0000C8ABB6AFB5E7D7D3FA
:10546000D7DBBACFB2E2CAD4B3CCD0F2000000008E
:10547000C8ABB6AFB5E7D7D300000000342E30225A
:10548000204D65676132353630204E543335353125
:105490003020343830583830300000007869616F7F
:1054A00046656E674051447465636820323032321D
:1054B0002D30332D303200004FF04070E1EE100AF5
:1054C0007047000000000000000000000000000025
:1054D0002020202020200020000000285050000024
:1054E00000000000000000002828FC2850FC50505C
:1054F0000000002078A8A0603028A8F0200000005C
:1055000048A8B0502834544800000000205050787B
:10551000A8A8906C0000004040800000000000003F
:1055200000000004081010101010100804000040C3
:105530002010101010101020400000000020A87053
:1055400070A8200000000000202020F8202020006B
:10555000000000000000000000000040408000004B
:10556000000000F800000000000000000000000043
:1055700000000040000000081010102020404040B3
:10558000800000007088888888888870000000008B
:1055900020602020202020700000000070888810EB
:1055A000204080F8000000007088083008088870EB
:1055B00000000000103050509078101800000000DB
:1055C000F88080F00808887000000000709080F07B
:1055D0008888887000000000F8901020202020208B
:1055E00000000000708888708888887000000000C3
:1055F000708888887808487000000000000020004B
:10560000000000200000000000000020000000203A
:1056100020000004081020402010080400000000B2
:105620000000F80000F8000000000040201008040E
:105630000810204000000000708888102020002002
:1056400000000000708898A8A8B8807800000000CA
:1056500020203050507848CC00000000F0484870BE
:10566000484848F00000000078888080808088707A
:1056700000000000F0484848484848F0000000009A
:10568000F8485070504048F800000000F84850704A
:10569000504040E000000000384880809C8848303E
:1056A00000000000CC484878484848CC0000000082
:1056B000F8202020202020F8000000007C1010108E
:1056C00010101090E0000000EC485060505048EC82
:1056D00000000000E0404040404044FC000000006A
:1056E000D8D8D8D8A8A8A8A800000000DC486868C6
:1056F000585848E8000000007088888888888870BA
:1057000000000000F0484870404040E00000000009
:105710007088888888E8987018000000F048487001
:10572000504848EC0000000078888060100888F03D
:1057300000000000F8A820202020207000000000B9
:10574000CC4848484848483000000000CC48485001
:105750005030202000000000A8A8A87050505050E1
:1057600000000000D8505020205050D80000000009
:10577000D85050202020207000000000F890102009
:10578000204048F800000038202020202020202041
:105790003800004040402020101010080000007029
:1057A0001010101010101010700000205000000099
:1057B00000000000000000000000000000000000E9
:1057C00000FC0020000000000000000000000000BD
:1057D000000000304838483C00000000C0404070E5
:1057E0004848487000000000000000384840403839
:1057F00000000000180808384848483C0000000035
:105800000000003048784038000000001C2020785C
:1058100020202078000000000000003C4830407844
:1058200044380000C0404070484848EC0000000088
:1058300020000060202020700000000010000030D8
:105840001010101010E00000C040405C507048EC98
:1058500000000000E0202020202020F800000000B0
:10586000000000F0A8A8A8A800000000000000F0B8
:10587000484848EC0000000000000030484848302C
:1058800000000000000000F04848487040E00000C0
:105890000000003848484838081C0000000000D8C4
:1058A000604040E0000000000000007840300878D0
:1058B00000000000002020702020201800000000C0
:1058C000000000D84848483C00000000000000EC00
:1058D0004850302000000000000000A8A870505080
:1058E00000000000000000D8502050D80000000048
:1058F000000000EC4850302020C00000000000787C
:105900001020207800000018101010201010101027
:10591000180010101010101010101010101000604F
:105920002020201020202020600040A4180000002B
:105930000000000000000000000000000000000067
:1059400000000000000000000010101010101010E7
:105950000000181800000012362448000000000063
:10596000000000000000000000242424FE484848F5
:10597000FE484848000000001038545450301814B5
:1059800014545438101000000044A4A8A8A8541AB5
:105990002A2A2A44000000000030484848506EA4DB
:1059A00094888976000000606020C000000000003C
:1059B0000000000000000002040808101010101081
:1059C0001008080402000040201010080808080809
:1059D000081010204000000000001010D63838D603
:1059E0001010000000000000000010101010FE1049
:1059F0001010100000000000000000000000000077
:105A00000000606020C000000000000000007F0077
:105A10000000000000000000000000000000000086
:105A20000000606000000000010202040408081089
:105A30001020204040000000001824424242424210
:105A400042422418000000000010701010101010C6
:105A50001010107C00000000003C42424204040888
:105A60001020427E00000000003C42420418040264
:105A7000024244380000000000040C142424444472
:105A80007E04041E00000000007E40404058640276
:105A90000242443800000000001C24404058644288
:105AA0004242241800000000007E44440808101000
:105AB0001010101000000000003C42424224182444
:105AC0004242423C00000000001824424242261A92
:105AD0000202243800000000000000001818000036
