:1000030000000000000000000000000000002020AD
:100013002020202000200000002850500000000075
:100023000000000000002828FC2850FC505000006D
:10003300002078A8A0603028A8F02000000048A87D
:10004300B050283454480000000020505078A8A82D
:10005300906C0000004040800000000000000000A1
:1000630000040810101010101008040000402010A5
:10007300101010101020400000000020A87070A87D
:10008300200000000000202020F820202000000095
:10009300000000000000000000404080000000005D
:1000A30000F8000000000000000000000000000055
:1000B3000040000000081010102020404040800045
:1000C300000070888888888888700000000020609D
:1000D300202020202070000000007088881020401D
:1000E30080F800000000708808300808887000005D
:1000F3000000103050509078101800000000F88075
:1001030080F00808887000000000709080F08888F4
:10011300887000000000F8901020202020200000AC
:1001230000007088887088888870000000007088DC
:100133008888780848700000000000002000000054
:10014300002000000000000000200000002020002C
:1001530000040810204020100804000000000000E4
:10016300F80000F800000000004020100804081008
:10017300204000000000708888102020002000002C
:100183000000708898A8A8B880780000000020209C
:100193003050507848CC00000000F0484870484880
:1001A30048F000000000788880808080887000001C
:1001B3000000F0484848484848F000000000F8486C
:1001C3005070504048F800000000F848507050400C
:1001D30040E000000000384880809C8848300000E0
:1001E3000000CC484878484848CC00000000F8207C
:1001F3002020202020F8000000007C101010101098
:100203001090E0000000EC485060505048EC0000B3
:100213000000E0404040404044FC00000000D8D8CB
:10022300D8D8A8A8A8A800000000DC4868685858D7
:1002330048E800000000708888888888887000007B
:100243000000F0484870404040E000000000708823
:10025300888888E8987018000000F0484870504873
:1002630048EC0000000078888060100888F00000E7
:100273000000F8A820202020207000000000CC48B7
:1002830048484848483000000000CC4848505030A7
:10029300202000000000A8A8A87050505050000073
:1002A3000000D8505020205050D800000000D850F3
:1002B30050202020207000000000F89010202040E3
:1002C30048F800000038202020202020202038007B
:1002D3000040404020201010100800000070101053
:1002E30010101010101070000020500000000000CB
:1002F300000000000000000000000000000000FCFF
:1003030000200000000000000000000000000000CA
:1003130000304838483C00000000C0404070484866
:1003230048700000000000000038484040380000DA
:100333000000180808384848483C00000000000046
:10034300003048784038000000001C20207820202E
:100353002078000000000000003C4830407844381A
:100363000000C0404070484848EC000000002000F6
:1003730000602020207000000000100000301010EA
:10038300101010E00000C040405C507048EC0000CA
:100393000000E0202020202020F8000000000000C2
:1003A30000F0A8A8A8A800000000000000F048483A
:1003B30048EC0000000000000030484848300000CE
:1003C3000000000000F04848487040E000000000D2
:1003D300003848484838081C0000000000D8604036
:1003E30040E0000000000000007840300878000082
:1003F30000000020207020202018000000000000D2
:1004030000D84848483C00000000000000EC485079
:10041300302000000000000000A8A8705050000029
:100423000000000000D8502050D800000000000059
:1004330000EC4850302020C000000000007810205D
:100443002078000000181010102010101010180051
:100453001010101010101010101010100060202039
:10046300201020202020600040A41800000000007D
:100473000000000000000000000000000000000079
:1004830000000000000000101010101010100000F9
:100493001818000000123624480000000000000075
:1004A30000000000000000242424FE484848FE48C1
:1004B30048480000000010385454503018141454A5
:1004C3005438101000000044A4A8A8A8541A2A2ADB
:1004D3002A44000000000030484848506EA4948825
:1004E3008976000000606020C0000000000000006A
:1004F300000000000002040808101010101010087B
:10050300080402000040201010080808080808101A
:1005130010204000000000001010D63838D610100C
:10052300000000000000000010101010FE1010105A
:1005330010000000000000000000000000000000A8
:10054300606020C000000000000000007F00000089
:100553000000000000000000000000000000000098
:10056300606000000000010202040408081010206B
:1005730020404000000000182442424242424242CE
:10058300241800000000001070101010101010103C
:10059300107C00000000003C42424204040810208A
:1005A300427E00000000003C424204180402024262
:1005B30044380000000000040C14242444447E0446
:1005C300041E00000000007E4040405864020242C6
:1005D300443800000000001C24404058644242425A
:1005E300241800000000007E444408081010101076
:1005F300101000000000003C4242422418244242F2
:10060300423C00000000001824424242261A020223
:10061300243800000000000000001818000000004B
:100623001818000000000000000000100000000087
:1006330000101020000000020408102040201008C1
:1006430004020000000000000000FE000000FE00A5
:1006530000000000000000402010080402040810FD
:10066300204000000000003C4242620204080800EF
:100673001818000000000038445AAAAAAAAAB442D3
:10068300443800000000001010182828243C44427D
:1006930042E70000000000F84444447844424242E8
:1006A30044F800000000003E424280808080804287
:1006B30044380000000000F84442424242424242B1
:1006C30044F80000000000FC424848784848404293
:1006D30042FC0000000000FC424848784848404083
:1006E30040E000000000003C44448080808E84444D
:1006F30044380000000000E7424242427E42424248
:1007030042E700000000007C1010101010101010C1
:10071300107C00000000003E0808080808080808CC
:10072300080888F0000000EE4448507050484844E0
:1007330044EE0000000000E04040404040404040A4
:1007430042FE0000000000EE6C6C6C6C5454545478
:1007530054D60000000000C7626252524A4A4A4619
:1007630046E2000000000038448282828282828254
:1007730044380000000000FC424242427C404040BA
:1007830040E0000000000038448282828282B2CAC4
:100793004C380600000000FC4242427C4848444476
:1007A30042E300000000003E42424020180402429F
:1007B300427C0000000000FE921010101010101078
:1007C30010380000000000E74242424242424242E7
:1007D300423C0000000000E7424244242428281839
:1007E30010100000000000D692929292AAAA6C44C4
:1007F30044440000000000E742242418181824246D
:1008030042E70000000000EE4444282810101010B6
:10081300103800000000007E8404080810202042E5
:1008230042FC0000001E10101010101010101010C9
:1008330010101E0000004040202010101008080473
:1008430004040202007808080808080808080808D1
:1008530008087800001C22000000000000000000CF
:100863000000000000000000000000000000000085
:10087300000000FF00601000000000000000000006
:1008830000000000000000000000003C421E224265
:10089300423F0000000000C04040405864424242D2
:1008A30064580000000000000000001C224040408B
:1008B300221C0000000000060202021E22424242E5
:1008C300261B0000000000000000003C427E404068
:1008D300423C00000000000F1110107E1010101099
:1008E300107C0000000000000000003E444438403B
:1008F3003C42423C000000C04040405C62424242F5
:1009030042E70000000000303000007010101010AB
:10091300107C00000000000C0C00001C0404040404
:1009230004044478000000C04040404E48506848EA
:1009330044EE000000000070101010101010101092
:10094300107C000000000000000000FE49494949F6
:1009530049ED000000000000000000DC624242425A
:1009630042E70000000000000000003C4242424217
:10097300423C000000000000000000D864424242F4
:10098300447840E0000000000000001E2242424282
:10099300221E020700000000000000EE322020208B
:1009A30020F80000000000000000003E42403C022E
:1009B300427C0000000000000010107C101010109A
:1009C300100C000000000000000000C6424242423A
:1009D300463B000000000000000000E742242428FA
:1009E3001010000000000000000000D79292AAAA95
:1009F30044440000000000000000006E2418181892
:100A03002476000000000000000000E742242428B0
:100A1300181010E0000000000000007E44081010D1
:100A2300227E0000000304040404040804040404F4
:100A33000404030008080808080808080808080848
:100A4300080808080060101010101008101010108B
:100A530010106000304C4300000000000000000054
:100A630000000000C9EE000027FC140414A4811048
:100A730042084040104017FC2040E0E0215022484B
:100A83002C4620400040DBDA1104112411241124E8
:100A93001124FD24112411241124112411241D24B3
:100AA300E124422402040404CAD00200010000002D
:100AB3007FFC0100010001003FF821082108210803
:100AC30021082128211001000100C8AB000000000B
:100AD300018002400430180860061FF9010001007C
:100AE30001003FF80100010001007FFEB6AF0000E6
:100AF300000000203E20007C002200227F221022E2
:100B0300102212221222224223423D82009CB5E788
:100B13000000010001001FF0610C410441047FFC4F
:100B23004104410441047FFC01000102010201FC74
:100B3300D7D3000000003FF80010006000800100E0
:100B430000807FFE0040004000200020002018406D
:100B53000780BCBC00000000104013FE10407C4026
:100B6300104013FC1104190830885050106010D045
:100B730013087C06CAF500000100013001080100DA
:100B83007FFE018003400540052009101108210460
:100B9300410201000100D3D00000010002007FFEEA
:100BA300040008001FFC700490041FFC10041004D0
:100BB3001FFC10041004103CCFDE000000007BFC7F
:100BC3004A044A044BFC52044A044BFC4A404A443C
:100BD3007A2842304210420843C6B9AB00000000F5
:100BE30004400420081010101008210442020220BF
:100BF30004100810080810081FFC0004CBBE0000F6
:100C030000003FFC000400043FF400043FE4202400
:100C130020242024202420241FC40004007CBBB6ED
:100C23000000000000807EFC02A202A222A4152480
:100C330014240C300C300C481248228442840102E4
:100C4300D3AD000000002398246414440444644496
:100C5300144414441444144415C4125C1040284032
:100C630047FEC4FA00000000120013FE24222522CE
:100C7300652862242224242020E0050814842444C7
:100C8300241A47F2B4BF00000020102013FE2020D6
:100C930026244A247A241224222423FC7C200022A2
:100CA30004227822003CC9AB0000000004000FF0CE
:100CB300102020207FFC20842084208420843FF87F
:100CC3002000200220021FFECCEE00000000204086
:100CD30023FE204079FC220423FC220423FC22046B
:100CE30023FC3A0465FA01980204B3E4000001000E
:100CF30001007FFE02200410040808043FFC0442A4
:100D030004400440044208421042607EBED8000002
:100D13000000207E3E804880488048FE48827F82D3
:100D230008820C8214FA12842280218040FED0CEE5
:100D3300000000007F842208223022C02202220405
:100D43007FC8223022C222022204220822304040DD
:100D5300BBAD000000007FFE00000FF0111011106A
:100D6300111051125FF25112511251124FF24002FF
:100D73007FFCD4B2000000007FFE47E24812481215
:100D830047E24FF2501250125112511242924472E2
:100D9300580A3FFCC800000000007FFC0000000070
:100DA300000000003FF80000000000000000000009
:100DB300FFFE00000000BDC7080008001FE0202060
:100DC3004040BFF8210821083FF8210821083FF8D7
:100DD3002108410841288010CDBC000000003FFEDF
:100DE300440247F24C225362408243625E1A4182BC
:100DF3004062430240C240223FFCC6AC00000040B8
:100E03002040204020403FFE2000200020003FE003
:100E1300201020102010201040104010CFD40000CC
:100E230000003FFC200420043FFC200420041FF8A2
:100E330024441448144814480C5004407FFECABE8E
:100E4300000000003FFC0000000000007FFE008067
:100E530008900888108810842084208240820780AC
:100E6300B2CB0000002008207FFE002000783F88DE
:100E73001108089009207FFE018003400D30310CDA
:100E83004002B5A500000010081004203FF821041B
:100E930021043FFC210421043FF801007FFE0100EF
:100EA30001000100D6D000000100010001003FFC59
:100EB3002104210421042104210421043FFC010015
:100EC300010001000100D3A20000000008207FFE02
:100ED3000820092001003FF82108210821081FF4F8
:100EE300014002200C10700ECEC40000010001006E
:100EF30000803F7C081008100410042002200240E8
:100F03000180018002601C18E006D7DB00000000AE
:100F1300102011FE2202220249FC5800300013FE69
:100F23002528792401240D24722202A2BACF0000BD
:100F33000000018002400430180860061FF800001A
:100F43001FF8200420042004200420041FF8C1C13A
:100F53000000010001007FFE00003FF820083FF879
:100F63003FF8400647C24824082008221022603E6A
:100F7300B6C80000000000803FFE44105FFC441030
:100F8300441043F040005FF84408423041C04360DE
:100F9300BC1EB2E20000000067C2145205520552A3
:100FA300C55225520552055215521752228222422A
:100FB3004442483ECAD4000000002014101417FE17
:100FC30000120010601013F0109010901090149203
:100FD30014EA1F0A0006B3CC0000000019FE7202D7
:100FE300120212027DFC18001BFE3420502053FE17
:100FF30010201020102013FED0F20000000000800B
:101003003FFE400047FC4208413040C05FFE404283
:1010130040424044404840404440B5F7000000008F
:1010230023FE122202FA0222E22212FE1272128A14
:10103300128A128A16BA1A421202040EB9E2000088
:101043000100010411080908091009207FFE04406A
:10105300044004400440084208421042607CB0E669
:101063000000000048FE4900490049007EFE41821D
:101073004144794445284528451045284644038280
:10108300C8A800001000100013FC7D04110419040B
:10109300188434885048505010201050108813047E
:1010A3001402CBF9000000003F7C204020403E406A
:1010B300227E2244224422443E842084208440848D
:1010C30041044204C6C100003FF8200820083FF84D
:1010D300241022202FF8222022203FFC222042200D
:1010E300442084200820C4BB04407FFC04401FF03C
:1010F30010101FF010101FF00400FFFE11103FF836
:10110300D116115011200100D0002080108010FE54
:101113000100FE0021FC20243C2424A024A024BCA4
:1011230024A024A04560553E8A00D7AA2020202071
:101133002020FDFC4020504093FEFC40108011FC19
:101143001C04F0885050102010101010BFAA00008B
:101153007FFC08200820082008200820FFFE082024
:101163000820082008201020102020204020D4B47C
:10117300000027FE1420144085FC450445FC15049B
:1011830015FC2524E42024A829242A2230A0004089
:10119300D2BA0080204017FE11208120423C4244F5
:1011A300166412942348E2482230222022502288D7
:1011B3000306BEA70FE0082008200FE00820082040
:1011C3000FE000007EFC428442847EFC4284428421
:1011D3007EFC4284CDF800007FFC400440044214AE
:1011E30052944A54442444244A544A545294610421
:1011F300400440144008D5BE1020082008207E205B
:10120300003E04204420442025FC290429040F0423
:10121300F104410401FC0104B0B41040102010207B
:1012230013FEFA02144410401BFE3088D0881108C4
:1012330010D01020105050882304BCFC2010201024
:101243003B7C211441FE7A14A27C2710F97C2510E3
:1012530025FE22102A10350028FE0000D0A31040DE
:101263001020102011FEFC00108831043A0254882B
:101273005088905010501020105010881306D7BC7F
:1012830001404120212023FE022016201BFC1220B6
:10129300222023FCE2202220222023FE220002001F
:1012A300B4A520202020782049FC91247D245524B6
:1012B30055247DFC552454207C28542457FE450294
:1012C3008C00C3FE1110111017FC1110FC0013F851
:1012D300120817F81A0833F8D04017FC10A01110A1
:1012E30052082406B6C10020202011FC1020002043
:1012F30003FEF002109410501110109013FE1428E6
:10130300184410820302BACD04000E007800087C52
:101313000844FF44084418441C442A442A444844CB
:10132300887C084408000800D1D5100008FE7F100F
:101333002220147C7F444454485452544454485407
:1013430051544228442488423082D6B5084008408C
:101353000FFC1040104033F8320853F8920813F88A
:10136300120813F8120812081FFE1000C8DD02004D
:1013730001007FFE400288241110228804400820C7
:101383003018DFF61010101010101FF01010D6A731
:101393000100010001007FFC0100010001003FF09A
:1013A3001010082004400280010006C01830E00E2F
:1013B300B3D610201020102011FCFC20102013FEA7
:1013C3001008180833FED008108810481008502859
:1013D3002010B5E302000200020003FC0200020039
:1013E3003FF02010201020103FF0000024882244FA
:1013F30042448004CCAC010001007FFC0100028068
:1014030004400A203118C0060100088848844812A5
:10141300481287F00000CA00082049202A20083E0D
:10142300FF442A44494488A41028FE28221042106D
:10143300642818283444C282D7D6020001007FFEF4
:10144300400280041FE0004000800100FFFE010015
:1014530001000100010005000200C9EE00000000C8
:1014630000001000000800080C7FFC04401001C8B5
:10147300A002186042301832231812C3001403006C
:1014830004030C047FF0080F80080B4078136018E6
:10149300332018631818831C19030818030000036A
:1014A30000000000DBDA00000000000004100C0460
:1014B300180C04108C04108C04108C04108C04D0B1
:1014C3008C3F108C04108C04108C04108C04108C32
:1014D30004108C04108C05F08C0E208C78208C204A
:1014E300408C00808C01000C02000C000000CAD06C
:1014F3000000000000000030000018000018080081
:10150300001C1FFFE000180000182007FFF004185C
:10151300200418200418200418200418200418207C
:101523000418200418200418200418E004184000AC
:101533001800001800000000D6D0000000000000D2
:101543000000000000000018000018000018000050
:1015530018003FFFFE301806301806301806301802
:10156300063018063FFFFE3018060018000018006A
:101573000018000018000018000000000000000020
:101583000000CEC40000000000000000000038008E
:10159300001C00000600FFFFFF06003006003003BA
:1015A30000600300600180C000C18000E3000036DA
:1015B30000001C0000770003C1E01E003C60000730
:1015C300000000000000000000000000B2E2000084
:1015D3000000000000000000000040000321FF3372
:1015E300398333118333019B33C19B33719B33198C
:1015F3009B33019B33019B33119B3319B33330303E
:1016030033306C0330C6036383032E01BE00000036
:10161300000000000000CAD4000000000000000029
:10162300000000004000D83000CE1800C21C00C0EB
:1016330001FFFF0000C0F800C01800C019FFC01868
:1016430018401818601918601B18611E18311C1FE8
:10165300B139F01910000F00000000000000000075
:10166300D7D60000000000060000000300000000C1
:10167300C0000001C0C0000107C00001FF00021F3D
:10168300FE0007F01C0007C070000F00E0000E030F
:10169300F0001C0FF0003C0F70003C00E00018004D
:1016A300C0000000C0000000C00000006000000097
:1016B3002000000037000001FF00007FF80007F85A
:1016C30030001F8030000080300000C03000006018
:1016D30060000018E000000FC000000600000000DA
:1016E3000000CCE50000000000000000000000C086
:1016F300000000E0002001B800703FF80061FFC067
:1017030000C3030001C60600038C060003080C0097
:1017130006080C000E18183F1E101BF31F903F07FE
:1017230000803C1C0190707C019060FE01A0C3F816
:1017330001A00FD803A00818036000180340001885
:1017430003C00018038000180300001800000018ED
:101753000000001000000030000000300000000016
:1017630000000000B2E200000000000000000000E2
:10177300000000000000020C1008071FF80403BF5C
:10178300F00201BC300303EC3003015C600300D8BA
:10179300600300D860038098620361B8430771B1A6
:1017A3004306313243063376C3063A64C7063EEC3A
:1017B300C0063E78C0063C3040067C70000678E0E8
:1017C30060067BFFF006F7C00006E4000006400059
:1017D3000006000000060000007C00008FF00000FF
:1017E3007C0000000000CAD40000000000000000DC
:1017F3000000000000003F0000007F800000018027
:10180300000000C0000000C0000000CE038000CF35
:10181300FFC000DD41800FFE0007FFFC000C00F05D
:1018230000180FC03E19FF40F311BC6083307FE006
:1018330003B1FE20033380200370003003600010E7
:101843000360001807C0000C07C0000407800002F3
:101853000100000300000001000000000000000080
:0818630000000000000000007D
:10835500900017FEE0FCA3E0FD900016E02DFD90D7
:0D8365000015E03CFC90001BE0FAA3E0FBDB
:1083720090001DEAF0A3EBF012846E90001DE0FE67
:06838200A3E0FF02852EBE
:1070C200900011E0FCA3E0FD90000FE0FAA3E0FBCA
:1070D200A3E0FFA3E090002FCFF0A3EFF090009A7F
:1070E200E0FFA3E0900031CFF0A3EFF090000DE0BD
:0470F200FEA3E0FF1A
:0E70F600900029EEF0A3EFF0A3ECF0A3EDF074
:10710400900029E0FEA3E0FFC3EB9FFFEA9ECF249B
:1071140001CF3400900037F0A3EFF090002BE0FE95
:10712400A3E0FFC3900030E09FFF90002FE09ECFCC
:107134002401CF3400900039F0A3EFF090002BE04D
:10714400FCA3E0FD90002FE0FFA3E0900041CFF00E
:10715400A3EFF0900029E0FEA3E0FF127824E4906E
:107164000033F0A3F0900039E0FEA3E0FFC39000E9
:1071740034E09F900033E09E5047E4900035F0A344
:10718400F0900037E0FEA3E0FFC3900036E09F904C
:107194000035E09E501B900031E0FEA3E0FF128515
:1071A4002E900036E004F070D8900035E004F080B2
:1071B400D0900034E004F070AC900033E004F08030
:1071C400A490009FE024FFFB90009EE034FFFA901F
:1071D40000A1E024FFFE9000A0E034FF900041F005
:0B71E400A3CEF0E4FDFCFFFE027824C7
:0E66AA0090000DEEF0A3EFF0A3ECF0A3EDF0E6
:1066B800E4900017F0A3F0A3F0A3F090000DE0FE23
:1066C800A3E0FFC3EB9FFFEA9E90001BF0A3EFF04F
:1066D80090000FE0FAA3E0FBC3900014E09BFE904B
:1066E8000013E09A90001DF0A3CEF090000DE0FF9B
:1066F800A3E0900025CFF0A3EFF0A3EAF0A3EBF01E
:1067080090001BE0FEA3E0FFD39400EE6480948029
:10671800400A900021E4F0A304F08021EF4E7008B5
:10672800900021F0A3F0801574FF900021F0A3F0F1
:10673800C3E49FFFE49E90001BF0A3EFF090001DC0
:10674800E0FEA3E0FFD39400EE64809480400A90BA
:106758000023E4F0A304F08021EF4E70089000239A
:10676800F0A3F0801574FF900023F0A3F0C3E49F1A
:10677800FFE49E90001DF0A3EFF090001DE0FEA343
:10678800E0FF90001BE0FCA3E0FDD39FEE6480F8DF
:10679800EC64809890001F4007ECF0A3EDF08005B2
:1067A800EEF0A3EFF0E4900015F0A3F0900020E0E5
:1067B8002401FF90001FE03400FED3900016E09FF4
:1067C800900015E09E4003026894900025E0FEA327
:1067D800E0FFA3E0FCA3E0FD12838890001BE0FE2D
:1067E800A3E0FF900018E02FF0900017E03EF09033
:1067F800001DE0FEA3E0FF90001AE02FF0900019C2
:10680800E03EF090001FE0FEA3E0FF900017E0FCE0
:10681800A3E0FDD39FEE6480F8EC6480984020EDFF
:106828009FFFEC9E900017F0A3EFF0900021E0FE90
:10683800A3E0FF900026E02FF0900025E03EF090C6
:10684800001FE0FEA3E0FF900019E0FCA3E0FDD3E9
:106858009FEE6480F8EC6480984020ED9FFFEC9EEA
:10686800900019F0A3EFF0900023E0FEA3E0FF9062
:106878000028E02FF0900027E03EF0900016E0049A
:0C688800F07006900015E004F00267B408
:0168940022E1
:107CC900900005EAF0A3EBF0900001EEF0A3EFF0CD
:107CD900A3ECF0A3EDF0C007A3E0FAA3E0FB90004A
:107CE90003E0FFA3E0900013CFF0A3EFF0D0071259
:107CF90066AA900001E0FAA3E0FBFFAE02C007A369
:107D0900E0FCA3E0FD900007E0FFA3E0900013CFA3
:107D1900F0A3EFF0D0071266AA900007E0FCA3E0F9
:107D2900FD900005E0FAA3E0FBA3E0FFA3E09000CB
:107D390013CFF0A3EFF0900001E0FEA3E0FF12667D
:107D4900AA900005E0FAA3E0FBFFAE02C00790008D
:107D590003E0FCA3E0FD900007E0FFA3E09000131F
:0A7D6900CFF0A3EFF0D0070266AAE6
:10842700C007900007E0FFA3E090002FCFF0A3EF75
:10843700F090009AE0FFA3E0900031CFF0A3EFF0B7
:05844700D0070270F6F1
:106E5400900019F0A3EFF0900005E0FFA3E090008C
:0E6E64001BCFF0A3EFF0900001E0FEA3E0FFD3
:106E7200900015ECF0A3EDF0900013EEF0A3EFF00C
:106E8200900017EAF0A3EBF02FFFEE3AA31283581B
:106E9200900017E0FEA3E0FFC3900014E09FFF9074
:106EA2000013E09EFE900019128359900017E0FE35
:106EB200A3E0FF900014E02FFF900013E03EFE904D
:106EC2000019E0FCA3E0FDC3900016E09DFD9000D8
:106ED20015E09C128369900017E0FEA3E0FFC390C7
:106EE2000014E09FFF900013E09EFE900019E0FC6A
:106EF200A3E0FDC3900016E09DFD900015E09C12FA
:106F02008369900019E0FEA3E0FF900014E02FFFD8
:106F1200900013E03E128355900019E0FEA3E0FFBB
:106F2200C3900014E09FFF900013E09E12835590DF
:106F32000019E0FEA3E0FF900014E02FFF90001381
:106F4200E03EFE900017E0FCA3E0FDC3900016E0D7
:106F52009DFD900015E09C128369900019E0FEA34C
:106F6200E0FFC3900014E09FFF900013E09EFE90AC
:106F72000017E0FCA3E0FDC3900016E09DFD900029
:0F6F820015E09CFC90001BE0FAA3E0FB02837279
:1064B400900001EEF0A3EFF0A3ECF0A3EDF0A3EA5B
:0464C400F0A3EBF066
:1064C800E490000BF0A3F0900007E0FEA3E0FF903B
:1064D800000DEEF0A3EFF025E0FFEE33FEC37403EA
:1064E8009F900012F0E49E900011F0900009E07077
:1064F80002A3E070030265F790000DE0FEA3E0FF41
:1065080090000BE0FCA3E0FDD39FEE6480F8EC6400
:10651800809840030266A990000FECF0A3EDF0907C
:10652800000DE0FEA3E0FFD3900010E09FEE648032
:10653800F890000FE0648098502B900003E0FCA3D3
:10654800E0FD90000BE0FAA3E0FB90000FE0FFA352
:10655800E0CF126E54900010E004F070C290000F6B
:10656800E004F080BA900011E0FCA3E0FDC3EC6405
:10657800809480502390000BE0FEA3E07802C333A0
:10658800CE33CED8F92DFFEC3ECF2406CF34009081
:106598000011F0A3EFF0804390000DE0FEA3E0FFB0
:1065A800C390000CE09FFF90000BE09EFEEF780286
:1065B800C333CE33CED8F9FF900012E02FFF9000FE
:1065C80011E03ECF240ACF3400F0A3EFF090000E84
:1065D800E024FFF090000DE034FFF090000CE004A0
:1065E800F0600302650090000BE004F00265009083
:1065F800000DE0FEA3E0FF90000BE0FAA3E0FBD360
:106608009FEE6480F8EA64809840030266A99000CF
:1066180003E0FCA3E0FDEE126E54900011E0FCA331
:10662800E0FDC3EC64809480502390000BE0FEA34F
:10663800E07802C333CE33CED8F92DFFEC3ECF2419
:1066480006CF3400900011F0A3EFF0804390000DC6
:10665800E0FEA3E0FFC390000CE09FFF90000BE07A
:106668009EFEEF7802C333CE33CED8F9FF900012E6
:10667800E02FFF900011E03ECF240ACF3400F0A3B2
:10668800EFF090000EE024FFF090000DE034FFF0F2
:1066980090000CE004F0700690000BE004F0026536
:0166A800F7FA
:0166A90022CE
:107FA400900001EEF0A3EFF0A3ECF0A3EDF0A3EA50
:107FB400F0A3EBF0C007A3E0FFA3E0900013CFF021
:107FC400A3EFF0D0071266AA900007E0FCA3E0FD3F
:107FD400A3E0FAA3E0FBA3E0FFA3E0900013CFF03B
:107FE400A3EFF0900005E0FEA3E0FF1266AA900064
:107FF4000BE0FCA3E0FD900001E0FAA3E0FBA3E0AA
:10800400FFA3E0900013CFF0A3EFF0900009E0FE8F
:06801400A3E0FF0266AAD2
:1081660090002C7401F0A37400F0A37407F07B0157
:048176007A0079030F
:0B817A00900029EBF0A3EAF0A3E9F06D
:10818500124B7EFFAEF090002CE0FBA3E0FAA3E0DB
:10819500F9124B7EFD900029E0FBA3E0FAA3E0F97C
:1081A500E5F08DF0124BA990002CE0FBA3E0FAA3BB
:0881B500E0F9EE8FF0024BA986
:104D5900900001EEF0A3EFF0A3ECF0A3EDF0A3EACD
:044D6900F0A3EBF0D8
:104D6D00900021124D1000000000900025124D10F2
:104D7D0000000000900007E0FEA3E0FF900003E0BC
:104D8D00FCA3E0D39FEC9E401A12816690002C7418
:104D9D0001F0A37400F0A37405F07B017A00790192
:104DAD0012817A90000BE0FEA3E0FF900007E0FC7B
:104DBD00A3E0D39FEC9E402E90002C7401F0A374C1
:104DCD0000F0A37407F07B017A00790B12817A90C1
:104DDD00002C7401F0A37400F0A37405F07B017A2C
:104DED0000790912817A900007E0FEA3E0FF9000A0
:104DFD0003E0FCA3E0D39FEC9E401A128166900065
:104E0D002C7401F0A37400F0A37405F07B017A00FB
:104E1D00790112817A90000BE0FEA3E0FF90000370
:104E2D00E0FCA3E0FD6F7002EC6E6003024F019099
:104E3D000001E0FEA3E0FF90000FEEF0A3EFF09075
:104E4D00000DEEF0A3EFF090000DE0FEA3E0FF905B
:104E5D000005E0FAA3E0FBC39FEA9E500A90000D07
:104E6D00EAF0A3EBF0801E90000FE0FEA3E0FFD36D
:104E7D00EB9FEA9E400F900005E0FFA3E090000F2E
:104E8D00CFF0A3EFF090000DE0FEA3E0FF9000093E
:104E9D00E0FAA3E0FBC39FEA9E500A90000DEAF0F2
:104EAD00A3EBF0801E90000FE0FEA3E0FFD3EB9F7D
:104EBD00EA9E400F900009E0FFA3E090000FCFF0B5
:104ECD00A3EFF090000FE0FAA3E0FB900003E0FFEA
:104EDD00A3E090002FCFF0A3EFF090009AE0FFA396
:104EED00E0900031CFF0A3EFF090000DE0FEA3E0D5
:104EFD00FF0270F6900001E0FAA3E0FB900005E0E0
:104F0D00FEA3E0C39BFFEE9A900015F0A3EFF09087
:104F1D000003E0FEA3E0FF900007E0FCA3E0C39FC9
:104F2D00FFEC9E900017F0A3EFF0900009E0FEA3B8
:104F3D00E0C39BFFEE9A900019F0A3EFF0900003F1
:104F4D00E0FEA3E0FF90000BE0FCA3E0C39FFFECAD
:104F5D009E90001BF0A3EFF0900005E0FEA3E0FF94
:104F6D00900009E0FCA3E0C39FFFEC9E90001DF0B4
:104F7D00A3EFF0900007E0FAA3E0FB90000BE0FC3C
:104F8D00A3E0FDC39BFEEC9A90001FF0A3CEF0EBC7
:104F9D00B50510EAB5040C900007FFA3E0900013CF
:104FAD00CF8010900007E0FEA3E024FFFFEE34FF5A
:104FBD00900013F0A3EFF0900003E0FFA3E090004A
:104FCD0011CFF0A3EFF0900013E0FEA3E0FF9000EF
:104FDD0011E0FCA3E0D39FEC9E40030250ED900046
:104FED0017E0FEA3E0FBAA06EA3395E0F9F890007E
:104FFD0021E0FCA3E0FDA3E0FEA3E0FF12829A9066
:10500D000001E0FCA3E02FFFEC3E90000DF0A3EFBC
:10501D00F090001BE0FEA3E0FBAA06EA3395E0F951
:10502D00F8900025E0FCA3E0FDA3E0FEA3E0FF1255
:10503D00829A900001E0FCA3E02FFFEC3E90000F60
:10504D00F0A3EFF0900021E0F8A3E0F9A3E0FAA3BC
:10505D00E0FB900015E0FEA3E0FFEE3395E0FDFCD4
:10506D00EB2FFFEA3EFEE93DFDE83CFC90002112EE
:10507D004D04900025E0F8A3E0F9A3E0FAA3E0FBCE
:10508D00900019E0FEA3E0FFEE3395E0FDFCEB2F61
:10509D00FFEA3EFEE93DFDE83CFC900025124D0483
:1050AD0090000FE0FEA3E0FF90000DE0FCA3E0D325
:1050BD009FEC9E401790002C7401F0A37400F0A398
:1050CD00740FF07B017A00790D12817A1270C29003
:1050DD000012E004F07006900011E004F0024FD3CE
:1050ED00900007E0FEA3E0FF900011E0FAA3E0FBC3
:1050FD00C39FFFEA9EFE90001DE0FCA3E0FD124A57
:10510D00B5E4FCFD900021124D04900003E0FEA3D8
:10511D00E0FFC3EB9FFFEA9EFE900019E0FCA3E0C9
:10512D00FD124AB5E4FCFD900025124D0490000BD4
:10513D00E0FEA3E0FF900011E0FCA3E0D39FEC9E06
:10514D00400302525290001FE0FEA3E0FBAA06EAC4
:10515D003395E0F9F8A3E0FCA3E0FDA3E0FEA3E0A6
:10516D00FF12829A900005E0FCA3E02FFFEC3E9029
:10517D00000DF0A3EFF090001BE0FEA3E0FBAA06EC
:10518D00EA3395E0F9F8900025E0FCA3E0FDA3E0FB
:10519D00FEA3E0FF12829A900001E0FCA3E02FFF36
:1051AD00EC3E90000FF0A3EFF0900021E0F8A3E0AB
:1051BD00F9A3E0FAA3E0FB90001DE0FEA3E0FFEEF3
:1051CD003395E0FDFCEB2FFFEA3EFEE93DFDE83CAB
:1051DD00FC900021124D04900025E0F8A3E0F9A306
:1051ED00E0FAA3E0FB900019E0FEA3E0FFEE33959B
:1051FD00E0FDFCEB2FFFEA3EFEE93DFDE83CFC90B7
:10520D000025124D0490000FE0FEA3E0FF90000D6D
:10521D00E0FCA3E0D39FEC9E401790002C7401F0AE
:10522D00A37400F0A3740FF07B017A00790D128145
:10523D007A1270C2900012E004F07006900011E036
:05524D0004F002513ADB
:015252002239
:10629C00F0900021E090002FF0900019E0FAA3E0BC
:0162AC00FBF6
:1062AD00900025EEF0A3EFF0900029EAF0A3EBF0BB
:0862BD00900027ECF0A3EDF0C6
:1062C50090009AE0FFA3E0900033CFF0A3EFF090A9
:1062D500002DE024E0F0A3E0F9C313FF7E00900059
:1062E50025E0FAA3E02FFFEE3ACF24FFFBEF34FFC2
:1062F500FAE9FFA3E0F8A3E02FFFEE38CF24FFCFA4
:1063050034FF900041F0A3EFF0900025E0FEA3E0FC
:10631500FF12782490002FE060030263BC900031E7
:10632500F090002EE0FF900031E0FEC39F40030295
:10633500647BEFB40C1790002DE075F00CA42403DA
:10634500F582E5F03400F583E5822E801A90003160
:10635500E0FF90002DE075F010A42477F582E5F0BC
:106365003404F583E5822FF582E43583F583E493E0
:10637500900030F0E4900032F090002EE0C313FF5F
:10638500900032E0C39F5026900030E030E7059042
:106395000029800390002BE0FEA3E0FF12852E90DC
:1063A5000030E025E0F0900032E004F080CB900072
:1063B50031E004F0026326E4900031F090002EE015
:1063C500FF900031E0FEC39F400302647BEFB40CF5
:1063D5001790002DE075F00CA42403F582E5F03448
:1063E50000F583E5822E801A900031E0FF90002DA4
:1063F500E075F010A42477F582E5F03404F583E523
:10640500822FF582E43583F583E493900030F0E440
:10641500900032F090002EE0C313FF900032E0FEB2
:10642500C39F5049900029E0FDA3E090009ACDF06C
:10643500A3EDF0900030E030E724EEFF900026E079
:106445002FFF900025E03400FE900031E0FD900024
:1064550028E02DFD900027E03400FC128388900091
:1064650030E025E0F0900032E004F080A7900031A4
:10647500E004F00263C1900033E0FFA3E090009ACE
:10648500CFF0A3EFF090009FE024FFFB90009EE08B
:1064950034FFFA9000A1E024FFFE9000A0E034FF55
:0F64A500900041F0A3CEF0E4FDFCFFFE0278244E
:107A8B00900005EEF0A3EFF0A3ECF0A3EDF0A3EB69
:107A9B00F090000AE0FBA3E0FAA3E0F9124A6FFFB3
:107AAB00D3947E4003027B4CEFC394205003027BA4
:107ABB004C90009FE024FFFD90009EE034FFFC9073
:107ACB000005E0FEA3E0FFD39DEE9C50749000A157
:107ADB00E024FFFB9000A0E034FFFA900007E0FCED
:107AEB00A3E0FDD39BEC9A505890009CE0FBA3E0E5
:107AFB0090002BCBF0A3EBF090000AE0FBA3E0FA95
:107B0B00A3E0F9124A6F90002DF0900009E090006D
:107B1B002EF090000DE090002FF090009A1262A8CA
:107B2B00900009E0C313FF900006E02FF0900005D2
:107B3B00E03400F090000BE475F001124B52027A26
:027B4B009C227A
:08820A0090000EEFF0A3EDF06F
:10821200A3124D100000000190000FE0FF14F0EFD8
:108222006020A3E0F8A3E0F9A3E0FAA3E0FB90004A
:108232000EE0FFE4FCFDFE124BC8900010124D044C
:1082420080D6900010E0FCA3E0FDA3E0FEA3E0FFD7
:018252002209
:0E730700900001EEF0A3EFF0A3ECF0A3EDF088
:10731500E490000DF090000BF0900009E0FF900064
:107325000BE0FEC39F4003027417C3EF9E14FD7F5D
:107335000A12820AA804A905AA06AB07900005E06F
:10734500FCA3E0FDA3E0FEA3E0FF124C53E47B0A9F
:10735500FAF9F8124C5390000CEBF0A3E07057903B
:107365000009E014FF90000BE0FEC39F5048A3E026
:10737500703E90000AE0F9C3138EF0A4FF9000025E
:10738500E02FFF900001E035F0FEC007900003E01C
:10739500FCA3E0FD90009AE0FAA3E0FB90009CE0DE
:1073A500FFA3E090002BCFF0A3EFF0A37420804D56
:1073B50090000D7401F090000AE0F9C313FFA3E0FB
:1073C500FEEF8EF0A4FF900002E02FFF900001E099
:1073D50035F0FEC007900003E0FCA3E0FD90009AA5
:1073E500E0FAA3E0FB90009CE0FFA3E090002BCF28
:1073F500F0A3EFF090000CE0243090002DF0A3E90D
:10740500F0E4A3F0D0071262AD90000BE004F002A7
:02741500731EE4
:017417002252
:1059A100900027ECF0A3EDF0A3EAF0A3EBF0900058
:0659B10025EEF0A3EFF06B
:1059B700900037EEF0A3EFF0900035E4F0A3744BBE
:1059C700F0E4900033F0A3F0900035E0FEA3E0FF91
:1059D700900033E0FCA3E0FDC39FEC9E4003025B15
:1059E700BA90002DE0FBA3E0FAA3E0F9124A6FFF9B
:1059F700900A6775F022ED124D41EC75F022A4254F
:105A070083F583E4936F6003025BA9900001124A58
:105A170088FF900033A3E0900A6875F022124D4189
:105A2700EC75F022A42583F583E4936F6003025B92
:105A3700A9900025E0FAA3E0FBFFAE02C006C0076D
:105A4700A3E0FCA3E0FDEB240FFBE43AFA90002768
:105A5700E0FEA3E0240FFFE43E900041F0A3EFF047
:105A6700D007D006127824E4900031F0E490003299
:105A7700F0900032E0FFC394084003025B9A900065
:105A870030E0705AA3E0FE900033E0FCA3E0900AF8
:105A97006975F022124D41EC75F022A42583F58338
:105AA700E5822EF582E43583F583E493FD3395E0B3
:105AB700FC74807E00A807088006CEA2E713CE13E9
:105AC700D8F8FFEE5CFEEF5D4E600590002980037D
:105AD70090002BE0FEA3E0FF12852E025B91900061
:105AE70029E0FFA3E090009ACFF0A3EFF0900031F8
:105AF700E0FF900033E0FCA3E0900A6975F0221202
:105B07004D41EC75F022A42583F583E5822FF582BC
:105B1700E43583F583E493FD3395E0FC900032E0B0
:105B2700FF74807E00A807088006CEA2E713CE1375
:105B3700D8F8FFEE5CFEEF5D4E6011900025E0FEA9
:105B4700A3E0FFA3E0FCA3E0FD128388900026E01A
:105B570004F07006900025E004F0900037E0FEA303
:105B6700E0FFC3900026E09FFD900025E09EFCED3E
:105B770064104C7015EEF0A3EFF0900028E004F0ED
:105B87007011900027E004F08009900032E004F0E3
:105B9700025A78900031E004F0E0C39420500302E9
:105BA7005A73900034E004F07006900033E004F07C
:105BB7000259CF90009FE024FFFB90009EE034FF46
:105BC700FA9000A1E024FFFE9000A0E034FF9000CF
:0D5BD70041F0A3CEF0E4FDFCFFFE027824B7
:105BE400900027ECF0A3EDF0A3EAF0A3EBF0900013
:065BF40025EEF0A3EFF026
:105BFA00900037EEF0A3EFF0900035E4F0A37407BD
:105C0A00F0E4900033F0A3F0900035E0FEA3E0FF4B
:105C1A00900033E0FCA3E0FDC39FEC9E4003025DCD
:105C2A00FD90002DE0FBA3E0FAA3E0F9124A6FFF12
:105C3A0090145D75F04AED124D41EC75F04AA425B9
:105C4A0083F583E4936F6003025DEC900001124ACE
:105C5A0088FF900033A3E090145E75F04A124D411C
:105C6A00EC75F04AA42583F583E4936F6003025D23
:105C7A00EC900025E0FAA3E0FBFFAE02C006C007E5
:105C8A00A3E0FCA3E0FDEB2417FBE43AFA9000271B
:105C9A00E0FEA3E02417FFE43E900041F0A3EFF0FA
:105CAA00D007D006127824E4900031F0E490003254
:105CBA00F0900032E0FFC394084003025DDD9000DB
:105CCA0030E0705AA3E0FE900033E0FCA3E09014A9
:105CDA005F75F04A124D41EC75F04AA42583F583AD
:105CEA00E5822EF582E43583F583E493FD3395E06E
:105CFA00FC74807E00A807088006CEA2E713CE13A4
:105D0A00D8F8FFEE5CFEEF5D4E6005900029800337
:105D1A0090002BE0FEA3E0FF12852E025DD49000D6
:105D2A0029E0FFA3E090009ACFF0A3EFF0900031B2
:105D3A00E0FF900033E0FCA3E090145F75F04A1294
:105D4A004D41EC75F04AA42583F583E5822FF5824F
:105D5A00E43583F583E493FD3395E0FC900032E06B
:105D6A00FF74807E00A807088006CEA2E713CE1330
:105D7A00D8F8FFEE5CFEEF5D4E6011900025E0FE64
:105D8A00A3E0FFA3E0FCA3E0FD128388900026E0D5
:105D9A0004F07006900025E004F0900037E0FEA3BE
:105DAA00E0FFC3900026E09FFD900025E09EFCEDF9
:105DBA0064184C7015EEF0A3EFF0900028E004F0A0
:105DCA007011900027E004F08009900032E004F09E
:105DDA00025CBB900031E004F0E0C3944850030237
:105DEA005CB6900034E004F07006900033E004F0F2
:105DFA00025C1290009FE024FFFB90009EE034FFBB
:105E0A00FA9000A1E024FFFE9000A0E034FF900089
:0D5E1A0041F0A3CEF0E4FDFCFFFE02782471
:105E2700900027ECF0A3EDF0A3EAF0A3EBF09000CD
:065E370025EEF0A3EFF0E0
:105E3D00900037EEF0A3EFF0900035E4F0A374047A
:105E4D00F0E4900033F0A3F0900035E0FEA3E0FF06
:105E5D00900033E0FCA3E0FDC39FEC9E4003026085
:105E6D004090002DE0FBA3E0FAA3E0F9124A6FFF8A
:105E7D0090166375F082ED124D41EC75F082A425FC
:105E8D0083F583E4936F600302602F900001124A43
:105E9D0088FF900033A3E090166475F082124D4197
:105EAD00EC75F082A42583F583E4936F60030260A3
:105EBD002F900025E0FAA3E0FBFFAE02C006C0075D
:105ECD00A3E0FCA3E0FDEB241FFBE43AFA900027CE
:105EDD00E0FEA3E0241FFFE43E900041F0A3EFF0AD
:105EED00D007D006127824E4900031F0E49000320F
:105EFD00F0900032E0FFC394084003026020900050
:105F0D0030E0705AA3E0FE900033E0FCA3E0901661
:105F1D006575F082124D41EC75F082A42583F583F1
:105F2D00E5822EF582E43583F583E493FD3395E028
:105F3D00FC74807E00A807088006CEA2E713CE135E
:105F4D00D8F8FFEE5CFEEF5D4E60059000298003F2
:105F5D0090002BE0FEA3E0FF12852E02601790004B
:105F6D0029E0FFA3E090009ACFF0A3EFF09000316D
:105F7D00E0FF900033E0FCA3E090166575F082120F
:105F8D004D41EC75F082A42583F583E5822FF582D2
:105F9D00E43583F583E493FD3395E0FC900032E026
:105FAD00FF74807E00A807088006CEA2E713CE13EB
:105FBD00D8F8FFEE5CFEEF5D4E6011900025E0FE1F
:105FCD00A3E0FFA3E0FCA3E0FD128388900026E090
:105FDD0004F07006900025E004F0900037E0FEA379
:105FED00E0FFC3900026E09FFD900025E09EFCEDB4
:105FFD0064204C7015EEF0A3EFF0900028E004F053
:10600D007011900027E004F08009900032E004F058
:10601D00025EFE900031E004F0E0C3948050030274
:10602D005EF9900034E004F07006900033E004F067
:10603D00025E5590009FE024FFFB90009EE034FF30
:10604D00FA9000A1E024FFFE9000A0E034FF900044
:0D605D0041F0A3CEF0E4FDFCFFFE0278242C
:10525300900017ECF0A3EDF0A3EAF0A3EBF09000BD
:0652630015EEF0A3EFF0D0
:10526900900022EEF0A3EFF0E4A3F090001DE0FB24
:10527900A3E0FAA3E0F9124A6F70030254F3900015
:1052890024E060030253B5900020E0FFC313FDC37F
:1052990090009FE09DFD90009EE09400FCD390005B
:1052A90016E09D900015E09C40030254F3C3900062
:1052B900A1E09FFF9000A0E09400FE900017E0FCA1
:1052C900A3E0FDD39FEC9E40030254F390001DE040
:1052D900FBA3E0FAA3E0F9124A6FFFD394804008D8
:1052E9009000247401F08083EFB40D2E900020E02B
:1052F900FF900018E02FF0900017E03400F09000C4
:1053090022E0FFA3E0900015CFF0A3EFF090001E7C
:10531900E475F001124B520253A8900020E0D39497
:1053290010900015E0FEA3E0FF402F90001BE0FB6A
:10533900A3E090002BCBF0A3EBF090001DE0FBA3C2
:10534900E0FAA3E0F9124A6F90002DF0A37410124D
:10535900629C900016E02408803DA3E0FCA3E0FDD8
:1053690090001BE0FBA3E090002BCBF0A3EBF090A7
:10537900001DE0FBA3E0FAA3E0F9124A6F90002DAB
:10538900F0900020E090002E12629C900020E0C373
:1053990013FF900016E02FF0900015E03400F09014
:1053A900001EE475F001124B52025274900020E085
:1053B900F9FF7E00C390009FE09FFD90009EE09E54
:1053C900FCD3900016E09D900015E09C4003025428
:1053D900F3C39000A1E09FFF9000A0E09EFE900023
:1053E90017E0FCA3E0FDD39FEC9E40030254F3E4D5
:1053F900900024F0E9B42042900015E0FEA3E0FFFC
:1054090090001BE0FBA3E090002BCBF0A3EBF09006
:10541900001DE0F9A3E0FAA3E090002DC9F0A3EA8A
:10542900F0A3E9F0900021E0900030F0900019E03D
:10543900FAA3E0FB125E270254D4900020E064181E
:105449009000157044E0FEA3E0FFA3E0FCA3E0FD9B
:1054590090001BE0FBA3E090002BCBF0A3EBF090B6
:10546900001DE0F9A3E0FAA3E090002DC9F0A3EA3A
:10547900F0A3E9F0900021E0900030F0900019E0ED
:10548900FAA3E0FB125BE48042E0FEA3E0FFA3E0A5
:10549900FCA3E0FD90001BE0FBA3E090002BCBF008
:1054A900A3EBF090001DE0F9A3E0FAA3E090002D32
:1054B900C9F0A3EAF0A3E9F0900021E0900030F0F0
:1054C900900019E0FAA3E0FB1259A190001EE475BF
:1054D900F002124B52900020E0FF900016E02FF0EE
:0A54E900900015E03400F002527448
:0154F3002296
:107E0B00900008EEF0A3EFF0A3ECF0A3EDF0A3EAE3
:047E1B00F0A3EBF0F5
:107E1F00900010E0FBA3E0FAA3E0F91284D7EF780B
:107E2F0003C333CE33CED8F9FFC390009FE09FFF3B
:107E3F0090009EE09EC313FEEF13FF900009E02F0A
:107E4F00FF900008E03EFE90000AE0FCA3E0FD90EA
:107E5F00000EE0FBA3E090001BCBF0A3EBF0900033
:107E6F0010E0F9A3E0FAA3E090001DC9F0A3EAF037
:107E7F00A3E9F0900013E0900020F0900014E09040
:0E7E8F000021F090000CE0FAA3E0FB02525339
:10772F00900004EAF0A3EBF0900000EEF0A3EFF06E
:06773F00A3ECF0A3EDF045
:10774500C006C007A3E0FEA3E0FF900000E0FAA397
:10775500E02FFFEA3ECF24FFFBEF34FFFA9000064F
:10776500E0FEA3E0FF900002E0F8A3E02FFFE83E73
:10777500CF24FFCF34FF900041F0A3EFF0D007D026
:1077850006127824E490000BF0A3F0900006E0FCCC
:10779500A3E0FD900004E0FEA3E0FF124AB5C3900C
:1077A500000CE09F90000BE09E504AA3E025E0FF0F
:1077B50090000BE033FE900008E0FBA3E0FAA3E0A5
:1077C500F98F828E83124A8890000EF0E92FF9EA2C
:1077D5003EFA900001124A8890000DF0FEA3E0FDEC
:1077E500EDFF12852E90000CE004F0709E90000BCA
:1077F500E004F0809690009FE024FFFB90009EE05F
:1078050034FFFA9000A1E024FFFE9000A0E034FFD1
:0F781500900041F0A3CEF0E4FDFCFFFE027824CA
:1083B20053B1FB43B20412186B1279C812689512BA
:1083C2006A2812752912606A1278F9127C0D1276E7
:0983D2002C1254F412575C80E0F7
:102BA400687474703A2F2F7777772E6C6364776923
:102BB4006B692E636F6D00C8ABB6AFB5E7D7D3D7DB
:102BC400DBBACFB2E2CAD4B3CCD0F200C8ABB6AF52
:102BD400B5E7D7D300D7DBBACFB2E2CAD4B3CCD0EF
:102BE400F200342E3022204D6567613235363020B4
:102BF4004E54333535313020343830583830300085
:102C04007869616F46656E674051447465636820F6
:102C1400323032322D30332D303200424C20546564
:102C24007374005245442000475245454E200042EB
:102C34004C55452000B2E2CAD4323A475549BED871
:102C4400D0CECCEEB3E4B2E2CAD400B2E2CAD433FA
:102C54003A475549BBADD4B2CCEEB3E4B2E2CAD4E0
:102C640000B2E2CAD4343A47554920547269616EBD
:102C7400676C65CCEEB3E4B2E2CAD400B2E2CAD463
:102C8400353AD3A2CEC4CFD4CABEB2E2CAD4003637
:102C94005831323A6162636465666768696A6B6C6D
:102CA4006D6E6F707172737475767778797A003699
:102CB4005831323A4142434445464748494A4B4CCD
:102CC4004D4E4F5030313233343536373839003683
:102CD4005831323A7E21402324255E262A28295F52
:102CE4002B7B7D3A3C3E3F2F7C2D2B2E00385831D8
:102CF400363A6162636465666768696A6B6C6D6EB7
:102D04006F707172737475767700385831363A4142
:102D140042434445464748494A4B4C4D4E30313274
:102D2400333435363700385831363A7E214023243F
:102D3400255E262A28295F2B7B7D3A3C3E3F2F7C4B
:102D440000B2E2CAD4363AD6D0CEC4CFD4CABEB2C8
:102D5400E2CAD40031365831363AC8ABB6AFB5E71B
:102D6400D7D3BCBCCAF5D3D0CFDEB9ABCBBEBBB6D0
:102D7400D3ADC4FA0031365831363A57656C636FB7
:102D84006D65C8ABB6AFB5E7D7D30032345832342B
:102D94003AC9EEDBDACAD0D6D0CEC4B2E2CAD40085
:102DA40033325833323AD7D6CCE5B2E2CAD400B281
:102DB400E2CAD4373ACDBCC6ACCFD4CABEB2E2CA9A
:102DC400D400515100526F746174696F6E3A3000CF
:102DD400526F746174696F6E3A393000526F746166
:102DE40074696F6E3A31383000526F746174696F70
:102DF4006E3A32373000B2E2CAD4393AC6C1C4BBE3
:102E0400BDC7B6C8B2E2CAD400B2E2CAD431303ABD
:102E1400546F756368B2E2CAD42020005253540040
:102E2400B2E2CAD4383AB6AFCCACCFD4CABE0020D2
:102E34004843484F3A2020202020202020202020D2
:102E440075672F6D33002020434F323A2020202015
:102E54002020202020202070706D002054564F43E5
:102E64003A202020202020202020202075672F6D4C
:102E74003300504D322E353A2020202020202020AF
:102E840020202075672F6D330020504D31303A20BB
:102E94002020202020202020202075672F6D330043
:102EA40020205445503A202020202020202020207B
:102EB400204300202048554D3A2020202020202067
:102EC400202020202500FFFFFFFFFFFFFFFFFFFF63
:102ED400FFFFFFFFFFFFFFFFFFFFFFFFFFFFFFFFFE
:102EE400FFFFFFFFBEF7FFFFDEFF38C6928C8E6B3D
:102EF4006E6B107C96AD3CE7FFFFFFFFFFFFFFFF0B
:102F0400FFFFFFFFFFFFFFFFFFFFFFFFFFFFFFFFCD
:102F1400FFFFFFFFFFFFFFFFFFFFFFFFFFFFFFFFBD
:102F2400FFFFFFFFFFFFFFFFFFFFFFFFFFFFFFFFAD
:102F3400FFFFFFFF5DEF159D4F636C420A32882946
:102F4400461925194521E8318E6B38C6FFFFFFFF6E
:102F5400FFFFFFFFFFFFFFFFFFFFFFFFFFFFFFFF7D
:102F6400FFFFFFFFFFFFFFFFFFFFFFFFFFFFFFFF6D
:102F7400FFFFFFFFFFFFFFFFFFFFFFFFFFFFFFFF5D
:102F8400FFFF36A51053104B51530F4B6C3AE931E8
:102F940067212519E410A30862008308CB529AD64E
:102FA400FFFFFFFFFFFFFFFFFFFFFFFFFFFFFFFF2D
:102FB400FFFFFFFFFFFFFFFFFFFFFFFFFFFFFFFF1D
:102FC400FFFFFFFFFFFFFFFFFFFFFFFFFFFF3CE7E8
:102FD4007063B363B87CF56311434D32EA298821E9
:102FE40026190519051904110411E4108300A30816
:102FF400728CFFFFFFFFFFFFFFFFFFFFFFFFFFFFDD
:10300400FFFFFFFFFFFFFFFFFFFFFFFFFFFFFFFFCC
:10301400FFFFFFFFFFFFFFFFFFFFFFFFDBDE4B3A7A
:10302400F042356C544BB1322E2AEB21A921671999
:103034000519041104110411041104110519E410F3
:103044004200AF73FFFFFFFFFFFFFFFFFFFFFFFF24
:10305400FFFFFFFFFFFFFFFFFFFFFFFFFFFFFFFF7C
:10306400FFFFFFFFFFFFFFFFFFFF5DEF09324C3261
:10307400104B8F324F2A2E2ACC19891989214719CE
:10308400051904110411C410C4100411041104110D
:10309400E41042003184FFFFFFFFFFFFFFFFFFFF4B
:1030A400FFFFFFFFFFFFFFFFFFFFFFFFFFFFFFFF2C
:1030B400FFFFFFFFFFFFFFFFFFFFEC5247194C32FA
:1030C4000B2AEC21EC210C22915BEE4A0611261905
:1030D4000419E410E410A7296621A30805190411B2
:1030E4000411E4108200F7BDFFFFFFFFFFFFFFFFA5
:1030F400FFFFFFFFFFFFFFFFFFFFFFFFFFFFFFFFDC
:10310400FFFFFFFFFFFFFFFF35A58308882188210C
:103114008921AA218A216B42718CFFFF728C83085A
:103124000411C4082942FBDE5DEFEC5A8308041144
:10313400041104118308E831DFFFFFFFFFFFFFFFE5
:10314400FFFFFFFFFFFFFFFFFFFFFFFFFFFFFFFF8B
:10315400FFFFFFFFFFFFBEF7C731C4102519261973
:1031640047194719A8298A52284A55ADFFFFE83163
:10317400A30805194D6B4D6BFFFF7DEF4521C4106E
:10318400041104110411620076ADFFFFFFFFFFFF7D
:10319400FFFFFFFFFFFFFFFFFFFFFFFFFFFFFFFF3B
:1031A400FFFFFFFFFFFF96B562000411041905112C
:1031B4000519C4088B4AB6B55DEFF7BDFFFF8E6BEA
:1031C40062002942AA5A0842FFFFFFFFCC5283083B
:1031D400041104110411A308AD52FFFFFFFFFFFF08
:1031E400FFFFFFFFFFFFFFFFFFFFFFFF1CE7FFFFE6
:1031F400FFFFFFFFFFFF4E6362000411041104117F
:10320400E41062008E63FFFFFFFFFFFFFFFFCF7339
:103214000100F39C2C6396B5FFFFFFFF2D5B830039
:10322400041104110411E41067213DEFFFFFFFFFB7
:10323400FFFFFFFFFFFFF8BDB7B59EEFCB52B3947E
:10324400FFFFFFFFDFFFE831A3080411041104119D
:103254000411A3084942FFF7FFF7FFFFFFFF6A4A83
:1032640001007284FFFFFFFFFFF7DFEF093AA308B5
:103274000411041104110411051118BEFFFFFFFF0E
:10328400FFFFFFFFFFFFF07B6200E831C731410021
:1032940035A5FFFF5DEF4621C4100411041104118C
:1032A4000411E410A308769DFFF7FFFFB7ADA30850
:1032B400A308C7319EE7FFF7FFF776A5A308E4103C
:1032C4000411041104110511051135A5FFFFFFFFB9
:1032D400FFFFFFFFFFFFDBDEA7298300C410C4103C
:1032E400C4101CE79EEF0511E4100411041104112D
:1032F40004110419C408E510D16BD16BC50864002E
:10330400A50843002B32779DB3842519C4100411FA
:1033140004110411041125192609359DFFFFFFFF2F
:10332400FFFFFFFFFFFFFFFFAF73620004190519E2
:1033340082000D5B8E9B62100511041104110419A7
:10334400E41085000511C439815A407B229C43ACAA
:1033540003A4839B82728249C218A400C500E410AE
:1033640004190411051947196711EC5ABEFFFFFF30
:10337400FFFFFFFFFFFFDFFFDBDEC410E4100411DB
:103384000511A41801C08388E40005190419C508AF
:103394004421438323D542FEE4FE27FF07FFA4FE16
:1033A40064FE03FEA3FDE2FC42EC83B32462E51059
:1033B400C40804192619A81987210090D3BCFFFF5B
:1033C400FFFFFFFFFFFFDFFFFFFF107C4200051937
:1033D4000511832801D044F8A348E400C508445AE1
:1033E40002EDE2FD02FE66FE74FFB8FF73FFE7F62E
:1033F400A6F645F6A4F5C3FC62FCC2FCC2FCE3CB12
:10340400C449061188198701A49001F8EC9AFFFFBA
:10341400FFFFFFFFFFFFFFFFFFFFBEF7E831830061
:103424000509824001C023F885F0A348A400445A4A
:1034340002FD23CCC2DC04FE28FE48F646F624F640
:10344400E4F564FDE3FC62FCC2FC02E402DCE2FCA1
:10345400A47A48016701C47824F802F884B07DE7AF
:10346400FFFFFFFFFFFFFFFFFFFFFFFFDBDE25196D
:10347400A300C43802E022D844F8A6F8A478630074
:10348400432183728339829B21F561FD22FDE2FC95
:10349400A2FC42FC42FC42FC22AB8341C392045294
:1034A40026012519A49844F823F802F8A4D09EEF25
:1034B400FFFFFFFFFFFFFFFFFFFFFFFFFFFF9AD6A6
:1034C4008729A50043B822F823E065F8E8F807C97E
:1034D40083484200A30084006329A27A62B3A2CB8A
:1034E40062D302BB828A8339A400E500E500E508C3
:1034F400C46064D844F824F823F802F88388DBC64F
:10350400FFFFFFFFFFFFFFFFFFFFFFFFFFFFFFFFC7
:103514003DE7505B083123E843F844F065F809F9C6
:10352400ABF989D10689A348421802004200610020
:103534008200620062008300A320C450A58885D85D
:1035440065F844F844F823F823F803D08210C72917
:103554005DEFFFFFFFFFFFFFFFFFFFFFFFFFFFFF29
:10356400FFFFFFFF6C32A53802D823F865F866F830
:10357400A7F84AF90CFA4DFA4CEA0BD2A9B968B18A
:1035840047A927B107B907D1E7E8C7F8A7F865F84D
:1035940065F844F823F803F802D0A3280509C40801
:1035A400EC5AFFFFFFFFFFFFFFFFFFFFFFFFFFFFDF
:1035B400FFFFFBDE0519C400A741E6C003F886F847
:1035C400A7F887F886F8C7F829F98AF9ABF9ABF9AF
:1035D4008BF96AF929F908F9C7F8A6F886F865F8A5
:1035E40064F823F802F006B12529E400E410251953
:1035F4002519149DFFFFFFFFFFFFFFFFFFFFFFFFE4
:10360400FFFF96AD620082083595BACE8BA244D0F6
:1036140025F887F8A7F8C7F8A7F887F886F886F892
:1036240086F887F8A7F8A7F8A6F885F865F864F887
:1036340024F064B80D93BBB6CF6383080411E4107F
:103644006621493A5DEFFFFFFFFFFFFFFFFFFFFF2A
:10365400FFFFD3944200E410BBCEFFFFBEE776B574
:10366400CCAA07C145E045F846F866F886F886F81E
:1036740086F886F865F845F865F865E844D043A807
:10368400018882903CD7FFEF5595830804110411FB
:1036940005194619B394FFFFFFFFFFFFFFFFFFFF6C
:1036A400FFFFB394410086215DDFFFFFFFFFFFFFB3
:1036B400DFE77AC6D3B44EB32AC268D1E6E0A6E8FF
:1036C400A5E8A5E8E6D888C906A922A802A800A00A
:1036D40000C800D8F7E5FFE7F8ADC410E410041102
:1036E400E41005118B4AFFFFFFFFFFFFFFFFFFFF01
:1036F400FFFF55A54100A7295DDFFFF7FFFFFFFF8F
:10370400FFFFFFFFFFFFFFEF7DDFDBCE59CEF8CDDC
:10371400D7CDF7C579CEFBBEABA203F045F842D0B6
:1037240043E800F072D4FFDF39AEE410E410041172
:10373400E41005118729FFFFFFFFFFFFFFFFFFFFD5
:10374400FFFF59CE830846211CD7FFF7FFFFFFFF79
:10375400FFFFFFFFFFFFFFFFFFFFFFFFFFFFFFFF75
:10376400FFFFFFFFFFFFFFEF8BBA04F845F862E0AD
:1037740044F000F88EDBFFDFF8A5C410E410E41079
:103784000411E4102519FFFFFFFFFFFFFFFFFFFFF8
:10379400FFFFBEF78729830839B6FFF7DFF7FFFF7E
:1037A400FFFFFFFFFFFFFFFFFFFFFFFFFFFFFFFF25
:1037B400FFFFFFFFFFFFBEE74ABA03F845F864F8CE
:1037C40044F800F86EE3FFD7F48C83080411E41086
:1037D400E410E4100519FFFFFFFFFFFFFFFFFFFFE9
:1037E400FFFFFFFFEF7300007284FFEFBEEFDFFF08
:1037F400FFFFFFFFFFFFFFFFFFFFFFFFFFFFFFFFD5
:10380400FFFFFFFFFFFFDFE78BBA03F845F845F83A
:1038140023F800F8D3D4FFD74E5B2100293A55A5ED
:103824008308C4102519FFFFFFFFFFFFFFFFFFFF01
:10383400FFFFFFFFFBDEA308E8319EDF9EE7BFEF3B
:10384400FFFFFFFFFFFFFFFFFFFFFFFFFFFFFFFF84
:10385400FFFFFFFFFFFFFFF751BC02E003F803F097
:1038640043E0ECC27ECFFCBE46212100D394FFFF8F
:10387400518400008729FFFFFFFFFFFFFFFFFFFFC9
:10388400FFFFFFFFFFFF51840000F48CFFEF9EE772
:10389400BFEFDFFFFFFFFFFFFFFFFFFFFFFFFFFFA4
:1038A400FFFFFFFFFFFFFFFF3DDF55BD52BC72BCB2
:1038B400B7B55DC7FFDFF06B0000093ABFF7FFFF44
:1038C400FFFF149D55A5FFFFFFFFFFFFFFFFFFFF55
:1038D400FFFFFFFFFFFFFFFFAC4AA408BBBEDFE70B
:1038E4007EE7BEEFDFF7DFFFFFFFFFFFFFFFFFFF16
:1038F400FFFFFFFFFFFFDFFFDFF7FFEFDFDFBFD7D4
:103904009ED7DFDFD8A583082611DBD6FFFFFFFF94
:10391400FFFFFFFFFFFFFFFFFFFFFFFFFFFFFFFFB3
:10392400FFFFFFFFFFFF79EE8BDC2131A9213DCFA3
:10393400BFDF7EDF9EE7BEEFBFEFDFF7DFF7DFF726
:10394400DFF7DFF7BFEFBEEF9EE77EDF5ED75ED720
:10395400DFDF9AB626194208EDA3BFFFFFFFFFFF82
:10396400FFFFFFFFFFFFFFFFFFFFFFFFFFFFFFFF63
:10397400FFFFFFFF74DDC0DB00FE42EE024289213F
:103984007BB6DFDF7ED77EDF7EDF9EE79EE79EE7A6
:103994009EE79EE77EDF7EDF5DD75DD79EDFFFE794
:1039A400F8A50711E31802C560FDE6D3DBEEFFFFBF
:1039B400FFFFFFFFFFFFFFFFFFFFFFFFFFFFFFFF13
:1039C400FFFF9EF784BAC1FC42FE82FEA2FE818301
:1039D400452174745EC7DFDF7ED75ED75DD75ED7BF
:1039E4005ED75DD75DD75ED79EDFFFE73DC7F16346
:1039F4008408425226E629FF86FEE0F36AC3FFFFED
:103A0400FFFFFFFFFFFFFFFFFFFFFFFFFFFFFFFFC2
:103A1400FFFF18DEC1D2A2FD22FE42FE42FE62FE7C
:103A2400E2D4416A494253743BA63EC7BFD7BFD7CD
:103A3400BFD7BFDFBFD73EC71AA6F263A72982410B
:103A440022B462FE83FEAAFE0FFF67FD63BA3CEF59
:103A5400FFFFFFFFFFFFFFFFFFFFFFFFFFFFFFFF72
:103A6400FFFF9AE680D221FDC2FDE2F5C2F582F5A0
:103A740082FD62FD61DC219B846AE96A2C63AF6389
:103A840011746E632C63895A0452817AC2CBE2FCAE
:103A940062FD82FDC2FDC2FDE4FD24FD62CA1CE795
:103AA400FFFFFFFFFFFFFFFFFFFFFFFFFFFFFFFF22
:103AB400FFFFFFFFB1CC81D2C0F3C1FC02FD02FDC8
:103AC400E2FCC2FCC2FC81FC80FBC0C9A48135AD10
:103AD40059CE719C218100DAA1FB82FCA2FC82FCFC
:103AE400A2FC02FD22FDE2FC00FC60DA90CCFFFFA8
:103AF400FFFFFFFFFFFFFFFFFFFFFFFFFFFFFFFFD2
:103B0400FFFFFFFFFFFF59DE0DC406CBE4D203DB4A
:103B140003DBE3DAC3D2A4C209B3D2BC9EF7FFFF2E
:103B2400FFFFFFFFFBE60EB4A6BA83D2E3E202EB8B
:103B340022EB22E303DBE4D26AC3B6D5FFFFFFFF27
:103B4400FFFFFFFFFFFFFF2DC9FF2DD4FF2DE0FF77
:023B54002DED55
:1082DE004A0090F80007E0001FFFE0F81F500080F2
:1082EE00F800F81F07E001CF001F0000841F0000F8
:067418007BFF7A2E790DC6
:10741E00900005EBF0A3EAF0A3E9F074FF90009A58
:10742E00F0A3F090009EE0FAA3E0FB90002FE4F0B2
:10743E00A37414F0A3E4F0A3741FF0E4FDFCFFFEAC
:10744E001270F690000EE4F0A3741FF0900005E0A9
:10745E00F9A3E0FAA3E0900010C9F0A3EAF0A3E9C3
:10746E00F0A37410F0A37401F074FFFBFA7D027C9C
:10747E0000E4FFFE127E0B9000A1E024ECFD9000D4
:10748E00A0E034FFFC90009FE024FFFB90009EE004
:10749E0034FFFA9000A1E024FFFE9000A0E034FF3C
:1074AE0090002FF0A3CEF0A3E4F0A3741FF0E4FF3E
:1074BE00FE1270F69000A1E024EEFD9000A0E034E4
:1074CE00FFFC90000EE4F0A3741FF0A374FFF0A372
:1074DE00742BF0A374A4F0A37410F0A37401F074D1
:1074EE00FFFBFAE4FFFE127E0B90009FE024FFFBF1
:1074FE0090009EE034FFFA9000A1E024EBFE900095
:10750E00A0E034FF90002FF0A3CEF074FFA3F0A301
:0B751E00F07D157C00E4FFFE0270F61B
:1079C8007BFF7A2B79BB12741E90000EE4F0A3742F
:1079D8001FF0A374FFF0A3742BF0A374D0F0A3746A
:1079E80010F0A37401F07B007AF87D1E7C00E4FFA0
:1079F800FE127E0B90000EE4F0A3741FF0A374FF38
:107A0800F0A3742BF0A374D9F0A37410F0A374013D
:107A1800F07B007AF87D3C7C00E4FFFE127E0B9040
:107A2800000EE4F0A3741FF0A374FFF0A3742BF00E
:107A3800A374E6F0A37410F0A37401F07B1F7AF826
:107A48007D5A7C00E4FFFE127E0B90000EE4F0A34A
:107A5800741FF0A374FFF0A3742CF0A37404F0A3B4
:107A68007410F0A37401F07B1F7A007D787C00E429
:107A7800FFFE127E0B7FDC7E051283DB7FDC7E053A
:037A88000283DB9B
:1068950090009FE024FFFB90009EE034FFFA9000FB
:1068A500A1E024FFFE9000A0E034FF90002FF0A3AC
:1068B500CEF074FFA3F0A3F0E4FDFCFFFE1270F62A
:1068C50090001B74FFF0A374E0F0A374FFF0A374B1
:1068D5002CF0A3741FF0A37410F0A37401F07B1FB8
:1068E5007A007D1E7C007F147E001252537F207E2D
:1068F500031283DB90009FE024FFFB90009EE034B1
:10690500FFFA9000A1E024FFFE9000A0E034FF9084
:10691500002FF0A3CEF0A374F8F0A3E4F0FDFCFF84
:10692500FE1270F690001B74FFF0A374E0F0A374E0
:10693500FFF0A3742CF0A37427F0A37410F0A374D4
:1069450001F07B1F7A007D1E7C007F147E001252B1
:10695500537F207E031283DB90009FE024FFFB9092
:10696500009EE034FFFA9000A1E024FFFE9000A015
:10697500E034FF90002FF0A3CEF0A37407F0A374CA
:10698500E0F0E4FDFCFFFE1270F690001B74FFF0D2
:10699500A374E0F0A374FFF0A3742CF0A3742CF09F
:1069A500A37410F0A37401F07B1F7A007D1E7C0098
:1069B5007F147E001252537F207E031283DB9000EA
:1069C5009FE024FFFB90009EE034FFFA9000A1E0D9
:1069D50024FFFE9000A0E034FF90002FF0A3CEF03E
:1069E500A3E4F0A3741FF0E4FDFCFFFE1270F69023
:1069F500001B74FFF0A374E0F0A374FFF0A3742CE4
:106A0500F0A37433F0A37410F0A37401F07B007A43
:106A1500F87D1E7C007F147E001252537F207E037A
:036A25000283DB0E
:106A2800E4900000F07BFF7A2C793912741EE49010
:106A38000000F0900000E0FD25E02490F582E434A9
:106A480000F583E0FFA3E090009ACFF0A3EFF09069
:106A5800009EE0C313FEA3E0132492FBEE34FFFA7A
:106A6800ED75F01EA4FDACF02BFFEC3AFEC006C09D
:106A780007A3E0C313FEA3E0132492FFEE34FFCF75
:106A88002DFDEF3CFCC004C00590009EE0C313FC44
:106A9800A3E013FD900000E0F975F01EA42DFFE5BA
:106AA800F03CCF24F6FBEF34FFFA9000A0E0C313CC
:106AB800FCA3E013FDE975F01EA42DFFE5F03CCF23
:106AC80024F6CF34FF900007F0A3EFF0D005D004F0
:106AD800D007D006127CC9900000E004F0E0C3940F
:106AE800055003026A3B7FDC7E051283DBE49000DD
:106AF80000F0900000E0FD25E02490F582E43400E9
:106B0800F583E0FFA3E090009ACFF0A3EFF09000A8
:106B18009EE0C313FEA3E0132492FBEE34FFFAEDCC
:106B280075F01EA4FDACF02BFFEC3AFEC006C007C2
:106B3800A3E0C313FEA3E0132492FFEE34FFCF2D8E
:106B4800FDEF3CFCC004C00590009EE0C313FCA30D
:106B5800E013FD900000E0F975F01EA42DFFE5F0AC
:106B68003CCF24F6FBEF34FFFA9000A0E0C313FCFF
:106B7800A3E013FDE975F01EA42DFFE5F03CCF243A
:106B8800F6CF34FF900007F0A3EFF0D005D004D083
:106B980007D006128427900000E004F0E0C39405B3
:0C6BA8005003026AFA7FDC7E050283DBEA
:10752900E4900000F07BFF7A2C794F12741EE490EE
:107539000000F090009EE0C313FEA3E01324BAFDFF
:10754900EE34FFFC900000E0F975F023A4FBAAF0EB
:107559002DFFEA3CFEC006C0079000A0E0C313FE61
:10756900A3E01324BAFFEE34FFCF2BFDEF3AFCE979
:1075790025E02490F582E43400F583E0FAA3E0FBEA
:10758900900007E4F0A37432F0E4A3F0A3F0D0076D
:10759900D0061264B4900000E004F0E0C394054002
:1075A900927FDC7E051283DBE4900000F090009E60
:1075B900E0C313FEA3E01324BAFDEE34FFFC9000F0
:1075C90000E0F975F023A4FBAAF02DFFEA3CFEC008
:1075D90006C0079000A0E0C313FEA3E01324BAFF7E
:1075E900EE34FFCF2BFDEF3AFCE925E02490F5823C
:1075F900E43400F583E0FAA3E0FB900007E4F0A38C
:107609007432F0A3E4F0A304F0D007D0061264B4F6
:10761900900000E004F0E0C3940540917FDC7E0512
:037629000283DBFE
:10606A00E4900000F07BFF7A2C796512741EE490AC
:10607A000000F0900000E0FD25E02490F582E43471
:10608A0000F583E0FFA3E090009ACFF0A3EFF09031
:10609A00009EE0C313FEA3E0132492FBEE34FFFA42
:1060AA00ED75F01EA4FDACF02BFFEC3AFEC006C065
:1060BA0007A3E0C313FEA3E01324EFFFEE34FFCFE0
:1060CA002DFDEF3CFCC004C00590009EE0C313FE0A
:1060DA00A3E01324C3FDEE34FFFC900000E0F97541
:1060EA00F01EA42DFBE5F03CFAC002C0039000A00C
:1060FA00E0C313FEA3E0132499FDEE34FFFCE97517
:10610A00F01EA42DFDE5F03CFCC005C00490009EE5
:10611A00E0C313FEA3E01324F5FDEE34FFFCE9759A
:10612A00F01EA42DFDE5F03CFCA3E0C313FEA3E0A2
:10613A001324EFFBEE34FFFAE975F01EA42BFEE5FB
:10614A00F03A90000BF0A3CEF0900009ECF0A3ED2A
:10615A00F0900007D0E0F0A3D0E0F0D003D002D056
:10616A0005D004D007D006127FA4900000E004F006
:10617A00E0C39405500302607D7FDC7E051283DB59
:10618A00E4900000F0900000E0FD25E02490F58204
:10619A00E43400F583E0FFA3E090009ACFF0A3EF88
:1061AA00F090009EE0C313FEA3E0132492FBEE34AA
:1061BA00FFFAED75F01EA4FDACF02BFFEC3AFEC021
:1061CA0006C007A3E0C313FEA3E01324EFFFEE34D7
:1061DA00FFCF2DFDEF3CFCC004C00590009EE0C33C
:1061EA0013FEA3E01324C3FDEE34FFFC900000E08D
:1061FA00F975F01EA42DFBE5F03CFAC002C003902D
:10620A0000A0E0C313FEA3E0132499FDEE34FFFCC3
:10621A00E975F01EA42DFDE5F03CFCC005C0049014
:10622A00009EE0C313FEA3E01324F5FDEE34FFFC49
:10623A00E975F01EA42DFDE5F03CFCA3E0C313FEB6
:10624A00A3E01324EFFBEE34FFFAE975F01EA42B4A
:10625A00FEE5F03A90000BF0A3CEF0900009ECF0C6
:10626A00A3EDF0900007D0E0F0A3D0E0F0D003D087
:10627A0002D005D004D007D006124D59900000E094
:10628A0004F0E0C39405500302618F7FDC7E0502AF
:02629A0083DBA4
:1078F9007BFF7A2C798012741E90009A74F8F0A399
:10790900E4F090009CF0A3741FF090000A74FFF05B
:10791900A3742CF0A37493F0E4A3F07B0C7D1EFCFC
:107929007F0AFE127A8B90000A74FFF0A3742CF080
:10793900A374B3F0A37401F07B0C7D2D7C007F0A46
:107949007E00127A8B90000A74FFF0A3742CF0A3C6
:1079590074D3F0E4A3F07B0C7D3CFC7F0AFE127A21
:107969008B90000A74FFF0A3742CF0A374F1F0E477
:10797900A3F07B107D50FC7F0AFE127A8B90000ADF
:1079890074FFF0A3742DF0A3740EF0A37401F07BBF
:10799900107D647C007F0A7E00127A8B90000A7445
:1079A900FFF0A3742DF0A3742AF0E4A3F07B107DFB
:0F79B90078FC7F0AFE127A8B7FB07E040283DB9C
:107C0D007BFF7A2D794512741E90001B74FFF0A333
:107C1D0074E0F0A374FFF0A3742DF0A37458F0A3D7
:107C2D007410F0E4A3F07B1FFA7D1EFC7F0AFE1298
:107C3D00525390001B74FFF0A374E0F0A374FFF097
:107C4D00A3742DF0A37479F0A37410F0E4A3F07B6A
:107C5D001FFA7D32FC7F0AFE12525390001B74FFF7
:107C6D00F0A374E0F0A374FFF0A3742DF0A3748F50
:107C7D00F0A37418F0A37401F07B1F7A007D467C8D
:107C8D00007F0A7E0012525390001B74FFF0A37404
:107C9D00E0F0A374FFF0A3742DF0A374A4F0A3740B
:107CAD0020F0A37401F07B1F7A007D647C007F0AB5
:0C7CBD007E001252537FB07E040283DB75
:10762C007BFF7A2D79B312741E900006E4F0A374DC
:10763C0028F0A374FFF0A3742EF0A374CAF07B2877
:10764C007A007D1E7C007F1E7E0012772F90001B1F
:10765C0074FFF0A374E0F0A374FFF0A3742DF0A3F7
:10766C0074C6F0A37410F0A37401F07B1F7A007D34
:10767C004B7C007F2A7E00125253900006E4F0A34C
:10768C007428F0A374FFF0A3742EF0A374CAF07BDB
:10769C00287A007D1E7C007F5A7E0012772F900086
:1076AC001B74FFF0A374E0F0A374FFF0A3742DF02F
:1076BC00A374C6F0A37410F0A37401F07B1F7A00BE
:1076CC007D4B7C007F667E00125253900006E4F0E6
:1076DC00A37428F0A374FFF0A3742EF0A374CAF063
:1076EC007B287A007D1E7C007F967E0012772F907F
:1076FC00001B74FFF0A374E0F0A374FFF0A3742DCF
:10770C00F0A374C6F0A37410F0A37401F07B1F7A7D
:10771C00007D4B7C007FA27E001252537FB07E0412
:03772C000283DBFA
:107B4D00E49000BDF078BE7C007D017BFF7A3B792F
:107B5D004AFE7F0C124A49E49000BDF074FFFFFE0F
:107B6D0012801A9000BDE0FF127D737BFF7A2D7994
:107B7D00FA12741E9000BDE075F003A424BEF582C8
:107B8D00E43400F583E0F9A3E0FAA3E090001DC909
:107B9D00F0A3EAF0A3E9F090001B74FFF0A374E0EA
:107BAD00F09000207410F0A37401F07B1F7A007D1B
:107BBD001E7C007F147E00125253900006E4F0A349
:107BCD007428F0A374FFF0A3742EF0A374CAF07B95
:107BDD00287A007D327C007F1E7E0012772F7FE891
:107BED007E031283DB7FE87E031283DB9000BDE012
:107BFD0004F0E0C394045003027B69E4FF027D733B
:10575C00E4900000F0A3F0A3F0A374F8F0A3E4F03D
:10576C0012741890009FE024E8FF90009EE034FF34
:10577C00FE90000A74FFF0A3742EF0A37420F0A323
:10578C007401F07B10E4FDFC127A8B90009EE0FC1F
:10579C00A3E0FD24CCFFEC34FFFEED24E2FBEC3463
:1057AC00FFFA90002FE4F0A37412F0A374F8F0A3A6
:1057BC00E4F07D02FC1270F690009A74F8F0A3E409
:1057CC00F0126D0BEF700302599790009EE0FEA350
:1057DC00E0FF9000B1E0FCA3E0FDC39FEC9E50E124
:1057EC009000A0E0FEA3E0FF9000B3E0FAA3E0FB82
:1057FC00C39FEA9E50CB90009FE024E8FF90009E50
:10580C00E034FFFED3ED9FEC9E407BEB9410EA94CA
:10581C0000507312741890009FE024E8FF90009ED3
:10582C00E034FFFE90000A74FFF0A3742EF0A37412
:10583C0020F0A37401F07B10E4FDFC127A8B900035
:10584C0003E0FFA3E090009ACFF0A3EFF090009E4E
:10585C00E0FCA3E0FD24CCFFEC34FFFEED24E2FBE6
:10586C00EC34FFFA90002FE4F0A37412F090009A3D
:10587C00E0FDA3E0900031CDF0A3EDF07D027C00C3
:10588C001270F60257CD90009EE0FEA3E0FF24C4F8
:10589C00FDEE34FFFC9000B1E0FAA3E0FBD39DEAEF
:1058AC009C500302597BEF24E2FFEE34FFFEC3EB66
:1058BC009FEA9E400302597BC39000B4E09414907D
:1058CC0000B3E09400400302597B90009EE0FCA3DF
:1058DC00E0FD24CCFFEC34FFFEC006C007ED24E253
:1058EC00FBEC34FFFA90002FE4F0A37412F090005C
:1058FC0001E0FEA3E0FF7C007D05124AC7ED25E028
:10590C00FFEC33FE74902FF58274003EF583E0FFBC
:10591C00A3E0900031CFF0A3EFF0D007D0067D02CA
:10592C007C001270F6900001E475F001124B68AF28
:10593C00F0FE7C007D05124AC7ED25E0FFEC33FE3E
:10594C0074902FF58274003EF583E0FFA3E0900085
:10595C009ACFF0A3EFF090009AE0FFA3E090000341
:10596C00CFF0A3EFF07F0A7E001283DB0257CD90BD
:10597C0000B1E0FEA3E0FFA3E0FCA3E0FD90009AE1
:10598C00E0FAA3E0FB12808F0257CD7F0A7E001253
:05599C0083DB0257CD82
:1054F4007F407EE21281FB7BFF7A2E792412741E98
:1055040090009AE4F0A3741FF090000A74FFF0A3D3
:10551400742EF0A37433F0A37401F07B107D327CFD
:10552400007F0F7E00127A8B90000A74FFF0A37440
:105534002EF0A3744AF0A37401F07B107D467C0026
:105544007F0F7E00127A8B90000A74FFF0A3742EF2
:10555400F0A3745FF0A37401F07B107D5A7C007F8C
:105564000F7E00127A8B90000A74FFF0A3742EF061
:10557400A37476F0A37401F07B107D6E7C007F0F22
:105584007E00127A8B90000A74FFF0A3742EF0A3AD
:10559400748DF0A37401F07B107D827C007F0F7EFC
:1055A40000127A8B90000A74FFF0A3742EF0A37497
:1055B400A4F0A37401F07B107D967C007F0F7E0025
:1055C400127A8B90000A74FFF0A3742EF0A374B7C0
:1055D400F0A37401F07B107DAA7C007F0F7E001283
:1055E4007A8B90009A74F8F0A3E4F074FF90009C16
:1055F400F0A3F0E4900000F01281BD7C277D10122E
:105604004B1CAE04AF05EE3395E0FDFC9000051293
:105614004D049000097405F0A37410F07D327C00F1
:105624007F647E001273071281BD7C277D10124BAC
:105634001CAE04AF05EE3395E0FDFC900005124D61
:10564400049000097405F0A37410F07D467C007F7B
:10565400647E001273071281BD7C277D10124B1CDF
:10566400AE04AF05EE3395E0FDFC900005124D0449
:105674009000097405F0A37410F07D5A7C007F64D7
:105684007E001273071281BD7C277D10124B1CAE65
:1056940004AF05EE3395E0FDFC900005124D049037
:1056A40000097405F0A37410F07D6E7C007F647EA5
:1056B400001273071281BD7C277D10124B1CAE04AF
:1056C400AF05EE3395E0FDFC900005124D0490000B
:1056D400097405F0A37410F07D827C007F647E0061
:1056E4001273071281BD7C007D32124B1CAE04AFD5
:1056F40005EE3395E0FDFC900005124D0490000981
:105704007405F0A37410F07D967C007F647E001213
:1057140073071281BD7C007D64124B1CAE04AF057F
:10572400EE3395E0FDFC900005124D0490000974E1
:1057340005F0A37410F07DAA7C007F647E001273D0
:10574400077FF47E011283DB900000E004F0E0C3E5
:07575400940F50030255FC05
:01575B00222B
:1083DB00E4FDFCC3ED9FEE6480F8EC6480985015CF
:1083EB00E4FBFA0BBB00010ABA03F8BBE8F50DBDC1
:0583FB0000010C80DE12
:018400002259
:10840100E4FDFCC3ED9FEE6480F8EC6480985015A8
:10841100E4FBFA0BBB00010AEB64014A70F50DBDE8
:0584210000010C80DEEB
:018426002233
:03000000027E9DE0
:0C7E9D00787FE4F6D8FD758107027EE4D2
:10831D0056583A0056793A004348583A004348595E
:10832D003A0041646A757374204F4B2100546F7588
:10833D00636820416E79776865726520546F2043BC
:08834D006F6E74696E75650026
:1082FE004200B91ECA4200BB12F44200AD0F6842E2
:04830E0000AF004F6D
:06854D00A2C0E433FF228E
:09854400D2B7D2B6D2B4D2B622ED
:10848D00E4FEC2B6EF25E0FF92B4C2B6000000D202
:09849D00B60000000EEEB408EB7D
:0184A60022B3
:10844C00E4FDFFFEEF25E0FFEE33FED2B6000000A8
:10845C00C2B600000030B504EF4401FF0DEDB40CC2
:01846C00E32C
:01846D0022EC
:1084C000C2B712848DD2B600000000C2B600000010
:0684D0000012844CD2B73B
:0184D6002283
:026BB400A9072F
:106BB600E490003CF0A3F0FBFAAF011284C0AC06EF
:106BC600AD07EB25E0FFEA33FE741E2FF582740055
:106BD6003EF583ECF0A3EDF00BBB00010AEB640F6E
:106BE6004A70D6E4FAFBEB2401FEE43A90001CF06E
:106BF600A3CEF090001CE0FEA3E0FFC3940FEE943A
:106C0600004003026CB0EF25E0FFEE33FE741E2F4A
:106C1600F58274003EF583E0FCA3E0FDEB25E0FF82
:106C2600EA33FE741E2FF58274003EF583E0FEA360
:106C3600E0FFD39DEE9C405E90003EEEF0A3EFF0A9
:106C460090001DE025E0FF90001CE033FE741E2F2F
:106C5600F58274003EF583E0FCA3E0FDEB25E0FF42
:106C6600EA33FE741E2FF58274003EF583ECF0A322
:106C7600EDF090003EE0FCA3E0FD90001DE025E075
:106C8600FF90001CE033FE741E2FF58274003EF563
:106C960083ECF0A3EDF090001DE004F06003026BBE
:106CA600F990001CE004F0026BF90BBB00010AEB43
:106CB600640E4A6003026BECE490003CF0A3F0FA29
:106CC6007B05EB25E0FFEA33FE741E2FF582740088
:106CD6003EF583E0FEA3E0FF90003DE02FF090003C
:106CE6003CE03EF00BBB00010AEB640A4A70D3900D
:106CF600003CE0FEA3E0FF7C007D05124AC7A3EE40
:046D0600F0A3EFF017
:016D0A002266
:0B810300900014EBF0A3EAF0A3E9F0F9
:10810E007FD0126BB490001AEEF0A3EFF07F9012B6
:10811E006BB4C390001BE0946490001AE09400408E
:10812E0008EF9464EE940050037F002290001AE052
:10813E00F9A3E0FD900014E0FBA3E0FAA3E0C98DE3
:10814E00F0124BA9900017E0FBA3E0FAA3E0F9EEC2
:07815E008FF0124BA97F0115
:0181650022F7
:0B6F9100900006EBF0A3EAF0A3E9F08B
:106F9C009000177401F0A37400F0A3740EF07B0141
:106FAC007A00790C128103EF7002FF2290001774A3
:106FBC0001F0A37400F0A37412F07B017A00791035
:106FCC00128103EF7002FF2290000CE0FEA3E0FFA1
:106FDC00900010E0FCA3E0FDD39FEC9E500EED243E
:106FEC0014FDE43CFCC3EF9DEE9C402A900010E0A5
:106FFC00FEA3E0FF90000CE0FCA3E0FDD39FEC9E11
:10700C0040030270BFED2414FDE43CFCC3EF9DEE85
:10701C009C40030270BF90000EE0FEA3E0FF9000C6
:10702C0012E0FCA3E0FDD39FEC9E500EED2414FD6A
:10703C00E43CFCC3EF9DEE9C4024900012E0FEA3C8
:10704C00E0FF90000EE0FCA3E0FDD39FEC9E5063AC
:10705C00ED2414FDE43CFCC3EF9DEE9C50559000D8
:10706C0010E0FEA3E0FF90000DE02FFF90000CE07D
:10707C003EC313F9EF13FF900006E0FBA3E0FAA365
:10708C00E0C98FF0124BA9900012E0FEA3E0FF9034
:10709C00000FE02FFF90000EE03EC313F9EF13FF3B
:1070AC00900009E0FBA3E0FAA3E0C98FF0124BA912
:0570BC007F01227F00AE
:0170C10022AC
:107F2900E49000CAF09000CAE0706A9000097401F8
:107F3900F0A37400F0A374B7F07B017A0079B5124D
:107F49006F91EF60E67F0A7E001283DB900009746F
:107F590001F0A37400F0A374CDF07B017A0079CB12
:107F6900126F91EF60E69000CBE0FEA3E0FF900076
:107F7900B5E0B506B0A3E0B507AB9000CDE0FEA330
:107F8900E0FF9000B7E06E7003A3E06F7097900078
:0A7F9900CA04F080909000CAE0FFD7
:017FA30022BB
:1071EF009000CFEEF0A3EFF0A3ECF0A3EDF0900042
:1071FF009A74F8F0A3E4F09000CFE0FAA3E0FB2438
:10720F00F4FFEA34FFFEC007EB240DFBE43AFAA3C8
:10721F00E0FFA3E0900013CFF0A3EFF0D0071266CA
:10722F00AA9000CFE0FAA3E0FBFFAE02C006C007B2
:10723F009000D2E024F4FD9000D1E034FFFCE0FE9A
:10724F00A3E0240DFFE43E900013F0A3EFF0D0076E
:10725F00D0061266AA9000D0E02401FF9000CFE084
:10726F003400FE9000D2E02401FD9000D1E0340004
:10727F00FC1283889000D0E024FFFF9000CFE03411
:10728F00FFFE9000D2E02401FD9000D1E03400FC1D
:10729F001283889000D0E02401FF9000CFE03400EB
:1072AF00FE9000D2E024FFFD9000D1E034FFFC12ED
