:020000040800F2
:10000000D0070020454C00085B0E00085D0E00087C
:10001000610E0008650E0008690E0008000000006F
:100020000000000000000000000000006D0E00084D
:100030006F0E000800000000710E0008730E00082B
:100040005F4C00085F4C00085F4C00085F4C0008E4
:100050005F4C00085F4C00085F4C00085F4C0008D4
:100060005F4C00085F4C00085F4C00085F4C0008C4
:100070005F4C00085F4C00085F4C00085F4C0008B4
:100080005F4C00085F4C00085F4C00085F4C0008A4
:100090005F4C00085F4C00085F4C00085F4C000894
:1000A0005F4C00085F4C00085F4C00085F4C000884
:1000B0005F4C00085F4C00085F4C00085F4C000874
:1000C0005F4C00085F4C00085F4C00085F4C000864
:1000D0005F4C00085F4C00085F4C00085F4C000854
:1000E0005F4C00085F4C00085F4C00085F4C000844
:1000F0005F4C00085F4C00085F4C00085F4C000834
:100100005F4C00085F4C00085F4C00085F4C000823
:100110005F4C00085F4C00085F4C00085F4C000813
:100120005F4C00085F4C00085F4C00085F4C000803
:1001300000F002F800F03CF80AA090E8000C8244BD
:100140008344AAF10107DA4501D100F031F8AFF29A
:10015000090EBAE80F0013F0010F18BFFB1A43F0A5
:10016000010318475484000074840000103A24BF2F
:1001700078C878C1FAD8520724BF30C830C144BF0C
:1001800004680C607047000000230024002500264E
:10019000103A28BF78C1FBD8520728BF30C148BFEA
:1001A0000B6070471FB505F0C6F91FBD10B510BD37
:1001B00005F000FA1146FFF7F5FF00F02FFE05F0FD
:1001C0001EFA03B4FFF7F2FF03BC05F023FA0000A8
:1001D0000B49D1F800C04A685CF8043B1068184429
:1001E00042F8040B8C4528BFA1F1DC0C8A4228BFE1
:1001F000A1F1DC02C1F800C04A6020F00040704765
:100200006801002070B505460E4614463146284662
:1002100001F08EFF204601F031FF70BD2DE9F05F47
:1002200004460D4616461F46301B401C1FFA80FA36
:10023000781B401C1FFA80FB3B463246294620466D
:1002400001F02AFF4FF000080FE04FF0000906E030
:100250000A9801F013FF09F101001FFA80F9D14556
:10026000F6DB08F101001FFA80F8D845EDDBFE4807
:100270004088401E83B2FC480088401E82B20021A4
:10028000084601F009FFBDE8F09F2DE9FF4F85B05A
:1002900081468A460020049003900798A0EB090548
:1002A0000898A0EB0A06CDF80890CDF804A0002D20
:1002B00001DD012705E00DB9002702E04FF0FF370F
:1002C0006D42002E02DD4FF0010806E016B94FF036
:1002D000000802E04FF0FF387642B54201DD2C46BF
:1002E00000E034464FF0000B21E0019A91B2029AEF
:1002F00090B201F027FF04982844049003983044FA
:1003000003900498A04205DD0498001B0490029815
:10031000384402900398A04205DD0398001B039027
:100320000198404401900BF101001FFA80FB601C12
:100330008345DADD09B0BDE8F08F2DE9F0410446D0
:100340000D4616461F462B46324629462046FFF7E5
:100350009CFF3B46224629462046FFF796FF3B4638
:10036000324639462046FFF790FF3B463246294643
:100370003046FFF78AFFBDE8F081F8B504460D4628
:1003800016461F46B94800883B463246294600902B
:100390002046FFF743FFF8BD2DE9F04104460D4626
:1003A00016461F46DDF81880EA1991B2A21990B2DC
:1003B0004246FFF727FFEA1991B2A21B90B24246CC
:1003C000FFF720FFEA1B91B2A21990B24246FFF755
:1003D00019FFEA1B91B2A21B90B24246FFF712FF2F
:1003E000AA1991B2E21990B24246FFF70BFFAA197F
:1003F00091B2E21B90B24246FFF704FFAA1B91B2F2
:10040000E21990B24246FFF7FDFEAA1B91B2E21B31
:1004100090B24246FFF7F6FEBDE8F0812DE9FF4FAE
:1004200081B0824617469846DDF838B0002445462C
:100430004FEA4800C0F10306BBF1000F1FD01BE0DC
:10044000A14608E04B462246009750460299FFF726
:10045000A3FF09F10109A945F4DD002E04DA042007
:1004600000FB0460861D06E0601B042101FB0060A8
:1004700000F10A066D1E641CAC42E1DD18E015E0D7
:100480002B462246009750460299FFF785FF002E23
:1004900004DA042000FB0460861D06E0601B0421D2
:1004A00001FB006000F10A066D1E641CAC42E7DD32
:1004B00005B0BDE8F08F2DE9F04704460D4616461D
:1004C0001F46DDE908893B46324629462046FFF7AC
:1004D000DCFE4B46424639463046FFF7D6FE2B46F9
:1004E000224649464046FFF7D0FEBDE8F087028825
:1004F0000B8803800A8070472DE9FF4F85B00026E6
:100500000027BDF81800BDF82010884207DD08A9B3
:1005100006A8FFF7ECFF07A905A8FFF7E8FFBDF85D
:100520002000BDF84C10884207DD08A913A8FFF78A
:10053000DEFF07A912A8FFF7DAFFBDF81800BDF823
:100540002010884207DD08A906A8FFF7D0FF07A9F9
:1005500005A8FFF7CCFFBDF81800BDF84C10884285
:1005600038D1BDF8140003900490BDF81C00BDF80C
:100570001010884203DABDF81C00049008E0BDF8B2
:100580001C00BDF80C10884202DDBDF81C00039071
:10059000BDF84800BDF81010884203DABDF84800E5
:1005A000049008E0BDF84800BDF80C10884202DD58
:1005B000BDF8480003902D4800880090BDF8183021
:1005C000BDF80C201946BDF81000FFF727FE09B052
:1005D000BDE8F08FBDF81C00BDF81410A0EB010BB6
:1005E000BDF82000BDF81810401A0290BDF8480070
:1005F000BDF81410451ABDF84C00BDF81810A0EB5A
:100600000109BDF84800BDF81C10A0EB010ABDF8B7
:100610004C00BDF82010401A0190BDF82000BDF834
:100620004C10884202D1BDF8208004E0BDF82000C3
:10063000401E1FFA80F8BDF818402CE0029896FB87
:10064000F0F0BDF81410084480B2049097FBF9F064
:10065000BDF81410084480B203905E442F44BDF8E6
:100660001000BDF80C1003E07C0000202E000020DC
:10067000884203DD03A904A8FFF739FFF748008883
:1006800023460090BDF80C202146BDF81000FFF76E
:10069000C5FD601C84B24445D0DDBDF82000201AA1
:1006A00000FB0AF6BDF81800201A00FB05F727E04A
:1006B000019896FBF0F0BDF81C10084480B204903D
:1006C00097FBF9F0BDF81410084480B2039056442B
:1006D0002F44BDF81000BDF80C10884203DD03A9BB
:1006E00004A8FFF704FFDD48008823460090BDF80A
:1006F0000C202146BDF81000FFF790FD601C84B26D
:10070000BDF84C008442D3DD00BF60E72DE9FF4F08
:1007100083B081468A469346DDE91064CF4800885D
:100720000290A6F12000C6B204EBD47009EB600081
:10073000401E82B20AEB0400401E83B25146484676
:10074000019401F0A9FC129860BB002527E00C2C55
:1007500007D106EB4600C24901EB800010F8058086
:1007600004E0C04800EB061010F8058000270FE0F9
:1007700008F0800018B1584601F080FC02E00698AD
:1007800001F07CFC4FEA48604FEA1068781CC7B261
:1007900004EBD471B7EB610FEADB681CC5B2A5426C
:1007A000D5DB2FE000252BE00C2C07D106EB460013
:1007B000AB4901EB800010F8058004E0A94800EB8C
:1007C000061010F80580002713E0A448A0F800B038
:1007D00008F0800038B10AEB050291B209EB07027C
:1007E00090B201F0AFFC4FEA48604FEA1068781C05
:1007F000C7B204EBD471B7EB610FE6DB681CC5B27E
:10080000A542D1DB95490298088097484088401E50
:1008100083B295480088401E82B20021084601F04C
:100820003BFC07B0BDE8F08F2DE9FE4306460F46BE
:1008300015461C46DDF828801DE08B480088401EC8
:10084000B04204DB88484088401EB84201DABDE867
:10085000FE8320788DE82101844803887F48028840
:1008600039463046FFF752FF284605EBD07106EBBC
:1008700061018EB2641C20787E2802DC207820285A
:10088000DBDA00BFE3E710B50246012000E0504389
:100890000B1EA1F10104E1B2F9D110BD2DE9FF4F0A
:1008A00083B0074691461E46109C4FF0000A002573
:1008B00043E0701B401EC1B20A20FFF7E4FFB9FB02
:1008C000F0F00A21B0FBF1F201FB1208BAF1000FBF
:1008D0001BD1701EA84218DDB8F1000F13D1002003
:1008E0002021A346CDE90014029004EBDB714910EE
:1008F00001FB057188B25D490B8858490A88049943
:10090000FFF704FF17E04FF0010A002108F1300063
:10091000C0B2A346CDE90141009004EBDB71491060
:1009200001FB057188B251490B884C490A8804992A
:10093000FFF7ECFE00BF681CC5B2B542B9DB07B0DB
:10094000BDE8F08F2DE9FC5F0546884691469A4642
:10095000DDF830B000954920019000245FE004EB01
:100960000410434911F810009BF80010884253D13D
:1009700004EB04103E4901EB400040789BF8011065
:10098000884249D108F10F0083B205F10F0082B20D
:100990004146284601F080FB00263BE0002734E07A
:1009A0000D9890B904EB0410314901EB4000801C14
:1009B000805D80213941084018B1484601F05EFB56
:1009C00021E0504601F05AFB1DE02448A0F80090B9
:1009D00004EB0410264901EB4000801C805D80215F
:1009E0003941084018B14146284601F0ABFB681C6C
:1009F00085B20098281A102805D1009D08F1010041
:100A00001FFA80F803E0781CC7B2082FC8DB00BFCC
:100A1000701CC6B2202EC1DB00BF601C84B20198DE
:100A200084429CDB10484088401E83B20E480088F8
:100A3000401E82B20021084601F02EFBBDE8FC9F5B
:100A40002DE9FC5F0546884691469A46DDF830B0B0
:100A5000009507200190002474E000002E00002083
:100A60004E600008C26400087C00002030000020B6
:100A7000B26A000804EB840000EB4410E34911F86B
:100A800010009BF80010884259D104EB840000EB61
:100A90004410DE4901EB400040789BF80110884289
:100AA0004DD108F1170083B205F1170082B241461B
:100AB000284601F0F1FA00263FE0002738E00D98C3
:100AC000A0B904EB840000EB4410D04901EB4000D6
:100AD000801C805D80213941084018B1484601F0F2
:100AE000CDFA23E0504601F0C9FA1FE0C848A0F84B
:100AF000009004EB840000EB4410C44901EB40007B
:100B0000801C805D80213941084018B1414628464B
:100B100001F018FB681C85B20098281A182805D126
:100B2000009D08F101001FFA80F803E0781CC7B2AD
:100B3000082FC4DB00BF701CC6B2482EBDDB00BF4F
:100B4000601C84B20198844294DBB2484088401E05
:100B500083B2B0480088401E82B20021084601F0EE
:100B60009BFABDE8FC9F2DE9FC5F0546884691464F
:100B70009A46DDF830B000950420019000245FE033
:100B800004EB8410A44911F810009BF8001088426F
:100B900053D104EB8410A04901EB400040789BF84E
:100BA0000110884249D108F11F0083B205F11F00EE
:100BB00082B24146284601F06FFA00263BE000274A
:100BC00034E00D9890B904EB8410934901EB400098
:100BD000801C805D80213941084018B1484601F0F1
:100BE0004DFA21E0504601F049FA1DE08848A0F88E
:100BF000009004EB8410884901EB4000801C805D6C
:100C000080213941084018B14146284601F09AFA3E
:100C1000681C85B20098281A202805D1009D08F18B
:100C200001001FFA80F803E0781CC7B2082FC8DB68
:100C300000BF701CC6B2802EC1DB00BF601C84B236
:100C4000019884429CDB73484088401E83B27148FF
:100C50000088401E82B20021084601F01DFABDE85E
:100C6000FC9F2DE9FF4F83B0064688469146DDE99B
:100C70001147109DB2464FF0000B71E0BBF1000F21
:100C800040D104EBD471634A1288A2EB6101B142F6
:100C900004DB60494988091B414502DA07B0BDE819
:100CA000F08F2878802802DD4FF0010B58E028787B
:100CB0000D2806D108EB04001FFA80F856466D1C7B
:100CC0001EE0102C0DDD102128788DE883004A46A7
:100CD00041463046069BFFF719FD06F1080086B233
:100CE0000EE028788DE891004A4641463046069B42
:100CF000FFF70CFD204604EBD07106EB61018EB2CC
:100D00006D1C2DE043480088001BB04204DB4148C5
:100D10004088001B404500DAC0E74FF0000B202C54
:100D200008D1CDE900574A4641463046069BFFF7B9
:100D30001AFF12E0182C08D1CDE900574A46414667
:100D40003046069BFFF77CFE07E0CDE900574A4698
:100D500041463046069BFFF7F5FDAD1C301986B2C3
:100D6000287800288AD100BF98E72DE9FE4F0E466B
:100D700017469846DDE90D9A0C9C204604F0E4FBEA
:100D800085B224490988A1EBC50000EBD071C1F3FD
:100D90004F0B43463A46314658468DE81006FFF75A
:100DA00060FFBDE8FE8F2DE9F05F074688461546D7
:100DB0001E46DDF8289008EB0600401E83B2781925
:100DC000401E82B24146384601F066F900240AE02E
:100DD00019F814B009EB440090F801A04BEA0A207E
:100DE00001F04CF9641C05FB06F0A042F0DC094858
:100DF0004088401E83B207480088401E82B200210E
:100E0000084601F049F9BDE8F09F0000647400084D
:100E10002E0000207C0000206A76000800F099F87F
:100E2000482004F01DFB01F04AFA15E000F05EF9DD
:100E300000F09AF900F01AFA00F0CAFA00F0E2FBAA
:100E400000F089FB00F0B8FC00F0F3FC00F042FF7A
:100E500000F037FD00F054FEE8E7704700BFFEE702
:100E600000BFFEE700BFFEE700BFFEE77047704728
:100E7000704770470CB50020019000906C480068E6
:100E800040F480306A49086000BF6948006800F497
:100E9000003000900198401C0190009818B901980A
:100EA000B0F5A06FF1D16248006800F4003010B1D5
:100EB0000120009001E0002000900098012843D11B
:100EC0005C48006840F010005A4908600846006815
:100ED00020F0030008600846006840F00200086047
:100EE0005348406852494860084640684860084690
:100EF000406840F4806048600846406820F47C10F8
:100F000048600846406840F4E810486008460068B9
:100F100040F08070086000BF4548006800F0007035
:100F20000028F9D04248406820F00300404948605A
:100F30000846406840F00200486000BF3C484068F6
:100F400000F00C000828F9D10CBD10B5FFF792FF96
:100F500010BD10B53648006840F001003449086003
:100F600008464068344908403149486008460068EE
:100F7000324908402E4908600846006820F4802065
:100F800008600846406820F4FE0048604FF41F00E7
:100F90008860FFF7DAFF4FF000602949086010BD54
:100FA00010B5002100200022214B5B6803F00C01EA
:100FB00021B1042906D0082928D107E0214B224C71
:100FC000236027E01F4B204C236023E0184B5B6815
:100FD00003F47010164B5B6803F48032022303EBBA
:100FE000904022B9194B4343174C23600DE0104B3E
:100FF0005B6803F4003323B1144B4343124C23606A
:1010000003E0104B4343104C236003E00D4B0E4CA8
:10101000236000BF00BF064B5B68C3F303130C4C97
:10102000E15C094B1B68CB40074C236010BD0000FE
:1010300000100240002002400000FFF8FFFFF6FE13
:1010400008ED00E000127A000000002000093D00D9
:10105000040000203EB504464FF6FF70FE490880AC
:101060001F200090FD480288142300210846FFF746
:10107000D5F8012010211F234FF6FF72CDE9004162
:10108000029002210020FFF770FE1F200090F3481D
:101090004088401E83B2F1480088401E82B2EF486B
:1010A0004088143881B20020FFF7B8F801201021E1
:1010B000EBA2CDE900210290E8484088123881B2C5
:1010C0001F234FF6FF720020FFF74FFE4FF6FF7011
:1010D0000090E2484088153883B2E0480088401EFE
:1010E00082B215210020FFF799F83EBD0EB5E2A0AF
:1010F000FFF7B0FF01201021E5A21F23CDE9002159
:101100000290DA021E210020FFF72FFE012010219D
:10111000DBA21F23CDE900210290DA023C2100204E
:10112000FFF723FE01201021DCA21F23CDE90021BF
:1011300002904FF61F025A210020FFF716FE0120F1
:101140001021DEA21F23CDE9002102901A4678214A
:101150000020FFF70AFE40F2DC5004F09BF940F259
:10116000DC5004F097F90EBD0EB54FF6FF700090FD
:10117000BA484088401E83B2B8480088401E82B2F8
:1011800000210846FFF74AF801201021D2A24FF6AD
:10119000E073CDE9002102901F221E211420FFF7E9
:1011A00060FD4FF4487004F075F94FF478400090FA
:1011B000AA484088401E83B2A8480088401E82B2D8
:1011C00000210846FFF72AF801201021C4A24FF69B
:1011D000E073CDE9002102901F221E211420FFF7A9
:1011E00040FD4FF4487004F055F94FF4FC60009056
:1011F0009A484088401E83B298480088401E82B2B8
:1012000000210846FFF70AF801201021B6A24FF688
:10121000E073CDE9002102901F221E211420FFF768
:1012200020FD4FF4487004F035F91F2000908B48E2
:101230004088401E83B289480088401E82B2002147
:101240000846FEF7EBFF01201021A9A24FF6E0733C
:10125000CDE9002102904FF478421E211420FFF7BF
:1012600000FD4FF4487004F015F90EBD2DE9F0476C
:101270000024A1A0FFF7EEFE00BF4CE0A44830F828
:10128000140075490880DFF8D4C1BCF8025005EBA2
:10129000D57C4FEA6C0CACF16E0CC4EB04190CEB72
:1012A000490C0CF1640C1FFA8CF3DFF8B0C1BCF8E8
:1012B000006006EBD67C4FEA6C0CACF16E0CC4EB14
:1012C00004190CEB490C0CF1640C1FFA8CF2DFF8DA
:1012D0008CC1BCF8027007EBD77C4FEA6C0CACF108
:1012E0006E0CC4EB04190CEB490C1FFA8CF1DFF8FF
:1012F0006CC1BCF8008008EBD87C4FEA6C0CACF1F8
:101300006E0CC4EB04190CEB490C1FFA8CF0FFF7C0
:1013100014F8601CC4B2052CB0DB40F2DC5004F0C1
:10132000B9F800244CE07A4830F814004A490880A3
:10133000DFF828C1BCF8027007EBD77C4FEA6C0CD1
:10134000ACF16E0CC4EB04190CEB490C0CF1640C01
:101350001FFA8CF3DFF804C1BCF8005005EBD57C14
:101360004FEA6C0CACF16E0CC4EB04190CEB490C9D
:101370000CF1640C1FFA8CF2DFF8E0C0BCF80280BC
:1013800008EBD87C4FEA6C0CACF16E0CC4EB041982
:101390000CEB490C1FFA8CF1DFF8C0C0BCF8006000
:1013A00006EBD67C4FEA6C0CACF16E0CC4EB041966
:1013B0000CEB490C1FFA8CF0FEF7DFFF601CC4B287
:1013C000052CB0DB40F2DC5004F064F8BDE8F08797
:1013D000F8B500244FA0FFF73DFE00BF1FE000203E
:1013E0001E4B00905D8805EBD5735B10463BC4EB4C
:1013F000C40707EB8707D919184B1E8806EBD6736D
:101400005B10463BC4EBC40707EB8707D819404B7A
:1014100033F814203223FFF701F8601CC4B2052C06
:10142000DDDB40F2DC5004F035F800248BE00120D5
:101430000A4B00905D8805EBD5735B10463BC4EB0F
:10144000C40707EB8707D919044B1E8806EBD67330
:101450005B10463B6AE000002E0000207C0000206C
:10146000687474703A2F2F7777772E6C636477697E
:101470006B692E636F6D0000C8ABB6AFB5E7D7D30D
:10148000D7DBBACFB2E2CAD4B3CCD0F200000000AE
:10149000C8ABB6AFB5E7D7D300000000342E30227A
:1014A000204D65676132353630204E543335353145
:1014B0003020343830583830300000007869616F9F
:1014C00046656E674051447465636820323032323D
:1014D0002D30332D30320000424C2054657374009F
:1014E0005245442000000000475245454E20000070
:1014F000424C554520000000B2E2CAD4323A47556A
:1015000049BED8D0CECCEEB3E4B2E2CAD4000000DB
:1015100014000020B2E2CAD4333A475549BBADD4D7
:10152000B2CCEEB3E4B2E2CAD4000000C4EBC4070C
:1015300007EB8707D819E84B33F814203223FEF75E
:101540006DFF601CC4B2052CFFF671AF40F2DC5099
:1015500003F0A0FFF8BD0EB5E0A0FFF77BFD002073
:101560000C21E3A24FF6E073CDE9002102901F2287
:101570001E210A20FFF775FB01200C21E7A24FF680
:10158000E073CDE9002102901F222D210A20FFF7F0
:1015900068FB00200C21ECA24FF6E073CDE900219E
:1015A00002901F223C210A20FFF75BFB0020102144
:1015B000EDA24FF6E073CDE9002102901F225021E9
:1015C0000A20FFF74EFB01201021F2A24FF6E07334
:1015D000CDE9002102901F2264210A20FFF741FB80
:1015E00000201021F6A24FF6E073CDE90021029011
:1015F0001F2278210A20FFF734FB4FF4966003F096
:1016000049FF0EBD2DE9FC5F0024F5A0FFF722FD88
:1016100000BF60E0B04830F81400F8490880F8488E
:10162000458805EBD57040101138C4EB041100EB70
:10163000410081B2F248068806EBD67040100B38A4
:10164000C4EB041200EB420080B2DFF8B4C3CDE972
:101650000001BCF8027007EBD77C4FEA6C0CACF1D0
:10166000670CC4EB041B0CEB4B0C1FFA8CF3DFF87C
:1016700090C3BCF8008008EBD87C4FEA6C0CACF14E
:101680003D0CC4EB041B0CEB4B0C1FFA8CF2DFF887
:1016900070C3BCF8029009EBD97C4FEA6C0CACF13A
:1016A000110CC4EB041B0CEB4B0C1FFA8CF1DFF894
:1016B00050C3BCF800A00AEBDA7C4FEA6C0CACF12A
:1016C0006E0CC4EB041B0CEB4B0C1FFA8CF0FEF7FA
:1016D000F2FE601CC4B2052C9CDB40F2DC5003F02F
:1016E000D9FE002460E07C4830F81400C34908802B
:1016F000C348458805EBD57040101138C4EB041180
:1017000000EB410081B2BE48068806EBD67040105F
:101710000B38C4EB041200EB420080B2DFF8E0C2E9
:10172000CDE90001BCF8027007EBD77C4FEA6C0CE6
:10173000ACF1670CC4EB041B0CEB4B0C1FFA8CF3E5
:10174000DFF8BCC2BCF8008008EBD87C4FEA6C0C18
:10175000ACF13D0CC4EB041B0CEB4B0C1FFA8CF2F0
:10176000DFF89CC2BCF8029009EBD97C4FEA6C0C04
:10177000ACF1110CC4EB041B0CEB4B0C1FFA8CF1FD
:10178000DFF87CC2BCF800A00AEBDA7C4FEA6C0CF4
:10179000ACF16E0CC4EB041B0CEB4B0C1FFA8CF081
:1017A000FEF7AAFE601CC4B2052C9CDB40F2DC50A4
:1017B00003F070FEBDE8FC9F0EB592A0FFF74AFC57
:1017C0000020102194A24FF6E073CDE90021029091
:1017D0001F221E210A20FFF744FA0020102197A2A1
:1017E0004FF6E073CDE9002102901F2232210A203A
:1017F000FFF737FA0120182196A24FF6E073CDE9E2
:10180000002102901F2246210A20FFF72AFA012018
:10181000202196A24FF6E073CDE9002102901F220D
:1018200064210A20FFF71DFA4FF4966003F032FEA0
:101830000EBD0EB591A0FFF70DFC954828231A4662
:101840001E2100900846FFF7AEFA0120102191A258
:101850004FF6E073CDE9002102901F224B212A2090
:10186000FFF7FFF98A4828231A461E2100905A20C4
:10187000FFF799FA0120102186A24FF6E073CDE917
:10188000002102901F224B216620FFF7EAF98048D1
:1018900028231A461E2100909620FFF784FA012083
:1018A00010217CA24FF6E073CDE9002102901F22A7
:1018B0004B21A220FFF7D5F94FF4966003F0EAFD23
:1018C0000EBD10B588B00024734B0FCBCDE90623B5
:1018D000CDE9040100BF0CE114000020B2E2CAD43B
:1018E000353AD3A2CEC4CFD4CABEB2E2CAD4000025
:1018F000365831323A6162636465666768696A6B5B
:101900006C6D6E6F707172737475767778797A30EA
:1019100031323334353637383900000036583132F9
:101920003A4142434445464748494A4B4C4D4E4F45
:10193000505152535455565758595A303132333406
:101940003536373839000000365831323A7E21407A
:101950002324255E262A28295F2B7B7D3A3C3E3FA7
:101960002F7C2D2B2E000000385831363A616263EF
:101970006465666768696A6B6C6D6E6F70717273AF
:101980007475767778797A30313233343536373842
:1019900039000000385831363A4142434445464701
:1019A00048494A4B4C4D4E4F50515253545556573F
:1019B00058595A303132333435363738390000000F
:1019C000385831363A7E21402324255E262A28299C
:1019D0005F2B7B7D3A3C3E3F2F7C2D2B2E00000061
:1019E000B2E2CAD4343A47554920547269616E67ED
:1019F0006C65CCEEB3E4B2E2CAD400002E00002045
:101A00007C000020B2E2CAD4363AD6D0CEC4CFD4BD
:101A1000CABEB2E2CAD4000031365831363AC8AB39
:101A2000B6AFB5E7D7D3BCBCCAF5D3D0CFDEB9AB20
:101A3000CBBEBBB6D3ADC4FA00000000313658317E
:101A4000363A57656C636F6D65C8ABB6AFB5E7D70F
:101A5000D300000032345832343AC9EEDBDACAD04F
:101A6000D6D0CEC4B2E2CAD400000000333258331C
:101A7000323AD7D6CCE5B2E2CAD40000B2E2CAD438
:101A8000373ACDBCC6ACCFD4CABEB2E2CAD400008D
:101A90007478000851510000F48400084FF6FF707C
:101AA00000F05CFB204600F0BCFBEAA0FFF7D2FA96
:101AB0000121102204A850F824004FF6E073CDE96C
:101AC000012100901F221E211420FFF7CAF8E648CA
:101AD00028231A46322100901E20FFF764F94FF4A4
:101AE0007A7003F0D7FC4FF47A7003F0D3FC601CDB
:101AF000C4B2042CD2DB002000F093FB08B010BD70
:101B000008B5002500264FF4784702F0E6FE00F005
:101B100027FA03F065F8D5A0FFF79CFA0120DC490D
:101B200000900988183988B2DAA310220021FEF744
:101B30007BFE3846D8490880D549009009881C3971
:101B40008AB2D3490988323988B212230221FEF7BA
:101B500065FBBEE000F02DFA0446D0484168002045
:101B60008847CE48007D00F08000002879D0CB481F
:101B7000008AC7490988884276DAC848408AC44939
:101B80004988884270DAC548018AC14800881838F7
:101B9000814222DDC148408A10281EDAB3A0FFF737
:101BA00059FA0120BA4900900988183988B2B9A3B6
:101BB00010220021FEF738FEB74807800088B4499C
:101BC000009009881C398AB2B1490988323988B233
:101BD00012230221FEF722FB46E0B048018AAC48FE
:101BE00000883238814234DDAC48018AA848008838
:101BF0001C3881422DDAA948408A142829DA0520A8
:101C000096FBF0F100FB1160A54931F81080A04966
:101C1000CDF8008009881C398AB29D49098832397B
:101C200088B212230221FEF7F9FA3046711C8EB2F7
:101C3000052190FBF1F201FB1200994931F81000E7
:101C400095490880084607880A2003F023FC0BE02A
:101C500007E0924A518A108A8F4A128802F007F8E8
:101C600002E00A2003F016FC012C25D14FF6FF708C
:101C700000F074FA02F0C7F902F08FF87BA0FFF7CA
:101C8000E9F90120824900900988183988B281A3B6
:101C900010220021FEF7C8FD7F48078000887C499C
:101CA000009009881C398AB279490988323988B28A
:101CB00012230221FEF7B2FA681C85B21E2D08D14C
:101CC00000257848006808B9012000E00020754927
:101CD00008603FE738B574A0FFF7BCF91F206E49D4
:101CE0000880764803F012FC012075A310223221EF
:101CF00000900F20FEF798FD012077A310224621C7
:101D000000900F20FEF790FD012079A310225A21A8
:101D100000900F20FEF788FD01207BA310226E218A
:101D200000900F20FEF780FD01207DA3102282216C
:101D300000900F20FEF778FD01207FA3102296214E
:101D400000900F20FEF770FD012080A31022AA2131
:101D500000900F20FEF768FD4FF478404E49088050
:101D6000002473E0FEF734FA42F2107190FBF1F2B6
:101D700001FB1205102005232A4632210090642021
:101D8000FEF78CFDFEF724FA42F2107190FBF1F29F
:101D900001FB1205102005232A46462100906420ED
:101DA000FEF77CFDFEF714FA42F2107190FBF1F29F
:101DB00001FB1205102005232A465A2100906420B9
:101DC000FEF76CFDFEF704FA42F2107190FBF1F29F
:101DD00001FB1205102005232A466E210090642085
:101DE000FEF75CFDFEF7F4F942F2107190FBF1F2A0
:101DF00001FB1205102005232A4682210090642051
:101E0000FEF74CFDFEF7E4F9322190FBF1F201FB05
:101E10001205102005232A46962100906420FEF723
:101E20003DFDFEF7D5F9642190FBF1F201FB1205AF
:101E3000102005232A46AA2100906420FEF72EFDDB
:101E40004FF4FA7003F026FB601CC4B20F2C89DB40
:101E500038BD0000B2E2CAD4393AC6C1C4BBD0FD15
:101E6000D7AAB2E2CAD4000074780008B2E2CAD499
:101E700031303A546F756368B2E2CAD428B0B44BBB
:101E8000455930BCFCD0A3D7BC292020200000003D
:101E90007C000020525354002E000020340000200B
:101EA00014000020A0012142B2E2CAD4383AB6AFF1
:101EB000CCACCAFDD7D6CFD4CABE000040E20100E8
:101EC000204843484F3A2020202020202020202056
:101ED0002075672F6D3300002020434F323A2020B9
:101EE00020202020202020202070706D0000000085
:101EF0002054564F433A202020202020202020200C
:101F00002075672F6D330000504D322E353A20205A
:101F100020202020202020202075672F6D330000F6
:101F200020504D31303A2020202020202020202019
:101F30002075672F6D33000020205445503A202033
:101F40002020202020202020204300002020485551
:101F50004D3A202020202020202020202025000075
:101F600008B50121142003F017FA0121284803F0D5
:101F700028F84FF40040ADF8000048208DF8030029
:101F80006946244802F04CFF2020ADF800004820AC
:101F90008DF803006946204802F042FF0120ADF8A9
:101FA000000028208DF8030069461A4802F038FF27
:101FB00008BD10B52021184802F0C5FF58B14FF4F4
:101FC0000041144802F0BFFF28B10121114802F07E
:101FD000BAFF012819D10A2003F05CFA20210E482B
:101FE00002F0B1FF08B9012010BD4FF400410948CB
:101FF00002F0A9FF08B90220F6E70121054802F026
:10200000A2FF012801D10320EEE70020ECE7000049
:102010000002300000080140001001404FF4007140
:10202000FE4A5161FE4908608021516111618900B9
:102030001161704700B503464FF48070F74948615D
:102040001846FFF7EBFF00BD00B503464FF4807064
:10205000F24908611846FFF7E1FF00BD30B50546BB
:102060000C462846FFF7E6FF2046FFF7EDFF30BDA0
:1020700000B5EC490889FFF7DDFF00BD4FF4807122
:10208000E64A116149005161E549086080215161CA
:102090001161890011617047F0B504460D4616467E
:1020A0001F46E0498889FFF7C5FF2012FFF7CCFFE4
:1020B000DC498989491C88B2FFF7BCFFE0B2FFF711
:1020C000C3FFD8498989891C88B2FFF7B3FF301252
:1020D000FFF7BAFFD3498989C91C88B2FFF7AAFF65
:1020E000F0B2FFF7B1FFCF49C889FFF7A3FF28126D
:1020F000FFF7AAFFCB49C989491C88B2FFF79AFFAD
:10210000E8B2FFF7A1FFC749C989891C88B2FFF768
:1021100091FF3812FFF798FFC249C989C91C88B2DC
:10212000FFF788FFF8B2FFF78FFFFFF7A1FFF0BDC1
:1021300030B504460D462B46224629462046FFF779
:10214000ABFF30BD30B504460D4629462046FFF7AB
:10215000EFFFB5480088FFF791FF30BD30B504466A
:10216000B0484088401E83B2AE480088401E82B20C
:1021700000210846FFF790FF4FF48070A7490861DF
:1021800040004861002506E0A54804608020A3497E
:10219000486108616D1CA3484088A24909884843EA
:1021A000A842F1D84FF400709C49086130BD08B5D1
:1021B0000121192003F0F0F801219C4802F001FFF1
:1021C0004FF47470ADF8000003208DF80200102069
:1021D0008DF803006946914802F022FE4FF47471B5
:1021E0008E4802F0CAFE4FF6FF70ADF80000694657
:1021F0008B480C3802F014FE4FF6FF7188480C38FB
:1022000002F0BBFE08BD10B510208449486164206F
:1022100003F040F9102081490861322003F03AF9B7
:1022200010BD10B504464FF428507E4988814FF404
:102230002C50C8814FF4305008814FF438504881F9
:1022400034B1012C11D0022C1CD0032C34D126E047
:102250004FF4F070734908804FF4487048800021B3
:102260004FF45850FFF7FAFE27E04FF448706D49DD
:1022700008804FF4F070488060214FF45850FFF709
:10228000EDFE1AE04FF4F070664908804FF4487094
:102290004880C0214FF45850FFF7E0FE0DE04FF4A6
:1022A0004870604908804FF4F0704880A0214FF4D6
:1022B0005850FFF7D3FE00E000BF00BF10BD10B5BF
:1022C000FFF775FF322003F0E5F8FFF79CFF4FF4AE
:1022D0007040FFF7AFFE5520FFF7B6FE4FF201004A
:1022E000FFF7A8FEAA20FFF7AFFE4FF20200FFF7AC
:1022F000A1FE5220FFF7A8FE4FF20300FFF79AFE5F
:102300000820FFF7A1FE4FF20400FFF793FE012023
:10231000FFF79AFE4FF43640FFF78CFE3420FFF7AC
:1023200093FE4BF20160FFF785FE3420FFF78CFE31
:102330004BF20260FFF77EFE3420FFF785FE4FF47C
:102340003040FFF777FE0D20FFF77EFE4BF20100D5
:10235000FFF770FE0D20FFF777FE4BF20200FFF74C
:1023600069FE0D20FFF770FE4FF43740FFF762FE65
:102370002420FFF769FE4BF20170FFF75BFE24207B
:10238000FFF762FE4BF20270FFF754FE2420FFF7C6
:102390005BFE4FF43140FFF74DFE0D20FFF754FE7A
:1023A0004BF20110FFF746FE0D20FFF74DFE4BF2FA
:1023B0000210FFF73FFE0D20FFF746FE4FF43840B6
:1023C000FFF738FE2420FFF73FFE4BF60100FFF732
:1023D00031FE2420FFF738FE4BF60200FFF72AFEFD
:1023E0002420FFF731FE4FF43240FFF723FE002098
:1023F000FFF72AFE4FF43940FFF71CFE2420FFF7B9
:1024000023FE4BF60110FFF715FE2420FFF71CFEFC
:102410004BF60210FFF70EFE242009E000100140E9
:102420000C0C01407C0000202E0000200002300037
:10243000FFF70AFE4FF43340FFF7FCFD0520FFF7DE
:1024400003FE4BF20130FFF7F5FD0520FFF7FCFD21
:102450004BF20230FFF7EEFD0520FFF7F5FD4FF4DC
:102460003A40FFF7E7FD3420FFF7EEFD4BF6012081
:10247000FFF7E0FD3420FFF7E7FD4BF60220FFF702
:10248000D9FD3420FFF7E0FD4FF43540FFF7D2FDD2
:102490000B20FFF7D9FD4BF20150FFF7CBFD0B20CE
:1024A000FFF7D2FD4BF20250FFF7C4FD0B20FFF700
:1024B000CBFD4FF43C40FFF7BDFD0020FFF7C4FD0E
:1024C0004BF60140FFF7B6FDA320FFF7BDFD4BF62D
:1024D0000240FFF7AFFD0020FFF7B6FD4FF43D408F
:1024E000FFF7A8FD0020FFF7AFFD4BF60150FFF707
:1024F000A1FDA320FFF7A8FD4BF60250FFF79AFDC0
:102500000020FFF7A1FD4FF43E40FFF793FD0020B0
:10251000FFF79AFD4BF60160FFF78CFD6320FFF794
:1025200093FD4FF45140FFF785FD0020FFF78CFD30
:102530004DF20110FFF77EFD3720FFF785FD4DF2CC
:102540000210FFF777FD0020FFF77EFD4DF203102C
:10255000FFF770FD5220FFF777FD4DF20410FFF7F3
:1025600069FD0020FFF770FD4DF20510FFF762FDD9
:102570007B20FFF769FD4DF20610FFF75BFD0020A1
:10258000FFF762FD4DF20710FFF754FD9920FFF7AA
:102590005BFD4DF20810FFF74DFD0020FFF754FDE5
:1025A0004DF20910FFF746FDB120FFF74DFD4DF24A
:1025B0000A10FFF73FFD0020FFF746FD4DF20B101C
:1025C000FFF738FDD220FFF73FFD4DF20C10FFF76B
:1025D00031FD0020FFF738FD4DF20D10FFF72AFD09
:1025E000F620FFF731FD4DF20E10FFF723FD01201D
:1025F000FFF72AFD4DF20F10FFF71CFD2720FFF714
:1026000023FD4DF21010FFF715FD0120FFF71CFD13
:102610004DF21110FFF70EFD4E20FFF715FD4DF2A4
:102620001210FFF707FD0120FFF70EFD4DF213100A
:10263000FFF700FD8C20FFF707FD4DF21410FFF7A8
:10264000F9FC0120FFF700FD4DF21510FFF7F2FC39
:10265000BE20FFF7F9FC4DF21610FFF7EBFC02204D
:10266000FFF7F2FC4DF21710FFF7E4FC0B20FFF729
:10267000EBFC4DF21810FFF7DDFC0220FFF7E4FC45
:102680004DF21910FFF7D6FC4820FFF7DDFC4DF2A4
:102690001A10FFF7CFFC0220FFF7D6FC4DF21B10FB
:1026A000FFF7C8FC4A20FFF7CFFC4DF21C10FFF7E4
:1026B000C1FC0220FFF7C8FC4DF21D10FFF7BAFC69
:1026C0007E20FFF7C1FC4DF21E10FFF7B3FC022085
:1026D000FFF7BAFC4DF21F10FFF7ACFCBC20FFF770
:1026E000B3FC4DF22010FFF7A5FC0220FFF7ACFC75
:1026F0004DF22110FFF79EFCE120FFF7A5FC4DF203
:102700002210FFF797FC0320FFF79EFC4DF22310E9
:10271000FFF790FC1020FFF797FC4DF22410FFF715
:1027200089FC0320FFF790FC4DF22510FFF782FC97
:102730003120FFF789FC4DF22610FFF77BFC0320C8
:10274000FFF782FC4DF22710FFF774FC5A20FFF7C9
:102750007BFC4DF22810FFF76DFC0320FFF774FCA3
:102760004DF22910FFF766FC7320FFF76DFC4DF268
:102770002A10FFF75FFC0320FFF766FC4DF22B10D9
:10278000FFF758FC9420FFF75FFC4DF22C10FFF789
:1027900051FC0320FFF758FC4DF22D10FFF74AFCC7
:1027A0009F20FFF751FC4DF22E10FFF743FC032052
:1027B000FFF74AFC4DF22F10FFF73CFCB320FFF768
:1027C00043FC4DF23010FFF735FC0320FFF73CFCD3
:1027D0004DF23110FFF72EFCB920FFF735FC4DF21A
:1027E0003210FFF727FC0320FFF72EFC4DF23310C9
:1027F000FFF720FCC120FFF727FC4FF45240FFF702
:1028000019FC0020FFF720FC4DF20120FFF712FC1D
:102810003720FFF719FC4DF20220FFF70BFC0020D8
:10282000FFF712FC4DF20320FFF704FC5220FFF7E4
:102830000BFC4DF20420FFF7FDFB0020FFF704FC2A
:102840004DF20520FFF7F6FB7B20FFF7FDFB4DF275
:102850000620FFF7EFFB0020FFF7F6FB4DF2072005
:10286000FFF7E8FB9920FFF7EFFB4DF20820FFF799
:10287000E1FB0020FFF7E8FB4DF20920FFF7DAFB50
:10288000B120FFF7E1FB4DF20A20FFF7D3FB002058
:10289000FFF7DAFB4DF20B20FFF7CCFBD220FFF75E
:1028A000D3FB4DF20C20FFF7C5FB0020FFF7CCFB5C
:1028B0004DF20D20FFF7BEFBF620FFF7C5FB4DF2F2
:1028C0000E20FFF7B7FB0120FFF7BEFB4DF20F20F4
:1028D000FFF7B0FB2720FFF7B7FB4DF21020FFF703
:1028E000A9FB0120FFF7B0FB4DF21120FFF7A2FB7F
:1028F0004E20FFF7A9FB4DF21220FFF79BFB0120B2
:10290000FFF7A2FB4DF21320FFF794FB8C20FFF79B
:102910009BFB4DF21420FFF78DFB0120FFF794FB8A
:102920004DF21520FFF786FBBE20FFF78DFB4DF221
:102930001620FFF77FFB0220FFF786FB4DF21720E2
:10294000FFF778FB0B20FFF77FFB4DF21820FFF716
:1029500071FB0220FFF778FB4DF21920FFF76AFBAD
:102960004820FFF771FB4DF21A20FFF763FB0220AE
:10297000FFF76AFB4DF21B20FFF75CFB4A20FFF7D5
:1029800063FB4DF21C20FFF755FB0220FFF75CFBB9
:102990004DF21D20FFF74EFB7E20FFF755FB4DF259
:1029A0001E20FFF747FB0220FFF74EFB4DF21F20D2
:1029B000FFF740FBBC20FFF747FB4DF22020FFF75D
:1029C00039FB0220FFF740FB4DF22120FFF732FBDD
:1029D000E120FFF739FB4DF22220FFF72BFB03200C
:1029E000FFF732FB4DF22320FFF724FB1020FFF707
:1029F0002BFB4DF22420FFF71DFB0320FFF724FBE8
:102A00004DF22520FFF716FB3120FFF71DFB4DF29D
:102A10002620FFF70FFB0320FFF716FB4DF22720C0
:102A2000FFF708FB5A20FFF70FFB4DF22820FFF7B6
:102A300001FB0320FFF708FB4DF22920FFF7FAFA0C
:102A40007320FFF701FB4DF22A20FFF7F3FA032072
:102A5000FFF7FAFA4DF22B20FFF7ECFA9420FFF77C
:102A6000F3FA4DF22C20FFF7E5FA0320FFF7ECFA1A
:102A70004DF22D20FFF7DEFA9F20FFF7E5FA4DF229
:102A80002E20FFF7D7FA0320FFF7DEFA4DF22F20B2
:102A9000FFF7D0FAB320FFF7D7FA4DF23020FFF757
:102AA000C9FA0320FFF7D0FA4DF23120FFF7C2FA3E
:102AB000B920FFF7C9FA4DF23220FFF7BBFA032025
:102AC000FFF7C2FA4DF23320FFF7B4FAC120FFF747
:102AD000BBFA4FF45340FFF7ADFA0020FFF7B4FA0A
:102AE0004DF20130FFF7A6FA3720FFF7ADFA4DF2AD
:102AF0000230FFF79FFA0020FFF7A6FA4DF20330ED
:102B0000FFF798FA5220FFF79FFA4DF20430FFF7D3
:102B100091FA0020FFF798FA4DF20530FFF78AFA94
:102B20007B20FFF791FA4DF20630FFF783FA002081
:102B3000FFF78AFA4DF20730FFF77CFA9920FFF78A
:102B400083FA4DF20830FFF775FA0020FFF77CFAA0
:102B50004DF20930FFF76EFAB120FFF775FA4DF22A
:102B60000A30FFF767FA0020FFF76EFA4DF20B30DC
:102B7000FFF760FAD220FFF767FA4DF20C30FFF74B
:102B800059FA0020FFF760FA4DF20D30FFF752FAC4
:102B9000F620FFF759FA4DF20E30FFF74BFA0120FD
:102BA000FFF752FA4DF20F30FFF744FA2720FFF7F4
:102BB0004BFA4DF21030FFF73DFA0120FFF744FACF
:102BC0004DF21130FFF736FA4E20FFF73DFA4DF285
:102BD0001230FFF72FFA0120FFF736FA4DF21330CB
:102BE000FFF728FA8C20FFF72FFA4DF21430FFF789
:102BF00021FA0120FFF728FA4DF21530FFF71AFAF3
:102C0000BE20FFF721FA4DF21630FFF713FA02202B
:102C1000FFF71AFA4DF21730FFF70CFA0B20FFF707
:102C200013FA4DF21830FFF705FA0220FFF70CFAFD
:102C30004DF21930FFF7FEF94820FFF705FA4DF283
:102C40001A30FFF7F7F90220FFF7FEF94DF21B30BB
:102C5000FFF7F0F94A20FFF7F7F94DF21C30FFF7C4
:102C6000E9F90220FFF7F0F94DF21D30FFF7E2F924
:102C70007E20FFF7E9F94DF21E30FFF7DBF9022065
:102C8000FFF7E2F94DF21F30FFF7D4F9BC20FFF750
:102C9000DBF94DF22030FFF7CDF90220FFF7D4F930
:102CA0004DF22130FFF7C6F9E120FFF7CDF94DF2E3
:102CB0002230FFF7BFF90320FFF7C6F94DF22330AA
:102CC000FFF7B8F91020FFF7BFF94DF22430FFF7F6
:102CD000B1F90320FFF7B8F94DF22530FFF7AAF953
:102CE0003120FFF7B1F94DF22630FFF7A3F90320A9
:102CF000FFF7AAF94DF22730FFF79CF95A20FFF7AA
:102D0000A3F94DF22830FFF795F90320FFF79CF95E
:102D10004DF22930FFF78EF97320FFF795F94DF248
:102D20002A30FFF787F90320FFF78EF94DF22B3099
:102D3000FFF780F99420FFF787F94DF22C30FFF769
:102D400079F90320FFF780F94DF22D30FFF772F982
:102D50009F20FFF779F94DF22E30FFF76BF9032032
:102D6000FFF772F94DF22F30FFF764F9B320FFF748
:102D70006BF94DF23030FFF75DF90320FFF764F98E
:102D80004DF23130FFF756F9B920FFF75DF94DF2FA
:102D90003230FFF74FF90320FFF756F94DF2333089
:102DA000FFF748F9C120FFF74FF94FF45440FFF700
:102DB00041F90020FFF748F94DF20140FFF73AF9D9
:102DC0003720FFF741F94DF20240FFF733F90020B9
:102DD000FFF73AF94DF20340FFF72CF95220FFF7C5
:102DE00033F94DF20440FFF725F90020FFF72CF9E5
:102DF0004DF20540FFF71EF97B20FFF725F94DF254
:102E00000640FFF717F90020FFF71EF94DF20740C3
:102E1000FFF710F99920FFF717F94DF20840FFF777
:102E200009F90020FFF710F94DF20940FFF702F908
:102E3000B120FFF709F94DF20A40FFF7FBF8002037
:102E4000FFF702F94DF20B40FFF7F4F8D220FFF73D
:102E5000FBF84DF20C40FFF7EDF80020FFF7F4F817
:102E60004DF20D40FFF7E6F8F620FFF7EDF84DF2D2
:102E70000E40FFF7DFF80120FFF7E6F84DF20F40B4
:102E8000FFF7D8F82720FFF7DFF84DF21040FFF7E3
:102E9000D1F80120FFF7D8F84DF21140FFF7CAF83A
:102EA0004E20FFF7D1F84DF21240FFF7C3F8012092
:102EB000FFF7CAF84DF21340FFF7BCF88C20FFF77C
:102EC000C3F84DF21440FFF7B5F80120FFF7BCF846
:102ED0004DF21540FFF7AEF8BE20FFF7B5F84DF202
:102EE0001640FFF7A7F80220FFF7AEF84DF21740A3
:102EF000FFF7A0F80B20FFF7A7F84DF21840FFF7F7
:102F000099F80220FFF7A0F84DF21940FFF792F868
:102F10004820FFF799F84DF21A40FFF78BF802208E
:102F2000FFF792F84DF21B40FFF784F84A20FFF7B5
:102F30008BF84DF21C40FFF77DF80220FFF784F874
:102F40004DF21D40FFF776F87E20FFF77DF84DF239
:102F50001E40FFF76FF80220FFF776F84DF21F4092
:102F6000FFF768F8BC20FFF76FF84DF22040FFF73D
:102F700061F80220FFF768F84DF22140FFF75AF898
:102F8000E120FFF761F84DF22240FFF753F80320EC
:102F9000FFF75AF84DF22340FFF74CF81020FFF7E7
:102FA00053F84DF22440FFF745F80320FFF74CF8A3
:102FB0004DF22540FFF73EF83120FFF745F84DF27E
:102FC0002640FFF737F80320FFF73EF84DF2274081
:102FD000FFF730F85A20FFF737F84DF22840FFF797
:102FE00029F80320FFF730F84DF22940FFF722F8C7
:102FF0007320FFF729F84DF22A40FFF71BF8032052
:10300000FFF722F84DF22B40FFF714F89420FFF75A
:103010001BF84DF22C40FFF70DF80320FFF714F8D2
:103020004DF22D40FFF706F89F20FFF70DF84DF207
:103030002E40FEF7FFFF0320FFF706F84DF22F406A
:10304000FEF7F8FFB320FEF7FFFF4DF23040FEF72A
:10305000F1FF0320FEF7F8FF4DF23140FEF7EAFFE3
:10306000B920FEF7F1FF4DF23240FEF7E3FF0320F7
:10307000FEF7EAFF4DF23340FEF7DCFFC120FEF71A
:10308000E3FF4FF45540FEF7D5FF0020FEF7DCFFCD
:103090004DF20150FEF7CEFF3720FEF7D5FF4DF27F
:1030A0000250FEF7C7FF0020FEF7CEFF4DF203509F
:1030B000FEF7C0FF5220FEF7C7FF4DF20450FEF7A7
:1030C000B9FF0020FEF7C0FF4DF20550FEF7B2FF3A
:1030D0007B20FEF7B9FF4DF20650FEF7ABFF002054
:1030E000FEF7B2FF4DF20750FEF7A4FF9920FEF75E
:1030F000ABFF4DF20850FEF79DFF0020FEF7A4FF46
:103100004DF20950FEF796FFB120FEF79DFF4DF2FC
:103110000A50FEF78FFF0020FEF796FF4DF20B508E
:10312000FEF788FFD220FEF78FFF4DF20C50FEF71E
:1031300081FF0020FEF788FF4DF20D50FEF77AFF69
:10314000F620FEF781FF4DF20E50FEF773FF0120CF
:10315000FEF77AFF4DF20F50FEF76CFF2720FEF7C7
:1031600073FF4DF21050FEF765FF0120FEF76CFF74
:103170004DF21150FEF75EFF4E20FEF765FF4DF257
:103180001250FEF757FF0120FEF75EFF4DF213507D
:10319000FEF750FF8C20FEF757FF4DF21450FEF75C
:1031A00049FF0120FEF750FF4DF21550FEF742FF98
:1031B000BE20FEF749FF4DF21650FEF73BFF0220FE
:1031C000FEF742FF4DF21750FEF734FF0B20FEF7DB
:1031D0003BFF4DF21850FEF72DFF0220FEF734FFA3
:1031E0004DF21950FEF726FF4820FEF72DFF4DF255
:1031F0001A50FEF71FFF0220FEF726FF4DF21B506C
:10320000FEF718FF4A20FEF71FFF4DF21C50FEF795
:1032100011FF0220FEF718FF4DF21D50FEF70AFFC6
:103220007E20FEF711FF4DF21E50FEF703FF022035
:10323000FEF70AFF4DF21F50FEF7FCFEBC20FEF722
:1032400003FF4DF22050FEF7F5FE0220FEF7FCFED4
:103250004DF22150FEF7EEFEE120FEF7F5FE4DF2B5
:103260002250FEF7E7FE0320FEF7EEFE4DF223505C
:10327000FEF7E0FE1020FEF7E7FE4DF22450FEF7C9
:10328000D9FE0320FEF7E0FE4DF22550FEF7D2FEF8
:103290003120FEF7D9FE4DF22650FEF7CBFE03207B
:1032A000FEF7D2FE4DF22750FEF7C4FE5A20FEF77D
:1032B000CBFE4DF22850FEF7BDFE0320FEF7C4FE04
:1032C0004DF22950FEF7B6FE7320FEF7BDFE4DF21B
:1032D0002A50FEF7AFFE0320FEF7B6FE4DF22B504C
:1032E000FEF7A8FE9420FEF7AFFE4DF22C50FEF73D
:1032F000A1FE0320FEF7A8FE4DF22D50FEF79AFE28
:103300009F20FEF7A1FE4DF22E50FEF793FE032004
:10331000FEF79AFE4DF22F50FEF78CFEB320FEF71B
:1033200093FE4DF23050FEF785FE0320FEF78CFE33
:103330004DF23150FEF77EFEB920FEF785FE4DF2CC
:103340003250FEF777FE0320FEF77EFE4DF233503B
:10335000FEF770FEC120FEF777FE4FF45640FEF7F1
:1033600069FE0020FEF770FE4DF20160FEF762FE7E
:103370003720FEF769FE4DF20260FEF75BFE00208B
:10338000FEF762FE4DF20360FEF754FE5220FEF798
:103390005BFE4DF20460FEF74DFE0020FEF754FE8A
:1033A0004DF20560FEF746FE7B20FEF74DFE4DF226
:1033B0000660FEF73FFE0020FEF746FE4DF2076076
:1033C000FEF738FE9920FEF73FFE4DF20860FEF74B
:1033D00031FE0020FEF738FE4DF20960FEF72AFEAE
:1033E000B120FEF731FE4DF20A60FEF723FE002009
:1033F000FEF72AFE4DF20B60FEF71CFED220FEF710
:1034000023FE4DF20C60FEF715FE0020FEF71CFEB9
:103410004DF20D60FEF70EFEF620FEF715FE4DF2A2
:103420000E60FEF707FE0120FEF70EFE4DF20F6064
:10343000FEF700FE2720FEF707FE4DF21060FEF7B4
:10344000F9FD0120FEF700FE4DF21160FEF7F2FDDE
:103450004E20FEF7F9FD4DF21260FEF7EBFD012064
:10346000FEF7F2FD4DF21360FEF7E4FD8C20FEF74F
:10347000EBFD4DF21460FEF7DDFD0120FEF7E4FDEB
:103480004DF21560FEF7D6FDBE20FEF7DDFD4DF2D4
:103490001660FEF7CFFD0220FEF7D6FD4DF2176055
:1034A000FEF7C8FD0B20FEF7CFFD4DF21860FEF7CA
:1034B000C1FD0220FEF7C8FD4DF21960FEF7BAFD0E
:1034C0004820FEF7C1FD4DF21A60FEF7B3FD022061
:1034D000FEF7BAFD4DF21B60FEF7ACFD4A20FEF789
:1034E000B3FD4DF21C60FEF7A5FD0220FEF7ACFD1A
:1034F0004DF21D60FEF79EFD7E20FEF7A5FD4DF20C
:103500001E60FEF797FD0220FEF79EFD4DF21F6044
:10351000FEF790FDBC20FEF797FD4DF22060FEF710
:1035200089FD0220FEF790FD4DF22160FEF782FD3D
:10353000E120FEF789FD4DF22260FEF77BFD0320BE
:10354000FEF782FD4DF22360FEF774FD1020FEF7BA
:103550007BFD4DF22460FEF76DFD0320FEF774FD48
:103560004DF22560FEF766FD3120FEF76DFD4DF250
:103570002660FEF75FFD0320FEF766FD4DF2276033
:10358000FEF758FD5A20FEF75FFD4DF22860FEF76A
:1035900051FD0320FEF758FD4DF22960FEF74AFD6C
:1035A0007320FEF751FD4DF22A60FEF743FD032024
:1035B000FEF74AFD4DF22B60FEF73CFD9420FEF72E
:1035C00043FD4DF22C60FEF735FD0320FEF73CFD78
:1035D0004DF22D60FEF72EFD9F20FEF735FD4DF2DA
:1035E0002E60FEF727FD0320FEF72EFD4DF22F6023
:1035F000FEF720FDB320FEF727FD4DF23060FEF709
:1036000019FD0320FEF720FD4DF23160FEF712FD9B
:10361000B920FEF719FD4DF23260FEF70BFD0320D5
:10362000FEF712FD4DF23360FEF704FDC120FEF7F8
:103630000BFD4FF47040FEF7FDFC5520FEF704FD36
:103640004FF20100FEF7F6FCAA20FEF7FDFC4FF258
:103650000200FEF7EFFC5220FEF7F6FC4FF20300EB
:10366000FEF7E8FC0820FEF7EFFC4FF20400FEF73F
:10367000E1FC0020FEF7E8FC4FF43040FEF7DAFCF6
:103680000820FEF7E1FC4BF20100FEF7D3FC052019
:10369000FEF7DAFC4BF20200FEF7CCFC0220FEF74C
:1036A000D3FC4BF20300FEF7C5FC0520FEF7CCFC73
:1036B0004BF20400FEF7BEFC0220FEF7C5FC4FF4FF
:1036C0003640FEF7B7FC0820FEF7BEFC4FF435404D
:1036D000FEF7B0FC5020FEF7B7FC4FF43740FEF782
:1036E000A9FC0020FEF7B0FC4BF20170FEF7A2FC33
:1036F0000020FEF7A9FC4FF43840FEF79BFC0120A8
:10370000FEF7A2FC4BF60100FEF794FC0520FEF745
:103710009BFC4BF60200FEF78DFC0520FEF794FCA7
:103720004BF60300FEF786FC0520FEF78DFC4FF4F8
:103730003C40FEF77FFC0020FEF786FC4BF6014084
:10374000FEF778FC0020FEF77FFC4BF60240FEF708
:1037500071FC0020FEF778FC4FF44C40FEF76AFC49
:103760000320FEF771FC4CF60140FEF763FC0020DD
:10377000FEF76AFC4CF60240FEF75CFC0020FEF708
:1037800063FC4FF43D40FEF755FC0120FEF75CFC66
:103790004BF60150FEF74EFC8420FEF755FC4BF62D
:1037A0000250FEF747FC0720FEF74EFC4BF6035095
:1037B000FEF740FC3120FEF747FC4BF60450FEF7C5
:1037C00039FC0020FEF740FC4FF43A40FEF732FC93
:1037D0000120FEF739FC4FF47F40FEF72BFCAA20B6
:1037E000FEF732FC4FF60170FEF724FC5520FEF781
:1037F0002BFC4FF60270FEF71DFC2520FEF724FC83
:103800004FF60370FEF716FC0120FEF71DFC4FF487
:103810005450FEF70FFC0020FEF716FC4FF45850F2
:10382000FEF708FC0020FEF70FFC4FF46850FEF78F
:1038300001FC5520FEF708FC4FF48850FEF7FAFB18
:10384000782001F027FE4FF42450FEF7F3FB4FF4ED
:103850003050FEF7EFFB0020FEF7E3FC4FF6FF7061
:10386000FEF77CFC10BD10B501F08EF810BD70B5F0
:103870000446002601F0A2F82546E11704EB116189
:103880000912A02202EB4101C8B201F045F901F092
:10389000D6F8E11704EB11610912A4EB0121C8B2BB
:1038A00001F03AF901F0CBF801F088F8A12001F01D
:1038B00033F901F0C4F8002001F05BF9064601F08D
:1038C0009FF8304670BD70B504460E4601F076F89C
:1038D0002546E11704EB11610912A02202EB410118
:1038E000C8B201F019F901F0AAF8E11704EB11616F
:1038F0000912A4EB0121C8B201F00EF901F09FF802
:10390000304601F009F901F09AF801F079F80A203F
:1039100001F0C0FD70BD2DE9F04105460E46174689
:10392000002409E0E20026FA02F2D1B22A1990B28C
:10393000FFF7C9FF601CC4B2BC42F3DBBDE8F081F5
:103940002DE9F04107460C460026002509E0360225
:103950003919491B491E88B2FFF789FF0644681CC4
:10396000C5B2A542F3DB3046BDE8F08110B5FF20BB
:10397000FFF77DFF0446552C01D1002010BD5521D5
:10398000FF20FFF7A0FFFF20FFF771FF0446552C33
:1039900001D10020F2E70120F0E770B506460C46A1
:1039A000154608E03046721C96B2FFF760FF04F837
:1039B000010B681E85B2002DF4D170BD70B50546AF
:1039C0000C46164606E021782846FFF77CFF681C67
:1039D00085B2641C301EA6F101018EB2F3D170BD18
:1039E000002100BF15E000F080021AB10122FE4B59
:1039F0001A6002E00022FC4B1A604206100E002200
:103A0000F94B0C3B1A600122F84BC3F880214A1C89
:103A1000D1B20829E7DB704770B5064600250024BF
:103A20000020F1490C390860F049C1F88C01EE49D9
:103A3000283108603046FFF7D3FF062001F046FD2D
:103A40000020EA49C1F88001012001F03FFD01207A
:103A5000E5490C3908600020E449C1F8800100BF45
:103A600013E04FF6FF7000EA44040020DE490C39F1
:103A700008600120DD49C1F88001DB488438006816
:103A800008B1601C84B2681CC5B2102DE9DB24119A
:103A90000120D54928310860204670BD2DE9FE433C
:103AA00080460027002406E04046FFF7B5FF2DF8CA
:103AB0001400601C84B2052CF6DB002416E0601CA8
:103AC00085B20FE03DF814003DF81510884207DD7F
:103AD0003DF814603DF815002DF814002DF8156020
:103AE000681C85B2052DEDDB601C84B2042CE6DB7E
:103AF0000027012405E03DF81400384487B2601C1B
:103B000084B2042CF7DB032097FBF0F086B230463A
:103B1000BDE8FE832DE9F04104460D46B448007827
:103B2000FFF7BCFF0646B3480078FFF7B7FF07462C
:103B300026802F800120BDE8F0817FB504460D4628
:103B400002A903A8FFF7E6FF064616B9002004B055
:103B500070BD694601A8FFF7DDFF06460EB90020DB
:103B6000F5E7BDF80400BDF80C10884206DCBDF88E
:103B70000C10BDF80400323081420CDBBDF80C00A3
:103B8000BDF80410884236DCBDF80410BDF80C0006
:103B9000323081422FDABDF80000BDF808108842AB
:103BA00006DCBDF80810BDF80000323081420CDBA5
:103BB000BDF80800BDF8001088421CDCBDF80010FC
:103BC000BDF808003230814215DABDF80C10BDF89E
:103BD0000420881800EBD071C1F34F012180BDF89B
:103BE0000810BDF80020881800EBD071C1F34F0118
:103BF00029800120ABE70020A9E7F8B504460D466F
:103C000016467D48068004F10D018AB2193988B242
:103C10002B462946FCF739FB05F10D0083B2193814
:103C200081B222462046FCF730FB6A1C91B2621C2E
:103C300090B2FEF787FA6A1C91B2621E90B2FEF74C
:103C400081FA6A1E91B2621C90B2FEF77BFA6A1E7C
:103C500091B2621E90B2FEF775FA00200623009022
:103C60006548028829462046FCF7D8FBF8BD70B5A8
:103C700004460D4616466048068029462046FEF753
:103C800061FA611C88B22946FEF75CFA681C81B2B1
:103C90002046FEF757FA6A1C91B2621C90B2FEF7FA
:103CA00051FA70BD2DE9F04104464F48883800684C
:103CB000002853D124B15149881EFFF73EFF3CE054
:103CC0004E49881EFFF739FFB8B34C491239B1F994
:103CD000200002F04FF8074648491239088A02F0DE
:103CE00061F88046454812388169404602F06EF816
:103CF0000646394601F0DEFE054602F01BF83F4954
:103D000012390882B1F9220002F034F807463B4923
:103D10001239488A02F046F8804638481238C1699C
:103D2000404602F053F80646394601F0C3FE054608
:103D300002F000F831491239488230481238007DCB
:103D400000F0800010BBC0202C49123908750846CD
:103D5000008A88810846408AC88117E027481238BF
:103D6000007D00F0800040B124481238007D20F032
:103D7000800022491239087508E000201F491239D5
:103D80008881C8814FF6FF70088248821B4812382C
:103D9000007D00F08000BDE8F08170B51749123950
:103DA0008869174902F012F8054601F0A7FF04469A
:103DB000042221462820FFF7AEFD10491239C869B8
:103DC0000F4902F003F8054601F098FF044604226B
:103DD00021462C20FFF79FFD08481238B0F920102B
:103DE000022230200EE000008C012242000022421C
:103DF0005C0000205D0000202E0000204600002016
:103E000020BCBE4CFFF787FDFB48B0F92210022210
:103E10003220FFF780FDF84890F824103420FFF797
:103E200052FD0A2421463520FFF74DFD70BD70B5C7
:103E30003520FFF71CFD04460A2C42D1042128201E
:103E4000FFF77EFD0446204601F094FF0546EB494E
:103E500001F092FEE849886104212C20FFF770FDF3
:103E60000446204601F086FF0546E44901F084FE41
:103E7000E149C86102213020FFF762FD00B2DE494E
:103E8000088402213220FFF75BFD00B2DA49488442
:103E90003420FFF7ECFCD84981F82400084690F85C
:103EA000240030B19020D6490870D020D549087040
:103EB00005E0D020D24908709020D2490870012036
:103EC00070BD0020FCE72DE9F84F04460D4617466B
:103ED0001E46DDE90CABDDE90A894FF47840CA499A
:103EE00008800120C9A310228C2100902820FCF713
:103EF0009BFC0120C6A310228C2100907820FCF7A7
:103F000093FC0120C3A31022A02100902820FCF7DD
:103F10008BFC0120C0A31022A02100907820FCF788
:103F200083FC0120BDA31022B42100902820FCF7BF
:103F30007BFC0120BAA31022B42100907820FCF76A
:103F400073FC0120B7A31022C82100902820FCF7A1
:103F50006BFC0120B4A31022C82100907820FCF74C
:103F600063FC0120B1A31022DC2100902820FCF783
:103F70005BFC1020042322468C2100904020FCF79B
:103F80008DFC102004232A468C2100909020FCF701
:103F900085FC102004233A46A02100904020FCF725
:103FA0007DFC102004233246A02100909020FCF7D5
:103FB00075FC102004234246B42100904020FCF7F9
:103FC0006DFC102004234A46B42100909020FCF799
:103FD00065FC102004235246C82100904020FCF7C5
:103FE0005DFC102004235A46C82100909020FCF765
:103FF00055FC102003230090DC2160200E9AFCF772
:104000004DFCBDE8F88F00B595B0002010900A90E7
:1040100010901F207C4908804FF6FF70854908806A
:10402000FEF79CF84FF47840774908804FF6FF7010
:10403000FEF794F800207449088001207EA3102226
:10404000282100900A20FCF7EFFB012081A3102219
:10405000382100900A20FCF7E7FB012084A31022FE
:10406000482100900A20FCF7DFFB012087A31022E3
:10407000582100900A20FCF7D7FB01208AA31022C8
:10408000682100900A20FCF7CFFB4FF478421421FE
:104090000846FFF7B2FD002057490875886154E2D1
:1040A0005548406809900120099988475248007D89
:1040B00000F0C00040287AD100200A904E48007DD0
:1040C00020F040004C4908750846018A11AA109852
:1040D00022F820104848418A109802EB8000418065
:1040E0001098401CC0B210901098012806D00228E9
:1040F00015D0032829D0042810D141E04FF6FF72D3
:1041000014210846FFF779FD6B480088143880B207
:104110004FF4784214210990FFF76FFDC8E3664819
:104120000088143880B24FF6FF7214210990FFF70F
:1041300064FD61484088143880B24FF478420146EB
:1041400009901420FFF759FDB2E35B48408814380A
:1041500080B24FF6FF72014609901420FFF74DFD23
:1041600055484088143880B2099053480088143864
:1041700080B24FF4784208900999FFF73EFD97E32B
:10418000BDF84400BDF84810401A0990002801DB32
:10419000099801E0099840420D90BDF8461011A819
:1041A000C088081A0990002802DB099802E080E321
:1041B000099840420C900D9840430D900C98404354
:1041C0000C90DDE90C100844059001F088FACDE967
:1041D000060101F025FACDE9080101F053FA80B299
:1041E0000F90BDF84C00BDF85010401A09900028FF
:1041F00064DB099864E061E03400002020BCBE4C20
:104200005C0000205D0000202E00002078313A0084
:1042100079313A0078323A0079323A0078333A000C
:1042200079333A0078343A0079343A006661632091
:1042300069733A0030000020506C65617365207529
:10424000736520746865207374796C757320636C72
:1042500069636B007468652063726F7373206F6E9F
:10426000207468652073637265656E2E000000001F
:104270005468652063726F73732077696C6C20617A
:104280006C77617973206D6F76650000756E746967
:104290006C207468652073637265656E2061646A62
:1042A0007573746D656E7400697320636F6D706CE7
:1042B000657465642E0000007C000020099840426F
:1042C0000D9011A84189C089081A0990002801DBC6
:1042D000099801E0099840420C900D9840430D90D8
:1042E0000C9840430C90DDE90C100844059001F057
:1042F000F6F9CDE9060101F093F9CDE9080101F0E5
:10430000C1F980B20E900E9801F04CFD09900F9803
:1043100001F048FD0890099901F02EFC0B900B98D4
:1043200001F09CFB4FF06632FE4BCDE9080101F035
:10433000E9F90DD30B9801F091FBFB4AFB4BCDE95A
:10434000080101F06FFA03D30F9808B10E98E8BB8B
:1043500000201090F6484088143880B20990F44844
:104360000088143880B24FF6FF7208900999FFF761
:1043700044FC4FF4784214210846FFF73EFCED4917
:104380000B9801F023FD089001F0D4FC80B211A934
:104390000990C989BDF8502011AB5B89CDE9013284
:1043A000CDE90310BDF84C00009011A8C08808901A
:1043B000BDF848000790BDF846000690BDF84400DF
:1043C000059006A90EC9FFF77EFD81E2FFE7BDF863
:1043D0004400BDF84C10401A0990002801DB0998F0
:1043E00001E0099840420D90BDF8461011A840899F
:1043F000081A0990002801DB099801E00998404259
:104400000C900D9840430D900C9840430C90DDE9C2
:104410000C100844059001F062F9CDE9060101F0A5
:10442000FFF8CDE9080101F02DF980B20F90BDF839
:104430004800BDF85010401A0990002801DB099887
:1044400001E0099840420D9011A8C188C089081A5E
:104450000990002801DB099801E0099840420C907E
:104460000D9840430D900C9840430C90DDE90C10E2
:104470000844059001F033F9CDE9060101F0D0F8C8
:10448000CDE9080101F0FEF880B20E900E9801F01F
:1044900089FC09900F9801F085FC0890099901F0BA
:1044A0006BFB0B900B9801F0D9FA4FF066329D4BE5
:1044B000CDE9080101F026F909D30B9801F0CEFAF5
:1044C000994A9A4BCDE9080101F0ACF93ED200209F
:1044D000109097484088143880B20990944800881A
:1044E000143880B24FF6FF7208900999FFF785FBE8
:1044F0004FF4784214210846FFF77FFB8D490B9853
:1045000001F064FC089001F015FC80B201460990AE
:1045100011A8C089BDF8502011AB5B89CDE90132EB
:10452000CDE90301BDF84C00009011A8C0880890A7
:10453000BDF848000790BDF846000690BDF844005D
:10454000059006A90EC9FFF7BEFCC1E1BDF8480001
:10455000BDF84C10401A0990002801DB099801E0D1
:10456000099840420D9011A8C1884089081A099005
:10457000002801DB099801E0099840420C900D9851
:1045800040430D900C9840430C90DDE90C1008441A
:10459000059001F0A4F8CDE9060101F041F8CDE95C
:1045A000080101F06FF880B20F90BDF84400BDF82B
:1045B0005010401A0990002801DB099801E0099881
:1045C00040420D90BDF8461011A8C089081A099004
:1045D000002801DB099801E0099840420C900D98F1
:1045E00040430D900C9840430C90DDE90C100844BA
:1045F000059001F074F8CDE9060101F011F8CDE95C
:10460000080101F03FF880B20E900E9801F0CAFB4D
:1046100009900F9801F0C6FB0890099901F0ACFAD7
:104620000B900B9801F01AFA4FF066323D4BCDE932
:10463000080101F067F809D30B9801F00FFA3A4A24
:104640003A4BCDE9080101F0EDF83ED20020109080
:1046500037484088143880B20990354800881438AB
:1046600080B24FF6FF7208900999FFF7C6FA4FF42F
:10467000784214210846FFF7C0FA2E490B9801F042
:10468000A5FB089001F056FB80B20246099011A8E4
:10469000C189BDF8500011AB5B89CDE90130CDE98E
:1046A0000312BDF84C00009011A8C0880890BDF816
:1046B00048000790BDF846000690BDF844000590FC
:1046C00006A90EC9FFF7FFFB02E1BDF84800BDF8DF
:1046D0004410401A079001F04DFB099014480088DF
:1046E0002838079001F046FB0890099901F044FA38
:1046F00011498861BDF84800BDF844100844049091
:1047000001F038FB05900C4880690146049005983B
:1047100001F05CFB079006480088059001F042FB21
:1047200006900BE06666EE3FCDCCCCCCCCCCF03F17
:104730007C0000200000C84234000020079901F0EE
:1047400011FC4FF08041089001F016FA099001F039
:10475000D5FA00B27B49088411A84089BDF84610FB
:10476000401A079001F006FB0990774840882838E6
:10477000079001F0FFFA0890099901F0FDF97149DD
:10478000C86111A84089BDF846100844049001F0A2
:10479000F1FA05906B48C06901460490059801F054
:1047A00015FB079068484088059001F0FBFA0690D9
:1047B000079901F0D7FB4FF08041089001F0DCF938
:1047C000099001F09BFA00B25E494884084680696E
:1047D000079001F093FA0890002801DB089801E0A7
:1047E0000898404202280DDC5648C069079001F045
:1047F00085FA0990002801DB099801E009984042F8
:1048000002283ADD002010904F484088143880B2CA
:1048100009904D480088143880B24FF6FF72089016
:104820000999FFF7EAF94FF4784214210846FFF797
:10483000E4F9012045A310221A2100902820FBF75B
:10484000F3FF404890F8240008B9012000E0002060
:104850003C4981F82400084690F8240030B19020AB
:104860003F490870D0203F49087005E0D0203C49FE
:10487000087090203B4908702AE01F203A490880C0
:104880004FF6FF70FDF76AFC012038A310226E215D
:1048900000902320FBF7C8FF4FF47A7000F0FAFD78
:1048A000FFF77BFA4FF6FF70FDF758FC15B000BD1F
:1048B00000BF0A2000F0EEFD0A98401C80B20A906A
:1048C0000A98B0F57A7F02DDFFF7B1FA02E000BF87
:1048D000FFF7E6BB00BF00BFE8E708B501211120E4
:1048E00000F05AFD42F20900ADF8000010208DF8EA
:1048F000030003208DF802006946224800F090FA78
:104900000620ADF8000048208DF8030069461D48D8
:1049100000F086FA0B491231881EFFF7FBF8FEF70C
:10492000A2FFFFF784FA08B1002008BD4FF6FF7020
:10493000FDF714FCFFF767FBFFF72FFAFFF777FA95
:104940000120F2E7340000207C0000205450204E6B
:1049500065656420726561646A7573742100000086
:104960005C0000205D0000202E000020546F756365
:10497000682053637265656E2041646A75737420A4
:104980004F4B21000010014008B50121102000F01C
:1049900003FD4FF4C050ADF8000010208DF8030067
:1049A00003208DF8020069468A4800F039FA012098
:1049B000894908608949C1F8AC0108BD10B585482E
:1049C000406820F47040834948600846406840F4DD
:1049D0004050486001208049091F08607F49C1F8A4
:1049E000B001042000F072FD00207B49091F08601F
:1049F000042000F06BFD00207849C1F8B00110BD23
:104A000010B57448406820F4704072494860084608
:104A1000406840F44050486000206F4908606F498A
:104A2000C1F8AC01042000F051FD01206A49086082
:104A30006A49C1F8AC01042000F048FD10BD10B572
:104A400000246448406820F4704062494860084689
:104A5000406840F40040486001205F49091F086039
:104A600000F034FD01205D49C1F8B00100F02EFDD9
:104A700007E0601CC4B2FA2C03DDFFF7C1FF012080
:104A800010BD5548843800680028F2D152490860AA
:104A900000BFF5E710B500204F4908604D48406859
:104AA00020F470404B4948600846406840F440504C
:104AB000486000204949C1F8AC01022000F006FD21
:104AC000012045490860022000F000FD0020434914
:104AD000C1F8B00110BD10B500203F4908603D4845
:104AE000406820F470403B4948600846406840F404
:104AF0004050486001203949C1F8AC01022000F063
:104B0000E5FC012034490860022000F0DFFC0020B1
:104B10003249C1F8B00110BD70B504462D48406857
:104B200020F470402B4948600846406840F44050EB
:104B30004860002028490860002517E0E009264960
:104B4000091F08606006040E022000F0BFFC01206F
:104B50002249C1F8B001022000F0B8FC00201E4933
:104B60000860022000F0B2FC681CC5B2082DE5DB2D
:104B700070BD70B5054600241648406820F47040AA
:104B8000144948600846406840F4004048600026E8
:104B900016E0002010490860022000F097FC012078
:104BA0000E49C1F8B0016006040E0B488438006855
:104BB00008B1601CC4B2012000F088FC701CC6B2B1
:104BC000082EE6DB15B9FFF786FF01E0FFF762FF6D
:104BD000204670BD00100140B00122420000224278
:104BE00008B50121042000F0D7FB4FF48070ADF828
:104BF000000010208DF8030003208DF802006946A4
:104C00000E4800F00DF94FF480710C4800F0B5F932
:104C10000121202000F0C0FB0420ADF8000010208E
:104C20008DF8030003208DF802006946044800F067
:104C3000F7F80421024800F0A0F908BD000801407F
:104C4000001401400948804709480047FEE7FEE795
:104C5000FEE7FEE7FEE7FEE7FEE7FEE7FEE7FEE72C
:104C600004480549054A064B70470000530F0008E9
:104C700031010008D0010020D0070020D00300201F
:104C8000D003002031490143314A1160704770B5AB
:104C9000002100230F22C47804B32D4C246804F4AF
:104CA000E064C4F5E064210AC1F10403CA40447819
:104CB00004FA03F18478144021430901254C067855
:104CC000A155047804F01F050124AC4005786D114E
:104CD000AD0005F1E025C5F8004109E0047804F0D5
:104CE0001F050124AC401C4D0678761145F826407E
:104CF00070BD1A4A0A400243154B1B1F1A607047C9
:104D000039B1134A121D12680243114B1B1D1A6060
:104D100006E00F4A121D126882430D4B1B1D1A60DC
:104D20007047042808D14FF0E021096941F00401DF
:104D30004FF0E022116107E04FF0E021096921F016
:104D400004014FF0E0221161704700000000FA05F5
:104D50000CED00E000E400E080E100E080FFFF1FD8
:104D600010B50446CC48844208D10121042000F04B
:104D70002DFB0021042000F029FB46E0C7488442B7
:104D800008D10121082000F021FB0021082000F0BB
:104D90001DFB3AE0C248844208D10121102000F0F6
:104DA00015FB0021102000F011FB2EE0BD488442CD
:104DB00008D10121202000F009FB0021202000F073
:104DC00005FB22E0B848844208D10121402000F0D0
:104DD000FDFA0021402000F0F9FA16E0B3488442C1
:104DE00008D10121802000F0F1FA0021802000F09C
:104DF000EDFA0AE0AE48844207D10121801500F0A7
:104E0000E5FA0021A01500F0E1FA10BD10B501216E
:104E1000084600F0DBFA0021012000F0D7FA10BDAF
:104E20002DE9F04102460025002600200023002441
:104E3000002791F803C00CF00F0591F803C00CF0A7
:104E4000100CBCF1000F03D091F802C04CEA05052C
:104E500091F800C0BCF1000F31D0146800202BE0A5
:104E60004FF0010C0CFA00F3B1F800C00CEA030695
:104E70009E4220D183004FF00F0C0CFA03F7BC4385
:104E800005FA03FC4CEA040491F803C0BCF1280FB6
:104E900006D14FF0010C0CFA00FCC2F814C00AE075
:104EA00091F803C0BCF1480F05D14FF0010C0CFA8A
:104EB00000FCC2F810C0401C0828D1D31460B1F81F
:104EC00000C0BCF1FF0F34DD546800202EE000F17B
:104ED000080C4FF0010808FA0CF3B1F800C00CEA16
:104EE00003069E4221D183004FF00F0C0CFA03F70A
:104EF000BC4305FA03FC4CEA040491F803C0BCF17E
:104F0000280F05D100F1080C08FA0CF8C2F814803B
:104F100091F803C0BCF1480F07D100F1080C4FF025
:104F2000010808FA0CF8C2F81080401C0828CED3FB
:104F30005460BDE8F0814FF6FF710180022181705D
:104F40000421C17070470246002093680B400BB1EA
:104F5000012000E0002070470146886880B2704759
:104F600002460020D3680B400BB1012000E0002076
:104F700070470146C86880B270470161704741615F
:104F800070470AB1016100E041617047C16070473C
:104F90004FF480320A438261816182618269826951
:104FA000704702460020434B18684FF68073184044
:104FB00040EA021008433F4B186070473E49C86101
:104FC0007047F0B50A46002300240021002500F0B8
:104FD0000046B6F1004F02D1364EF16901E0354E80
:104FE0007168C0F3034583B200F44016B6F5401F64
:104FF00008D121F070612F4E766826F070662D4F33
:105000007E6012E000F48016B6F5801F06D10326FC
:1050100006FA05F4A14341F0706106E0460D360141
:1050200003FA06F6B14341F0706122B1460D360134
:1050300003FA06F6314300F00046B6F1004F02D104
:105040001C4EF16101E01B4E7160F0BD30B50022D5
:105050008B071C0F0F2303FA04F2164B08338C1036
:1050600053F824309343134C08348D1044F8253002
:1050700023468C1053F824308C07240F00FA04F4D4
:1050800023430C4C08348D1044F8253030BD0A49B8
:10509000DC3108607047000000080140000C01404E
:1050A000001001400014014000180140001C0140A4
:1050B000002001400000014000002042DF4800685D
:1050C00040F00100DD49086008464068DC490840BE
:1050D000DA49486008460068DA490840D74908605C
:1050E0000846006820F4802008600846406820F4E4
:1050F000FE0048604FF41F0088607047CF49096880
:1051000021F48031CD4A11601146096821F48021D3
:105110001160B0F5803F03D0B0F5802F0ED106E0CE
:10512000C649096841F48031C44A116007E0C349A7
:10513000096841F4A021C14A116000E000BF00BF2E
:10514000704710B501460022002300204A11012AB1
:1051500002D1BA4C236806E0022A02D1B74C236A76
:1051600001E0B64C636A01F01F02012494401C4028
:105170000CB1012000E0002010BD38B500200090E7
:105180000024002500BF3120FFF7DBFF0546009813
:10519000401C00900098B0F5A06F01D0002DF2D017
:1051A0003120FFF7CEFF08B1012400E000242046A3
:1051B00038BD01460020A14A106820F0F80040EAFE
:1051C000C10010607047A049086070470246002087
:1051D0009A4B586820F47C1042EA01031843974B1D
:1051E0005860704798490866704701460020934A06
:1051F000506820F003000843506070478F484068B3
:1052000000F00C007047014600208C4A506820F0E6
:10521000F00008435060704701460020874A5068FC
:1052200020F4E06008435060704701460020834A44
:10523000506820F4605040EAC1005060704729B1C6
:105240007E4A527A02437D4B5A7204E07B4A527A7C
:1052500082437A4B5A7270477B49D8310860704755
:1052600001460020754A506820F4404008435060D1
:1052700070470021714A20321170704A82F8201064
:10528000012802D004280AD104E001216B4A20320F
:10529000117005E00521694A2032117000E000BF5D
:1052A00000BF70476949086070476449096A014353
:1052B000624A11627047654944390860704730B5E9
:1052C00000210022002400235C4D6D6805F00C01D4
:1052D00021B1042905D0082923D105E05C4D0560E2
:1052E00022E05B4D05601FE0544D6D6805F47012BF
:1052F000524D6D6805F48034022505EB92421CB9CD
:10530000544D554305600BE04C4D6D6805F4003578
:105310001DB1504D5543056002E04D4D55430560AC
:1053200002E04B4D056000BF00BF444D6D6805F0C5
:10533000F0010909484D6B5C0568DD4045603F4D53
:105340006D6805F4E061090A434D6B5C4568DD401A
:1053500085603A4D6D6805F46051C90A3E4D6B5C3D
:105360004568DD40C560354D6D6805F44041890BE9
:105370003A4D6B5CC568B5FBF3F5056130BD29B1ED
:105380002E4A526902432D4B5A6104E02B4A52695E
:1053900082432A4B5A61704729B1284A92690243D5
:1053A000264B9A6104E0254A92698243234B9A6115
:1053B000704729B1214AD2690243204BDA6104E0E7
:1053C0001E4AD26982431D4BDA61704729B11B4ADC
:1053D000D2680243194BDA6004E0184AD26882436B
:1053E000164BDA60704729B1144A12690243134B15
:1053F0001A6104E0114A12698243104B1A61704726
:1054000012494039086070470F49C86470470B491A
:10541000C87170470948406A40F080700749486287
:10542000704701460020054A92680A400AB10120EF
:1054300000E0002070470149887270470010024068
:105440000000FFF8FFFFF6FE0000424280044242E7
:1054500000127A0000093D00640000207400002062
:1054600010B504466FF00400FFF75BFCE11704EB96
:105470005171C1F3C701234A11701046007800EB47
:105480004001C1EBC0104FF6FF7101EAC0001E4998
:10549000088010BD01461C4A12884A434FF0E023A1
:1054A0005A6100229A6101221A6100BF4FF0E02286
:1054B000106900F001021AB100F48032002AF5D020
:1054C00000224FF0E0231A619A61704701460D4AAD
:1054D00012784A434FF0E0235A6100229A61012278
:1054E0001A6100BF4FF0E022106900F001021AB10A
:1054F00000F48032002AF5D000224FF0E0231A6138
:105500009A617047780000207A0000200B4910B59E
:10551000A1F17C020A4CC2E93712372106E000EB08
:10552000104342F82130074B00FB03400B1EA1F152
:105530000101F4DC10BD0120E8E7000008010020B3
:10554000E119D666CD0D010010B5431C02E010F83C
:10555000011B71B18107FAD14FF0013202C88C1AD8
:105560008C4314EAC211F9D0C01A0A0603D0C01E37
:1055700010BDC01A10BD0A0401D0801E10BD090262
:10558000FCD0401E10BD70477047704710B500F04A
:1055900009F8006810BD10B5044600F003F8046077
:1055A00010BD00000048704770010020004870479F
:1055B000700100207546FFF7F9FFAE460500694609
:1055C000534620F00700854618B020B5FFF748FB8A
:1055D000BDE820404FF000064FF000074FF00008F4
:1055E0004FF0000B21F00701AC46ACE8C009ACE875
:1055F000C009ACE8C009ACE8C0098D46704710B5D9
:105600000446AFF300802046BDE81040FAF7D9BD4C
:105610007047000001491820ABBEFEE726000200DB
:105620002DE9F04106460F4600F032F9041E0D4602
:1056300018BF0120284320F00040C0F17F6000F136
:10564000E040C00F0ED0301C18BF0120384320F0BE
:105650000040C0F17F6000F1E040C00F04BF0120B6
:10566000FFF799FF20462946BDE8F081491058BF51
:10567000C1F140415B1058BFC3F140438B42EFF38F
:10568000008070474FEA1153A3F58063D3F11E03E6
:10569000A8BFD3F1200C08DB4FF0004242EAC12240
:1056A00052EA505232FA03F0704709420BD4102BE1
:1056B000C4BF0020704703F5787CBCF1FF3F05D0E4
:1056C0004FF0FF3070474FF00000704770B500F0AA
:1056D00055F800BF4992248000207047F0E7B0FAE7
:1056E00080F310FA03F10AD0C3F11D0303F58063C0
:1056F0004FEA41504FEA035202EBD12170474FF07D
:105700000000704751EA030C17D41CF5801F58BFE6
:10571000BCF5801F00F10680994218BF704708BF92
:105720009042704707D711F5801F58BF13F5801FAF
:1057300019D499427047894270471CF5801F08D5DB
:10574000BCF5801FF7D58B4218BF704708BF824257
:1057500070474FF4001C1CEB410F38BF1CEB430F8C
:1057600001D28B42704770B500F008F892244900CE
:105770004FF000514FF08053FFF778BF0EF1020E4B
:105780002EF0030E5EF8046B364205D4012A43EB7B
:10579000030515F5001F12D8012841EB010C1CF57B
:1057A000001F0CD80ED14FEAD17C15F5001F0CEB71
:1057B0004C0C0CF1020C08BF4CEBD37C04E04FF016
:1057C000080C01E04FEAD37C0CEB4C0526FA05F6F9
:1057D00006F00706B6F1040C06D20EEB860CBDE807
:1057E00070404CF0010C6047DFE80CF0090B02023E
:1057F0004FF000414FF00000A1F5002170BD1946A7
:105800001046012851EB010418BFD4F5001484BFE1
:10581000002001F0004170BD0808A0F500114FEA1A
:105820003101704753EA010C17D41CF5801F58BF93
:10583000BCF5801F00F106808B4218BF704708BF7F
:105840008242704707D713F5801F58BF11F5801F9C
:1058500019D48B4270479B4270471CF5801F08D5B6
:10586000BCF5801FF7D5994218BF704708BF90421A
:1058700070474FF4001C1CEB430F38BF1CEB410F6B
:1058800001D2994270470FB40CBC03BCFFF76BBF49
:105890002DE9F04101F5801CBCF5001FC0F2C3806A
:1058A0004FEA115C21EA0C510CF1FD0C41F480111E
:1058B0005FEA5C0C0CF5C07C01D3400049413DA47B
:1058C000890241EA905187028E0E0A0CA45D04FB06
:1058D00004F602FB06F6C6F14046A4FB0662F60D8E
:1058E00046EA422606FB06F4A4FB01235242C3F11A
:1058F000404338BF5B1EA6FB02420024E6FB0324A4
:10590000D20B42EA4446A6FB0623A1FB02E2A3FB1C
:1059100007E4A4184FF0000252F10002E3FB014239
:105920006442C2F1404E38BFAEF1010EA6FB042323
:105930004FF00002E6FB0E32A2FB03464FF00004DC
:10594000B61954F10004E2FB0264A1FB06E6A4FBD5
:1059500007E816EB08064FF0000858F10008E4FBD2
:1059600001687642C8F1405838BFA8F10108A2FB8F
:1059700006E4A3FB08E52D194FF0000454F10004E0
:10598000E2FB0854A1FB05E6A7FB04E818EB0608B8
:105990004FF0000656F10006E1FB048618F12005E1
:1059A00056F10006A809A8F11B08B10908F03F0844
:1059B000B8F10A0F40EA86601CD901EB0C51BDE832
:1059C000F08100BFFCF5EEE8E2DDD8D3CFCBC7C352
:1059D000C0BDB9B6B4B1AEACA9A7A5A3A19F9D9B0C
:1059E0009A9896959392908F8D8C8B8988878685CF
:1059F00084838281A0FB006800FB01F208EB42086F
:105A0000B8EB872807D5341858EB0104D5D5401CCE
:105A100051F10001D1E7341A78EB0104CDD4401ED6
:105A200071F10001C9E75FEA4C0C5FEA9C5C0DD1A3
:105A300005D34FF0000001F00041BDE8F081BDE862
:105A4000F04170B5FFF79AFE6DDBFFBEBDE8F04197
:105A50004FF00000004970470000F87F43004FEA14
:105A6000D30C4FEA3C0C43401FBF40070CF1605180
:105A700013F0FE4F70471CF0006F03D100200CF0B4
:105A8000004170470CF0004343EA507010B540EA03
:105A9000CC0000F01CFA00BF000000924FEA0001A9
:105AA000FFF7BABE4FF000414FF00000A1F5002112
:105AB0007047000090EA010F48BF81F0004100F1FB
:105AC0005882421A3CBF801A89184FEAD0524FF0D0
:105AD0007F4C1CEA410FA2EBD15318BF9CEA026F26
